{
	"contracts/MinHashCameContract_v3.sol": {
		"MinHashGameContract": {
			"abi": [
				{
					"inputs": [
						{
							"internalType": "address",
							"name": "_luckyTokenAddress",
							"type": "address"
						}
					],
					"stateMutability": "nonpayable",
					"type": "constructor"
				},
				{
					"inputs": [
						{
							"internalType": "address",
							"name": "target",
							"type": "address"
						}
					],
					"name": "AddressEmptyCode",
					"type": "error"
				},
				{
					"inputs": [
						{
							"internalType": "address",
							"name": "account",
							"type": "address"
						}
					],
					"name": "AddressInsufficientBalance",
					"type": "error"
				},
				{
					"inputs": [],
					"name": "FailedInnerCall",
					"type": "error"
				},
				{
					"inputs": [
						{
							"internalType": "address",
							"name": "token",
							"type": "address"
						}
					],
					"name": "SafeERC20FailedOperation",
					"type": "error"
				},
				{
					"inputs": [],
					"name": "claimReward",
					"outputs": [],
					"stateMutability": "nonpayable",
					"type": "function"
				},
				{
					"inputs": [],
					"name": "currentMinAddress",
					"outputs": [
						{
							"internalType": "address",
							"name": "",
							"type": "address"
						}
					],
					"stateMutability": "view",
					"type": "function"
				},
				{
					"inputs": [],
					"name": "currentMinHash",
					"outputs": [
						{
							"internalType": "uint256",
							"name": "",
							"type": "uint256"
						}
					],
					"stateMutability": "view",
					"type": "function"
				},
				{
					"inputs": [
						{
							"internalType": "uint256",
							"name": "amount",
							"type": "uint256"
						}
					],
					"name": "depositTokens",
					"outputs": [],
					"stateMutability": "nonpayable",
					"type": "function"
				},
				{
					"inputs": [],
					"name": "endGame",
					"outputs": [],
					"stateMutability": "nonpayable",
					"type": "function"
				},
				{
					"inputs": [],
					"name": "epochId",
					"outputs": [
						{
							"internalType": "uint256",
							"name": "",
							"type": "uint256"
						}
					],
					"stateMutability": "view",
					"type": "function"
				},
				{
					"inputs": [],
					"name": "gameActive",
					"outputs": [
						{
							"internalType": "bool",
							"name": "",
							"type": "bool"
						}
					],
					"stateMutability": "view",
					"type": "function"
				},
				{
					"inputs": [],
					"name": "gameDuration",
					"outputs": [
						{
							"internalType": "uint256",
							"name": "",
							"type": "uint256"
						}
					],
					"stateMutability": "view",
					"type": "function"
				},
				{
					"inputs": [],
					"name": "gameStartBlock",
					"outputs": [
						{
							"internalType": "uint256",
							"name": "",
							"type": "uint256"
						}
					],
					"stateMutability": "view",
					"type": "function"
				},
				{
					"inputs": [],
					"name": "getContractBalance",
					"outputs": [
						{
							"internalType": "uint256",
							"name": "",
							"type": "uint256"
						}
					],
					"stateMutability": "view",
					"type": "function"
				},
				{
					"inputs": [],
					"name": "getCurrentEpoch",
					"outputs": [
						{
							"internalType": "uint256",
							"name": "",
							"type": "uint256"
						}
					],
					"stateMutability": "view",
					"type": "function"
				},
				{
					"inputs": [],
					"name": "getCurrentMinAddress",
					"outputs": [
						{
							"internalType": "address",
							"name": "",
							"type": "address"
						}
					],
					"stateMutability": "view",
					"type": "function"
				},
				{
					"inputs": [],
					"name": "getCurrentMinHash",
					"outputs": [
						{
							"internalType": "uint256",
							"name": "",
							"type": "uint256"
						}
					],
					"stateMutability": "view",
					"type": "function"
				},
				{
					"inputs": [],
					"name": "getReward",
					"outputs": [
						{
							"internalType": "uint256",
							"name": "",
							"type": "uint256"
						}
					],
					"stateMutability": "view",
					"type": "function"
				},
				{
					"inputs": [],
					"name": "getWinner",
					"outputs": [
						{
							"internalType": "address",
							"name": "",
							"type": "address"
						}
					],
					"stateMutability": "view",
					"type": "function"
				},
				{
					"inputs": [],
					"name": "iambestone",
					"outputs": [],
					"stateMutability": "nonpayable",
					"type": "function"
				},
				{
					"inputs": [],
					"name": "isRewardClaimed",
					"outputs": [
						{
							"internalType": "bool",
							"name": "",
							"type": "bool"
						}
					],
					"stateMutability": "view",
					"type": "function"
				},
				{
					"inputs": [],
					"name": "luckyToken",
					"outputs": [
						{
							"internalType": "contract IERC20",
							"name": "",
							"type": "address"
						}
					],
					"stateMutability": "view",
					"type": "function"
				},
				{
					"inputs": [],
					"name": "owner",
					"outputs": [
						{
							"internalType": "address",
							"name": "",
							"type": "address"
						}
					],
					"stateMutability": "view",
					"type": "function"
				},
				{
					"inputs": [],
					"name": "reward",
					"outputs": [
						{
							"internalType": "uint256",
							"name": "",
							"type": "uint256"
						}
					],
					"stateMutability": "view",
					"type": "function"
				},
				{
					"inputs": [],
					"name": "rewardClaimed",
					"outputs": [
						{
							"internalType": "bool",
							"name": "",
							"type": "bool"
						}
					],
					"stateMutability": "view",
					"type": "function"
				},
				{
					"inputs": [
						{
							"internalType": "uint256",
							"name": "_gameDuration",
							"type": "uint256"
						},
						{
							"internalType": "uint256",
							"name": "_reward",
							"type": "uint256"
						}
					],
					"name": "startNewGame",
					"outputs": [],
					"stateMutability": "nonpayable",
					"type": "function"
				},
				{
					"inputs": [],
					"name": "winner",
					"outputs": [
						{
							"internalType": "address",
							"name": "",
							"type": "address"
						}
					],
					"stateMutability": "view",
					"type": "function"
				},
				{
					"inputs": [
						{
							"internalType": "uint256",
							"name": "amount",
							"type": "uint256"
						}
					],
					"name": "withdrawTokens",
					"outputs": [],
					"stateMutability": "nonpayable",
					"type": "function"
				}
			],
			"devdoc": {
				"errors": {
					"AddressEmptyCode(address)": [
						{
							"details": "There's no code at `target` (it is not a contract)."
						}
					],
					"AddressInsufficientBalance(address)": [
						{
							"details": "The ETH balance of the account is not enough to perform the operation."
						}
					],
					"FailedInnerCall()": [
						{
							"details": "A call to an address target failed. The target may have reverted."
						}
					],
					"SafeERC20FailedOperation(address)": [
						{
							"details": "An operation with an ERC20 token failed."
						}
					]
				},
				"kind": "dev",
				"methods": {},
				"version": 1
			},
			"evm": {
				"assembly": "    /* \"contracts/MinHashCameContract_v3.sol\":258:4177  contract MinHashGameContract {... */\n  mstore(0x40, 0x80)\n    /* \"contracts/MinHashCameContract_v3.sol\":923:1050  constructor(address _luckyTokenAddress) {... */\n  callvalue\n  dup1\n  iszero\n  tag_1\n  jumpi\n  0x00\n  dup1\n  revert\ntag_1:\n  pop\n  mload(0x40)\n  sub(codesize, bytecodeSize)\n  dup1\n  bytecodeSize\n  dup4\n  codecopy\n  dup2\n  dup2\n  add\n  0x40\n  mstore\n  dup2\n  add\n  swap1\n  tag_2\n  swap2\n  swap1\n  tag_3\n  jump\t// in\ntag_2:\n    /* \"contracts/MinHashCameContract_v3.sol\":982:992  msg.sender */\n  caller\n    /* \"contracts/MinHashCameContract_v3.sol\":974:979  owner */\n  0x00\n  dup1\n    /* \"contracts/MinHashCameContract_v3.sol\":974:992  owner = msg.sender */\n  0x0100\n  exp\n  dup2\n  sload\n  dup2\n  0xffffffffffffffffffffffffffffffffffffffff\n  mul\n  not\n  and\n  swap1\n  dup4\n  0xffffffffffffffffffffffffffffffffffffffff\n  and\n  mul\n  or\n  swap1\n  sstore\n  pop\n    /* \"contracts/MinHashCameContract_v3.sol\":1023:1041  _luckyTokenAddress */\n  dup1\n    /* \"contracts/MinHashCameContract_v3.sol\":1003:1013  luckyToken */\n  0x08\n  0x01\n    /* \"contracts/MinHashCameContract_v3.sol\":1003:1042  luckyToken = IERC20(_luckyTokenAddress) */\n  0x0100\n  exp\n  dup2\n  sload\n  dup2\n  0xffffffffffffffffffffffffffffffffffffffff\n  mul\n  not\n  and\n  swap1\n  dup4\n  0xffffffffffffffffffffffffffffffffffffffff\n  and\n  mul\n  or\n  swap1\n  sstore\n  pop\n    /* \"contracts/MinHashCameContract_v3.sol\":923:1050  constructor(address _luckyTokenAddress) {... */\n  pop\n    /* \"contracts/MinHashCameContract_v3.sol\":258:4177  contract MinHashGameContract {... */\n  jump(tag_6)\n    /* \"#utility.yul\":88:205   */\ntag_8:\n    /* \"#utility.yul\":197:198   */\n  0x00\n    /* \"#utility.yul\":194:195   */\n  dup1\n    /* \"#utility.yul\":187:199   */\n  revert\n    /* \"#utility.yul\":334:460   */\ntag_10:\n    /* \"#utility.yul\":371:378   */\n  0x00\n    /* \"#utility.yul\":411:453   */\n  0xffffffffffffffffffffffffffffffffffffffff\n    /* \"#utility.yul\":404:409   */\n  dup3\n    /* \"#utility.yul\":400:454   */\n  and\n    /* \"#utility.yul\":389:454   */\n  swap1\n  pop\n    /* \"#utility.yul\":334:460   */\n  swap2\n  swap1\n  pop\n  jump\t// out\n    /* \"#utility.yul\":466:562   */\ntag_11:\n    /* \"#utility.yul\":503:510   */\n  0x00\n    /* \"#utility.yul\":532:556   */\n  tag_20\n    /* \"#utility.yul\":550:555   */\n  dup3\n    /* \"#utility.yul\":532:556   */\n  tag_10\n  jump\t// in\ntag_20:\n    /* \"#utility.yul\":521:556   */\n  swap1\n  pop\n    /* \"#utility.yul\":466:562   */\n  swap2\n  swap1\n  pop\n  jump\t// out\n    /* \"#utility.yul\":568:690   */\ntag_12:\n    /* \"#utility.yul\":641:665   */\n  tag_22\n    /* \"#utility.yul\":659:664   */\n  dup2\n    /* \"#utility.yul\":641:665   */\n  tag_11\n  jump\t// in\ntag_22:\n    /* \"#utility.yul\":634:639   */\n  dup2\n    /* \"#utility.yul\":631:666   */\n  eq\n    /* \"#utility.yul\":621:684   */\n  tag_23\n  jumpi\n    /* \"#utility.yul\":680:681   */\n  0x00\n    /* \"#utility.yul\":677:678   */\n  dup1\n    /* \"#utility.yul\":670:682   */\n  revert\n    /* \"#utility.yul\":621:684   */\ntag_23:\n    /* \"#utility.yul\":568:690   */\n  pop\n  jump\t// out\n    /* \"#utility.yul\":696:839   */\ntag_13:\n    /* \"#utility.yul\":753:758   */\n  0x00\n    /* \"#utility.yul\":784:790   */\n  dup2\n    /* \"#utility.yul\":778:791   */\n  mload\n    /* \"#utility.yul\":769:791   */\n  swap1\n  pop\n    /* \"#utility.yul\":800:833   */\n  tag_25\n    /* \"#utility.yul\":827:832   */\n  dup2\n    /* \"#utility.yul\":800:833   */\n  tag_12\n  jump\t// in\ntag_25:\n    /* \"#utility.yul\":696:839   */\n  swap3\n  swap2\n  pop\n  pop\n  jump\t// out\n    /* \"#utility.yul\":845:1196   */\ntag_3:\n    /* \"#utility.yul\":915:921   */\n  0x00\n    /* \"#utility.yul\":964:966   */\n  0x20\n    /* \"#utility.yul\":952:961   */\n  dup3\n    /* \"#utility.yul\":943:950   */\n  dup5\n    /* \"#utility.yul\":939:962   */\n  sub\n    /* \"#utility.yul\":935:967   */\n  slt\n    /* \"#utility.yul\":932:1051   */\n  iszero\n  tag_27\n  jumpi\n    /* \"#utility.yul\":970:1049   */\n  tag_28\n  tag_8\n  jump\t// in\ntag_28:\n    /* \"#utility.yul\":932:1051   */\ntag_27:\n    /* \"#utility.yul\":1090:1091   */\n  0x00\n    /* \"#utility.yul\":1115:1179   */\n  tag_29\n    /* \"#utility.yul\":1171:1178   */\n  dup5\n    /* \"#utility.yul\":1162:1168   */\n  dup3\n    /* \"#utility.yul\":1151:1160   */\n  dup6\n    /* \"#utility.yul\":1147:1169   */\n  add\n    /* \"#utility.yul\":1115:1179   */\n  tag_13\n  jump\t// in\ntag_29:\n    /* \"#utility.yul\":1105:1179   */\n  swap2\n  pop\n    /* \"#utility.yul\":1061:1189   */\n  pop\n    /* \"#utility.yul\":845:1196   */\n  swap3\n  swap2\n  pop\n  pop\n  jump\t// out\n    /* \"contracts/MinHashCameContract_v3.sol\":258:4177  contract MinHashGameContract {... */\ntag_6:\n  dataSize(sub_0)\n  dup1\n  dataOffset(sub_0)\n  0x00\n  codecopy\n  0x00\n  return\nstop\n\nsub_0: assembly {\n        /* \"contracts/MinHashCameContract_v3.sol\":258:4177  contract MinHashGameContract {... */\n      mstore(0x40, 0x80)\n      callvalue\n      dup1\n      iszero\n      tag_1\n      jumpi\n      0x00\n      dup1\n      revert\n    tag_1:\n      pop\n      jumpi(tag_2, lt(calldatasize, 0x04))\n      shr(0xe0, calldataload(0x00))\n      dup1\n      0xaa9bbc0c\n      gt\n      tag_27\n      jumpi\n      dup1\n      0xdfbf53ae\n      gt\n      tag_28\n      jumpi\n      dup1\n      0xdfbf53ae\n      eq\n      tag_21\n      jumpi\n      dup1\n      0xe1f0c376\n      eq\n      tag_22\n      jumpi\n      dup1\n      0xefc29372\n      eq\n      tag_23\n      jumpi\n      dup1\n      0xf020044f\n      eq\n      tag_24\n      jumpi\n      dup1\n      0xf30d9470\n      eq\n      tag_25\n      jumpi\n      dup1\n      0xfd636322\n      eq\n      tag_26\n      jumpi\n      jump(tag_2)\n    tag_28:\n      dup1\n      0xaa9bbc0c\n      eq\n      tag_15\n      jumpi\n      dup1\n      0xb88a802f\n      eq\n      tag_16\n      jumpi\n      dup1\n      0xb97dd9e2\n      eq\n      tag_17\n      jumpi\n      dup1\n      0xc010ce68\n      eq\n      tag_18\n      jumpi\n      dup1\n      0xd94504b9\n      eq\n      tag_19\n      jumpi\n      dup1\n      0xdd49756e\n      eq\n      tag_20\n      jumpi\n      jump(tag_2)\n    tag_27:\n      dup1\n      0x56bf8741\n      gt\n      tag_29\n      jumpi\n      dup1\n      0x56bf8741\n      eq\n      tag_9\n      jumpi\n      dup1\n      0x58830d6c\n      eq\n      tag_10\n      jumpi\n      dup1\n      0x6cbc2ded\n      eq\n      tag_11\n      jumpi\n      dup1\n      0x6f9fb98a\n      eq\n      tag_12\n      jumpi\n      dup1\n      0x8da5cb5b\n      eq\n      tag_13\n      jumpi\n      dup1\n      0x8e7ea5b2\n      eq\n      tag_14\n      jumpi\n      jump(tag_2)\n    tag_29:\n      dup1\n      0x01b62b78\n      eq\n      tag_3\n      jumpi\n      dup1\n      0x0d7d5599\n      eq\n      tag_4\n      jumpi\n      dup1\n      0x228cb733\n      eq\n      tag_5\n      jumpi\n      dup1\n      0x315a095d\n      eq\n      tag_6\n      jumpi\n      dup1\n      0x3804c73d\n      eq\n      tag_7\n      jumpi\n      dup1\n      0x3d18b912\n      eq\n      tag_8\n      jumpi\n    tag_2:\n      0x00\n      dup1\n      revert\n        /* \"contracts/MinHashCameContract_v3.sol\":615:640  bool public rewardClaimed */\n    tag_3:\n      tag_30\n      tag_31\n      jump\t// in\n    tag_30:\n      mload(0x40)\n      tag_32\n      swap2\n      swap1\n      tag_33\n      jump\t// in\n    tag_32:\n      mload(0x40)\n      dup1\n      swap2\n      sub\n      swap1\n      return\n        /* \"contracts/MinHashCameContract_v3.sol\":455:487  address public currentMinAddress */\n    tag_4:\n      tag_34\n      tag_35\n      jump\t// in\n    tag_34:\n      mload(0x40)\n      tag_36\n      swap2\n      swap1\n      tag_37\n      jump\t// in\n    tag_36:\n      mload(0x40)\n      dup1\n      swap2\n      sub\n      swap1\n      return\n        /* \"contracts/MinHashCameContract_v3.sol\":587:608  uint256 public reward */\n    tag_5:\n      tag_38\n      tag_39\n      jump\t// in\n    tag_38:\n      mload(0x40)\n      tag_40\n      swap2\n      swap1\n      tag_41\n      jump\t// in\n    tag_40:\n      mload(0x40)\n      dup1\n      swap2\n      sub\n      swap1\n      return\n        /* \"contracts/MinHashCameContract_v3.sol\":3062:3181  function withdrawTokens(uint256 amount) public onlyOwner {... */\n    tag_6:\n      tag_42\n      0x04\n      dup1\n      calldatasize\n      sub\n      dup2\n      add\n      swap1\n      tag_43\n      swap2\n      swap1\n      tag_44\n      jump\t// in\n    tag_43:\n      tag_45\n      jump\t// in\n    tag_42:\n      stop\n        /* \"contracts/MinHashCameContract_v3.sol\":385:414  uint256 public gameStartBlock */\n    tag_7:\n      tag_46\n      tag_47\n      jump\t// in\n    tag_46:\n      mload(0x40)\n      tag_48\n      swap2\n      swap1\n      tag_41\n      jump\t// in\n    tag_48:\n      mload(0x40)\n      dup1\n      swap2\n      sub\n      swap1\n      return\n        /* \"contracts/MinHashCameContract_v3.sol\":3795:3878  function getReward() public view returns (uint256) {... */\n    tag_8:\n      tag_49\n      tag_50\n      jump\t// in\n    tag_49:\n      mload(0x40)\n      tag_51\n      swap2\n      swap1\n      tag_41\n      jump\t// in\n    tag_51:\n      mload(0x40)\n      dup1\n      swap2\n      sub\n      swap1\n      return\n        /* \"contracts/MinHashCameContract_v3.sol\":653:677  IERC20 public luckyToken */\n    tag_9:\n      tag_52\n      tag_53\n      jump\t// in\n    tag_52:\n      mload(0x40)\n      tag_54\n      swap2\n      swap1\n      tag_55\n      jump\t// in\n    tag_54:\n      mload(0x40)\n      dup1\n      swap2\n      sub\n      swap1\n      return\n        /* \"contracts/MinHashCameContract_v3.sol\":494:523  uint256 public currentMinHash */\n    tag_10:\n      tag_56\n      tag_57\n      jump\t// in\n    tag_56:\n      mload(0x40)\n      tag_58\n      swap2\n      swap1\n      tag_41\n      jump\t// in\n    tag_58:\n      mload(0x40)\n      dup1\n      swap2\n      sub\n      swap1\n      return\n        /* \"contracts/MinHashCameContract_v3.sol\":2202:2465  function endGame() public onlyOwner {... */\n    tag_11:\n      tag_59\n      tag_60\n      jump\t// in\n    tag_59:\n      stop\n        /* \"contracts/MinHashCameContract_v3.sol\":4061:4174  function getContractBalance() public view returns (uint256) {... */\n    tag_12:\n      tag_61\n      tag_62\n      jump\t// in\n    tag_61:\n      mload(0x40)\n      tag_63\n      swap2\n      swap1\n      tag_41\n      jump\t// in\n    tag_63:\n      mload(0x40)\n      dup1\n      swap2\n      sub\n      swap1\n      return\n        /* \"contracts/MinHashCameContract_v3.sol\":329:349  address public owner */\n    tag_13:\n      tag_64\n      tag_65\n      jump\t// in\n    tag_64:\n      mload(0x40)\n      tag_66\n      swap2\n      swap1\n      tag_37\n      jump\t// in\n    tag_66:\n      mload(0x40)\n      dup1\n      swap2\n      sub\n      swap1\n      return\n        /* \"contracts/MinHashCameContract_v3.sol\":3665:3748  function getWinner() public view returns (address) {... */\n    tag_14:\n      tag_67\n      tag_68\n      jump\t// in\n    tag_67:\n      mload(0x40)\n      tag_69\n      swap2\n      swap1\n      tag_37\n      jump\t// in\n    tag_69:\n      mload(0x40)\n      dup1\n      swap2\n      sub\n      swap1\n      return\n        /* \"contracts/MinHashCameContract_v3.sol\":356:378  uint256 public epochId */\n    tag_15:\n      tag_70\n      tag_71\n      jump\t// in\n    tag_70:\n      mload(0x40)\n      tag_72\n      swap2\n      swap1\n      tag_41\n      jump\t// in\n    tag_72:\n      mload(0x40)\n      dup1\n      swap2\n      sub\n      swap1\n      return\n        /* \"contracts/MinHashCameContract_v3.sol\":2492:2808  function claimReward() public {... */\n    tag_16:\n      tag_73\n      tag_74\n      jump\t// in\n    tag_73:\n      stop\n        /* \"contracts/MinHashCameContract_v3.sol\":3531:3621  function getCurrentEpoch() public view returns (uint256) {... */\n    tag_17:\n      tag_75\n      tag_76\n      jump\t// in\n    tag_75:\n      mload(0x40)\n      tag_77\n      swap2\n      swap1\n      tag_41\n      jump\t// in\n    tag_77:\n      mload(0x40)\n      dup1\n      swap2\n      sub\n      swap1\n      return\n        /* \"contracts/MinHashCameContract_v3.sol\":3931:4024  function isRewardClaimed() public view returns (bool) {... */\n    tag_18:\n      tag_78\n      tag_79\n      jump\t// in\n    tag_78:\n      mload(0x40)\n      tag_80\n      swap2\n      swap1\n      tag_33\n      jump\t// in\n    tag_80:\n      mload(0x40)\n      dup1\n      swap2\n      sub\n      swap1\n      return\n        /* \"contracts/MinHashCameContract_v3.sol\":3385:3484  function getCurrentMinHash() public view returns (uint256) {... */\n    tag_19:\n      tag_81\n      tag_82\n      jump\t// in\n    tag_81:\n      mload(0x40)\n      tag_83\n      swap2\n      swap1\n      tag_41\n      jump\t// in\n    tag_83:\n      mload(0x40)\n      dup1\n      swap2\n      sub\n      swap1\n      return\n        /* \"contracts/MinHashCameContract_v3.sol\":2862:2999  function depositTokens(uint256 amount) public onlyOwner {... */\n    tag_20:\n      tag_84\n      0x04\n      dup1\n      calldatasize\n      sub\n      dup2\n      add\n      swap1\n      tag_85\n      swap2\n      swap1\n      tag_44\n      jump\t// in\n    tag_85:\n      tag_86\n      jump\t// in\n    tag_84:\n      stop\n        /* \"contracts/MinHashCameContract_v3.sol\":559:580  address public winner */\n    tag_21:\n      tag_87\n      tag_88\n      jump\t// in\n    tag_87:\n      mload(0x40)\n      tag_89\n      swap2\n      swap1\n      tag_37\n      jump\t// in\n    tag_89:\n      mload(0x40)\n      dup1\n      swap2\n      sub\n      swap1\n      return\n        /* \"contracts/MinHashCameContract_v3.sol\":421:448  uint256 public gameDuration */\n    tag_22:\n      tag_90\n      tag_91\n      jump\t// in\n    tag_90:\n      mload(0x40)\n      tag_92\n      swap2\n      swap1\n      tag_41\n      jump\t// in\n    tag_92:\n      mload(0x40)\n      dup1\n      swap2\n      sub\n      swap1\n      return\n        /* \"contracts/MinHashCameContract_v3.sol\":3232:3337  function getCurrentMinAddress() public view returns (address) {... */\n    tag_23:\n      tag_93\n      tag_94\n      jump\t// in\n    tag_93:\n      mload(0x40)\n      tag_95\n      swap2\n      swap1\n      tag_37\n      jump\t// in\n    tag_95:\n      mload(0x40)\n      dup1\n      swap2\n      sub\n      swap1\n      return\n        /* \"contracts/MinHashCameContract_v3.sol\":530:552  bool public gameActive */\n    tag_24:\n      tag_96\n      tag_97\n      jump\t// in\n    tag_96:\n      mload(0x40)\n      tag_98\n      swap2\n      swap1\n      tag_33\n      jump\t// in\n    tag_98:\n      mload(0x40)\n      dup1\n      swap2\n      sub\n      swap1\n      return\n        /* \"contracts/MinHashCameContract_v3.sol\":1062:1768  function startNewGame(uint256 _gameDuration, uint256 _reward) public onlyOwner {... */\n    tag_25:\n      tag_99\n      0x04\n      dup1\n      calldatasize\n      sub\n      dup2\n      add\n      swap1\n      tag_100\n      swap2\n      swap1\n      tag_101\n      jump\t// in\n    tag_100:\n      tag_102\n      jump\t// in\n    tag_99:\n      stop\n        /* \"contracts/MinHashCameContract_v3.sol\":1776:2194  function iambestone() public gameIsActive {... */\n    tag_26:\n      tag_103\n      tag_104\n      jump\t// in\n    tag_103:\n      stop\n        /* \"contracts/MinHashCameContract_v3.sol\":615:640  bool public rewardClaimed */\n    tag_31:\n      0x08\n      0x00\n      swap1\n      sload\n      swap1\n      0x0100\n      exp\n      swap1\n      div\n      0xff\n      and\n      dup2\n      jump\t// out\n        /* \"contracts/MinHashCameContract_v3.sol\":455:487  address public currentMinAddress */\n    tag_35:\n      0x04\n      0x00\n      swap1\n      sload\n      swap1\n      0x0100\n      exp\n      swap1\n      div\n      0xffffffffffffffffffffffffffffffffffffffff\n      and\n      dup2\n      jump\t// out\n        /* \"contracts/MinHashCameContract_v3.sol\":587:608  uint256 public reward */\n    tag_39:\n      sload(0x07)\n      dup2\n      jump\t// out\n        /* \"contracts/MinHashCameContract_v3.sol\":3062:3181  function withdrawTokens(uint256 amount) public onlyOwner {... */\n    tag_45:\n        /* \"contracts/MinHashCameContract_v3.sol\":744:749  owner */\n      0x00\n      dup1\n      sload\n      swap1\n      0x0100\n      exp\n      swap1\n      div\n      0xffffffffffffffffffffffffffffffffffffffff\n      and\n        /* \"contracts/MinHashCameContract_v3.sol\":730:749  msg.sender == owner */\n      0xffffffffffffffffffffffffffffffffffffffff\n      and\n        /* \"contracts/MinHashCameContract_v3.sol\":730:740  msg.sender */\n      caller\n        /* \"contracts/MinHashCameContract_v3.sol\":730:749  msg.sender == owner */\n      0xffffffffffffffffffffffffffffffffffffffff\n      and\n      eq\n        /* \"contracts/MinHashCameContract_v3.sol\":722:787  require(msg.sender == owner, \"Only owner can call this function\") */\n      tag_106\n      jumpi\n      mload(0x40)\n      0x08c379a000000000000000000000000000000000000000000000000000000000\n      dup2\n      mstore\n      0x04\n      add\n      tag_107\n      swap1\n      tag_108\n      jump\t// in\n    tag_107:\n      mload(0x40)\n      dup1\n      swap2\n      sub\n      swap1\n      revert\n    tag_106:\n        /* \"contracts/MinHashCameContract_v3.sol\":3130:3173  luckyToken.safeTransfer(msg.sender, amount) */\n      tag_110\n        /* \"contracts/MinHashCameContract_v3.sol\":3154:3164  msg.sender */\n      caller\n        /* \"contracts/MinHashCameContract_v3.sol\":3166:3172  amount */\n      dup3\n        /* \"contracts/MinHashCameContract_v3.sol\":3130:3140  luckyToken */\n      0x08\n      0x01\n      swap1\n      sload\n      swap1\n      0x0100\n      exp\n      swap1\n      div\n      0xffffffffffffffffffffffffffffffffffffffff\n      and\n        /* \"contracts/MinHashCameContract_v3.sol\":3130:3153  luckyToken.safeTransfer */\n      0xffffffffffffffffffffffffffffffffffffffff\n      and\n      tag_111\n      swap1\n        /* \"contracts/MinHashCameContract_v3.sol\":3130:3173  luckyToken.safeTransfer(msg.sender, amount) */\n      swap3\n      swap2\n      swap1\n      0xffffffff\n      and\n      jump\t// in\n    tag_110:\n        /* \"contracts/MinHashCameContract_v3.sol\":3062:3181  function withdrawTokens(uint256 amount) public onlyOwner {... */\n      pop\n      jump\t// out\n        /* \"contracts/MinHashCameContract_v3.sol\":385:414  uint256 public gameStartBlock */\n    tag_47:\n      sload(0x02)\n      dup2\n      jump\t// out\n        /* \"contracts/MinHashCameContract_v3.sol\":3795:3878  function getReward() public view returns (uint256) {... */\n    tag_50:\n        /* \"contracts/MinHashCameContract_v3.sol\":3837:3844  uint256 */\n      0x00\n        /* \"contracts/MinHashCameContract_v3.sol\":3864:3870  reward */\n      sload(0x07)\n        /* \"contracts/MinHashCameContract_v3.sol\":3857:3870  return reward */\n      swap1\n      pop\n        /* \"contracts/MinHashCameContract_v3.sol\":3795:3878  function getReward() public view returns (uint256) {... */\n      swap1\n      jump\t// out\n        /* \"contracts/MinHashCameContract_v3.sol\":653:677  IERC20 public luckyToken */\n    tag_53:\n      0x08\n      0x01\n      swap1\n      sload\n      swap1\n      0x0100\n      exp\n      swap1\n      div\n      0xffffffffffffffffffffffffffffffffffffffff\n      and\n      dup2\n      jump\t// out\n        /* \"contracts/MinHashCameContract_v3.sol\":494:523  uint256 public currentMinHash */\n    tag_57:\n      sload(0x05)\n      dup2\n      jump\t// out\n        /* \"contracts/MinHashCameContract_v3.sol\":2202:2465  function endGame() public onlyOwner {... */\n    tag_60:\n        /* \"contracts/MinHashCameContract_v3.sol\":744:749  owner */\n      0x00\n      dup1\n      sload\n      swap1\n      0x0100\n      exp\n      swap1\n      div\n      0xffffffffffffffffffffffffffffffffffffffff\n      and\n        /* \"contracts/MinHashCameContract_v3.sol\":730:749  msg.sender == owner */\n      0xffffffffffffffffffffffffffffffffffffffff\n      and\n        /* \"contracts/MinHashCameContract_v3.sol\":730:740  msg.sender */\n      caller\n        /* \"contracts/MinHashCameContract_v3.sol\":730:749  msg.sender == owner */\n      0xffffffffffffffffffffffffffffffffffffffff\n      and\n      eq\n        /* \"contracts/MinHashCameContract_v3.sol\":722:787  require(msg.sender == owner, \"Only owner can call this function\") */\n      tag_114\n      jumpi\n      mload(0x40)\n      0x08c379a000000000000000000000000000000000000000000000000000000000\n      dup2\n      mstore\n      0x04\n      add\n      tag_115\n      swap1\n      tag_108\n      jump\t// in\n    tag_115:\n      mload(0x40)\n      dup1\n      swap2\n      sub\n      swap1\n      revert\n    tag_114:\n        /* \"contracts/MinHashCameContract_v3.sol\":2257:2267  gameActive */\n      0x06\n      0x00\n      swap1\n      sload\n      swap1\n      0x0100\n      exp\n      swap1\n      div\n      0xff\n      and\n        /* \"contracts/MinHashCameContract_v3.sol\":2249:2290  require(gameActive, \"Game is not active\") */\n      tag_117\n      jumpi\n      mload(0x40)\n      0x08c379a000000000000000000000000000000000000000000000000000000000\n      dup2\n      mstore\n      0x04\n      add\n      tag_118\n      swap1\n      tag_119\n      jump\t// in\n    tag_118:\n      mload(0x40)\n      dup1\n      swap2\n      sub\n      swap1\n      revert\n    tag_117:\n        /* \"contracts/MinHashCameContract_v3.sol\":2342:2354  gameDuration */\n      sload(0x03)\n        /* \"contracts/MinHashCameContract_v3.sol\":2325:2339  gameStartBlock */\n      sload(0x02)\n        /* \"contracts/MinHashCameContract_v3.sol\":2325:2354  gameStartBlock + gameDuration */\n      tag_120\n      swap2\n      swap1\n      tag_121\n      jump\t// in\n    tag_120:\n        /* \"contracts/MinHashCameContract_v3.sol\":2309:2321  block.number */\n      number\n        /* \"contracts/MinHashCameContract_v3.sol\":2309:2354  block.number >= gameStartBlock + gameDuration */\n      lt\n      iszero\n        /* \"contracts/MinHashCameContract_v3.sol\":2301:2381  require(block.number >= gameStartBlock + gameDuration, \"Game has not ended yet\") */\n      tag_122\n      jumpi\n      mload(0x40)\n      0x08c379a000000000000000000000000000000000000000000000000000000000\n      dup2\n      mstore\n      0x04\n      add\n      tag_123\n      swap1\n      tag_124\n      jump\t// in\n    tag_123:\n      mload(0x40)\n      dup1\n      swap2\n      sub\n      swap1\n      revert\n    tag_122:\n        /* \"contracts/MinHashCameContract_v3.sol\":2415:2420  false */\n      0x00\n        /* \"contracts/MinHashCameContract_v3.sol\":2402:2412  gameActive */\n      0x06\n      0x00\n        /* \"contracts/MinHashCameContract_v3.sol\":2402:2420  gameActive = false */\n      0x0100\n      exp\n      dup2\n      sload\n      dup2\n      0xff\n      mul\n      not\n      and\n      swap1\n      dup4\n      iszero\n      iszero\n      mul\n      or\n      swap1\n      sstore\n      pop\n        /* \"contracts/MinHashCameContract_v3.sol\":2440:2457  currentMinAddress */\n      0x04\n      0x00\n      swap1\n      sload\n      swap1\n      0x0100\n      exp\n      swap1\n      div\n      0xffffffffffffffffffffffffffffffffffffffff\n      and\n        /* \"contracts/MinHashCameContract_v3.sol\":2431:2437  winner */\n      0x06\n      0x01\n        /* \"contracts/MinHashCameContract_v3.sol\":2431:2457  winner = currentMinAddress */\n      0x0100\n      exp\n      dup2\n      sload\n      dup2\n      0xffffffffffffffffffffffffffffffffffffffff\n      mul\n      not\n      and\n      swap1\n      dup4\n      0xffffffffffffffffffffffffffffffffffffffff\n      and\n      mul\n      or\n      swap1\n      sstore\n      pop\n        /* \"contracts/MinHashCameContract_v3.sol\":2202:2465  function endGame() public onlyOwner {... */\n      jump\t// out\n        /* \"contracts/MinHashCameContract_v3.sol\":4061:4174  function getContractBalance() public view returns (uint256) {... */\n    tag_62:\n        /* \"contracts/MinHashCameContract_v3.sol\":4112:4119  uint256 */\n      0x00\n        /* \"contracts/MinHashCameContract_v3.sol\":4135:4145  luckyToken */\n      0x08\n      0x01\n      swap1\n      sload\n      swap1\n      0x0100\n      exp\n      swap1\n      div\n      0xffffffffffffffffffffffffffffffffffffffff\n      and\n        /* \"contracts/MinHashCameContract_v3.sol\":4135:4155  luckyToken.balanceOf */\n      0xffffffffffffffffffffffffffffffffffffffff\n      and\n      0x70a08231\n        /* \"contracts/MinHashCameContract_v3.sol\":4164:4168  this */\n      address\n        /* \"contracts/MinHashCameContract_v3.sol\":4135:4170  luckyToken.balanceOf(address(this)) */\n      mload(0x40)\n      dup3\n      0xffffffff\n      and\n      0xe0\n      shl\n      dup2\n      mstore\n      0x04\n      add\n      tag_126\n      swap2\n      swap1\n      tag_37\n      jump\t// in\n    tag_126:\n      0x20\n      mload(0x40)\n      dup1\n      dup4\n      sub\n      dup2\n      dup7\n      gas\n      staticcall\n      iszero\n      dup1\n      iszero\n      tag_128\n      jumpi\n      returndatasize\n      0x00\n      dup1\n      returndatacopy\n      revert(0x00, returndatasize)\n    tag_128:\n      pop\n      pop\n      pop\n      pop\n      mload(0x40)\n      returndatasize\n      not(0x1f)\n      0x1f\n      dup3\n      add\n      and\n      dup3\n      add\n      dup1\n      0x40\n      mstore\n      pop\n      dup2\n      add\n      swap1\n      tag_129\n      swap2\n      swap1\n      tag_130\n      jump\t// in\n    tag_129:\n        /* \"contracts/MinHashCameContract_v3.sol\":4128:4170  return luckyToken.balanceOf(address(this)) */\n      swap1\n      pop\n        /* \"contracts/MinHashCameContract_v3.sol\":4061:4174  function getContractBalance() public view returns (uint256) {... */\n      swap1\n      jump\t// out\n        /* \"contracts/MinHashCameContract_v3.sol\":329:349  address public owner */\n    tag_65:\n      0x00\n      dup1\n      sload\n      swap1\n      0x0100\n      exp\n      swap1\n      div\n      0xffffffffffffffffffffffffffffffffffffffff\n      and\n      dup2\n      jump\t// out\n        /* \"contracts/MinHashCameContract_v3.sol\":3665:3748  function getWinner() public view returns (address) {... */\n    tag_68:\n        /* \"contracts/MinHashCameContract_v3.sol\":3707:3714  address */\n      0x00\n        /* \"contracts/MinHashCameContract_v3.sol\":3734:3740  winner */\n      0x06\n      0x01\n      swap1\n      sload\n      swap1\n      0x0100\n      exp\n      swap1\n      div\n      0xffffffffffffffffffffffffffffffffffffffff\n      and\n        /* \"contracts/MinHashCameContract_v3.sol\":3727:3740  return winner */\n      swap1\n      pop\n        /* \"contracts/MinHashCameContract_v3.sol\":3665:3748  function getWinner() public view returns (address) {... */\n      swap1\n      jump\t// out\n        /* \"contracts/MinHashCameContract_v3.sol\":356:378  uint256 public epochId */\n    tag_71:\n      sload(0x01)\n      dup2\n      jump\t// out\n        /* \"contracts/MinHashCameContract_v3.sol\":2492:2808  function claimReward() public {... */\n    tag_74:\n        /* \"contracts/MinHashCameContract_v3.sol\":2542:2552  gameActive */\n      0x06\n      0x00\n      swap1\n      sload\n      swap1\n      0x0100\n      exp\n      swap1\n      div\n      0xff\n      and\n        /* \"contracts/MinHashCameContract_v3.sol\":2541:2552  !gameActive */\n      iszero\n        /* \"contracts/MinHashCameContract_v3.sol\":2533:2577  require(!gameActive, \"Game is still active\") */\n      tag_133\n      jumpi\n      mload(0x40)\n      0x08c379a000000000000000000000000000000000000000000000000000000000\n      dup2\n      mstore\n      0x04\n      add\n      tag_134\n      swap1\n      tag_135\n      jump\t// in\n    tag_134:\n      mload(0x40)\n      dup1\n      swap2\n      sub\n      swap1\n      revert\n    tag_133:\n        /* \"contracts/MinHashCameContract_v3.sol\":2610:2616  winner */\n      0x06\n      0x01\n      swap1\n      sload\n      swap1\n      0x0100\n      exp\n      swap1\n      div\n      0xffffffffffffffffffffffffffffffffffffffff\n      and\n        /* \"contracts/MinHashCameContract_v3.sol\":2596:2616  msg.sender == winner */\n      0xffffffffffffffffffffffffffffffffffffffff\n      and\n        /* \"contracts/MinHashCameContract_v3.sol\":2596:2606  msg.sender */\n      caller\n        /* \"contracts/MinHashCameContract_v3.sol\":2596:2616  msg.sender == winner */\n      0xffffffffffffffffffffffffffffffffffffffff\n      and\n      eq\n        /* \"contracts/MinHashCameContract_v3.sol\":2588:2649  require(msg.sender == winner, \"Only winner can claim reward\") */\n      tag_136\n      jumpi\n      mload(0x40)\n      0x08c379a000000000000000000000000000000000000000000000000000000000\n      dup2\n      mstore\n      0x04\n      add\n      tag_137\n      swap1\n      tag_138\n      jump\t// in\n    tag_137:\n      mload(0x40)\n      dup1\n      swap2\n      sub\n      swap1\n      revert\n    tag_136:\n        /* \"contracts/MinHashCameContract_v3.sol\":2669:2682  rewardClaimed */\n      0x08\n      0x00\n      swap1\n      sload\n      swap1\n      0x0100\n      exp\n      swap1\n      div\n      0xff\n      and\n        /* \"contracts/MinHashCameContract_v3.sol\":2668:2682  !rewardClaimed */\n      iszero\n        /* \"contracts/MinHashCameContract_v3.sol\":2660:2709  require(!rewardClaimed, \"Reward already claimed\") */\n      tag_139\n      jumpi\n      mload(0x40)\n      0x08c379a000000000000000000000000000000000000000000000000000000000\n      dup2\n      mstore\n      0x04\n      add\n      tag_140\n      swap1\n      tag_141\n      jump\t// in\n    tag_140:\n      mload(0x40)\n      dup1\n      swap2\n      sub\n      swap1\n      revert\n    tag_139:\n        /* \"contracts/MinHashCameContract_v3.sol\":2746:2750  true */\n      0x01\n        /* \"contracts/MinHashCameContract_v3.sol\":2730:2743  rewardClaimed */\n      0x08\n      0x00\n        /* \"contracts/MinHashCameContract_v3.sol\":2730:2750  rewardClaimed = true */\n      0x0100\n      exp\n      dup2\n      sload\n      dup2\n      0xff\n      mul\n      not\n      and\n      swap1\n      dup4\n      iszero\n      iszero\n      mul\n      or\n      swap1\n      sstore\n      pop\n        /* \"contracts/MinHashCameContract_v3.sol\":2761:2800  luckyToken.safeTransfer(winner, reward) */\n      tag_142\n        /* \"contracts/MinHashCameContract_v3.sol\":2785:2791  winner */\n      0x06\n      0x01\n      swap1\n      sload\n      swap1\n      0x0100\n      exp\n      swap1\n      div\n      0xffffffffffffffffffffffffffffffffffffffff\n      and\n        /* \"contracts/MinHashCameContract_v3.sol\":2793:2799  reward */\n      sload(0x07)\n        /* \"contracts/MinHashCameContract_v3.sol\":2761:2771  luckyToken */\n      0x08\n      0x01\n      swap1\n      sload\n      swap1\n      0x0100\n      exp\n      swap1\n      div\n      0xffffffffffffffffffffffffffffffffffffffff\n      and\n        /* \"contracts/MinHashCameContract_v3.sol\":2761:2784  luckyToken.safeTransfer */\n      0xffffffffffffffffffffffffffffffffffffffff\n      and\n      tag_111\n      swap1\n        /* \"contracts/MinHashCameContract_v3.sol\":2761:2800  luckyToken.safeTransfer(winner, reward) */\n      swap3\n      swap2\n      swap1\n      0xffffffff\n      and\n      jump\t// in\n    tag_142:\n        /* \"contracts/MinHashCameContract_v3.sol\":2492:2808  function claimReward() public {... */\n      jump\t// out\n        /* \"contracts/MinHashCameContract_v3.sol\":3531:3621  function getCurrentEpoch() public view returns (uint256) {... */\n    tag_76:\n        /* \"contracts/MinHashCameContract_v3.sol\":3579:3586  uint256 */\n      0x00\n        /* \"contracts/MinHashCameContract_v3.sol\":3606:3613  epochId */\n      sload(0x01)\n        /* \"contracts/MinHashCameContract_v3.sol\":3599:3613  return epochId */\n      swap1\n      pop\n        /* \"contracts/MinHashCameContract_v3.sol\":3531:3621  function getCurrentEpoch() public view returns (uint256) {... */\n      swap1\n      jump\t// out\n        /* \"contracts/MinHashCameContract_v3.sol\":3931:4024  function isRewardClaimed() public view returns (bool) {... */\n    tag_79:\n        /* \"contracts/MinHashCameContract_v3.sol\":3979:3983  bool */\n      0x00\n        /* \"contracts/MinHashCameContract_v3.sol\":4003:4016  rewardClaimed */\n      0x08\n      0x00\n      swap1\n      sload\n      swap1\n      0x0100\n      exp\n      swap1\n      div\n      0xff\n      and\n        /* \"contracts/MinHashCameContract_v3.sol\":3996:4016  return rewardClaimed */\n      swap1\n      pop\n        /* \"contracts/MinHashCameContract_v3.sol\":3931:4024  function isRewardClaimed() public view returns (bool) {... */\n      swap1\n      jump\t// out\n        /* \"contracts/MinHashCameContract_v3.sol\":3385:3484  function getCurrentMinHash() public view returns (uint256) {... */\n    tag_82:\n        /* \"contracts/MinHashCameContract_v3.sol\":3435:3442  uint256 */\n      0x00\n        /* \"contracts/MinHashCameContract_v3.sol\":3462:3476  currentMinHash */\n      sload(0x05)\n        /* \"contracts/MinHashCameContract_v3.sol\":3455:3476  return currentMinHash */\n      swap1\n      pop\n        /* \"contracts/MinHashCameContract_v3.sol\":3385:3484  function getCurrentMinHash() public view returns (uint256) {... */\n      swap1\n      jump\t// out\n        /* \"contracts/MinHashCameContract_v3.sol\":2862:2999  function depositTokens(uint256 amount) public onlyOwner {... */\n    tag_86:\n        /* \"contracts/MinHashCameContract_v3.sol\":744:749  owner */\n      0x00\n      dup1\n      sload\n      swap1\n      0x0100\n      exp\n      swap1\n      div\n      0xffffffffffffffffffffffffffffffffffffffff\n      and\n        /* \"contracts/MinHashCameContract_v3.sol\":730:749  msg.sender == owner */\n      0xffffffffffffffffffffffffffffffffffffffff\n      and\n        /* \"contracts/MinHashCameContract_v3.sol\":730:740  msg.sender */\n      caller\n        /* \"contracts/MinHashCameContract_v3.sol\":730:749  msg.sender == owner */\n      0xffffffffffffffffffffffffffffffffffffffff\n      and\n      eq\n        /* \"contracts/MinHashCameContract_v3.sol\":722:787  require(msg.sender == owner, \"Only owner can call this function\") */\n      tag_147\n      jumpi\n      mload(0x40)\n      0x08c379a000000000000000000000000000000000000000000000000000000000\n      dup2\n      mstore\n      0x04\n      add\n      tag_148\n      swap1\n      tag_108\n      jump\t// in\n    tag_148:\n      mload(0x40)\n      dup1\n      swap2\n      sub\n      swap1\n      revert\n    tag_147:\n        /* \"contracts/MinHashCameContract_v3.sol\":2929:2991  luckyToken.safeTransferFrom(msg.sender, address(this), amount) */\n      tag_150\n        /* \"contracts/MinHashCameContract_v3.sol\":2957:2967  msg.sender */\n      caller\n        /* \"contracts/MinHashCameContract_v3.sol\":2977:2981  this */\n      address\n        /* \"contracts/MinHashCameContract_v3.sol\":2984:2990  amount */\n      dup4\n        /* \"contracts/MinHashCameContract_v3.sol\":2929:2939  luckyToken */\n      0x08\n      0x01\n      swap1\n      sload\n      swap1\n      0x0100\n      exp\n      swap1\n      div\n      0xffffffffffffffffffffffffffffffffffffffff\n      and\n        /* \"contracts/MinHashCameContract_v3.sol\":2929:2956  luckyToken.safeTransferFrom */\n      0xffffffffffffffffffffffffffffffffffffffff\n      and\n      tag_151\n      swap1\n        /* \"contracts/MinHashCameContract_v3.sol\":2929:2991  luckyToken.safeTransferFrom(msg.sender, address(this), amount) */\n      swap4\n      swap3\n      swap2\n      swap1\n      0xffffffff\n      and\n      jump\t// in\n    tag_150:\n        /* \"contracts/MinHashCameContract_v3.sol\":2862:2999  function depositTokens(uint256 amount) public onlyOwner {... */\n      pop\n      jump\t// out\n        /* \"contracts/MinHashCameContract_v3.sol\":559:580  address public winner */\n    tag_88:\n      0x06\n      0x01\n      swap1\n      sload\n      swap1\n      0x0100\n      exp\n      swap1\n      div\n      0xffffffffffffffffffffffffffffffffffffffff\n      and\n      dup2\n      jump\t// out\n        /* \"contracts/MinHashCameContract_v3.sol\":421:448  uint256 public gameDuration */\n    tag_91:\n      sload(0x03)\n      dup2\n      jump\t// out\n        /* \"contracts/MinHashCameContract_v3.sol\":3232:3337  function getCurrentMinAddress() public view returns (address) {... */\n    tag_94:\n        /* \"contracts/MinHashCameContract_v3.sol\":3285:3292  address */\n      0x00\n        /* \"contracts/MinHashCameContract_v3.sol\":3312:3329  currentMinAddress */\n      0x04\n      0x00\n      swap1\n      sload\n      swap1\n      0x0100\n      exp\n      swap1\n      div\n      0xffffffffffffffffffffffffffffffffffffffff\n      and\n        /* \"contracts/MinHashCameContract_v3.sol\":3305:3329  return currentMinAddress */\n      swap1\n      pop\n        /* \"contracts/MinHashCameContract_v3.sol\":3232:3337  function getCurrentMinAddress() public view returns (address) {... */\n      swap1\n      jump\t// out\n        /* \"contracts/MinHashCameContract_v3.sol\":530:552  bool public gameActive */\n    tag_97:\n      0x06\n      0x00\n      swap1\n      sload\n      swap1\n      0x0100\n      exp\n      swap1\n      div\n      0xff\n      and\n      dup2\n      jump\t// out\n        /* \"contracts/MinHashCameContract_v3.sol\":1062:1768  function startNewGame(uint256 _gameDuration, uint256 _reward) public onlyOwner {... */\n    tag_102:\n        /* \"contracts/MinHashCameContract_v3.sol\":744:749  owner */\n      0x00\n      dup1\n      sload\n      swap1\n      0x0100\n      exp\n      swap1\n      div\n      0xffffffffffffffffffffffffffffffffffffffff\n      and\n        /* \"contracts/MinHashCameContract_v3.sol\":730:749  msg.sender == owner */\n      0xffffffffffffffffffffffffffffffffffffffff\n      and\n        /* \"contracts/MinHashCameContract_v3.sol\":730:740  msg.sender */\n      caller\n        /* \"contracts/MinHashCameContract_v3.sol\":730:749  msg.sender == owner */\n      0xffffffffffffffffffffffffffffffffffffffff\n      and\n      eq\n        /* \"contracts/MinHashCameContract_v3.sol\":722:787  require(msg.sender == owner, \"Only owner can call this function\") */\n      tag_154\n      jumpi\n      mload(0x40)\n      0x08c379a000000000000000000000000000000000000000000000000000000000\n      dup2\n      mstore\n      0x04\n      add\n      tag_155\n      swap1\n      tag_108\n      jump\t// in\n    tag_155:\n      mload(0x40)\n      dup1\n      swap2\n      sub\n      swap1\n      revert\n    tag_154:\n        /* \"contracts/MinHashCameContract_v3.sol\":1161:1171  gameActive */\n      0x06\n      0x00\n      swap1\n      sload\n      swap1\n      0x0100\n      exp\n      swap1\n      div\n      0xff\n      and\n        /* \"contracts/MinHashCameContract_v3.sol\":1160:1171  !gameActive */\n      iszero\n        /* \"contracts/MinHashCameContract_v3.sol\":1152:1204  require(!gameActive, \"Current game is still active\") */\n      tag_157\n      jumpi\n      mload(0x40)\n      0x08c379a000000000000000000000000000000000000000000000000000000000\n      dup2\n      mstore\n      0x04\n      add\n      tag_158\n      swap1\n      tag_159\n      jump\t// in\n    tag_158:\n      mload(0x40)\n      dup1\n      swap2\n      sub\n      swap1\n      revert\n    tag_157:\n        /* \"contracts/MinHashCameContract_v3.sol\":1293:1300  _reward */\n      dup1\n        /* \"contracts/MinHashCameContract_v3.sol\":1254:1264  luckyToken */\n      0x08\n      0x01\n      swap1\n      sload\n      swap1\n      0x0100\n      exp\n      swap1\n      div\n      0xffffffffffffffffffffffffffffffffffffffff\n      and\n        /* \"contracts/MinHashCameContract_v3.sol\":1254:1274  luckyToken.balanceOf */\n      0xffffffffffffffffffffffffffffffffffffffff\n      and\n      0x70a08231\n        /* \"contracts/MinHashCameContract_v3.sol\":1283:1287  this */\n      address\n        /* \"contracts/MinHashCameContract_v3.sol\":1254:1289  luckyToken.balanceOf(address(this)) */\n      mload(0x40)\n      dup3\n      0xffffffff\n      and\n      0xe0\n      shl\n      dup2\n      mstore\n      0x04\n      add\n      tag_160\n      swap2\n      swap1\n      tag_37\n      jump\t// in\n    tag_160:\n      0x20\n      mload(0x40)\n      dup1\n      dup4\n      sub\n      dup2\n      dup7\n      gas\n      staticcall\n      iszero\n      dup1\n      iszero\n      tag_162\n      jumpi\n      returndatasize\n      0x00\n      dup1\n      returndatacopy\n      revert(0x00, returndatasize)\n    tag_162:\n      pop\n      pop\n      pop\n      pop\n      mload(0x40)\n      returndatasize\n      not(0x1f)\n      0x1f\n      dup3\n      add\n      and\n      dup3\n      add\n      dup1\n      0x40\n      mstore\n      pop\n      dup2\n      add\n      swap1\n      tag_163\n      swap2\n      swap1\n      tag_130\n      jump\t// in\n    tag_163:\n        /* \"contracts/MinHashCameContract_v3.sol\":1254:1300  luckyToken.balanceOf(address(this)) >= _reward */\n      lt\n      iszero\n        /* \"contracts/MinHashCameContract_v3.sol\":1246:1331  require(luckyToken.balanceOf(address(this)) >= _reward, \"Insufficient token balance\") */\n      tag_164\n      jumpi\n      mload(0x40)\n      0x08c379a000000000000000000000000000000000000000000000000000000000\n      dup2\n      mstore\n      0x04\n      add\n      tag_165\n      swap1\n      tag_166\n      jump\t// in\n    tag_165:\n      mload(0x40)\n      dup1\n      swap2\n      sub\n      swap1\n      revert\n    tag_164:\n        /* \"contracts/MinHashCameContract_v3.sol\":1366:1367  0 */\n      0x00\n        /* \"contracts/MinHashCameContract_v3.sol\":1356:1363  epochId */\n      sload(0x01)\n        /* \"contracts/MinHashCameContract_v3.sol\":1356:1367  epochId > 0 */\n      gt\n        /* \"contracts/MinHashCameContract_v3.sol\":1352:1449  if (epochId > 0) {... */\n      iszero\n      tag_167\n      jumpi\n        /* \"contracts/MinHashCameContract_v3.sol\":1392:1405  rewardClaimed */\n      0x08\n      0x00\n      swap1\n      sload\n      swap1\n      0x0100\n      exp\n      swap1\n      div\n      0xff\n      and\n        /* \"contracts/MinHashCameContract_v3.sol\":1384:1437  require(rewardClaimed, \"Previous reward not claimed\") */\n      tag_168\n      jumpi\n      mload(0x40)\n      0x08c379a000000000000000000000000000000000000000000000000000000000\n      dup2\n      mstore\n      0x04\n      add\n      tag_169\n      swap1\n      tag_170\n      jump\t// in\n    tag_169:\n      mload(0x40)\n      dup1\n      swap2\n      sub\n      swap1\n      revert\n    tag_168:\n        /* \"contracts/MinHashCameContract_v3.sol\":1352:1449  if (epochId > 0) {... */\n    tag_167:\n        /* \"contracts/MinHashCameContract_v3.sol\":1469:1476  epochId */\n      0x01\n      0x00\n        /* \"contracts/MinHashCameContract_v3.sol\":1469:1478  epochId++ */\n      dup2\n      sload\n      dup1\n      swap3\n      swap2\n      swap1\n      tag_171\n      swap1\n      tag_172\n      jump\t// in\n    tag_171:\n      swap2\n      swap1\n      pop\n      sstore\n      pop\n        /* \"contracts/MinHashCameContract_v3.sol\":1506:1518  block.number */\n      number\n        /* \"contracts/MinHashCameContract_v3.sol\":1489:1503  gameStartBlock */\n      0x02\n        /* \"contracts/MinHashCameContract_v3.sol\":1489:1518  gameStartBlock = block.number */\n      dup2\n      swap1\n      sstore\n      pop\n        /* \"contracts/MinHashCameContract_v3.sol\":1544:1557  _gameDuration */\n      dup2\n        /* \"contracts/MinHashCameContract_v3.sol\":1529:1541  gameDuration */\n      0x03\n        /* \"contracts/MinHashCameContract_v3.sol\":1529:1557  gameDuration = _gameDuration */\n      dup2\n      swap1\n      sstore\n      pop\n        /* \"contracts/MinHashCameContract_v3.sol\":1596:1597  0 */\n      0x00\n        /* \"contracts/MinHashCameContract_v3.sol\":1568:1585  currentMinAddress */\n      0x04\n      0x00\n        /* \"contracts/MinHashCameContract_v3.sol\":1568:1598  currentMinAddress = address(0) */\n      0x0100\n      exp\n      dup2\n      sload\n      dup2\n      0xffffffffffffffffffffffffffffffffffffffff\n      mul\n      not\n      and\n      swap1\n      dup4\n      0xffffffffffffffffffffffffffffffffffffffff\n      and\n      mul\n      or\n      swap1\n      sstore\n      pop\n        /* \"contracts/MinHashCameContract_v3.sol\":1626:1643  type(uint256).max */\n      0xffffffffffffffffffffffffffffffffffffffffffffffffffffffffffffffff\n        /* \"contracts/MinHashCameContract_v3.sol\":1609:1623  currentMinHash */\n      0x05\n        /* \"contracts/MinHashCameContract_v3.sol\":1609:1643  currentMinHash = type(uint256).max */\n      dup2\n      swap1\n      sstore\n      pop\n        /* \"contracts/MinHashCameContract_v3.sol\":1667:1671  true */\n      0x01\n        /* \"contracts/MinHashCameContract_v3.sol\":1654:1664  gameActive */\n      0x06\n      0x00\n        /* \"contracts/MinHashCameContract_v3.sol\":1654:1671  gameActive = true */\n      0x0100\n      exp\n      dup2\n      sload\n      dup2\n      0xff\n      mul\n      not\n      and\n      swap1\n      dup4\n      iszero\n      iszero\n      mul\n      or\n      swap1\n      sstore\n      pop\n        /* \"contracts/MinHashCameContract_v3.sol\":1699:1700  0 */\n      0x00\n        /* \"contracts/MinHashCameContract_v3.sol\":1682:1688  winner */\n      0x06\n      0x01\n        /* \"contracts/MinHashCameContract_v3.sol\":1682:1701  winner = address(0) */\n      0x0100\n      exp\n      dup2\n      sload\n      dup2\n      0xffffffffffffffffffffffffffffffffffffffff\n      mul\n      not\n      and\n      swap1\n      dup4\n      0xffffffffffffffffffffffffffffffffffffffff\n      and\n      mul\n      or\n      swap1\n      sstore\n      pop\n        /* \"contracts/MinHashCameContract_v3.sol\":1721:1728  _reward */\n      dup1\n        /* \"contracts/MinHashCameContract_v3.sol\":1712:1718  reward */\n      0x07\n        /* \"contracts/MinHashCameContract_v3.sol\":1712:1728  reward = _reward */\n      dup2\n      swap1\n      sstore\n      pop\n        /* \"contracts/MinHashCameContract_v3.sol\":1755:1760  false */\n      0x00\n        /* \"contracts/MinHashCameContract_v3.sol\":1739:1752  rewardClaimed */\n      0x08\n      0x00\n        /* \"contracts/MinHashCameContract_v3.sol\":1739:1760  rewardClaimed = false */\n      0x0100\n      exp\n      dup2\n      sload\n      dup2\n      0xff\n      mul\n      not\n      and\n      swap1\n      dup4\n      iszero\n      iszero\n      mul\n      or\n      swap1\n      sstore\n      pop\n        /* \"contracts/MinHashCameContract_v3.sol\":1062:1768  function startNewGame(uint256 _gameDuration, uint256 _reward) public onlyOwner {... */\n      pop\n      pop\n      jump\t// out\n        /* \"contracts/MinHashCameContract_v3.sol\":1776:2194  function iambestone() public gameIsActive {... */\n    tag_104:\n        /* \"contracts/MinHashCameContract_v3.sol\":862:872  gameActive */\n      0x06\n      0x00\n      swap1\n      sload\n      swap1\n      0x0100\n      exp\n      swap1\n      div\n      0xff\n      and\n        /* \"contracts/MinHashCameContract_v3.sol\":854:895  require(gameActive, \"Game is not active\") */\n      tag_174\n      jumpi\n      mload(0x40)\n      0x08c379a000000000000000000000000000000000000000000000000000000000\n      dup2\n      mstore\n      0x04\n      add\n      tag_175\n      swap1\n      tag_119\n      jump\t// in\n    tag_175:\n      mload(0x40)\n      dup1\n      swap2\n      sub\n      swap1\n      revert\n    tag_174:\n        /* \"contracts/MinHashCameContract_v3.sol\":1869:1881  gameDuration */\n      sload(0x03)\n        /* \"contracts/MinHashCameContract_v3.sol\":1852:1866  gameStartBlock */\n      sload(0x02)\n        /* \"contracts/MinHashCameContract_v3.sol\":1852:1881  gameStartBlock + gameDuration */\n      tag_177\n      swap2\n      swap1\n      tag_121\n      jump\t// in\n    tag_177:\n        /* \"contracts/MinHashCameContract_v3.sol\":1837:1849  block.number */\n      number\n        /* \"contracts/MinHashCameContract_v3.sol\":1837:1881  block.number < gameStartBlock + gameDuration */\n      lt\n        /* \"contracts/MinHashCameContract_v3.sol\":1829:1900  require(block.number < gameStartBlock + gameDuration, \"Game has ended\") */\n      tag_178\n      jumpi\n      mload(0x40)\n      0x08c379a000000000000000000000000000000000000000000000000000000000\n      dup2\n      mstore\n      0x04\n      add\n      tag_179\n      swap1\n      tag_180\n      jump\t// in\n    tag_179:\n      mload(0x40)\n      dup1\n      swap2\n      sub\n      swap1\n      revert\n    tag_178:\n        /* \"contracts/MinHashCameContract_v3.sol\":1921:1939  uint256 playerHash */\n      0x00\n        /* \"contracts/MinHashCameContract_v3.sol\":1977:1987  msg.sender */\n      caller\n        /* \"contracts/MinHashCameContract_v3.sol\":1989:1996  epochId */\n      sload(0x01)\n        /* \"contracts/MinHashCameContract_v3.sol\":1960:1997  abi.encodePacked(msg.sender, epochId) */\n      add(0x20, mload(0x40))\n      tag_181\n      swap3\n      swap2\n      swap1\n      tag_182\n      jump\t// in\n    tag_181:\n      mload(0x40)\n      0x20\n      dup2\n      dup4\n      sub\n      sub\n      dup2\n      mstore\n      swap1\n      0x40\n      mstore\n        /* \"contracts/MinHashCameContract_v3.sol\":1950:1998  keccak256(abi.encodePacked(msg.sender, epochId)) */\n      dup1\n      mload\n      swap1\n      0x20\n      add\n      keccak256\n        /* \"contracts/MinHashCameContract_v3.sol\":1942:1999  uint256(keccak256(abi.encodePacked(msg.sender, epochId))) */\n      0x00\n      shr\n        /* \"contracts/MinHashCameContract_v3.sol\":1921:1999  uint256 playerHash = uint256(keccak256(abi.encodePacked(msg.sender, epochId))) */\n      swap1\n      pop\n        /* \"contracts/MinHashCameContract_v3.sol\":2053:2054  0 */\n      0x00\n        /* \"contracts/MinHashCameContract_v3.sol\":2024:2055  currentMinAddress == address(0) */\n      0xffffffffffffffffffffffffffffffffffffffff\n      and\n        /* \"contracts/MinHashCameContract_v3.sol\":2024:2041  currentMinAddress */\n      0x04\n      0x00\n      swap1\n      sload\n      swap1\n      0x0100\n      exp\n      swap1\n      div\n      0xffffffffffffffffffffffffffffffffffffffff\n      and\n        /* \"contracts/MinHashCameContract_v3.sol\":2024:2055  currentMinAddress == address(0) */\n      0xffffffffffffffffffffffffffffffffffffffff\n      and\n      eq\n        /* \"contracts/MinHashCameContract_v3.sol\":2024:2086  currentMinAddress == address(0) || playerHash < currentMinHash */\n      dup1\n      tag_183\n      jumpi\n      pop\n        /* \"contracts/MinHashCameContract_v3.sol\":2072:2086  currentMinHash */\n      sload(0x05)\n        /* \"contracts/MinHashCameContract_v3.sol\":2059:2069  playerHash */\n      dup2\n        /* \"contracts/MinHashCameContract_v3.sol\":2059:2086  playerHash < currentMinHash */\n      lt\n        /* \"contracts/MinHashCameContract_v3.sol\":2024:2086  currentMinAddress == address(0) || playerHash < currentMinHash */\n    tag_183:\n        /* \"contracts/MinHashCameContract_v3.sol\":2020:2187  if (currentMinAddress == address(0) || playerHash < currentMinHash) {... */\n      iszero\n      tag_184\n      jumpi\n        /* \"contracts/MinHashCameContract_v3.sol\":2123:2133  msg.sender */\n      caller\n        /* \"contracts/MinHashCameContract_v3.sol\":2103:2120  currentMinAddress */\n      0x04\n      0x00\n        /* \"contracts/MinHashCameContract_v3.sol\":2103:2133  currentMinAddress = msg.sender */\n      0x0100\n      exp\n      dup2\n      sload\n      dup2\n      0xffffffffffffffffffffffffffffffffffffffff\n      mul\n      not\n      and\n      swap1\n      dup4\n      0xffffffffffffffffffffffffffffffffffffffff\n      and\n      mul\n      or\n      swap1\n      sstore\n      pop\n        /* \"contracts/MinHashCameContract_v3.sol\":2165:2175  playerHash */\n      dup1\n        /* \"contracts/MinHashCameContract_v3.sol\":2148:2162  currentMinHash */\n      0x05\n        /* \"contracts/MinHashCameContract_v3.sol\":2148:2175  currentMinHash = playerHash */\n      dup2\n      swap1\n      sstore\n      pop\n        /* \"contracts/MinHashCameContract_v3.sol\":2020:2187  if (currentMinAddress == address(0) || playerHash < currentMinHash) {... */\n    tag_184:\n        /* \"contracts/MinHashCameContract_v3.sol\":1818:2194  {... */\n      pop\n        /* \"contracts/MinHashCameContract_v3.sol\":1776:2194  function iambestone() public gameIsActive {... */\n      jump\t// out\n        /* \"@openzeppelin/contracts/token/ERC20/utils/SafeERC20.sol\":1303:1463  function safeTransfer(IERC20 token, address to, uint256 value) internal {... */\n    tag_111:\n        /* \"@openzeppelin/contracts/token/ERC20/utils/SafeERC20.sol\":1385:1456  _callOptionalReturn(token, abi.encodeCall(token.transfer, (to, value))) */\n      tag_186\n        /* \"@openzeppelin/contracts/token/ERC20/utils/SafeERC20.sol\":1405:1410  token */\n      dup4\n        /* \"@openzeppelin/contracts/token/ERC20/utils/SafeERC20.sol\":1427:1432  token */\n      dup5\n        /* \"@openzeppelin/contracts/token/ERC20/utils/SafeERC20.sol\":1427:1441  token.transfer */\n      0xffffffffffffffffffffffffffffffffffffffff\n      and\n      0xa9059cbb\n        /* \"@openzeppelin/contracts/token/ERC20/utils/SafeERC20.sol\":1444:1446  to */\n      dup6\n        /* \"@openzeppelin/contracts/token/ERC20/utils/SafeERC20.sol\":1448:1453  value */\n      dup6\n        /* \"@openzeppelin/contracts/token/ERC20/utils/SafeERC20.sol\":1412:1455  abi.encodeCall(token.transfer, (to, value)) */\n      add(0x24, mload(0x40))\n      tag_187\n      swap3\n      swap2\n      swap1\n      tag_188\n      jump\t// in\n    tag_187:\n      mload(0x40)\n      0x20\n      dup2\n      dup4\n      sub\n      sub\n      dup2\n      mstore\n      swap1\n      0x40\n      mstore\n      swap2\n      pop\n      0xe0\n      shl\n      0x20\n      dup3\n      add\n      dup1\n      mload\n      0xffffffffffffffffffffffffffffffffffffffffffffffffffffffff\n      dup4\n      dup2\n      dup4\n      and\n      or\n      dup4\n      mstore\n      pop\n      pop\n      pop\n      pop\n        /* \"@openzeppelin/contracts/token/ERC20/utils/SafeERC20.sol\":1385:1404  _callOptionalReturn */\n      tag_189\n        /* \"@openzeppelin/contracts/token/ERC20/utils/SafeERC20.sol\":1385:1456  _callOptionalReturn(token, abi.encodeCall(token.transfer, (to, value))) */\n      jump\t// in\n    tag_186:\n        /* \"@openzeppelin/contracts/token/ERC20/utils/SafeERC20.sol\":1303:1463  function safeTransfer(IERC20 token, address to, uint256 value) internal {... */\n      pop\n      pop\n      pop\n      jump\t// out\n        /* \"@openzeppelin/contracts/token/ERC20/utils/SafeERC20.sol\":1702:1890  function safeTransferFrom(IERC20 token, address from, address to, uint256 value) internal {... */\n    tag_151:\n        /* \"@openzeppelin/contracts/token/ERC20/utils/SafeERC20.sol\":1802:1883  _callOptionalReturn(token, abi.encodeCall(token.transferFrom, (from, to, value))) */\n      tag_191\n        /* \"@openzeppelin/contracts/token/ERC20/utils/SafeERC20.sol\":1822:1827  token */\n      dup5\n        /* \"@openzeppelin/contracts/token/ERC20/utils/SafeERC20.sol\":1844:1849  token */\n      dup6\n        /* \"@openzeppelin/contracts/token/ERC20/utils/SafeERC20.sol\":1844:1862  token.transferFrom */\n      0xffffffffffffffffffffffffffffffffffffffff\n      and\n      0x23b872dd\n        /* \"@openzeppelin/contracts/token/ERC20/utils/SafeERC20.sol\":1865:1869  from */\n      dup7\n        /* \"@openzeppelin/contracts/token/ERC20/utils/SafeERC20.sol\":1871:1873  to */\n      dup7\n        /* \"@openzeppelin/contracts/token/ERC20/utils/SafeERC20.sol\":1875:1880  value */\n      dup7\n        /* \"@openzeppelin/contracts/token/ERC20/utils/SafeERC20.sol\":1829:1882  abi.encodeCall(token.transferFrom, (from, to, value)) */\n      add(0x24, mload(0x40))\n      tag_192\n      swap4\n      swap3\n      swap2\n      swap1\n      tag_193\n      jump\t// in\n    tag_192:\n      mload(0x40)\n      0x20\n      dup2\n      dup4\n      sub\n      sub\n      dup2\n      mstore\n      swap1\n      0x40\n      mstore\n      swap2\n      pop\n      0xe0\n      shl\n      0x20\n      dup3\n      add\n      dup1\n      mload\n      0xffffffffffffffffffffffffffffffffffffffffffffffffffffffff\n      dup4\n      dup2\n      dup4\n      and\n      or\n      dup4\n      mstore\n      pop\n      pop\n      pop\n      pop\n        /* \"@openzeppelin/contracts/token/ERC20/utils/SafeERC20.sol\":1802:1821  _callOptionalReturn */\n      tag_189\n        /* \"@openzeppelin/contracts/token/ERC20/utils/SafeERC20.sol\":1802:1883  _callOptionalReturn(token, abi.encodeCall(token.transferFrom, (from, to, value))) */\n      jump\t// in\n    tag_191:\n        /* \"@openzeppelin/contracts/token/ERC20/utils/SafeERC20.sol\":1702:1890  function safeTransferFrom(IERC20 token, address from, address to, uint256 value) internal {... */\n      pop\n      pop\n      pop\n      pop\n      jump\t// out\n        /* \"@openzeppelin/contracts/token/ERC20/utils/SafeERC20.sol\":4059:4688  function _callOptionalReturn(IERC20 token, bytes memory data) private {... */\n    tag_189:\n        /* \"@openzeppelin/contracts/token/ERC20/utils/SafeERC20.sol\":4478:4501  bytes memory returndata */\n      0x00\n        /* \"@openzeppelin/contracts/token/ERC20/utils/SafeERC20.sol\":4504:4537  address(token).functionCall(data) */\n      tag_195\n        /* \"@openzeppelin/contracts/token/ERC20/utils/SafeERC20.sol\":4532:4536  data */\n      dup3\n        /* \"@openzeppelin/contracts/token/ERC20/utils/SafeERC20.sol\":4512:4517  token */\n      dup5\n        /* \"@openzeppelin/contracts/token/ERC20/utils/SafeERC20.sol\":4504:4531  address(token).functionCall */\n      0xffffffffffffffffffffffffffffffffffffffff\n      and\n      tag_196\n      swap1\n        /* \"@openzeppelin/contracts/token/ERC20/utils/SafeERC20.sol\":4504:4537  address(token).functionCall(data) */\n      swap2\n      swap1\n      0xffffffff\n      and\n      jump\t// in\n    tag_195:\n        /* \"@openzeppelin/contracts/token/ERC20/utils/SafeERC20.sol\":4478:4537  bytes memory returndata = address(token).functionCall(data) */\n      swap1\n      pop\n        /* \"@openzeppelin/contracts/token/ERC20/utils/SafeERC20.sol\":4572:4573  0 */\n      0x00\n        /* \"@openzeppelin/contracts/token/ERC20/utils/SafeERC20.sol\":4551:4561  returndata */\n      dup2\n        /* \"@openzeppelin/contracts/token/ERC20/utils/SafeERC20.sol\":4551:4568  returndata.length */\n      mload\n        /* \"@openzeppelin/contracts/token/ERC20/utils/SafeERC20.sol\":4551:4573  returndata.length != 0 */\n      eq\n      iszero\n        /* \"@openzeppelin/contracts/token/ERC20/utils/SafeERC20.sol\":4551:4608  returndata.length != 0 && !abi.decode(returndata, (bool)) */\n      dup1\n      iszero\n      tag_197\n      jumpi\n      pop\n        /* \"@openzeppelin/contracts/token/ERC20/utils/SafeERC20.sol\":4589:4599  returndata */\n      dup1\n        /* \"@openzeppelin/contracts/token/ERC20/utils/SafeERC20.sol\":4578:4608  abi.decode(returndata, (bool)) */\n      dup1\n      0x20\n      add\n      swap1\n      mload\n      dup2\n      add\n      swap1\n      tag_198\n      swap2\n      swap1\n      tag_199\n      jump\t// in\n    tag_198:\n        /* \"@openzeppelin/contracts/token/ERC20/utils/SafeERC20.sol\":4577:4608  !abi.decode(returndata, (bool)) */\n      iszero\n        /* \"@openzeppelin/contracts/token/ERC20/utils/SafeERC20.sol\":4551:4608  returndata.length != 0 && !abi.decode(returndata, (bool)) */\n    tag_197:\n        /* \"@openzeppelin/contracts/token/ERC20/utils/SafeERC20.sol\":4547:4682  if (returndata.length != 0 && !abi.decode(returndata, (bool))) {... */\n      iszero\n      tag_200\n      jumpi\n        /* \"@openzeppelin/contracts/token/ERC20/utils/SafeERC20.sol\":4664:4669  token */\n      dup3\n        /* \"@openzeppelin/contracts/token/ERC20/utils/SafeERC20.sol\":4631:4671  SafeERC20FailedOperation(address(token)) */\n      mload(0x40)\n      0x5274afe700000000000000000000000000000000000000000000000000000000\n      dup2\n      mstore\n      0x04\n      add\n      tag_201\n      swap2\n      swap1\n      tag_37\n      jump\t// in\n    tag_201:\n      mload(0x40)\n      dup1\n      swap2\n      sub\n      swap1\n      revert\n        /* \"@openzeppelin/contracts/token/ERC20/utils/SafeERC20.sol\":4547:4682  if (returndata.length != 0 && !abi.decode(returndata, (bool))) {... */\n    tag_200:\n        /* \"@openzeppelin/contracts/token/ERC20/utils/SafeERC20.sol\":4129:4688  {... */\n      pop\n        /* \"@openzeppelin/contracts/token/ERC20/utils/SafeERC20.sol\":4059:4688  function _callOptionalReturn(IERC20 token, bytes memory data) private {... */\n      pop\n      pop\n      jump\t// out\n        /* \"@openzeppelin/contracts/utils/Address.sol\":2705:2856  function functionCall(address target, bytes memory data) internal returns (bytes memory) {... */\n    tag_196:\n        /* \"@openzeppelin/contracts/utils/Address.sol\":2780:2792  bytes memory */\n      0x60\n        /* \"@openzeppelin/contracts/utils/Address.sol\":2811:2849  functionCallWithValue(target, data, 0) */\n      tag_203\n        /* \"@openzeppelin/contracts/utils/Address.sol\":2833:2839  target */\n      dup4\n        /* \"@openzeppelin/contracts/utils/Address.sol\":2841:2845  data */\n      dup4\n        /* \"@openzeppelin/contracts/utils/Address.sol\":2847:2848  0 */\n      0x00\n        /* \"@openzeppelin/contracts/utils/Address.sol\":2811:2832  functionCallWithValue */\n      tag_204\n        /* \"@openzeppelin/contracts/utils/Address.sol\":2811:2849  functionCallWithValue(target, data, 0) */\n      jump\t// in\n    tag_203:\n        /* \"@openzeppelin/contracts/utils/Address.sol\":2804:2849  return functionCallWithValue(target, data, 0) */\n      swap1\n      pop\n        /* \"@openzeppelin/contracts/utils/Address.sol\":2705:2856  function functionCall(address target, bytes memory data) internal returns (bytes memory) {... */\n      swap3\n      swap2\n      pop\n      pop\n      jump\t// out\n        /* \"@openzeppelin/contracts/utils/Address.sol\":3180:3572  function functionCallWithValue(address target, bytes memory data, uint256 value) internal returns (bytes memory) {... */\n    tag_204:\n        /* \"@openzeppelin/contracts/utils/Address.sol\":3279:3291  bytes memory */\n      0x60\n        /* \"@openzeppelin/contracts/utils/Address.sol\":3331:3336  value */\n      dup2\n        /* \"@openzeppelin/contracts/utils/Address.sol\":3307:3328  address(this).balance */\n      selfbalance\n        /* \"@openzeppelin/contracts/utils/Address.sol\":3307:3336  address(this).balance < value */\n      lt\n        /* \"@openzeppelin/contracts/utils/Address.sol\":3303:3411  if (address(this).balance < value) {... */\n      iszero\n      tag_206\n      jumpi\n        /* \"@openzeppelin/contracts/utils/Address.sol\":3394:3398  this */\n      address\n        /* \"@openzeppelin/contracts/utils/Address.sol\":3359:3400  AddressInsufficientBalance(address(this)) */\n      mload(0x40)\n      0xcd78605900000000000000000000000000000000000000000000000000000000\n      dup2\n      mstore\n      0x04\n      add\n      tag_207\n      swap2\n      swap1\n      tag_37\n      jump\t// in\n    tag_207:\n      mload(0x40)\n      dup1\n      swap2\n      sub\n      swap1\n      revert\n        /* \"@openzeppelin/contracts/utils/Address.sol\":3303:3411  if (address(this).balance < value) {... */\n    tag_206:\n        /* \"@openzeppelin/contracts/utils/Address.sol\":3421:3433  bool success */\n      0x00\n        /* \"@openzeppelin/contracts/utils/Address.sol\":3435:3458  bytes memory returndata */\n      dup1\n        /* \"@openzeppelin/contracts/utils/Address.sol\":3462:3468  target */\n      dup6\n        /* \"@openzeppelin/contracts/utils/Address.sol\":3462:3473  target.call */\n      0xffffffffffffffffffffffffffffffffffffffff\n      and\n        /* \"@openzeppelin/contracts/utils/Address.sol\":3481:3486  value */\n      dup5\n        /* \"@openzeppelin/contracts/utils/Address.sol\":3488:3492  data */\n      dup7\n        /* \"@openzeppelin/contracts/utils/Address.sol\":3462:3493  target.call{value: value}(data) */\n      mload(0x40)\n      tag_208\n      swap2\n      swap1\n      tag_209\n      jump\t// in\n    tag_208:\n      0x00\n      mload(0x40)\n      dup1\n      dup4\n      sub\n      dup2\n      dup6\n      dup8\n      gas\n      call\n      swap3\n      pop\n      pop\n      pop\n      returndatasize\n      dup1\n      0x00\n      dup2\n      eq\n      tag_212\n      jumpi\n      mload(0x40)\n      swap2\n      pop\n      and(add(returndatasize, 0x3f), not(0x1f))\n      dup3\n      add\n      0x40\n      mstore\n      returndatasize\n      dup3\n      mstore\n      returndatasize\n      0x00\n      0x20\n      dup5\n      add\n      returndatacopy\n      jump(tag_211)\n    tag_212:\n      0x60\n      swap2\n      pop\n    tag_211:\n      pop\n        /* \"@openzeppelin/contracts/utils/Address.sol\":3420:3493  (bool success, bytes memory returndata) = target.call{value: value}(data) */\n      swap2\n      pop\n      swap2\n      pop\n        /* \"@openzeppelin/contracts/utils/Address.sol\":3510:3565  verifyCallResultFromTarget(target, success, returndata) */\n      tag_213\n        /* \"@openzeppelin/contracts/utils/Address.sol\":3537:3543  target */\n      dup7\n        /* \"@openzeppelin/contracts/utils/Address.sol\":3545:3552  success */\n      dup4\n        /* \"@openzeppelin/contracts/utils/Address.sol\":3554:3564  returndata */\n      dup4\n        /* \"@openzeppelin/contracts/utils/Address.sol\":3510:3536  verifyCallResultFromTarget */\n      tag_214\n        /* \"@openzeppelin/contracts/utils/Address.sol\":3510:3565  verifyCallResultFromTarget(target, success, returndata) */\n      jump\t// in\n    tag_213:\n        /* \"@openzeppelin/contracts/utils/Address.sol\":3503:3565  return verifyCallResultFromTarget(target, success, returndata) */\n      swap3\n      pop\n      pop\n      pop\n        /* \"@openzeppelin/contracts/utils/Address.sol\":3180:3572  function functionCallWithValue(address target, bytes memory data, uint256 value) internal returns (bytes memory) {... */\n      swap4\n      swap3\n      pop\n      pop\n      pop\n      jump\t// out\n        /* \"@openzeppelin/contracts/utils/Address.sol\":4625:5207  function verifyCallResultFromTarget(... */\n    tag_214:\n        /* \"@openzeppelin/contracts/utils/Address.sol\":4769:4781  bytes memory */\n      0x60\n        /* \"@openzeppelin/contracts/utils/Address.sol\":4798:4805  success */\n      dup3\n        /* \"@openzeppelin/contracts/utils/Address.sol\":4793:5201  if (!success) {... */\n      tag_216\n      jumpi\n        /* \"@openzeppelin/contracts/utils/Address.sol\":4821:4840  _revert(returndata) */\n      tag_217\n        /* \"@openzeppelin/contracts/utils/Address.sol\":4829:4839  returndata */\n      dup3\n        /* \"@openzeppelin/contracts/utils/Address.sol\":4821:4828  _revert */\n      tag_218\n        /* \"@openzeppelin/contracts/utils/Address.sol\":4821:4840  _revert(returndata) */\n      jump\t// in\n    tag_217:\n        /* \"@openzeppelin/contracts/utils/Address.sol\":4793:5201  if (!success) {... */\n      jump(tag_219)\n    tag_216:\n        /* \"@openzeppelin/contracts/utils/Address.sol\":5066:5067  0 */\n      0x00\n        /* \"@openzeppelin/contracts/utils/Address.sol\":5045:5055  returndata */\n      dup3\n        /* \"@openzeppelin/contracts/utils/Address.sol\":5045:5062  returndata.length */\n      mload\n        /* \"@openzeppelin/contracts/utils/Address.sol\":5045:5067  returndata.length == 0 */\n      eq\n        /* \"@openzeppelin/contracts/utils/Address.sol\":5045:5094  returndata.length == 0 && target.code.length == 0 */\n      dup1\n      iszero\n      tag_220\n      jumpi\n      pop\n        /* \"@openzeppelin/contracts/utils/Address.sol\":5093:5094  0 */\n      0x00\n        /* \"@openzeppelin/contracts/utils/Address.sol\":5071:5077  target */\n      dup5\n        /* \"@openzeppelin/contracts/utils/Address.sol\":5071:5089  target.code.length */\n      0xffffffffffffffffffffffffffffffffffffffff\n      and\n      extcodesize\n        /* \"@openzeppelin/contracts/utils/Address.sol\":5071:5094  target.code.length == 0 */\n      eq\n        /* \"@openzeppelin/contracts/utils/Address.sol\":5045:5094  returndata.length == 0 && target.code.length == 0 */\n    tag_220:\n        /* \"@openzeppelin/contracts/utils/Address.sol\":5041:5160  if (returndata.length == 0 && target.code.length == 0) {... */\n      iszero\n      tag_221\n      jumpi\n        /* \"@openzeppelin/contracts/utils/Address.sol\":5138:5144  target */\n      dup4\n        /* \"@openzeppelin/contracts/utils/Address.sol\":5121:5145  AddressEmptyCode(target) */\n      mload(0x40)\n      0x9996b31500000000000000000000000000000000000000000000000000000000\n      dup2\n      mstore\n      0x04\n      add\n      tag_222\n      swap2\n      swap1\n      tag_37\n      jump\t// in\n    tag_222:\n      mload(0x40)\n      dup1\n      swap2\n      sub\n      swap1\n      revert\n        /* \"@openzeppelin/contracts/utils/Address.sol\":5041:5160  if (returndata.length == 0 && target.code.length == 0) {... */\n    tag_221:\n        /* \"@openzeppelin/contracts/utils/Address.sol\":5180:5190  returndata */\n      dup2\n        /* \"@openzeppelin/contracts/utils/Address.sol\":5173:5190  return returndata */\n      swap1\n      pop\n      jump(tag_215)\n        /* \"@openzeppelin/contracts/utils/Address.sol\":4793:5201  if (!success) {... */\n    tag_219:\n        /* \"@openzeppelin/contracts/utils/Address.sol\":4625:5207  function verifyCallResultFromTarget(... */\n    tag_215:\n      swap4\n      swap3\n      pop\n      pop\n      pop\n      jump\t// out\n        /* \"@openzeppelin/contracts/utils/Address.sol\":5743:6259  function _revert(bytes memory returndata) private pure {... */\n    tag_218:\n        /* \"@openzeppelin/contracts/utils/Address.sol\":5894:5895  0 */\n      0x00\n        /* \"@openzeppelin/contracts/utils/Address.sol\":5874:5884  returndata */\n      dup2\n        /* \"@openzeppelin/contracts/utils/Address.sol\":5874:5891  returndata.length */\n      mload\n        /* \"@openzeppelin/contracts/utils/Address.sol\":5874:5895  returndata.length > 0 */\n      gt\n        /* \"@openzeppelin/contracts/utils/Address.sol\":5870:6253  if (returndata.length > 0) {... */\n      iszero\n      tag_224\n      jumpi\n        /* \"@openzeppelin/contracts/utils/Address.sol\":6102:6112  returndata */\n      dup1\n        /* \"@openzeppelin/contracts/utils/Address.sol\":6096:6113  mload(returndata) */\n      mload\n        /* \"@openzeppelin/contracts/utils/Address.sol\":6158:6173  returndata_size */\n      dup1\n        /* \"@openzeppelin/contracts/utils/Address.sol\":6145:6155  returndata */\n      dup3\n        /* \"@openzeppelin/contracts/utils/Address.sol\":6141:6143  32 */\n      0x20\n        /* \"@openzeppelin/contracts/utils/Address.sol\":6137:6156  add(32, returndata) */\n      add\n        /* \"@openzeppelin/contracts/utils/Address.sol\":6130:6174  revert(add(32, returndata), returndata_size) */\n      revert\n        /* \"@openzeppelin/contracts/utils/Address.sol\":5870:6253  if (returndata.length > 0) {... */\n    tag_224:\n        /* \"@openzeppelin/contracts/utils/Address.sol\":6225:6242  FailedInnerCall() */\n      mload(0x40)\n      0x1425ea4200000000000000000000000000000000000000000000000000000000\n      dup2\n      mstore\n      0x04\n      add\n      mload(0x40)\n      dup1\n      swap2\n      sub\n      swap1\n      revert\n        /* \"#utility.yul\":7:97   */\n    tag_226:\n        /* \"#utility.yul\":41:48   */\n      0x00\n        /* \"#utility.yul\":84:89   */\n      dup2\n        /* \"#utility.yul\":77:90   */\n      iszero\n        /* \"#utility.yul\":70:91   */\n      iszero\n        /* \"#utility.yul\":59:91   */\n      swap1\n      pop\n        /* \"#utility.yul\":7:97   */\n      swap2\n      swap1\n      pop\n      jump\t// out\n        /* \"#utility.yul\":103:212   */\n    tag_227:\n        /* \"#utility.yul\":184:205   */\n      tag_281\n        /* \"#utility.yul\":199:204   */\n      dup2\n        /* \"#utility.yul\":184:205   */\n      tag_226\n      jump\t// in\n    tag_281:\n        /* \"#utility.yul\":179:182   */\n      dup3\n        /* \"#utility.yul\":172:206   */\n      mstore\n        /* \"#utility.yul\":103:212   */\n      pop\n      pop\n      jump\t// out\n        /* \"#utility.yul\":218:428   */\n    tag_33:\n        /* \"#utility.yul\":305:309   */\n      0x00\n        /* \"#utility.yul\":343:345   */\n      0x20\n        /* \"#utility.yul\":332:341   */\n      dup3\n        /* \"#utility.yul\":328:346   */\n      add\n        /* \"#utility.yul\":320:346   */\n      swap1\n      pop\n        /* \"#utility.yul\":356:421   */\n      tag_283\n        /* \"#utility.yul\":418:419   */\n      0x00\n        /* \"#utility.yul\":407:416   */\n      dup4\n        /* \"#utility.yul\":403:420   */\n      add\n        /* \"#utility.yul\":394:400   */\n      dup5\n        /* \"#utility.yul\":356:421   */\n      tag_227\n      jump\t// in\n    tag_283:\n        /* \"#utility.yul\":218:428   */\n      swap3\n      swap2\n      pop\n      pop\n      jump\t// out\n        /* \"#utility.yul\":434:560   */\n    tag_228:\n        /* \"#utility.yul\":471:478   */\n      0x00\n        /* \"#utility.yul\":511:553   */\n      0xffffffffffffffffffffffffffffffffffffffff\n        /* \"#utility.yul\":504:509   */\n      dup3\n        /* \"#utility.yul\":500:554   */\n      and\n        /* \"#utility.yul\":489:554   */\n      swap1\n      pop\n        /* \"#utility.yul\":434:560   */\n      swap2\n      swap1\n      pop\n      jump\t// out\n        /* \"#utility.yul\":566:662   */\n    tag_229:\n        /* \"#utility.yul\":603:610   */\n      0x00\n        /* \"#utility.yul\":632:656   */\n      tag_286\n        /* \"#utility.yul\":650:655   */\n      dup3\n        /* \"#utility.yul\":632:656   */\n      tag_228\n      jump\t// in\n    tag_286:\n        /* \"#utility.yul\":621:656   */\n      swap1\n      pop\n        /* \"#utility.yul\":566:662   */\n      swap2\n      swap1\n      pop\n      jump\t// out\n        /* \"#utility.yul\":668:786   */\n    tag_230:\n        /* \"#utility.yul\":755:779   */\n      tag_288\n        /* \"#utility.yul\":773:778   */\n      dup2\n        /* \"#utility.yul\":755:779   */\n      tag_229\n      jump\t// in\n    tag_288:\n        /* \"#utility.yul\":750:753   */\n      dup3\n        /* \"#utility.yul\":743:780   */\n      mstore\n        /* \"#utility.yul\":668:786   */\n      pop\n      pop\n      jump\t// out\n        /* \"#utility.yul\":792:1014   */\n    tag_37:\n        /* \"#utility.yul\":885:889   */\n      0x00\n        /* \"#utility.yul\":923:925   */\n      0x20\n        /* \"#utility.yul\":912:921   */\n      dup3\n        /* \"#utility.yul\":908:926   */\n      add\n        /* \"#utility.yul\":900:926   */\n      swap1\n      pop\n        /* \"#utility.yul\":936:1007   */\n      tag_290\n        /* \"#utility.yul\":1004:1005   */\n      0x00\n        /* \"#utility.yul\":993:1002   */\n      dup4\n        /* \"#utility.yul\":989:1006   */\n      add\n        /* \"#utility.yul\":980:986   */\n      dup5\n        /* \"#utility.yul\":936:1007   */\n      tag_230\n      jump\t// in\n    tag_290:\n        /* \"#utility.yul\":792:1014   */\n      swap3\n      swap2\n      pop\n      pop\n      jump\t// out\n        /* \"#utility.yul\":1020:1097   */\n    tag_231:\n        /* \"#utility.yul\":1057:1064   */\n      0x00\n        /* \"#utility.yul\":1086:1091   */\n      dup2\n        /* \"#utility.yul\":1075:1091   */\n      swap1\n      pop\n        /* \"#utility.yul\":1020:1097   */\n      swap2\n      swap1\n      pop\n      jump\t// out\n        /* \"#utility.yul\":1103:1221   */\n    tag_232:\n        /* \"#utility.yul\":1190:1214   */\n      tag_293\n        /* \"#utility.yul\":1208:1213   */\n      dup2\n        /* \"#utility.yul\":1190:1214   */\n      tag_231\n      jump\t// in\n    tag_293:\n        /* \"#utility.yul\":1185:1188   */\n      dup3\n        /* \"#utility.yul\":1178:1215   */\n      mstore\n        /* \"#utility.yul\":1103:1221   */\n      pop\n      pop\n      jump\t// out\n        /* \"#utility.yul\":1227:1449   */\n    tag_41:\n        /* \"#utility.yul\":1320:1324   */\n      0x00\n        /* \"#utility.yul\":1358:1360   */\n      0x20\n        /* \"#utility.yul\":1347:1356   */\n      dup3\n        /* \"#utility.yul\":1343:1361   */\n      add\n        /* \"#utility.yul\":1335:1361   */\n      swap1\n      pop\n        /* \"#utility.yul\":1371:1442   */\n      tag_295\n        /* \"#utility.yul\":1439:1440   */\n      0x00\n        /* \"#utility.yul\":1428:1437   */\n      dup4\n        /* \"#utility.yul\":1424:1441   */\n      add\n        /* \"#utility.yul\":1415:1421   */\n      dup5\n        /* \"#utility.yul\":1371:1442   */\n      tag_232\n      jump\t// in\n    tag_295:\n        /* \"#utility.yul\":1227:1449   */\n      swap3\n      swap2\n      pop\n      pop\n      jump\t// out\n        /* \"#utility.yul\":1536:1653   */\n    tag_234:\n        /* \"#utility.yul\":1645:1646   */\n      0x00\n        /* \"#utility.yul\":1642:1643   */\n      dup1\n        /* \"#utility.yul\":1635:1647   */\n      revert\n        /* \"#utility.yul\":1782:1904   */\n    tag_236:\n        /* \"#utility.yul\":1855:1879   */\n      tag_300\n        /* \"#utility.yul\":1873:1878   */\n      dup2\n        /* \"#utility.yul\":1855:1879   */\n      tag_231\n      jump\t// in\n    tag_300:\n        /* \"#utility.yul\":1848:1853   */\n      dup2\n        /* \"#utility.yul\":1845:1880   */\n      eq\n        /* \"#utility.yul\":1835:1898   */\n      tag_301\n      jumpi\n        /* \"#utility.yul\":1894:1895   */\n      0x00\n        /* \"#utility.yul\":1891:1892   */\n      dup1\n        /* \"#utility.yul\":1884:1896   */\n      revert\n        /* \"#utility.yul\":1835:1898   */\n    tag_301:\n        /* \"#utility.yul\":1782:1904   */\n      pop\n      jump\t// out\n        /* \"#utility.yul\":1910:2049   */\n    tag_237:\n        /* \"#utility.yul\":1956:1961   */\n      0x00\n        /* \"#utility.yul\":1994:2000   */\n      dup2\n        /* \"#utility.yul\":1981:2001   */\n      calldataload\n        /* \"#utility.yul\":1972:2001   */\n      swap1\n      pop\n        /* \"#utility.yul\":2010:2043   */\n      tag_303\n        /* \"#utility.yul\":2037:2042   */\n      dup2\n        /* \"#utility.yul\":2010:2043   */\n      tag_236\n      jump\t// in\n    tag_303:\n        /* \"#utility.yul\":1910:2049   */\n      swap3\n      swap2\n      pop\n      pop\n      jump\t// out\n        /* \"#utility.yul\":2055:2384   */\n    tag_44:\n        /* \"#utility.yul\":2114:2120   */\n      0x00\n        /* \"#utility.yul\":2163:2165   */\n      0x20\n        /* \"#utility.yul\":2151:2160   */\n      dup3\n        /* \"#utility.yul\":2142:2149   */\n      dup5\n        /* \"#utility.yul\":2138:2161   */\n      sub\n        /* \"#utility.yul\":2134:2166   */\n      slt\n        /* \"#utility.yul\":2131:2250   */\n      iszero\n      tag_305\n      jumpi\n        /* \"#utility.yul\":2169:2248   */\n      tag_306\n      tag_234\n      jump\t// in\n    tag_306:\n        /* \"#utility.yul\":2131:2250   */\n    tag_305:\n        /* \"#utility.yul\":2289:2290   */\n      0x00\n        /* \"#utility.yul\":2314:2367   */\n      tag_307\n        /* \"#utility.yul\":2359:2366   */\n      dup5\n        /* \"#utility.yul\":2350:2356   */\n      dup3\n        /* \"#utility.yul\":2339:2348   */\n      dup6\n        /* \"#utility.yul\":2335:2357   */\n      add\n        /* \"#utility.yul\":2314:2367   */\n      tag_237\n      jump\t// in\n    tag_307:\n        /* \"#utility.yul\":2304:2367   */\n      swap2\n      pop\n        /* \"#utility.yul\":2260:2377   */\n      pop\n        /* \"#utility.yul\":2055:2384   */\n      swap3\n      swap2\n      pop\n      pop\n      jump\t// out\n        /* \"#utility.yul\":2390:2450   */\n    tag_238:\n        /* \"#utility.yul\":2418:2421   */\n      0x00\n        /* \"#utility.yul\":2439:2444   */\n      dup2\n        /* \"#utility.yul\":2432:2444   */\n      swap1\n      pop\n        /* \"#utility.yul\":2390:2450   */\n      swap2\n      swap1\n      pop\n      jump\t// out\n        /* \"#utility.yul\":2456:2598   */\n    tag_239:\n        /* \"#utility.yul\":2506:2515   */\n      0x00\n        /* \"#utility.yul\":2539:2592   */\n      tag_310\n        /* \"#utility.yul\":2557:2591   */\n      tag_311\n        /* \"#utility.yul\":2566:2590   */\n      tag_312\n        /* \"#utility.yul\":2584:2589   */\n      dup5\n        /* \"#utility.yul\":2566:2590   */\n      tag_228\n      jump\t// in\n    tag_312:\n        /* \"#utility.yul\":2557:2591   */\n      tag_238\n      jump\t// in\n    tag_311:\n        /* \"#utility.yul\":2539:2592   */\n      tag_228\n      jump\t// in\n    tag_310:\n        /* \"#utility.yul\":2526:2592   */\n      swap1\n      pop\n        /* \"#utility.yul\":2456:2598   */\n      swap2\n      swap1\n      pop\n      jump\t// out\n        /* \"#utility.yul\":2604:2730   */\n    tag_240:\n        /* \"#utility.yul\":2654:2663   */\n      0x00\n        /* \"#utility.yul\":2687:2724   */\n      tag_314\n        /* \"#utility.yul\":2718:2723   */\n      dup3\n        /* \"#utility.yul\":2687:2724   */\n      tag_239\n      jump\t// in\n    tag_314:\n        /* \"#utility.yul\":2674:2724   */\n      swap1\n      pop\n        /* \"#utility.yul\":2604:2730   */\n      swap2\n      swap1\n      pop\n      jump\t// out\n        /* \"#utility.yul\":2736:2875   */\n    tag_241:\n        /* \"#utility.yul\":2799:2808   */\n      0x00\n        /* \"#utility.yul\":2832:2869   */\n      tag_316\n        /* \"#utility.yul\":2863:2868   */\n      dup3\n        /* \"#utility.yul\":2832:2869   */\n      tag_240\n      jump\t// in\n    tag_316:\n        /* \"#utility.yul\":2819:2869   */\n      swap1\n      pop\n        /* \"#utility.yul\":2736:2875   */\n      swap2\n      swap1\n      pop\n      jump\t// out\n        /* \"#utility.yul\":2881:3038   */\n    tag_242:\n        /* \"#utility.yul\":2981:3031   */\n      tag_318\n        /* \"#utility.yul\":3025:3030   */\n      dup2\n        /* \"#utility.yul\":2981:3031   */\n      tag_241\n      jump\t// in\n    tag_318:\n        /* \"#utility.yul\":2976:2979   */\n      dup3\n        /* \"#utility.yul\":2969:3032   */\n      mstore\n        /* \"#utility.yul\":2881:3038   */\n      pop\n      pop\n      jump\t// out\n        /* \"#utility.yul\":3044:3292   */\n    tag_55:\n        /* \"#utility.yul\":3150:3154   */\n      0x00\n        /* \"#utility.yul\":3188:3190   */\n      0x20\n        /* \"#utility.yul\":3177:3186   */\n      dup3\n        /* \"#utility.yul\":3173:3191   */\n      add\n        /* \"#utility.yul\":3165:3191   */\n      swap1\n      pop\n        /* \"#utility.yul\":3201:3285   */\n      tag_320\n        /* \"#utility.yul\":3282:3283   */\n      0x00\n        /* \"#utility.yul\":3271:3280   */\n      dup4\n        /* \"#utility.yul\":3267:3284   */\n      add\n        /* \"#utility.yul\":3258:3264   */\n      dup5\n        /* \"#utility.yul\":3201:3285   */\n      tag_242\n      jump\t// in\n    tag_320:\n        /* \"#utility.yul\":3044:3292   */\n      swap3\n      swap2\n      pop\n      pop\n      jump\t// out\n        /* \"#utility.yul\":3298:3772   */\n    tag_101:\n        /* \"#utility.yul\":3366:3372   */\n      0x00\n        /* \"#utility.yul\":3374:3380   */\n      dup1\n        /* \"#utility.yul\":3423:3425   */\n      0x40\n        /* \"#utility.yul\":3411:3420   */\n      dup4\n        /* \"#utility.yul\":3402:3409   */\n      dup6\n        /* \"#utility.yul\":3398:3421   */\n      sub\n        /* \"#utility.yul\":3394:3426   */\n      slt\n        /* \"#utility.yul\":3391:3510   */\n      iszero\n      tag_322\n      jumpi\n        /* \"#utility.yul\":3429:3508   */\n      tag_323\n      tag_234\n      jump\t// in\n    tag_323:\n        /* \"#utility.yul\":3391:3510   */\n    tag_322:\n        /* \"#utility.yul\":3549:3550   */\n      0x00\n        /* \"#utility.yul\":3574:3627   */\n      tag_324\n        /* \"#utility.yul\":3619:3626   */\n      dup6\n        /* \"#utility.yul\":3610:3616   */\n      dup3\n        /* \"#utility.yul\":3599:3608   */\n      dup7\n        /* \"#utility.yul\":3595:3617   */\n      add\n        /* \"#utility.yul\":3574:3627   */\n      tag_237\n      jump\t// in\n    tag_324:\n        /* \"#utility.yul\":3564:3627   */\n      swap3\n      pop\n        /* \"#utility.yul\":3520:3637   */\n      pop\n        /* \"#utility.yul\":3676:3678   */\n      0x20\n        /* \"#utility.yul\":3702:3755   */\n      tag_325\n        /* \"#utility.yul\":3747:3754   */\n      dup6\n        /* \"#utility.yul\":3738:3744   */\n      dup3\n        /* \"#utility.yul\":3727:3736   */\n      dup7\n        /* \"#utility.yul\":3723:3745   */\n      add\n        /* \"#utility.yul\":3702:3755   */\n      tag_237\n      jump\t// in\n    tag_325:\n        /* \"#utility.yul\":3692:3755   */\n      swap2\n      pop\n        /* \"#utility.yul\":3647:3765   */\n      pop\n        /* \"#utility.yul\":3298:3772   */\n      swap3\n      pop\n      swap3\n      swap1\n      pop\n      jump\t// out\n        /* \"#utility.yul\":3778:3947   */\n    tag_243:\n        /* \"#utility.yul\":3862:3873   */\n      0x00\n        /* \"#utility.yul\":3896:3902   */\n      dup3\n        /* \"#utility.yul\":3891:3894   */\n      dup3\n        /* \"#utility.yul\":3884:3903   */\n      mstore\n        /* \"#utility.yul\":3936:3940   */\n      0x20\n        /* \"#utility.yul\":3931:3934   */\n      dup3\n        /* \"#utility.yul\":3927:3941   */\n      add\n        /* \"#utility.yul\":3912:3941   */\n      swap1\n      pop\n        /* \"#utility.yul\":3778:3947   */\n      swap3\n      swap2\n      pop\n      pop\n      jump\t// out\n        /* \"#utility.yul\":3953:4173   */\n    tag_244:\n        /* \"#utility.yul\":4093:4127   */\n      0x4f6e6c79206f776e65722063616e2063616c6c20746869732066756e6374696f\n        /* \"#utility.yul\":4089:4090   */\n      0x00\n        /* \"#utility.yul\":4081:4087   */\n      dup3\n        /* \"#utility.yul\":4077:4091   */\n      add\n        /* \"#utility.yul\":4070:4128   */\n      mstore\n        /* \"#utility.yul\":4162:4165   */\n      0x6e00000000000000000000000000000000000000000000000000000000000000\n        /* \"#utility.yul\":4157:4159   */\n      0x20\n        /* \"#utility.yul\":4149:4155   */\n      dup3\n        /* \"#utility.yul\":4145:4160   */\n      add\n        /* \"#utility.yul\":4138:4166   */\n      mstore\n        /* \"#utility.yul\":3953:4173   */\n      pop\n      jump\t// out\n        /* \"#utility.yul\":4179:4545   */\n    tag_245:\n        /* \"#utility.yul\":4321:4324   */\n      0x00\n        /* \"#utility.yul\":4342:4409   */\n      tag_329\n        /* \"#utility.yul\":4406:4408   */\n      0x21\n        /* \"#utility.yul\":4401:4404   */\n      dup4\n        /* \"#utility.yul\":4342:4409   */\n      tag_243\n      jump\t// in\n    tag_329:\n        /* \"#utility.yul\":4335:4409   */\n      swap2\n      pop\n        /* \"#utility.yul\":4418:4511   */\n      tag_330\n        /* \"#utility.yul\":4507:4510   */\n      dup3\n        /* \"#utility.yul\":4418:4511   */\n      tag_244\n      jump\t// in\n    tag_330:\n        /* \"#utility.yul\":4536:4538   */\n      0x40\n        /* \"#utility.yul\":4531:4534   */\n      dup3\n        /* \"#utility.yul\":4527:4539   */\n      add\n        /* \"#utility.yul\":4520:4539   */\n      swap1\n      pop\n        /* \"#utility.yul\":4179:4545   */\n      swap2\n      swap1\n      pop\n      jump\t// out\n        /* \"#utility.yul\":4551:4970   */\n    tag_108:\n        /* \"#utility.yul\":4717:4721   */\n      0x00\n        /* \"#utility.yul\":4755:4757   */\n      0x20\n        /* \"#utility.yul\":4744:4753   */\n      dup3\n        /* \"#utility.yul\":4740:4758   */\n      add\n        /* \"#utility.yul\":4732:4758   */\n      swap1\n      pop\n        /* \"#utility.yul\":4804:4813   */\n      dup2\n        /* \"#utility.yul\":4798:4802   */\n      dup2\n        /* \"#utility.yul\":4794:4814   */\n      sub\n        /* \"#utility.yul\":4790:4791   */\n      0x00\n        /* \"#utility.yul\":4779:4788   */\n      dup4\n        /* \"#utility.yul\":4775:4792   */\n      add\n        /* \"#utility.yul\":4768:4815   */\n      mstore\n        /* \"#utility.yul\":4832:4963   */\n      tag_332\n        /* \"#utility.yul\":4958:4962   */\n      dup2\n        /* \"#utility.yul\":4832:4963   */\n      tag_245\n      jump\t// in\n    tag_332:\n        /* \"#utility.yul\":4824:4963   */\n      swap1\n      pop\n        /* \"#utility.yul\":4551:4970   */\n      swap2\n      swap1\n      pop\n      jump\t// out\n        /* \"#utility.yul\":4976:5144   */\n    tag_246:\n        /* \"#utility.yul\":5116:5136   */\n      0x47616d65206973206e6f74206163746976650000000000000000000000000000\n        /* \"#utility.yul\":5112:5113   */\n      0x00\n        /* \"#utility.yul\":5104:5110   */\n      dup3\n        /* \"#utility.yul\":5100:5114   */\n      add\n        /* \"#utility.yul\":5093:5137   */\n      mstore\n        /* \"#utility.yul\":4976:5144   */\n      pop\n      jump\t// out\n        /* \"#utility.yul\":5150:5516   */\n    tag_247:\n        /* \"#utility.yul\":5292:5295   */\n      0x00\n        /* \"#utility.yul\":5313:5380   */\n      tag_335\n        /* \"#utility.yul\":5377:5379   */\n      0x12\n        /* \"#utility.yul\":5372:5375   */\n      dup4\n        /* \"#utility.yul\":5313:5380   */\n      tag_243\n      jump\t// in\n    tag_335:\n        /* \"#utility.yul\":5306:5380   */\n      swap2\n      pop\n        /* \"#utility.yul\":5389:5482   */\n      tag_336\n        /* \"#utility.yul\":5478:5481   */\n      dup3\n        /* \"#utility.yul\":5389:5482   */\n      tag_246\n      jump\t// in\n    tag_336:\n        /* \"#utility.yul\":5507:5509   */\n      0x20\n        /* \"#utility.yul\":5502:5505   */\n      dup3\n        /* \"#utility.yul\":5498:5510   */\n      add\n        /* \"#utility.yul\":5491:5510   */\n      swap1\n      pop\n        /* \"#utility.yul\":5150:5516   */\n      swap2\n      swap1\n      pop\n      jump\t// out\n        /* \"#utility.yul\":5522:5941   */\n    tag_119:\n        /* \"#utility.yul\":5688:5692   */\n      0x00\n        /* \"#utility.yul\":5726:5728   */\n      0x20\n        /* \"#utility.yul\":5715:5724   */\n      dup3\n        /* \"#utility.yul\":5711:5729   */\n      add\n        /* \"#utility.yul\":5703:5729   */\n      swap1\n      pop\n        /* \"#utility.yul\":5775:5784   */\n      dup2\n        /* \"#utility.yul\":5769:5773   */\n      dup2\n        /* \"#utility.yul\":5765:5785   */\n      sub\n        /* \"#utility.yul\":5761:5762   */\n      0x00\n        /* \"#utility.yul\":5750:5759   */\n      dup4\n        /* \"#utility.yul\":5746:5763   */\n      add\n        /* \"#utility.yul\":5739:5786   */\n      mstore\n        /* \"#utility.yul\":5803:5934   */\n      tag_338\n        /* \"#utility.yul\":5929:5933   */\n      dup2\n        /* \"#utility.yul\":5803:5934   */\n      tag_247\n      jump\t// in\n    tag_338:\n        /* \"#utility.yul\":5795:5934   */\n      swap1\n      pop\n        /* \"#utility.yul\":5522:5941   */\n      swap2\n      swap1\n      pop\n      jump\t// out\n        /* \"#utility.yul\":5947:6127   */\n    tag_248:\n        /* \"#utility.yul\":5995:6072   */\n      0x4e487b7100000000000000000000000000000000000000000000000000000000\n        /* \"#utility.yul\":5992:5993   */\n      0x00\n        /* \"#utility.yul\":5985:6073   */\n      mstore\n        /* \"#utility.yul\":6092:6096   */\n      0x11\n        /* \"#utility.yul\":6089:6090   */\n      0x04\n        /* \"#utility.yul\":6082:6097   */\n      mstore\n        /* \"#utility.yul\":6116:6120   */\n      0x24\n        /* \"#utility.yul\":6113:6114   */\n      0x00\n        /* \"#utility.yul\":6106:6121   */\n      revert\n        /* \"#utility.yul\":6133:6324   */\n    tag_121:\n        /* \"#utility.yul\":6173:6176   */\n      0x00\n        /* \"#utility.yul\":6192:6212   */\n      tag_341\n        /* \"#utility.yul\":6210:6211   */\n      dup3\n        /* \"#utility.yul\":6192:6212   */\n      tag_231\n      jump\t// in\n    tag_341:\n        /* \"#utility.yul\":6187:6212   */\n      swap2\n      pop\n        /* \"#utility.yul\":6226:6246   */\n      tag_342\n        /* \"#utility.yul\":6244:6245   */\n      dup4\n        /* \"#utility.yul\":6226:6246   */\n      tag_231\n      jump\t// in\n    tag_342:\n        /* \"#utility.yul\":6221:6246   */\n      swap3\n      pop\n        /* \"#utility.yul\":6269:6270   */\n      dup3\n        /* \"#utility.yul\":6266:6267   */\n      dup3\n        /* \"#utility.yul\":6262:6271   */\n      add\n        /* \"#utility.yul\":6255:6271   */\n      swap1\n      pop\n        /* \"#utility.yul\":6290:6293   */\n      dup1\n        /* \"#utility.yul\":6287:6288   */\n      dup3\n        /* \"#utility.yul\":6284:6294   */\n      gt\n        /* \"#utility.yul\":6281:6317   */\n      iszero\n      tag_343\n      jumpi\n        /* \"#utility.yul\":6297:6315   */\n      tag_344\n      tag_248\n      jump\t// in\n    tag_344:\n        /* \"#utility.yul\":6281:6317   */\n    tag_343:\n        /* \"#utility.yul\":6133:6324   */\n      swap3\n      swap2\n      pop\n      pop\n      jump\t// out\n        /* \"#utility.yul\":6330:6502   */\n    tag_249:\n        /* \"#utility.yul\":6470:6494   */\n      0x47616d6520686173206e6f7420656e6465642079657400000000000000000000\n        /* \"#utility.yul\":6466:6467   */\n      0x00\n        /* \"#utility.yul\":6458:6464   */\n      dup3\n        /* \"#utility.yul\":6454:6468   */\n      add\n        /* \"#utility.yul\":6447:6495   */\n      mstore\n        /* \"#utility.yul\":6330:6502   */\n      pop\n      jump\t// out\n        /* \"#utility.yul\":6508:6874   */\n    tag_250:\n        /* \"#utility.yul\":6650:6653   */\n      0x00\n        /* \"#utility.yul\":6671:6738   */\n      tag_347\n        /* \"#utility.yul\":6735:6737   */\n      0x16\n        /* \"#utility.yul\":6730:6733   */\n      dup4\n        /* \"#utility.yul\":6671:6738   */\n      tag_243\n      jump\t// in\n    tag_347:\n        /* \"#utility.yul\":6664:6738   */\n      swap2\n      pop\n        /* \"#utility.yul\":6747:6840   */\n      tag_348\n        /* \"#utility.yul\":6836:6839   */\n      dup3\n        /* \"#utility.yul\":6747:6840   */\n      tag_249\n      jump\t// in\n    tag_348:\n        /* \"#utility.yul\":6865:6867   */\n      0x20\n        /* \"#utility.yul\":6860:6863   */\n      dup3\n        /* \"#utility.yul\":6856:6868   */\n      add\n        /* \"#utility.yul\":6849:6868   */\n      swap1\n      pop\n        /* \"#utility.yul\":6508:6874   */\n      swap2\n      swap1\n      pop\n      jump\t// out\n        /* \"#utility.yul\":6880:7299   */\n    tag_124:\n        /* \"#utility.yul\":7046:7050   */\n      0x00\n        /* \"#utility.yul\":7084:7086   */\n      0x20\n        /* \"#utility.yul\":7073:7082   */\n      dup3\n        /* \"#utility.yul\":7069:7087   */\n      add\n        /* \"#utility.yul\":7061:7087   */\n      swap1\n      pop\n        /* \"#utility.yul\":7133:7142   */\n      dup2\n        /* \"#utility.yul\":7127:7131   */\n      dup2\n        /* \"#utility.yul\":7123:7143   */\n      sub\n        /* \"#utility.yul\":7119:7120   */\n      0x00\n        /* \"#utility.yul\":7108:7117   */\n      dup4\n        /* \"#utility.yul\":7104:7121   */\n      add\n        /* \"#utility.yul\":7097:7144   */\n      mstore\n        /* \"#utility.yul\":7161:7292   */\n      tag_350\n        /* \"#utility.yul\":7287:7291   */\n      dup2\n        /* \"#utility.yul\":7161:7292   */\n      tag_250\n      jump\t// in\n    tag_350:\n        /* \"#utility.yul\":7153:7292   */\n      swap1\n      pop\n        /* \"#utility.yul\":6880:7299   */\n      swap2\n      swap1\n      pop\n      jump\t// out\n        /* \"#utility.yul\":7305:7448   */\n    tag_251:\n        /* \"#utility.yul\":7362:7367   */\n      0x00\n        /* \"#utility.yul\":7393:7399   */\n      dup2\n        /* \"#utility.yul\":7387:7400   */\n      mload\n        /* \"#utility.yul\":7378:7400   */\n      swap1\n      pop\n        /* \"#utility.yul\":7409:7442   */\n      tag_352\n        /* \"#utility.yul\":7436:7441   */\n      dup2\n        /* \"#utility.yul\":7409:7442   */\n      tag_236\n      jump\t// in\n    tag_352:\n        /* \"#utility.yul\":7305:7448   */\n      swap3\n      swap2\n      pop\n      pop\n      jump\t// out\n        /* \"#utility.yul\":7454:7805   */\n    tag_130:\n        /* \"#utility.yul\":7524:7530   */\n      0x00\n        /* \"#utility.yul\":7573:7575   */\n      0x20\n        /* \"#utility.yul\":7561:7570   */\n      dup3\n        /* \"#utility.yul\":7552:7559   */\n      dup5\n        /* \"#utility.yul\":7548:7571   */\n      sub\n        /* \"#utility.yul\":7544:7576   */\n      slt\n        /* \"#utility.yul\":7541:7660   */\n      iszero\n      tag_354\n      jumpi\n        /* \"#utility.yul\":7579:7658   */\n      tag_355\n      tag_234\n      jump\t// in\n    tag_355:\n        /* \"#utility.yul\":7541:7660   */\n    tag_354:\n        /* \"#utility.yul\":7699:7700   */\n      0x00\n        /* \"#utility.yul\":7724:7788   */\n      tag_356\n        /* \"#utility.yul\":7780:7787   */\n      dup5\n        /* \"#utility.yul\":7771:7777   */\n      dup3\n        /* \"#utility.yul\":7760:7769   */\n      dup6\n        /* \"#utility.yul\":7756:7778   */\n      add\n        /* \"#utility.yul\":7724:7788   */\n      tag_251\n      jump\t// in\n    tag_356:\n        /* \"#utility.yul\":7714:7788   */\n      swap2\n      pop\n        /* \"#utility.yul\":7670:7798   */\n      pop\n        /* \"#utility.yul\":7454:7805   */\n      swap3\n      swap2\n      pop\n      pop\n      jump\t// out\n        /* \"#utility.yul\":7811:7981   */\n    tag_252:\n        /* \"#utility.yul\":7951:7973   */\n      0x47616d65206973207374696c6c20616374697665000000000000000000000000\n        /* \"#utility.yul\":7947:7948   */\n      0x00\n        /* \"#utility.yul\":7939:7945   */\n      dup3\n        /* \"#utility.yul\":7935:7949   */\n      add\n        /* \"#utility.yul\":7928:7974   */\n      mstore\n        /* \"#utility.yul\":7811:7981   */\n      pop\n      jump\t// out\n        /* \"#utility.yul\":7987:8353   */\n    tag_253:\n        /* \"#utility.yul\":8129:8132   */\n      0x00\n        /* \"#utility.yul\":8150:8217   */\n      tag_359\n        /* \"#utility.yul\":8214:8216   */\n      0x14\n        /* \"#utility.yul\":8209:8212   */\n      dup4\n        /* \"#utility.yul\":8150:8217   */\n      tag_243\n      jump\t// in\n    tag_359:\n        /* \"#utility.yul\":8143:8217   */\n      swap2\n      pop\n        /* \"#utility.yul\":8226:8319   */\n      tag_360\n        /* \"#utility.yul\":8315:8318   */\n      dup3\n        /* \"#utility.yul\":8226:8319   */\n      tag_252\n      jump\t// in\n    tag_360:\n        /* \"#utility.yul\":8344:8346   */\n      0x20\n        /* \"#utility.yul\":8339:8342   */\n      dup3\n        /* \"#utility.yul\":8335:8347   */\n      add\n        /* \"#utility.yul\":8328:8347   */\n      swap1\n      pop\n        /* \"#utility.yul\":7987:8353   */\n      swap2\n      swap1\n      pop\n      jump\t// out\n        /* \"#utility.yul\":8359:8778   */\n    tag_135:\n        /* \"#utility.yul\":8525:8529   */\n      0x00\n        /* \"#utility.yul\":8563:8565   */\n      0x20\n        /* \"#utility.yul\":8552:8561   */\n      dup3\n        /* \"#utility.yul\":8548:8566   */\n      add\n        /* \"#utility.yul\":8540:8566   */\n      swap1\n      pop\n        /* \"#utility.yul\":8612:8621   */\n      dup2\n        /* \"#utility.yul\":8606:8610   */\n      dup2\n        /* \"#utility.yul\":8602:8622   */\n      sub\n        /* \"#utility.yul\":8598:8599   */\n      0x00\n        /* \"#utility.yul\":8587:8596   */\n      dup4\n        /* \"#utility.yul\":8583:8600   */\n      add\n        /* \"#utility.yul\":8576:8623   */\n      mstore\n        /* \"#utility.yul\":8640:8771   */\n      tag_362\n        /* \"#utility.yul\":8766:8770   */\n      dup2\n        /* \"#utility.yul\":8640:8771   */\n      tag_253\n      jump\t// in\n    tag_362:\n        /* \"#utility.yul\":8632:8771   */\n      swap1\n      pop\n        /* \"#utility.yul\":8359:8778   */\n      swap2\n      swap1\n      pop\n      jump\t// out\n        /* \"#utility.yul\":8784:8962   */\n    tag_254:\n        /* \"#utility.yul\":8924:8954   */\n      0x4f6e6c792077696e6e65722063616e20636c61696d2072657761726400000000\n        /* \"#utility.yul\":8920:8921   */\n      0x00\n        /* \"#utility.yul\":8912:8918   */\n      dup3\n        /* \"#utility.yul\":8908:8922   */\n      add\n        /* \"#utility.yul\":8901:8955   */\n      mstore\n        /* \"#utility.yul\":8784:8962   */\n      pop\n      jump\t// out\n        /* \"#utility.yul\":8968:9334   */\n    tag_255:\n        /* \"#utility.yul\":9110:9113   */\n      0x00\n        /* \"#utility.yul\":9131:9198   */\n      tag_365\n        /* \"#utility.yul\":9195:9197   */\n      0x1c\n        /* \"#utility.yul\":9190:9193   */\n      dup4\n        /* \"#utility.yul\":9131:9198   */\n      tag_243\n      jump\t// in\n    tag_365:\n        /* \"#utility.yul\":9124:9198   */\n      swap2\n      pop\n        /* \"#utility.yul\":9207:9300   */\n      tag_366\n        /* \"#utility.yul\":9296:9299   */\n      dup3\n        /* \"#utility.yul\":9207:9300   */\n      tag_254\n      jump\t// in\n    tag_366:\n        /* \"#utility.yul\":9325:9327   */\n      0x20\n        /* \"#utility.yul\":9320:9323   */\n      dup3\n        /* \"#utility.yul\":9316:9328   */\n      add\n        /* \"#utility.yul\":9309:9328   */\n      swap1\n      pop\n        /* \"#utility.yul\":8968:9334   */\n      swap2\n      swap1\n      pop\n      jump\t// out\n        /* \"#utility.yul\":9340:9759   */\n    tag_138:\n        /* \"#utility.yul\":9506:9510   */\n      0x00\n        /* \"#utility.yul\":9544:9546   */\n      0x20\n        /* \"#utility.yul\":9533:9542   */\n      dup3\n        /* \"#utility.yul\":9529:9547   */\n      add\n        /* \"#utility.yul\":9521:9547   */\n      swap1\n      pop\n        /* \"#utility.yul\":9593:9602   */\n      dup2\n        /* \"#utility.yul\":9587:9591   */\n      dup2\n        /* \"#utility.yul\":9583:9603   */\n      sub\n        /* \"#utility.yul\":9579:9580   */\n      0x00\n        /* \"#utility.yul\":9568:9577   */\n      dup4\n        /* \"#utility.yul\":9564:9581   */\n      add\n        /* \"#utility.yul\":9557:9604   */\n      mstore\n        /* \"#utility.yul\":9621:9752   */\n      tag_368\n        /* \"#utility.yul\":9747:9751   */\n      dup2\n        /* \"#utility.yul\":9621:9752   */\n      tag_255\n      jump\t// in\n    tag_368:\n        /* \"#utility.yul\":9613:9752   */\n      swap1\n      pop\n        /* \"#utility.yul\":9340:9759   */\n      swap2\n      swap1\n      pop\n      jump\t// out\n        /* \"#utility.yul\":9765:9937   */\n    tag_256:\n        /* \"#utility.yul\":9905:9929   */\n      0x52657761726420616c726561647920636c61696d656400000000000000000000\n        /* \"#utility.yul\":9901:9902   */\n      0x00\n        /* \"#utility.yul\":9893:9899   */\n      dup3\n        /* \"#utility.yul\":9889:9903   */\n      add\n        /* \"#utility.yul\":9882:9930   */\n      mstore\n        /* \"#utility.yul\":9765:9937   */\n      pop\n      jump\t// out\n        /* \"#utility.yul\":9943:10309   */\n    tag_257:\n        /* \"#utility.yul\":10085:10088   */\n      0x00\n        /* \"#utility.yul\":10106:10173   */\n      tag_371\n        /* \"#utility.yul\":10170:10172   */\n      0x16\n        /* \"#utility.yul\":10165:10168   */\n      dup4\n        /* \"#utility.yul\":10106:10173   */\n      tag_243\n      jump\t// in\n    tag_371:\n        /* \"#utility.yul\":10099:10173   */\n      swap2\n      pop\n        /* \"#utility.yul\":10182:10275   */\n      tag_372\n        /* \"#utility.yul\":10271:10274   */\n      dup3\n        /* \"#utility.yul\":10182:10275   */\n      tag_256\n      jump\t// in\n    tag_372:\n        /* \"#utility.yul\":10300:10302   */\n      0x20\n        /* \"#utility.yul\":10295:10298   */\n      dup3\n        /* \"#utility.yul\":10291:10303   */\n      add\n        /* \"#utility.yul\":10284:10303   */\n      swap1\n      pop\n        /* \"#utility.yul\":9943:10309   */\n      swap2\n      swap1\n      pop\n      jump\t// out\n        /* \"#utility.yul\":10315:10734   */\n    tag_141:\n        /* \"#utility.yul\":10481:10485   */\n      0x00\n        /* \"#utility.yul\":10519:10521   */\n      0x20\n        /* \"#utility.yul\":10508:10517   */\n      dup3\n        /* \"#utility.yul\":10504:10522   */\n      add\n        /* \"#utility.yul\":10496:10522   */\n      swap1\n      pop\n        /* \"#utility.yul\":10568:10577   */\n      dup2\n        /* \"#utility.yul\":10562:10566   */\n      dup2\n        /* \"#utility.yul\":10558:10578   */\n      sub\n        /* \"#utility.yul\":10554:10555   */\n      0x00\n        /* \"#utility.yul\":10543:10552   */\n      dup4\n        /* \"#utility.yul\":10539:10556   */\n      add\n        /* \"#utility.yul\":10532:10579   */\n      mstore\n        /* \"#utility.yul\":10596:10727   */\n      tag_374\n        /* \"#utility.yul\":10722:10726   */\n      dup2\n        /* \"#utility.yul\":10596:10727   */\n      tag_257\n      jump\t// in\n    tag_374:\n        /* \"#utility.yul\":10588:10727   */\n      swap1\n      pop\n        /* \"#utility.yul\":10315:10734   */\n      swap2\n      swap1\n      pop\n      jump\t// out\n        /* \"#utility.yul\":10740:10918   */\n    tag_258:\n        /* \"#utility.yul\":10880:10910   */\n      0x43757272656e742067616d65206973207374696c6c2061637469766500000000\n        /* \"#utility.yul\":10876:10877   */\n      0x00\n        /* \"#utility.yul\":10868:10874   */\n      dup3\n        /* \"#utility.yul\":10864:10878   */\n      add\n        /* \"#utility.yul\":10857:10911   */\n      mstore\n        /* \"#utility.yul\":10740:10918   */\n      pop\n      jump\t// out\n        /* \"#utility.yul\":10924:11290   */\n    tag_259:\n        /* \"#utility.yul\":11066:11069   */\n      0x00\n        /* \"#utility.yul\":11087:11154   */\n      tag_377\n        /* \"#utility.yul\":11151:11153   */\n      0x1c\n        /* \"#utility.yul\":11146:11149   */\n      dup4\n        /* \"#utility.yul\":11087:11154   */\n      tag_243\n      jump\t// in\n    tag_377:\n        /* \"#utility.yul\":11080:11154   */\n      swap2\n      pop\n        /* \"#utility.yul\":11163:11256   */\n      tag_378\n        /* \"#utility.yul\":11252:11255   */\n      dup3\n        /* \"#utility.yul\":11163:11256   */\n      tag_258\n      jump\t// in\n    tag_378:\n        /* \"#utility.yul\":11281:11283   */\n      0x20\n        /* \"#utility.yul\":11276:11279   */\n      dup3\n        /* \"#utility.yul\":11272:11284   */\n      add\n        /* \"#utility.yul\":11265:11284   */\n      swap1\n      pop\n        /* \"#utility.yul\":10924:11290   */\n      swap2\n      swap1\n      pop\n      jump\t// out\n        /* \"#utility.yul\":11296:11715   */\n    tag_159:\n        /* \"#utility.yul\":11462:11466   */\n      0x00\n        /* \"#utility.yul\":11500:11502   */\n      0x20\n        /* \"#utility.yul\":11489:11498   */\n      dup3\n        /* \"#utility.yul\":11485:11503   */\n      add\n        /* \"#utility.yul\":11477:11503   */\n      swap1\n      pop\n        /* \"#utility.yul\":11549:11558   */\n      dup2\n        /* \"#utility.yul\":11543:11547   */\n      dup2\n        /* \"#utility.yul\":11539:11559   */\n      sub\n        /* \"#utility.yul\":11535:11536   */\n      0x00\n        /* \"#utility.yul\":11524:11533   */\n      dup4\n        /* \"#utility.yul\":11520:11537   */\n      add\n        /* \"#utility.yul\":11513:11560   */\n      mstore\n        /* \"#utility.yul\":11577:11708   */\n      tag_380\n        /* \"#utility.yul\":11703:11707   */\n      dup2\n        /* \"#utility.yul\":11577:11708   */\n      tag_259\n      jump\t// in\n    tag_380:\n        /* \"#utility.yul\":11569:11708   */\n      swap1\n      pop\n        /* \"#utility.yul\":11296:11715   */\n      swap2\n      swap1\n      pop\n      jump\t// out\n        /* \"#utility.yul\":11721:11897   */\n    tag_260:\n        /* \"#utility.yul\":11861:11889   */\n      0x496e73756666696369656e7420746f6b656e2062616c616e6365000000000000\n        /* \"#utility.yul\":11857:11858   */\n      0x00\n        /* \"#utility.yul\":11849:11855   */\n      dup3\n        /* \"#utility.yul\":11845:11859   */\n      add\n        /* \"#utility.yul\":11838:11890   */\n      mstore\n        /* \"#utility.yul\":11721:11897   */\n      pop\n      jump\t// out\n        /* \"#utility.yul\":11903:12269   */\n    tag_261:\n        /* \"#utility.yul\":12045:12048   */\n      0x00\n        /* \"#utility.yul\":12066:12133   */\n      tag_383\n        /* \"#utility.yul\":12130:12132   */\n      0x1a\n        /* \"#utility.yul\":12125:12128   */\n      dup4\n        /* \"#utility.yul\":12066:12133   */\n      tag_243\n      jump\t// in\n    tag_383:\n        /* \"#utility.yul\":12059:12133   */\n      swap2\n      pop\n        /* \"#utility.yul\":12142:12235   */\n      tag_384\n        /* \"#utility.yul\":12231:12234   */\n      dup3\n        /* \"#utility.yul\":12142:12235   */\n      tag_260\n      jump\t// in\n    tag_384:\n        /* \"#utility.yul\":12260:12262   */\n      0x20\n        /* \"#utility.yul\":12255:12258   */\n      dup3\n        /* \"#utility.yul\":12251:12263   */\n      add\n        /* \"#utility.yul\":12244:12263   */\n      swap1\n      pop\n        /* \"#utility.yul\":11903:12269   */\n      swap2\n      swap1\n      pop\n      jump\t// out\n        /* \"#utility.yul\":12275:12694   */\n    tag_166:\n        /* \"#utility.yul\":12441:12445   */\n      0x00\n        /* \"#utility.yul\":12479:12481   */\n      0x20\n        /* \"#utility.yul\":12468:12477   */\n      dup3\n        /* \"#utility.yul\":12464:12482   */\n      add\n        /* \"#utility.yul\":12456:12482   */\n      swap1\n      pop\n        /* \"#utility.yul\":12528:12537   */\n      dup2\n        /* \"#utility.yul\":12522:12526   */\n      dup2\n        /* \"#utility.yul\":12518:12538   */\n      sub\n        /* \"#utility.yul\":12514:12515   */\n      0x00\n        /* \"#utility.yul\":12503:12512   */\n      dup4\n        /* \"#utility.yul\":12499:12516   */\n      add\n        /* \"#utility.yul\":12492:12539   */\n      mstore\n        /* \"#utility.yul\":12556:12687   */\n      tag_386\n        /* \"#utility.yul\":12682:12686   */\n      dup2\n        /* \"#utility.yul\":12556:12687   */\n      tag_261\n      jump\t// in\n    tag_386:\n        /* \"#utility.yul\":12548:12687   */\n      swap1\n      pop\n        /* \"#utility.yul\":12275:12694   */\n      swap2\n      swap1\n      pop\n      jump\t// out\n        /* \"#utility.yul\":12700:12877   */\n    tag_262:\n        /* \"#utility.yul\":12840:12869   */\n      0x50726576696f757320726577617264206e6f7420636c61696d65640000000000\n        /* \"#utility.yul\":12836:12837   */\n      0x00\n        /* \"#utility.yul\":12828:12834   */\n      dup3\n        /* \"#utility.yul\":12824:12838   */\n      add\n        /* \"#utility.yul\":12817:12870   */\n      mstore\n        /* \"#utility.yul\":12700:12877   */\n      pop\n      jump\t// out\n        /* \"#utility.yul\":12883:13249   */\n    tag_263:\n        /* \"#utility.yul\":13025:13028   */\n      0x00\n        /* \"#utility.yul\":13046:13113   */\n      tag_389\n        /* \"#utility.yul\":13110:13112   */\n      0x1b\n        /* \"#utility.yul\":13105:13108   */\n      dup4\n        /* \"#utility.yul\":13046:13113   */\n      tag_243\n      jump\t// in\n    tag_389:\n        /* \"#utility.yul\":13039:13113   */\n      swap2\n      pop\n        /* \"#utility.yul\":13122:13215   */\n      tag_390\n        /* \"#utility.yul\":13211:13214   */\n      dup3\n        /* \"#utility.yul\":13122:13215   */\n      tag_262\n      jump\t// in\n    tag_390:\n        /* \"#utility.yul\":13240:13242   */\n      0x20\n        /* \"#utility.yul\":13235:13238   */\n      dup3\n        /* \"#utility.yul\":13231:13243   */\n      add\n        /* \"#utility.yul\":13224:13243   */\n      swap1\n      pop\n        /* \"#utility.yul\":12883:13249   */\n      swap2\n      swap1\n      pop\n      jump\t// out\n        /* \"#utility.yul\":13255:13674   */\n    tag_170:\n        /* \"#utility.yul\":13421:13425   */\n      0x00\n        /* \"#utility.yul\":13459:13461   */\n      0x20\n        /* \"#utility.yul\":13448:13457   */\n      dup3\n        /* \"#utility.yul\":13444:13462   */\n      add\n        /* \"#utility.yul\":13436:13462   */\n      swap1\n      pop\n        /* \"#utility.yul\":13508:13517   */\n      dup2\n        /* \"#utility.yul\":13502:13506   */\n      dup2\n        /* \"#utility.yul\":13498:13518   */\n      sub\n        /* \"#utility.yul\":13494:13495   */\n      0x00\n        /* \"#utility.yul\":13483:13492   */\n      dup4\n        /* \"#utility.yul\":13479:13496   */\n      add\n        /* \"#utility.yul\":13472:13519   */\n      mstore\n        /* \"#utility.yul\":13536:13667   */\n      tag_392\n        /* \"#utility.yul\":13662:13666   */\n      dup2\n        /* \"#utility.yul\":13536:13667   */\n      tag_263\n      jump\t// in\n    tag_392:\n        /* \"#utility.yul\":13528:13667   */\n      swap1\n      pop\n        /* \"#utility.yul\":13255:13674   */\n      swap2\n      swap1\n      pop\n      jump\t// out\n        /* \"#utility.yul\":13680:13913   */\n    tag_172:\n        /* \"#utility.yul\":13719:13722   */\n      0x00\n        /* \"#utility.yul\":13742:13766   */\n      tag_394\n        /* \"#utility.yul\":13760:13765   */\n      dup3\n        /* \"#utility.yul\":13742:13766   */\n      tag_231\n      jump\t// in\n    tag_394:\n        /* \"#utility.yul\":13733:13766   */\n      swap2\n      pop\n        /* \"#utility.yul\":13788:13854   */\n      0xffffffffffffffffffffffffffffffffffffffffffffffffffffffffffffffff\n        /* \"#utility.yul\":13781:13786   */\n      dup3\n        /* \"#utility.yul\":13778:13855   */\n      sub\n        /* \"#utility.yul\":13775:13878   */\n      tag_395\n      jumpi\n        /* \"#utility.yul\":13858:13876   */\n      tag_396\n      tag_248\n      jump\t// in\n    tag_396:\n        /* \"#utility.yul\":13775:13878   */\n    tag_395:\n        /* \"#utility.yul\":13905:13906   */\n      0x01\n        /* \"#utility.yul\":13898:13903   */\n      dup3\n        /* \"#utility.yul\":13894:13907   */\n      add\n        /* \"#utility.yul\":13887:13907   */\n      swap1\n      pop\n        /* \"#utility.yul\":13680:13913   */\n      swap2\n      swap1\n      pop\n      jump\t// out\n        /* \"#utility.yul\":13919:14083   */\n    tag_264:\n        /* \"#utility.yul\":14059:14075   */\n      0x47616d652068617320656e646564000000000000000000000000000000000000\n        /* \"#utility.yul\":14055:14056   */\n      0x00\n        /* \"#utility.yul\":14047:14053   */\n      dup3\n        /* \"#utility.yul\":14043:14057   */\n      add\n        /* \"#utility.yul\":14036:14076   */\n      mstore\n        /* \"#utility.yul\":13919:14083   */\n      pop\n      jump\t// out\n        /* \"#utility.yul\":14089:14455   */\n    tag_265:\n        /* \"#utility.yul\":14231:14234   */\n      0x00\n        /* \"#utility.yul\":14252:14319   */\n      tag_399\n        /* \"#utility.yul\":14316:14318   */\n      0x0e\n        /* \"#utility.yul\":14311:14314   */\n      dup4\n        /* \"#utility.yul\":14252:14319   */\n      tag_243\n      jump\t// in\n    tag_399:\n        /* \"#utility.yul\":14245:14319   */\n      swap2\n      pop\n        /* \"#utility.yul\":14328:14421   */\n      tag_400\n        /* \"#utility.yul\":14417:14420   */\n      dup3\n        /* \"#utility.yul\":14328:14421   */\n      tag_264\n      jump\t// in\n    tag_400:\n        /* \"#utility.yul\":14446:14448   */\n      0x20\n        /* \"#utility.yul\":14441:14444   */\n      dup3\n        /* \"#utility.yul\":14437:14449   */\n      add\n        /* \"#utility.yul\":14430:14449   */\n      swap1\n      pop\n        /* \"#utility.yul\":14089:14455   */\n      swap2\n      swap1\n      pop\n      jump\t// out\n        /* \"#utility.yul\":14461:14880   */\n    tag_180:\n        /* \"#utility.yul\":14627:14631   */\n      0x00\n        /* \"#utility.yul\":14665:14667   */\n      0x20\n        /* \"#utility.yul\":14654:14663   */\n      dup3\n        /* \"#utility.yul\":14650:14668   */\n      add\n        /* \"#utility.yul\":14642:14668   */\n      swap1\n      pop\n        /* \"#utility.yul\":14714:14723   */\n      dup2\n        /* \"#utility.yul\":14708:14712   */\n      dup2\n        /* \"#utility.yul\":14704:14724   */\n      sub\n        /* \"#utility.yul\":14700:14701   */\n      0x00\n        /* \"#utility.yul\":14689:14698   */\n      dup4\n        /* \"#utility.yul\":14685:14702   */\n      add\n        /* \"#utility.yul\":14678:14725   */\n      mstore\n        /* \"#utility.yul\":14742:14873   */\n      tag_402\n        /* \"#utility.yul\":14868:14872   */\n      dup2\n        /* \"#utility.yul\":14742:14873   */\n      tag_265\n      jump\t// in\n    tag_402:\n        /* \"#utility.yul\":14734:14873   */\n      swap1\n      pop\n        /* \"#utility.yul\":14461:14880   */\n      swap2\n      swap1\n      pop\n      jump\t// out\n        /* \"#utility.yul\":14886:14980   */\n    tag_266:\n        /* \"#utility.yul\":14919:14927   */\n      0x00\n        /* \"#utility.yul\":14967:14972   */\n      dup2\n        /* \"#utility.yul\":14963:14965   */\n      0x60\n        /* \"#utility.yul\":14959:14973   */\n      shl\n        /* \"#utility.yul\":14938:14973   */\n      swap1\n      pop\n        /* \"#utility.yul\":14886:14980   */\n      swap2\n      swap1\n      pop\n      jump\t// out\n        /* \"#utility.yul\":14986:15080   */\n    tag_267:\n        /* \"#utility.yul\":15025:15032   */\n      0x00\n        /* \"#utility.yul\":15054:15074   */\n      tag_405\n        /* \"#utility.yul\":15068:15073   */\n      dup3\n        /* \"#utility.yul\":15054:15074   */\n      tag_266\n      jump\t// in\n    tag_405:\n        /* \"#utility.yul\":15043:15074   */\n      swap1\n      pop\n        /* \"#utility.yul\":14986:15080   */\n      swap2\n      swap1\n      pop\n      jump\t// out\n        /* \"#utility.yul\":15086:15186   */\n    tag_268:\n        /* \"#utility.yul\":15125:15132   */\n      0x00\n        /* \"#utility.yul\":15154:15180   */\n      tag_407\n        /* \"#utility.yul\":15174:15179   */\n      dup3\n        /* \"#utility.yul\":15154:15180   */\n      tag_267\n      jump\t// in\n    tag_407:\n        /* \"#utility.yul\":15143:15180   */\n      swap1\n      pop\n        /* \"#utility.yul\":15086:15186   */\n      swap2\n      swap1\n      pop\n      jump\t// out\n        /* \"#utility.yul\":15192:15349   */\n    tag_269:\n        /* \"#utility.yul\":15297:15342   */\n      tag_409\n        /* \"#utility.yul\":15317:15341   */\n      tag_410\n        /* \"#utility.yul\":15335:15340   */\n      dup3\n        /* \"#utility.yul\":15317:15341   */\n      tag_229\n      jump\t// in\n    tag_410:\n        /* \"#utility.yul\":15297:15342   */\n      tag_268\n      jump\t// in\n    tag_409:\n        /* \"#utility.yul\":15292:15295   */\n      dup3\n        /* \"#utility.yul\":15285:15343   */\n      mstore\n        /* \"#utility.yul\":15192:15349   */\n      pop\n      pop\n      jump\t// out\n        /* \"#utility.yul\":15355:15434   */\n    tag_270:\n        /* \"#utility.yul\":15394:15401   */\n      0x00\n        /* \"#utility.yul\":15423:15428   */\n      dup2\n        /* \"#utility.yul\":15412:15428   */\n      swap1\n      pop\n        /* \"#utility.yul\":15355:15434   */\n      swap2\n      swap1\n      pop\n      jump\t// out\n        /* \"#utility.yul\":15440:15597   */\n    tag_271:\n        /* \"#utility.yul\":15545:15590   */\n      tag_413\n        /* \"#utility.yul\":15565:15589   */\n      tag_414\n        /* \"#utility.yul\":15583:15588   */\n      dup3\n        /* \"#utility.yul\":15565:15589   */\n      tag_231\n      jump\t// in\n    tag_414:\n        /* \"#utility.yul\":15545:15590   */\n      tag_270\n      jump\t// in\n    tag_413:\n        /* \"#utility.yul\":15540:15543   */\n      dup3\n        /* \"#utility.yul\":15533:15591   */\n      mstore\n        /* \"#utility.yul\":15440:15597   */\n      pop\n      pop\n      jump\t// out\n        /* \"#utility.yul\":15603:16000   */\n    tag_182:\n        /* \"#utility.yul\":15743:15746   */\n      0x00\n        /* \"#utility.yul\":15758:15833   */\n      tag_416\n        /* \"#utility.yul\":15829:15832   */\n      dup3\n        /* \"#utility.yul\":15820:15826   */\n      dup6\n        /* \"#utility.yul\":15758:15833   */\n      tag_269\n      jump\t// in\n    tag_416:\n        /* \"#utility.yul\":15858:15860   */\n      0x14\n        /* \"#utility.yul\":15853:15856   */\n      dup3\n        /* \"#utility.yul\":15849:15861   */\n      add\n        /* \"#utility.yul\":15842:15861   */\n      swap2\n      pop\n        /* \"#utility.yul\":15871:15946   */\n      tag_417\n        /* \"#utility.yul\":15942:15945   */\n      dup3\n        /* \"#utility.yul\":15933:15939   */\n      dup5\n        /* \"#utility.yul\":15871:15946   */\n      tag_271\n      jump\t// in\n    tag_417:\n        /* \"#utility.yul\":15971:15973   */\n      0x20\n        /* \"#utility.yul\":15966:15969   */\n      dup3\n        /* \"#utility.yul\":15962:15974   */\n      add\n        /* \"#utility.yul\":15955:15974   */\n      swap2\n      pop\n        /* \"#utility.yul\":15991:15994   */\n      dup2\n        /* \"#utility.yul\":15984:15994   */\n      swap1\n      pop\n        /* \"#utility.yul\":15603:16000   */\n      swap4\n      swap3\n      pop\n      pop\n      pop\n      jump\t// out\n        /* \"#utility.yul\":16006:16338   */\n    tag_188:\n        /* \"#utility.yul\":16127:16131   */\n      0x00\n        /* \"#utility.yul\":16165:16167   */\n      0x40\n        /* \"#utility.yul\":16154:16163   */\n      dup3\n        /* \"#utility.yul\":16150:16168   */\n      add\n        /* \"#utility.yul\":16142:16168   */\n      swap1\n      pop\n        /* \"#utility.yul\":16178:16249   */\n      tag_419\n        /* \"#utility.yul\":16246:16247   */\n      0x00\n        /* \"#utility.yul\":16235:16244   */\n      dup4\n        /* \"#utility.yul\":16231:16248   */\n      add\n        /* \"#utility.yul\":16222:16228   */\n      dup6\n        /* \"#utility.yul\":16178:16249   */\n      tag_230\n      jump\t// in\n    tag_419:\n        /* \"#utility.yul\":16259:16331   */\n      tag_420\n        /* \"#utility.yul\":16327:16329   */\n      0x20\n        /* \"#utility.yul\":16316:16325   */\n      dup4\n        /* \"#utility.yul\":16312:16330   */\n      add\n        /* \"#utility.yul\":16303:16309   */\n      dup5\n        /* \"#utility.yul\":16259:16331   */\n      tag_232\n      jump\t// in\n    tag_420:\n        /* \"#utility.yul\":16006:16338   */\n      swap4\n      swap3\n      pop\n      pop\n      pop\n      jump\t// out\n        /* \"#utility.yul\":16344:16786   */\n    tag_193:\n        /* \"#utility.yul\":16493:16497   */\n      0x00\n        /* \"#utility.yul\":16531:16533   */\n      0x60\n        /* \"#utility.yul\":16520:16529   */\n      dup3\n        /* \"#utility.yul\":16516:16534   */\n      add\n        /* \"#utility.yul\":16508:16534   */\n      swap1\n      pop\n        /* \"#utility.yul\":16544:16615   */\n      tag_422\n        /* \"#utility.yul\":16612:16613   */\n      0x00\n        /* \"#utility.yul\":16601:16610   */\n      dup4\n        /* \"#utility.yul\":16597:16614   */\n      add\n        /* \"#utility.yul\":16588:16594   */\n      dup7\n        /* \"#utility.yul\":16544:16615   */\n      tag_230\n      jump\t// in\n    tag_422:\n        /* \"#utility.yul\":16625:16697   */\n      tag_423\n        /* \"#utility.yul\":16693:16695   */\n      0x20\n        /* \"#utility.yul\":16682:16691   */\n      dup4\n        /* \"#utility.yul\":16678:16696   */\n      add\n        /* \"#utility.yul\":16669:16675   */\n      dup6\n        /* \"#utility.yul\":16625:16697   */\n      tag_230\n      jump\t// in\n    tag_423:\n        /* \"#utility.yul\":16707:16779   */\n      tag_424\n        /* \"#utility.yul\":16775:16777   */\n      0x40\n        /* \"#utility.yul\":16764:16773   */\n      dup4\n        /* \"#utility.yul\":16760:16778   */\n      add\n        /* \"#utility.yul\":16751:16757   */\n      dup5\n        /* \"#utility.yul\":16707:16779   */\n      tag_232\n      jump\t// in\n    tag_424:\n        /* \"#utility.yul\":16344:16786   */\n      swap5\n      swap4\n      pop\n      pop\n      pop\n      pop\n      jump\t// out\n        /* \"#utility.yul\":16792:16908   */\n    tag_272:\n        /* \"#utility.yul\":16862:16883   */\n      tag_426\n        /* \"#utility.yul\":16877:16882   */\n      dup2\n        /* \"#utility.yul\":16862:16883   */\n      tag_226\n      jump\t// in\n    tag_426:\n        /* \"#utility.yul\":16855:16860   */\n      dup2\n        /* \"#utility.yul\":16852:16884   */\n      eq\n        /* \"#utility.yul\":16842:16902   */\n      tag_427\n      jumpi\n        /* \"#utility.yul\":16898:16899   */\n      0x00\n        /* \"#utility.yul\":16895:16896   */\n      dup1\n        /* \"#utility.yul\":16888:16900   */\n      revert\n        /* \"#utility.yul\":16842:16902   */\n    tag_427:\n        /* \"#utility.yul\":16792:16908   */\n      pop\n      jump\t// out\n        /* \"#utility.yul\":16914:17051   */\n    tag_273:\n        /* \"#utility.yul\":16968:16973   */\n      0x00\n        /* \"#utility.yul\":16999:17005   */\n      dup2\n        /* \"#utility.yul\":16993:17006   */\n      mload\n        /* \"#utility.yul\":16984:17006   */\n      swap1\n      pop\n        /* \"#utility.yul\":17015:17045   */\n      tag_429\n        /* \"#utility.yul\":17039:17044   */\n      dup2\n        /* \"#utility.yul\":17015:17045   */\n      tag_272\n      jump\t// in\n    tag_429:\n        /* \"#utility.yul\":16914:17051   */\n      swap3\n      swap2\n      pop\n      pop\n      jump\t// out\n        /* \"#utility.yul\":17057:17402   */\n    tag_199:\n        /* \"#utility.yul\":17124:17130   */\n      0x00\n        /* \"#utility.yul\":17173:17175   */\n      0x20\n        /* \"#utility.yul\":17161:17170   */\n      dup3\n        /* \"#utility.yul\":17152:17159   */\n      dup5\n        /* \"#utility.yul\":17148:17171   */\n      sub\n        /* \"#utility.yul\":17144:17176   */\n      slt\n        /* \"#utility.yul\":17141:17260   */\n      iszero\n      tag_431\n      jumpi\n        /* \"#utility.yul\":17179:17258   */\n      tag_432\n      tag_234\n      jump\t// in\n    tag_432:\n        /* \"#utility.yul\":17141:17260   */\n    tag_431:\n        /* \"#utility.yul\":17299:17300   */\n      0x00\n        /* \"#utility.yul\":17324:17385   */\n      tag_433\n        /* \"#utility.yul\":17377:17384   */\n      dup5\n        /* \"#utility.yul\":17368:17374   */\n      dup3\n        /* \"#utility.yul\":17357:17366   */\n      dup6\n        /* \"#utility.yul\":17353:17375   */\n      add\n        /* \"#utility.yul\":17324:17385   */\n      tag_273\n      jump\t// in\n    tag_433:\n        /* \"#utility.yul\":17314:17385   */\n      swap2\n      pop\n        /* \"#utility.yul\":17270:17395   */\n      pop\n        /* \"#utility.yul\":17057:17402   */\n      swap3\n      swap2\n      pop\n      pop\n      jump\t// out\n        /* \"#utility.yul\":17408:17506   */\n    tag_274:\n        /* \"#utility.yul\":17459:17465   */\n      0x00\n        /* \"#utility.yul\":17493:17498   */\n      dup2\n        /* \"#utility.yul\":17487:17499   */\n      mload\n        /* \"#utility.yul\":17477:17499   */\n      swap1\n      pop\n        /* \"#utility.yul\":17408:17506   */\n      swap2\n      swap1\n      pop\n      jump\t// out\n        /* \"#utility.yul\":17512:17659   */\n    tag_275:\n        /* \"#utility.yul\":17613:17624   */\n      0x00\n        /* \"#utility.yul\":17650:17653   */\n      dup2\n        /* \"#utility.yul\":17635:17653   */\n      swap1\n      pop\n        /* \"#utility.yul\":17512:17659   */\n      swap3\n      swap2\n      pop\n      pop\n      jump\t// out\n        /* \"#utility.yul\":17665:17804   */\n    tag_276:\n        /* \"#utility.yul\":17754:17760   */\n      dup3\n        /* \"#utility.yul\":17749:17752   */\n      dup2\n        /* \"#utility.yul\":17744:17747   */\n      dup4\n        /* \"#utility.yul\":17738:17761   */\n      mcopy\n        /* \"#utility.yul\":17795:17796   */\n      0x00\n        /* \"#utility.yul\":17786:17792   */\n      dup4\n        /* \"#utility.yul\":17781:17784   */\n      dup4\n        /* \"#utility.yul\":17777:17793   */\n      add\n        /* \"#utility.yul\":17770:17797   */\n      mstore\n        /* \"#utility.yul\":17665:17804   */\n      pop\n      pop\n      pop\n      jump\t// out\n        /* \"#utility.yul\":17810:18196   */\n    tag_277:\n        /* \"#utility.yul\":17914:17917   */\n      0x00\n        /* \"#utility.yul\":17942:17980   */\n      tag_438\n        /* \"#utility.yul\":17974:17979   */\n      dup3\n        /* \"#utility.yul\":17942:17980   */\n      tag_274\n      jump\t// in\n    tag_438:\n        /* \"#utility.yul\":17996:18084   */\n      tag_439\n        /* \"#utility.yul\":18077:18083   */\n      dup2\n        /* \"#utility.yul\":18072:18075   */\n      dup6\n        /* \"#utility.yul\":17996:18084   */\n      tag_275\n      jump\t// in\n    tag_439:\n        /* \"#utility.yul\":17989:18084   */\n      swap4\n      pop\n        /* \"#utility.yul\":18093:18158   */\n      tag_440\n        /* \"#utility.yul\":18151:18157   */\n      dup2\n        /* \"#utility.yul\":18146:18149   */\n      dup6\n        /* \"#utility.yul\":18139:18143   */\n      0x20\n        /* \"#utility.yul\":18132:18137   */\n      dup7\n        /* \"#utility.yul\":18128:18144   */\n      add\n        /* \"#utility.yul\":18093:18158   */\n      tag_276\n      jump\t// in\n    tag_440:\n        /* \"#utility.yul\":18183:18189   */\n      dup1\n        /* \"#utility.yul\":18178:18181   */\n      dup5\n        /* \"#utility.yul\":18174:18190   */\n      add\n        /* \"#utility.yul\":18167:18190   */\n      swap2\n      pop\n        /* \"#utility.yul\":17918:18196   */\n      pop\n        /* \"#utility.yul\":17810:18196   */\n      swap3\n      swap2\n      pop\n      pop\n      jump\t// out\n        /* \"#utility.yul\":18202:18473   */\n    tag_209:\n        /* \"#utility.yul\":18332:18335   */\n      0x00\n        /* \"#utility.yul\":18354:18447   */\n      tag_442\n        /* \"#utility.yul\":18443:18446   */\n      dup3\n        /* \"#utility.yul\":18434:18440   */\n      dup5\n        /* \"#utility.yul\":18354:18447   */\n      tag_277\n      jump\t// in\n    tag_442:\n        /* \"#utility.yul\":18347:18447   */\n      swap2\n      pop\n        /* \"#utility.yul\":18464:18467   */\n      dup2\n        /* \"#utility.yul\":18457:18467   */\n      swap1\n      pop\n        /* \"#utility.yul\":18202:18473   */\n      swap3\n      swap2\n      pop\n      pop\n      jump\t// out\n\n    auxdata: 0xa2646970667358221220f6082913535f43b89bf9aebdea207fb259858c7488315dd82f1ad6880e9f0b2b64736f6c634300081a0033\n}\n",
				"bytecode": {
					"linkReferences": {},
					"object": "608060405234801561000f575f80fd5b50604051611cfb380380611cfb83398181016040528101906100319190610115565b335f806101000a81548173ffffffffffffffffffffffffffffffffffffffff021916908373ffffffffffffffffffffffffffffffffffffffff16021790555080600860016101000a81548173ffffffffffffffffffffffffffffffffffffffff021916908373ffffffffffffffffffffffffffffffffffffffff16021790555050610140565b5f80fd5b5f73ffffffffffffffffffffffffffffffffffffffff82169050919050565b5f6100e4826100bb565b9050919050565b6100f4816100da565b81146100fe575f80fd5b50565b5f8151905061010f816100eb565b92915050565b5f6020828403121561012a576101296100b7565b5b5f61013784828501610101565b91505092915050565b611bae8061014d5f395ff3fe608060405234801561000f575f80fd5b5060043610610156575f3560e01c8063aa9bbc0c116100c1578063dfbf53ae1161007a578063dfbf53ae1461034a578063e1f0c37614610368578063efc2937214610386578063f020044f146103a4578063f30d9470146103c2578063fd636322146103de57610156565b8063aa9bbc0c146102ac578063b88a802f146102ca578063b97dd9e2146102d4578063c010ce68146102f2578063d94504b914610310578063dd49756e1461032e57610156565b806356bf87411161011357806356bf87411461020c57806358830d6c1461022a5780636cbc2ded146102485780636f9fb98a146102525780638da5cb5b146102705780638e7ea5b21461028e57610156565b806301b62b781461015a5780630d7d559914610178578063228cb73314610196578063315a095d146101b45780633804c73d146101d05780633d18b912146101ee575b5f80fd5b6101626103e8565b60405161016f91906112f6565b60405180910390f35b6101806103fa565b60405161018d919061134e565b60405180910390f35b61019e61041f565b6040516101ab919061137f565b60405180910390f35b6101ce60048036038101906101c991906113c6565b610425565b005b6101d8610502565b6040516101e5919061137f565b60405180910390f35b6101f6610508565b604051610203919061137f565b60405180910390f35b610214610511565b604051610221919061144c565b60405180910390f35b610232610537565b60405161023f919061137f565b60405180910390f35b61025061053d565b005b61025a6106e7565b604051610267919061137f565b60405180910390f35b610278610787565b604051610285919061134e565b60405180910390f35b6102966107aa565b6040516102a3919061134e565b60405180910390f35b6102b46107d3565b6040516102c1919061137f565b60405180910390f35b6102d26107d9565b005b6102dc610994565b6040516102e9919061137f565b60405180910390f35b6102fa61099d565b60405161030791906112f6565b60405180910390f35b6103186109b2565b604051610325919061137f565b60405180910390f35b610348600480360381019061034391906113c6565b6109bb565b005b610352610a9a565b60405161035f919061134e565b60405180910390f35b610370610ac0565b60405161037d919061137f565b60405180910390f35b61038e610ac6565b60405161039b919061134e565b60405180910390f35b6103ac610aee565b6040516103b991906112f6565b60405180910390f35b6103dc60048036038101906103d79190611465565b610b00565b005b6103e6610e1c565b005b60085f9054906101000a900460ff1681565b60045f9054906101000a900473ffffffffffffffffffffffffffffffffffffffff1681565b60075481565b5f8054906101000a900473ffffffffffffffffffffffffffffffffffffffff1673ffffffffffffffffffffffffffffffffffffffff163373ffffffffffffffffffffffffffffffffffffffff16146104b2576040517f08c379a00000000000000000000000000000000000000000000000000000000081526004016104a990611523565b60405180910390fd5b6104ff3382600860019054906101000a900473ffffffffffffffffffffffffffffffffffffffff1673ffffffffffffffffffffffffffffffffffffffff16610f979092919063ffffffff16565b50565b60025481565b5f600754905090565b600860019054906101000a900473ffffffffffffffffffffffffffffffffffffffff1681565b60055481565b5f8054906101000a900473ffffffffffffffffffffffffffffffffffffffff1673ffffffffffffffffffffffffffffffffffffffff163373ffffffffffffffffffffffffffffffffffffffff16146105ca576040517f08c379a00000000000000000000000000000000000000000000000000000000081526004016105c190611523565b60405180910390fd5b60065f9054906101000a900460ff16610618576040517f08c379a000000000000000000000000000000000000000000000000000000000815260040161060f9061158b565b60405180910390fd5b60035460025461062891906115d6565b43101561066a576040517f08c379a000000000000000000000000000000000000000000000000000000000815260040161066190611653565b60405180910390fd5b5f60065f6101000a81548160ff02191690831515021790555060045f9054906101000a900473ffffffffffffffffffffffffffffffffffffffff16600660016101000a81548173ffffffffffffffffffffffffffffffffffffffff021916908373ffffffffffffffffffffffffffffffffffffffff160217905550565b5f600860019054906101000a900473ffffffffffffffffffffffffffffffffffffffff1673ffffffffffffffffffffffffffffffffffffffff166370a08231306040518263ffffffff1660e01b8152600401610743919061134e565b602060405180830381865afa15801561075e573d5f803e3d5ffd5b505050506040513d601f19601f820116820180604052508101906107829190611685565b905090565b5f8054906101000a900473ffffffffffffffffffffffffffffffffffffffff1681565b5f600660019054906101000a900473ffffffffffffffffffffffffffffffffffffffff16905090565b60015481565b60065f9054906101000a900460ff1615610828576040517f08c379a000000000000000000000000000000000000000000000000000000000815260040161081f906116fa565b60405180910390fd5b600660019054906101000a900473ffffffffffffffffffffffffffffffffffffffff1673ffffffffffffffffffffffffffffffffffffffff163373ffffffffffffffffffffffffffffffffffffffff16146108b8576040517f08c379a00000000000000000000000000000000000000000000000000000000081526004016108af90611762565b60405180910390fd5b60085f9054906101000a900460ff1615610907576040517f08c379a00000000000000000000000000000000000000000000000000000000081526004016108fe906117ca565b60405180910390fd5b600160085f6101000a81548160ff021916908315150217905550610992600660019054906101000a900473ffffffffffffffffffffffffffffffffffffffff16600754600860019054906101000a900473ffffffffffffffffffffffffffffffffffffffff1673ffffffffffffffffffffffffffffffffffffffff16610f979092919063ffffffff16565b565b5f600154905090565b5f60085f9054906101000a900460ff16905090565b5f600554905090565b5f8054906101000a900473ffffffffffffffffffffffffffffffffffffffff1673ffffffffffffffffffffffffffffffffffffffff163373ffffffffffffffffffffffffffffffffffffffff1614610a48576040517f08c379a0000000000000000000000000000000000000000000000000000000008152600401610a3f90611523565b60405180910390fd5b610a97333083600860019054906101000a900473ffffffffffffffffffffffffffffffffffffffff1673ffffffffffffffffffffffffffffffffffffffff16611016909392919063ffffffff16565b50565b600660019054906101000a900473ffffffffffffffffffffffffffffffffffffffff1681565b60035481565b5f60045f9054906101000a900473ffffffffffffffffffffffffffffffffffffffff16905090565b60065f9054906101000a900460ff1681565b5f8054906101000a900473ffffffffffffffffffffffffffffffffffffffff1673ffffffffffffffffffffffffffffffffffffffff163373ffffffffffffffffffffffffffffffffffffffff1614610b8d576040517f08c379a0000000000000000000000000000000000000000000000000000000008152600401610b8490611523565b60405180910390fd5b60065f9054906101000a900460ff1615610bdc576040517f08c379a0000000000000000000000000000000000000000000000000000000008152600401610bd390611832565b60405180910390fd5b80600860019054906101000a900473ffffffffffffffffffffffffffffffffffffffff1673ffffffffffffffffffffffffffffffffffffffff166370a08231306040518263ffffffff1660e01b8152600401610c38919061134e565b602060405180830381865afa158015610c53573d5f803e3d5ffd5b505050506040513d601f19601f82011682018060405250810190610c779190611685565b1015610cb8576040517f08c379a0000000000000000000000000000000000000000000000000000000008152600401610caf9061189a565b60405180910390fd5b5f6001541115610d115760085f9054906101000a900460ff16610d10576040517f08c379a0000000000000000000000000000000000000000000000000000000008152600401610d0790611902565b60405180910390fd5b5b60015f815480929190610d2390611920565b919050555043600281905550816003819055505f60045f6101000a81548173ffffffffffffffffffffffffffffffffffffffff021916908373ffffffffffffffffffffffffffffffffffffffff1602179055507fffffffffffffffffffffffffffffffffffffffffffffffffffffffffffffffff600581905550600160065f6101000a81548160ff0219169083151502179055505f600660016101000a81548173ffffffffffffffffffffffffffffffffffffffff021916908373ffffffffffffffffffffffffffffffffffffffff160217905550806007819055505f60085f6101000a81548160ff0219169083151502179055505050565b60065f9054906101000a900460ff16610e6a576040517f08c379a0000000000000000000000000000000000000000000000000000000008152600401610e619061158b565b60405180910390fd5b600354600254610e7a91906115d6565b4310610ebb576040517f08c379a0000000000000000000000000000000000000000000000000000000008152600401610eb2906119b1565b60405180910390fd5b5f33600154604051602001610ed1929190611a34565b604051602081830303815290604052805190602001205f1c90505f73ffffffffffffffffffffffffffffffffffffffff1660045f9054906101000a900473ffffffffffffffffffffffffffffffffffffffff1673ffffffffffffffffffffffffffffffffffffffff161480610f47575060055481105b15610f94573360045f6101000a81548173ffffffffffffffffffffffffffffffffffffffff021916908373ffffffffffffffffffffffffffffffffffffffff160217905550806005819055505b50565b611011838473ffffffffffffffffffffffffffffffffffffffff1663a9059cbb8585604051602401610fca929190611a5f565b604051602081830303815290604052915060e01b6020820180517bffffffffffffffffffffffffffffffffffffffffffffffffffffffff8381831617835250505050611098565b505050565b611092848573ffffffffffffffffffffffffffffffffffffffff166323b872dd86868660405160240161104b93929190611a86565b604051602081830303815290604052915060e01b6020820180517bffffffffffffffffffffffffffffffffffffffffffffffffffffffff8381831617835250505050611098565b50505050565b5f6110c2828473ffffffffffffffffffffffffffffffffffffffff1661112d90919063ffffffff16565b90505f8151141580156110e65750808060200190518101906110e49190611ae5565b155b1561112857826040517f5274afe700000000000000000000000000000000000000000000000000000000815260040161111f919061134e565b60405180910390fd5b505050565b606061113a83835f611142565b905092915050565b60608147101561118957306040517fcd786059000000000000000000000000000000000000000000000000000000008152600401611180919061134e565b60405180910390fd5b5f808573ffffffffffffffffffffffffffffffffffffffff1684866040516111b19190611b62565b5f6040518083038185875af1925050503d805f81146111eb576040519150601f19603f3d011682016040523d82523d5f602084013e6111f0565b606091505b509150915061120086838361120b565b925050509392505050565b6060826112205761121b82611298565b611290565b5f825114801561124657505f8473ffffffffffffffffffffffffffffffffffffffff163b145b1561128857836040517f9996b31500000000000000000000000000000000000000000000000000000000815260040161127f919061134e565b60405180910390fd5b819050611291565b5b9392505050565b5f815111156112aa5780518082602001fd5b6040517f1425ea4200000000000000000000000000000000000000000000000000000000815260040160405180910390fd5b5f8115159050919050565b6112f0816112dc565b82525050565b5f6020820190506113095f8301846112e7565b92915050565b5f73ffffffffffffffffffffffffffffffffffffffff82169050919050565b5f6113388261130f565b9050919050565b6113488161132e565b82525050565b5f6020820190506113615f83018461133f565b92915050565b5f819050919050565b61137981611367565b82525050565b5f6020820190506113925f830184611370565b92915050565b5f80fd5b6113a581611367565b81146113af575f80fd5b50565b5f813590506113c08161139c565b92915050565b5f602082840312156113db576113da611398565b5b5f6113e8848285016113b2565b91505092915050565b5f819050919050565b5f61141461140f61140a8461130f565b6113f1565b61130f565b9050919050565b5f611425826113fa565b9050919050565b5f6114368261141b565b9050919050565b6114468161142c565b82525050565b5f60208201905061145f5f83018461143d565b92915050565b5f806040838503121561147b5761147a611398565b5b5f611488858286016113b2565b9250506020611499858286016113b2565b9150509250929050565b5f82825260208201905092915050565b7f4f6e6c79206f776e65722063616e2063616c6c20746869732066756e6374696f5f8201527f6e00000000000000000000000000000000000000000000000000000000000000602082015250565b5f61150d6021836114a3565b9150611518826114b3565b604082019050919050565b5f6020820190508181035f83015261153a81611501565b9050919050565b7f47616d65206973206e6f742061637469766500000000000000000000000000005f82015250565b5f6115756012836114a3565b915061158082611541565b602082019050919050565b5f6020820190508181035f8301526115a281611569565b9050919050565b7f4e487b71000000000000000000000000000000000000000000000000000000005f52601160045260245ffd5b5f6115e082611367565b91506115eb83611367565b9250828201905080821115611603576116026115a9565b5b92915050565b7f47616d6520686173206e6f7420656e64656420796574000000000000000000005f82015250565b5f61163d6016836114a3565b915061164882611609565b602082019050919050565b5f6020820190508181035f83015261166a81611631565b9050919050565b5f8151905061167f8161139c565b92915050565b5f6020828403121561169a57611699611398565b5b5f6116a784828501611671565b91505092915050565b7f47616d65206973207374696c6c206163746976650000000000000000000000005f82015250565b5f6116e46014836114a3565b91506116ef826116b0565b602082019050919050565b5f6020820190508181035f830152611711816116d8565b9050919050565b7f4f6e6c792077696e6e65722063616e20636c61696d20726577617264000000005f82015250565b5f61174c601c836114a3565b915061175782611718565b602082019050919050565b5f6020820190508181035f83015261177981611740565b9050919050565b7f52657761726420616c726561647920636c61696d6564000000000000000000005f82015250565b5f6117b46016836114a3565b91506117bf82611780565b602082019050919050565b5f6020820190508181035f8301526117e1816117a8565b9050919050565b7f43757272656e742067616d65206973207374696c6c20616374697665000000005f82015250565b5f61181c601c836114a3565b9150611827826117e8565b602082019050919050565b5f6020820190508181035f83015261184981611810565b9050919050565b7f496e73756666696369656e7420746f6b656e2062616c616e63650000000000005f82015250565b5f611884601a836114a3565b915061188f82611850565b602082019050919050565b5f6020820190508181035f8301526118b181611878565b9050919050565b7f50726576696f757320726577617264206e6f7420636c61696d656400000000005f82015250565b5f6118ec601b836114a3565b91506118f7826118b8565b602082019050919050565b5f6020820190508181035f830152611919816118e0565b9050919050565b5f61192a82611367565b91507fffffffffffffffffffffffffffffffffffffffffffffffffffffffffffffffff820361195c5761195b6115a9565b5b600182019050919050565b7f47616d652068617320656e6465640000000000000000000000000000000000005f82015250565b5f61199b600e836114a3565b91506119a682611967565b602082019050919050565b5f6020820190508181035f8301526119c88161198f565b9050919050565b5f8160601b9050919050565b5f6119e5826119cf565b9050919050565b5f6119f6826119db565b9050919050565b611a0e611a098261132e565b6119ec565b82525050565b5f819050919050565b611a2e611a2982611367565b611a14565b82525050565b5f611a3f82856119fd565b601482019150611a4f8284611a1d565b6020820191508190509392505050565b5f604082019050611a725f83018561133f565b611a7f6020830184611370565b9392505050565b5f606082019050611a995f83018661133f565b611aa6602083018561133f565b611ab36040830184611370565b949350505050565b611ac4816112dc565b8114611ace575f80fd5b50565b5f81519050611adf81611abb565b92915050565b5f60208284031215611afa57611af9611398565b5b5f611b0784828501611ad1565b91505092915050565b5f81519050919050565b5f81905092915050565b8281835e5f83830152505050565b5f611b3c82611b10565b611b468185611b1a565b9350611b56818560208601611b24565b80840191505092915050565b5f611b6d8284611b32565b91508190509291505056fea2646970667358221220f6082913535f43b89bf9aebdea207fb259858c7488315dd82f1ad6880e9f0b2b64736f6c634300081a0033",
					"opcodes": "PUSH1 0x80 PUSH1 0x40 MSTORE CALLVALUE DUP1 ISZERO PUSH2 0xF JUMPI PUSH0 DUP1 REVERT JUMPDEST POP PUSH1 0x40 MLOAD PUSH2 0x1CFB CODESIZE SUB DUP1 PUSH2 0x1CFB DUP4 CODECOPY DUP2 DUP2 ADD PUSH1 0x40 MSTORE DUP2 ADD SWAP1 PUSH2 0x31 SWAP2 SWAP1 PUSH2 0x115 JUMP JUMPDEST CALLER PUSH0 DUP1 PUSH2 0x100 EXP DUP2 SLOAD DUP2 PUSH20 0xFFFFFFFFFFFFFFFFFFFFFFFFFFFFFFFFFFFFFFFF MUL NOT AND SWAP1 DUP4 PUSH20 0xFFFFFFFFFFFFFFFFFFFFFFFFFFFFFFFFFFFFFFFF AND MUL OR SWAP1 SSTORE POP DUP1 PUSH1 0x8 PUSH1 0x1 PUSH2 0x100 EXP DUP2 SLOAD DUP2 PUSH20 0xFFFFFFFFFFFFFFFFFFFFFFFFFFFFFFFFFFFFFFFF MUL NOT AND SWAP1 DUP4 PUSH20 0xFFFFFFFFFFFFFFFFFFFFFFFFFFFFFFFFFFFFFFFF AND MUL OR SWAP1 SSTORE POP POP PUSH2 0x140 JUMP JUMPDEST PUSH0 DUP1 REVERT JUMPDEST PUSH0 PUSH20 0xFFFFFFFFFFFFFFFFFFFFFFFFFFFFFFFFFFFFFFFF DUP3 AND SWAP1 POP SWAP2 SWAP1 POP JUMP JUMPDEST PUSH0 PUSH2 0xE4 DUP3 PUSH2 0xBB JUMP JUMPDEST SWAP1 POP SWAP2 SWAP1 POP JUMP JUMPDEST PUSH2 0xF4 DUP2 PUSH2 0xDA JUMP JUMPDEST DUP2 EQ PUSH2 0xFE JUMPI PUSH0 DUP1 REVERT JUMPDEST POP JUMP JUMPDEST PUSH0 DUP2 MLOAD SWAP1 POP PUSH2 0x10F DUP2 PUSH2 0xEB JUMP JUMPDEST SWAP3 SWAP2 POP POP JUMP JUMPDEST PUSH0 PUSH1 0x20 DUP3 DUP5 SUB SLT ISZERO PUSH2 0x12A JUMPI PUSH2 0x129 PUSH2 0xB7 JUMP JUMPDEST JUMPDEST PUSH0 PUSH2 0x137 DUP5 DUP3 DUP6 ADD PUSH2 0x101 JUMP JUMPDEST SWAP2 POP POP SWAP3 SWAP2 POP POP JUMP JUMPDEST PUSH2 0x1BAE DUP1 PUSH2 0x14D PUSH0 CODECOPY PUSH0 RETURN INVALID PUSH1 0x80 PUSH1 0x40 MSTORE CALLVALUE DUP1 ISZERO PUSH2 0xF JUMPI PUSH0 DUP1 REVERT JUMPDEST POP PUSH1 0x4 CALLDATASIZE LT PUSH2 0x156 JUMPI PUSH0 CALLDATALOAD PUSH1 0xE0 SHR DUP1 PUSH4 0xAA9BBC0C GT PUSH2 0xC1 JUMPI DUP1 PUSH4 0xDFBF53AE GT PUSH2 0x7A JUMPI DUP1 PUSH4 0xDFBF53AE EQ PUSH2 0x34A JUMPI DUP1 PUSH4 0xE1F0C376 EQ PUSH2 0x368 JUMPI DUP1 PUSH4 0xEFC29372 EQ PUSH2 0x386 JUMPI DUP1 PUSH4 0xF020044F EQ PUSH2 0x3A4 JUMPI DUP1 PUSH4 0xF30D9470 EQ PUSH2 0x3C2 JUMPI DUP1 PUSH4 0xFD636322 EQ PUSH2 0x3DE JUMPI PUSH2 0x156 JUMP JUMPDEST DUP1 PUSH4 0xAA9BBC0C EQ PUSH2 0x2AC JUMPI DUP1 PUSH4 0xB88A802F EQ PUSH2 0x2CA JUMPI DUP1 PUSH4 0xB97DD9E2 EQ PUSH2 0x2D4 JUMPI DUP1 PUSH4 0xC010CE68 EQ PUSH2 0x2F2 JUMPI DUP1 PUSH4 0xD94504B9 EQ PUSH2 0x310 JUMPI DUP1 PUSH4 0xDD49756E EQ PUSH2 0x32E JUMPI PUSH2 0x156 JUMP JUMPDEST DUP1 PUSH4 0x56BF8741 GT PUSH2 0x113 JUMPI DUP1 PUSH4 0x56BF8741 EQ PUSH2 0x20C JUMPI DUP1 PUSH4 0x58830D6C EQ PUSH2 0x22A JUMPI DUP1 PUSH4 0x6CBC2DED EQ PUSH2 0x248 JUMPI DUP1 PUSH4 0x6F9FB98A EQ PUSH2 0x252 JUMPI DUP1 PUSH4 0x8DA5CB5B EQ PUSH2 0x270 JUMPI DUP1 PUSH4 0x8E7EA5B2 EQ PUSH2 0x28E JUMPI PUSH2 0x156 JUMP JUMPDEST DUP1 PUSH4 0x1B62B78 EQ PUSH2 0x15A JUMPI DUP1 PUSH4 0xD7D5599 EQ PUSH2 0x178 JUMPI DUP1 PUSH4 0x228CB733 EQ PUSH2 0x196 JUMPI DUP1 PUSH4 0x315A095D EQ PUSH2 0x1B4 JUMPI DUP1 PUSH4 0x3804C73D EQ PUSH2 0x1D0 JUMPI DUP1 PUSH4 0x3D18B912 EQ PUSH2 0x1EE JUMPI JUMPDEST PUSH0 DUP1 REVERT JUMPDEST PUSH2 0x162 PUSH2 0x3E8 JUMP JUMPDEST PUSH1 0x40 MLOAD PUSH2 0x16F SWAP2 SWAP1 PUSH2 0x12F6 JUMP JUMPDEST PUSH1 0x40 MLOAD DUP1 SWAP2 SUB SWAP1 RETURN JUMPDEST PUSH2 0x180 PUSH2 0x3FA JUMP JUMPDEST PUSH1 0x40 MLOAD PUSH2 0x18D SWAP2 SWAP1 PUSH2 0x134E JUMP JUMPDEST PUSH1 0x40 MLOAD DUP1 SWAP2 SUB SWAP1 RETURN JUMPDEST PUSH2 0x19E PUSH2 0x41F JUMP JUMPDEST PUSH1 0x40 MLOAD PUSH2 0x1AB SWAP2 SWAP1 PUSH2 0x137F JUMP JUMPDEST PUSH1 0x40 MLOAD DUP1 SWAP2 SUB SWAP1 RETURN JUMPDEST PUSH2 0x1CE PUSH1 0x4 DUP1 CALLDATASIZE SUB DUP2 ADD SWAP1 PUSH2 0x1C9 SWAP2 SWAP1 PUSH2 0x13C6 JUMP JUMPDEST PUSH2 0x425 JUMP JUMPDEST STOP JUMPDEST PUSH2 0x1D8 PUSH2 0x502 JUMP JUMPDEST PUSH1 0x40 MLOAD PUSH2 0x1E5 SWAP2 SWAP1 PUSH2 0x137F JUMP JUMPDEST PUSH1 0x40 MLOAD DUP1 SWAP2 SUB SWAP1 RETURN JUMPDEST PUSH2 0x1F6 PUSH2 0x508 JUMP JUMPDEST PUSH1 0x40 MLOAD PUSH2 0x203 SWAP2 SWAP1 PUSH2 0x137F JUMP JUMPDEST PUSH1 0x40 MLOAD DUP1 SWAP2 SUB SWAP1 RETURN JUMPDEST PUSH2 0x214 PUSH2 0x511 JUMP JUMPDEST PUSH1 0x40 MLOAD PUSH2 0x221 SWAP2 SWAP1 PUSH2 0x144C JUMP JUMPDEST PUSH1 0x40 MLOAD DUP1 SWAP2 SUB SWAP1 RETURN JUMPDEST PUSH2 0x232 PUSH2 0x537 JUMP JUMPDEST PUSH1 0x40 MLOAD PUSH2 0x23F SWAP2 SWAP1 PUSH2 0x137F JUMP JUMPDEST PUSH1 0x40 MLOAD DUP1 SWAP2 SUB SWAP1 RETURN JUMPDEST PUSH2 0x250 PUSH2 0x53D JUMP JUMPDEST STOP JUMPDEST PUSH2 0x25A PUSH2 0x6E7 JUMP JUMPDEST PUSH1 0x40 MLOAD PUSH2 0x267 SWAP2 SWAP1 PUSH2 0x137F JUMP JUMPDEST PUSH1 0x40 MLOAD DUP1 SWAP2 SUB SWAP1 RETURN JUMPDEST PUSH2 0x278 PUSH2 0x787 JUMP JUMPDEST PUSH1 0x40 MLOAD PUSH2 0x285 SWAP2 SWAP1 PUSH2 0x134E JUMP JUMPDEST PUSH1 0x40 MLOAD DUP1 SWAP2 SUB SWAP1 RETURN JUMPDEST PUSH2 0x296 PUSH2 0x7AA JUMP JUMPDEST PUSH1 0x40 MLOAD PUSH2 0x2A3 SWAP2 SWAP1 PUSH2 0x134E JUMP JUMPDEST PUSH1 0x40 MLOAD DUP1 SWAP2 SUB SWAP1 RETURN JUMPDEST PUSH2 0x2B4 PUSH2 0x7D3 JUMP JUMPDEST PUSH1 0x40 MLOAD PUSH2 0x2C1 SWAP2 SWAP1 PUSH2 0x137F JUMP JUMPDEST PUSH1 0x40 MLOAD DUP1 SWAP2 SUB SWAP1 RETURN JUMPDEST PUSH2 0x2D2 PUSH2 0x7D9 JUMP JUMPDEST STOP JUMPDEST PUSH2 0x2DC PUSH2 0x994 JUMP JUMPDEST PUSH1 0x40 MLOAD PUSH2 0x2E9 SWAP2 SWAP1 PUSH2 0x137F JUMP JUMPDEST PUSH1 0x40 MLOAD DUP1 SWAP2 SUB SWAP1 RETURN JUMPDEST PUSH2 0x2FA PUSH2 0x99D JUMP JUMPDEST PUSH1 0x40 MLOAD PUSH2 0x307 SWAP2 SWAP1 PUSH2 0x12F6 JUMP JUMPDEST PUSH1 0x40 MLOAD DUP1 SWAP2 SUB SWAP1 RETURN JUMPDEST PUSH2 0x318 PUSH2 0x9B2 JUMP JUMPDEST PUSH1 0x40 MLOAD PUSH2 0x325 SWAP2 SWAP1 PUSH2 0x137F JUMP JUMPDEST PUSH1 0x40 MLOAD DUP1 SWAP2 SUB SWAP1 RETURN JUMPDEST PUSH2 0x348 PUSH1 0x4 DUP1 CALLDATASIZE SUB DUP2 ADD SWAP1 PUSH2 0x343 SWAP2 SWAP1 PUSH2 0x13C6 JUMP JUMPDEST PUSH2 0x9BB JUMP JUMPDEST STOP JUMPDEST PUSH2 0x352 PUSH2 0xA9A JUMP JUMPDEST PUSH1 0x40 MLOAD PUSH2 0x35F SWAP2 SWAP1 PUSH2 0x134E JUMP JUMPDEST PUSH1 0x40 MLOAD DUP1 SWAP2 SUB SWAP1 RETURN JUMPDEST PUSH2 0x370 PUSH2 0xAC0 JUMP JUMPDEST PUSH1 0x40 MLOAD PUSH2 0x37D SWAP2 SWAP1 PUSH2 0x137F JUMP JUMPDEST PUSH1 0x40 MLOAD DUP1 SWAP2 SUB SWAP1 RETURN JUMPDEST PUSH2 0x38E PUSH2 0xAC6 JUMP JUMPDEST PUSH1 0x40 MLOAD PUSH2 0x39B SWAP2 SWAP1 PUSH2 0x134E JUMP JUMPDEST PUSH1 0x40 MLOAD DUP1 SWAP2 SUB SWAP1 RETURN JUMPDEST PUSH2 0x3AC PUSH2 0xAEE JUMP JUMPDEST PUSH1 0x40 MLOAD PUSH2 0x3B9 SWAP2 SWAP1 PUSH2 0x12F6 JUMP JUMPDEST PUSH1 0x40 MLOAD DUP1 SWAP2 SUB SWAP1 RETURN JUMPDEST PUSH2 0x3DC PUSH1 0x4 DUP1 CALLDATASIZE SUB DUP2 ADD SWAP1 PUSH2 0x3D7 SWAP2 SWAP1 PUSH2 0x1465 JUMP JUMPDEST PUSH2 0xB00 JUMP JUMPDEST STOP JUMPDEST PUSH2 0x3E6 PUSH2 0xE1C JUMP JUMPDEST STOP JUMPDEST PUSH1 0x8 PUSH0 SWAP1 SLOAD SWAP1 PUSH2 0x100 EXP SWAP1 DIV PUSH1 0xFF AND DUP2 JUMP JUMPDEST PUSH1 0x4 PUSH0 SWAP1 SLOAD SWAP1 PUSH2 0x100 EXP SWAP1 DIV PUSH20 0xFFFFFFFFFFFFFFFFFFFFFFFFFFFFFFFFFFFFFFFF AND DUP2 JUMP JUMPDEST PUSH1 0x7 SLOAD DUP2 JUMP JUMPDEST PUSH0 DUP1 SLOAD SWAP1 PUSH2 0x100 EXP SWAP1 DIV PUSH20 0xFFFFFFFFFFFFFFFFFFFFFFFFFFFFFFFFFFFFFFFF AND PUSH20 0xFFFFFFFFFFFFFFFFFFFFFFFFFFFFFFFFFFFFFFFF AND CALLER PUSH20 0xFFFFFFFFFFFFFFFFFFFFFFFFFFFFFFFFFFFFFFFF AND EQ PUSH2 0x4B2 JUMPI PUSH1 0x40 MLOAD PUSH32 0x8C379A000000000000000000000000000000000000000000000000000000000 DUP2 MSTORE PUSH1 0x4 ADD PUSH2 0x4A9 SWAP1 PUSH2 0x1523 JUMP JUMPDEST PUSH1 0x40 MLOAD DUP1 SWAP2 SUB SWAP1 REVERT JUMPDEST PUSH2 0x4FF CALLER DUP3 PUSH1 0x8 PUSH1 0x1 SWAP1 SLOAD SWAP1 PUSH2 0x100 EXP SWAP1 DIV PUSH20 0xFFFFFFFFFFFFFFFFFFFFFFFFFFFFFFFFFFFFFFFF AND PUSH20 0xFFFFFFFFFFFFFFFFFFFFFFFFFFFFFFFFFFFFFFFF AND PUSH2 0xF97 SWAP1 SWAP3 SWAP2 SWAP1 PUSH4 0xFFFFFFFF AND JUMP JUMPDEST POP JUMP JUMPDEST PUSH1 0x2 SLOAD DUP2 JUMP JUMPDEST PUSH0 PUSH1 0x7 SLOAD SWAP1 POP SWAP1 JUMP JUMPDEST PUSH1 0x8 PUSH1 0x1 SWAP1 SLOAD SWAP1 PUSH2 0x100 EXP SWAP1 DIV PUSH20 0xFFFFFFFFFFFFFFFFFFFFFFFFFFFFFFFFFFFFFFFF AND DUP2 JUMP JUMPDEST PUSH1 0x5 SLOAD DUP2 JUMP JUMPDEST PUSH0 DUP1 SLOAD SWAP1 PUSH2 0x100 EXP SWAP1 DIV PUSH20 0xFFFFFFFFFFFFFFFFFFFFFFFFFFFFFFFFFFFFFFFF AND PUSH20 0xFFFFFFFFFFFFFFFFFFFFFFFFFFFFFFFFFFFFFFFF AND CALLER PUSH20 0xFFFFFFFFFFFFFFFFFFFFFFFFFFFFFFFFFFFFFFFF AND EQ PUSH2 0x5CA JUMPI PUSH1 0x40 MLOAD PUSH32 0x8C379A000000000000000000000000000000000000000000000000000000000 DUP2 MSTORE PUSH1 0x4 ADD PUSH2 0x5C1 SWAP1 PUSH2 0x1523 JUMP JUMPDEST PUSH1 0x40 MLOAD DUP1 SWAP2 SUB SWAP1 REVERT JUMPDEST PUSH1 0x6 PUSH0 SWAP1 SLOAD SWAP1 PUSH2 0x100 EXP SWAP1 DIV PUSH1 0xFF AND PUSH2 0x618 JUMPI PUSH1 0x40 MLOAD PUSH32 0x8C379A000000000000000000000000000000000000000000000000000000000 DUP2 MSTORE PUSH1 0x4 ADD PUSH2 0x60F SWAP1 PUSH2 0x158B JUMP JUMPDEST PUSH1 0x40 MLOAD DUP1 SWAP2 SUB SWAP1 REVERT JUMPDEST PUSH1 0x3 SLOAD PUSH1 0x2 SLOAD PUSH2 0x628 SWAP2 SWAP1 PUSH2 0x15D6 JUMP JUMPDEST NUMBER LT ISZERO PUSH2 0x66A JUMPI PUSH1 0x40 MLOAD PUSH32 0x8C379A000000000000000000000000000000000000000000000000000000000 DUP2 MSTORE PUSH1 0x4 ADD PUSH2 0x661 SWAP1 PUSH2 0x1653 JUMP JUMPDEST PUSH1 0x40 MLOAD DUP1 SWAP2 SUB SWAP1 REVERT JUMPDEST PUSH0 PUSH1 0x6 PUSH0 PUSH2 0x100 EXP DUP2 SLOAD DUP2 PUSH1 0xFF MUL NOT AND SWAP1 DUP4 ISZERO ISZERO MUL OR SWAP1 SSTORE POP PUSH1 0x4 PUSH0 SWAP1 SLOAD SWAP1 PUSH2 0x100 EXP SWAP1 DIV PUSH20 0xFFFFFFFFFFFFFFFFFFFFFFFFFFFFFFFFFFFFFFFF AND PUSH1 0x6 PUSH1 0x1 PUSH2 0x100 EXP DUP2 SLOAD DUP2 PUSH20 0xFFFFFFFFFFFFFFFFFFFFFFFFFFFFFFFFFFFFFFFF MUL NOT AND SWAP1 DUP4 PUSH20 0xFFFFFFFFFFFFFFFFFFFFFFFFFFFFFFFFFFFFFFFF AND MUL OR SWAP1 SSTORE POP JUMP JUMPDEST PUSH0 PUSH1 0x8 PUSH1 0x1 SWAP1 SLOAD SWAP1 PUSH2 0x100 EXP SWAP1 DIV PUSH20 0xFFFFFFFFFFFFFFFFFFFFFFFFFFFFFFFFFFFFFFFF AND PUSH20 0xFFFFFFFFFFFFFFFFFFFFFFFFFFFFFFFFFFFFFFFF AND PUSH4 0x70A08231 ADDRESS PUSH1 0x40 MLOAD DUP3 PUSH4 0xFFFFFFFF AND PUSH1 0xE0 SHL DUP2 MSTORE PUSH1 0x4 ADD PUSH2 0x743 SWAP2 SWAP1 PUSH2 0x134E JUMP JUMPDEST PUSH1 0x20 PUSH1 0x40 MLOAD DUP1 DUP4 SUB DUP2 DUP7 GAS STATICCALL ISZERO DUP1 ISZERO PUSH2 0x75E JUMPI RETURNDATASIZE PUSH0 DUP1 RETURNDATACOPY RETURNDATASIZE PUSH0 REVERT JUMPDEST POP POP POP POP PUSH1 0x40 MLOAD RETURNDATASIZE PUSH1 0x1F NOT PUSH1 0x1F DUP3 ADD AND DUP3 ADD DUP1 PUSH1 0x40 MSTORE POP DUP2 ADD SWAP1 PUSH2 0x782 SWAP2 SWAP1 PUSH2 0x1685 JUMP JUMPDEST SWAP1 POP SWAP1 JUMP JUMPDEST PUSH0 DUP1 SLOAD SWAP1 PUSH2 0x100 EXP SWAP1 DIV PUSH20 0xFFFFFFFFFFFFFFFFFFFFFFFFFFFFFFFFFFFFFFFF AND DUP2 JUMP JUMPDEST PUSH0 PUSH1 0x6 PUSH1 0x1 SWAP1 SLOAD SWAP1 PUSH2 0x100 EXP SWAP1 DIV PUSH20 0xFFFFFFFFFFFFFFFFFFFFFFFFFFFFFFFFFFFFFFFF AND SWAP1 POP SWAP1 JUMP JUMPDEST PUSH1 0x1 SLOAD DUP2 JUMP JUMPDEST PUSH1 0x6 PUSH0 SWAP1 SLOAD SWAP1 PUSH2 0x100 EXP SWAP1 DIV PUSH1 0xFF AND ISZERO PUSH2 0x828 JUMPI PUSH1 0x40 MLOAD PUSH32 0x8C379A000000000000000000000000000000000000000000000000000000000 DUP2 MSTORE PUSH1 0x4 ADD PUSH2 0x81F SWAP1 PUSH2 0x16FA JUMP JUMPDEST PUSH1 0x40 MLOAD DUP1 SWAP2 SUB SWAP1 REVERT JUMPDEST PUSH1 0x6 PUSH1 0x1 SWAP1 SLOAD SWAP1 PUSH2 0x100 EXP SWAP1 DIV PUSH20 0xFFFFFFFFFFFFFFFFFFFFFFFFFFFFFFFFFFFFFFFF AND PUSH20 0xFFFFFFFFFFFFFFFFFFFFFFFFFFFFFFFFFFFFFFFF AND CALLER PUSH20 0xFFFFFFFFFFFFFFFFFFFFFFFFFFFFFFFFFFFFFFFF AND EQ PUSH2 0x8B8 JUMPI PUSH1 0x40 MLOAD PUSH32 0x8C379A000000000000000000000000000000000000000000000000000000000 DUP2 MSTORE PUSH1 0x4 ADD PUSH2 0x8AF SWAP1 PUSH2 0x1762 JUMP JUMPDEST PUSH1 0x40 MLOAD DUP1 SWAP2 SUB SWAP1 REVERT JUMPDEST PUSH1 0x8 PUSH0 SWAP1 SLOAD SWAP1 PUSH2 0x100 EXP SWAP1 DIV PUSH1 0xFF AND ISZERO PUSH2 0x907 JUMPI PUSH1 0x40 MLOAD PUSH32 0x8C379A000000000000000000000000000000000000000000000000000000000 DUP2 MSTORE PUSH1 0x4 ADD PUSH2 0x8FE SWAP1 PUSH2 0x17CA JUMP JUMPDEST PUSH1 0x40 MLOAD DUP1 SWAP2 SUB SWAP1 REVERT JUMPDEST PUSH1 0x1 PUSH1 0x8 PUSH0 PUSH2 0x100 EXP DUP2 SLOAD DUP2 PUSH1 0xFF MUL NOT AND SWAP1 DUP4 ISZERO ISZERO MUL OR SWAP1 SSTORE POP PUSH2 0x992 PUSH1 0x6 PUSH1 0x1 SWAP1 SLOAD SWAP1 PUSH2 0x100 EXP SWAP1 DIV PUSH20 0xFFFFFFFFFFFFFFFFFFFFFFFFFFFFFFFFFFFFFFFF AND PUSH1 0x7 SLOAD PUSH1 0x8 PUSH1 0x1 SWAP1 SLOAD SWAP1 PUSH2 0x100 EXP SWAP1 DIV PUSH20 0xFFFFFFFFFFFFFFFFFFFFFFFFFFFFFFFFFFFFFFFF AND PUSH20 0xFFFFFFFFFFFFFFFFFFFFFFFFFFFFFFFFFFFFFFFF AND PUSH2 0xF97 SWAP1 SWAP3 SWAP2 SWAP1 PUSH4 0xFFFFFFFF AND JUMP JUMPDEST JUMP JUMPDEST PUSH0 PUSH1 0x1 SLOAD SWAP1 POP SWAP1 JUMP JUMPDEST PUSH0 PUSH1 0x8 PUSH0 SWAP1 SLOAD SWAP1 PUSH2 0x100 EXP SWAP1 DIV PUSH1 0xFF AND SWAP1 POP SWAP1 JUMP JUMPDEST PUSH0 PUSH1 0x5 SLOAD SWAP1 POP SWAP1 JUMP JUMPDEST PUSH0 DUP1 SLOAD SWAP1 PUSH2 0x100 EXP SWAP1 DIV PUSH20 0xFFFFFFFFFFFFFFFFFFFFFFFFFFFFFFFFFFFFFFFF AND PUSH20 0xFFFFFFFFFFFFFFFFFFFFFFFFFFFFFFFFFFFFFFFF AND CALLER PUSH20 0xFFFFFFFFFFFFFFFFFFFFFFFFFFFFFFFFFFFFFFFF AND EQ PUSH2 0xA48 JUMPI PUSH1 0x40 MLOAD PUSH32 0x8C379A000000000000000000000000000000000000000000000000000000000 DUP2 MSTORE PUSH1 0x4 ADD PUSH2 0xA3F SWAP1 PUSH2 0x1523 JUMP JUMPDEST PUSH1 0x40 MLOAD DUP1 SWAP2 SUB SWAP1 REVERT JUMPDEST PUSH2 0xA97 CALLER ADDRESS DUP4 PUSH1 0x8 PUSH1 0x1 SWAP1 SLOAD SWAP1 PUSH2 0x100 EXP SWAP1 DIV PUSH20 0xFFFFFFFFFFFFFFFFFFFFFFFFFFFFFFFFFFFFFFFF AND PUSH20 0xFFFFFFFFFFFFFFFFFFFFFFFFFFFFFFFFFFFFFFFF AND PUSH2 0x1016 SWAP1 SWAP4 SWAP3 SWAP2 SWAP1 PUSH4 0xFFFFFFFF AND JUMP JUMPDEST POP JUMP JUMPDEST PUSH1 0x6 PUSH1 0x1 SWAP1 SLOAD SWAP1 PUSH2 0x100 EXP SWAP1 DIV PUSH20 0xFFFFFFFFFFFFFFFFFFFFFFFFFFFFFFFFFFFFFFFF AND DUP2 JUMP JUMPDEST PUSH1 0x3 SLOAD DUP2 JUMP JUMPDEST PUSH0 PUSH1 0x4 PUSH0 SWAP1 SLOAD SWAP1 PUSH2 0x100 EXP SWAP1 DIV PUSH20 0xFFFFFFFFFFFFFFFFFFFFFFFFFFFFFFFFFFFFFFFF AND SWAP1 POP SWAP1 JUMP JUMPDEST PUSH1 0x6 PUSH0 SWAP1 SLOAD SWAP1 PUSH2 0x100 EXP SWAP1 DIV PUSH1 0xFF AND DUP2 JUMP JUMPDEST PUSH0 DUP1 SLOAD SWAP1 PUSH2 0x100 EXP SWAP1 DIV PUSH20 0xFFFFFFFFFFFFFFFFFFFFFFFFFFFFFFFFFFFFFFFF AND PUSH20 0xFFFFFFFFFFFFFFFFFFFFFFFFFFFFFFFFFFFFFFFF AND CALLER PUSH20 0xFFFFFFFFFFFFFFFFFFFFFFFFFFFFFFFFFFFFFFFF AND EQ PUSH2 0xB8D JUMPI PUSH1 0x40 MLOAD PUSH32 0x8C379A000000000000000000000000000000000000000000000000000000000 DUP2 MSTORE PUSH1 0x4 ADD PUSH2 0xB84 SWAP1 PUSH2 0x1523 JUMP JUMPDEST PUSH1 0x40 MLOAD DUP1 SWAP2 SUB SWAP1 REVERT JUMPDEST PUSH1 0x6 PUSH0 SWAP1 SLOAD SWAP1 PUSH2 0x100 EXP SWAP1 DIV PUSH1 0xFF AND ISZERO PUSH2 0xBDC JUMPI PUSH1 0x40 MLOAD PUSH32 0x8C379A000000000000000000000000000000000000000000000000000000000 DUP2 MSTORE PUSH1 0x4 ADD PUSH2 0xBD3 SWAP1 PUSH2 0x1832 JUMP JUMPDEST PUSH1 0x40 MLOAD DUP1 SWAP2 SUB SWAP1 REVERT JUMPDEST DUP1 PUSH1 0x8 PUSH1 0x1 SWAP1 SLOAD SWAP1 PUSH2 0x100 EXP SWAP1 DIV PUSH20 0xFFFFFFFFFFFFFFFFFFFFFFFFFFFFFFFFFFFFFFFF AND PUSH20 0xFFFFFFFFFFFFFFFFFFFFFFFFFFFFFFFFFFFFFFFF AND PUSH4 0x70A08231 ADDRESS PUSH1 0x40 MLOAD DUP3 PUSH4 0xFFFFFFFF AND PUSH1 0xE0 SHL DUP2 MSTORE PUSH1 0x4 ADD PUSH2 0xC38 SWAP2 SWAP1 PUSH2 0x134E JUMP JUMPDEST PUSH1 0x20 PUSH1 0x40 MLOAD DUP1 DUP4 SUB DUP2 DUP7 GAS STATICCALL ISZERO DUP1 ISZERO PUSH2 0xC53 JUMPI RETURNDATASIZE PUSH0 DUP1 RETURNDATACOPY RETURNDATASIZE PUSH0 REVERT JUMPDEST POP POP POP POP PUSH1 0x40 MLOAD RETURNDATASIZE PUSH1 0x1F NOT PUSH1 0x1F DUP3 ADD AND DUP3 ADD DUP1 PUSH1 0x40 MSTORE POP DUP2 ADD SWAP1 PUSH2 0xC77 SWAP2 SWAP1 PUSH2 0x1685 JUMP JUMPDEST LT ISZERO PUSH2 0xCB8 JUMPI PUSH1 0x40 MLOAD PUSH32 0x8C379A000000000000000000000000000000000000000000000000000000000 DUP2 MSTORE PUSH1 0x4 ADD PUSH2 0xCAF SWAP1 PUSH2 0x189A JUMP JUMPDEST PUSH1 0x40 MLOAD DUP1 SWAP2 SUB SWAP1 REVERT JUMPDEST PUSH0 PUSH1 0x1 SLOAD GT ISZERO PUSH2 0xD11 JUMPI PUSH1 0x8 PUSH0 SWAP1 SLOAD SWAP1 PUSH2 0x100 EXP SWAP1 DIV PUSH1 0xFF AND PUSH2 0xD10 JUMPI PUSH1 0x40 MLOAD PUSH32 0x8C379A000000000000000000000000000000000000000000000000000000000 DUP2 MSTORE PUSH1 0x4 ADD PUSH2 0xD07 SWAP1 PUSH2 0x1902 JUMP JUMPDEST PUSH1 0x40 MLOAD DUP1 SWAP2 SUB SWAP1 REVERT JUMPDEST JUMPDEST PUSH1 0x1 PUSH0 DUP2 SLOAD DUP1 SWAP3 SWAP2 SWAP1 PUSH2 0xD23 SWAP1 PUSH2 0x1920 JUMP JUMPDEST SWAP2 SWAP1 POP SSTORE POP NUMBER PUSH1 0x2 DUP2 SWAP1 SSTORE POP DUP2 PUSH1 0x3 DUP2 SWAP1 SSTORE POP PUSH0 PUSH1 0x4 PUSH0 PUSH2 0x100 EXP DUP2 SLOAD DUP2 PUSH20 0xFFFFFFFFFFFFFFFFFFFFFFFFFFFFFFFFFFFFFFFF MUL NOT AND SWAP1 DUP4 PUSH20 0xFFFFFFFFFFFFFFFFFFFFFFFFFFFFFFFFFFFFFFFF AND MUL OR SWAP1 SSTORE POP PUSH32 0xFFFFFFFFFFFFFFFFFFFFFFFFFFFFFFFFFFFFFFFFFFFFFFFFFFFFFFFFFFFFFFFF PUSH1 0x5 DUP2 SWAP1 SSTORE POP PUSH1 0x1 PUSH1 0x6 PUSH0 PUSH2 0x100 EXP DUP2 SLOAD DUP2 PUSH1 0xFF MUL NOT AND SWAP1 DUP4 ISZERO ISZERO MUL OR SWAP1 SSTORE POP PUSH0 PUSH1 0x6 PUSH1 0x1 PUSH2 0x100 EXP DUP2 SLOAD DUP2 PUSH20 0xFFFFFFFFFFFFFFFFFFFFFFFFFFFFFFFFFFFFFFFF MUL NOT AND SWAP1 DUP4 PUSH20 0xFFFFFFFFFFFFFFFFFFFFFFFFFFFFFFFFFFFFFFFF AND MUL OR SWAP1 SSTORE POP DUP1 PUSH1 0x7 DUP2 SWAP1 SSTORE POP PUSH0 PUSH1 0x8 PUSH0 PUSH2 0x100 EXP DUP2 SLOAD DUP2 PUSH1 0xFF MUL NOT AND SWAP1 DUP4 ISZERO ISZERO MUL OR SWAP1 SSTORE POP POP POP JUMP JUMPDEST PUSH1 0x6 PUSH0 SWAP1 SLOAD SWAP1 PUSH2 0x100 EXP SWAP1 DIV PUSH1 0xFF AND PUSH2 0xE6A JUMPI PUSH1 0x40 MLOAD PUSH32 0x8C379A000000000000000000000000000000000000000000000000000000000 DUP2 MSTORE PUSH1 0x4 ADD PUSH2 0xE61 SWAP1 PUSH2 0x158B JUMP JUMPDEST PUSH1 0x40 MLOAD DUP1 SWAP2 SUB SWAP1 REVERT JUMPDEST PUSH1 0x3 SLOAD PUSH1 0x2 SLOAD PUSH2 0xE7A SWAP2 SWAP1 PUSH2 0x15D6 JUMP JUMPDEST NUMBER LT PUSH2 0xEBB JUMPI PUSH1 0x40 MLOAD PUSH32 0x8C379A000000000000000000000000000000000000000000000000000000000 DUP2 MSTORE PUSH1 0x4 ADD PUSH2 0xEB2 SWAP1 PUSH2 0x19B1 JUMP JUMPDEST PUSH1 0x40 MLOAD DUP1 SWAP2 SUB SWAP1 REVERT JUMPDEST PUSH0 CALLER PUSH1 0x1 SLOAD PUSH1 0x40 MLOAD PUSH1 0x20 ADD PUSH2 0xED1 SWAP3 SWAP2 SWAP1 PUSH2 0x1A34 JUMP JUMPDEST PUSH1 0x40 MLOAD PUSH1 0x20 DUP2 DUP4 SUB SUB DUP2 MSTORE SWAP1 PUSH1 0x40 MSTORE DUP1 MLOAD SWAP1 PUSH1 0x20 ADD KECCAK256 PUSH0 SHR SWAP1 POP PUSH0 PUSH20 0xFFFFFFFFFFFFFFFFFFFFFFFFFFFFFFFFFFFFFFFF AND PUSH1 0x4 PUSH0 SWAP1 SLOAD SWAP1 PUSH2 0x100 EXP SWAP1 DIV PUSH20 0xFFFFFFFFFFFFFFFFFFFFFFFFFFFFFFFFFFFFFFFF AND PUSH20 0xFFFFFFFFFFFFFFFFFFFFFFFFFFFFFFFFFFFFFFFF AND EQ DUP1 PUSH2 0xF47 JUMPI POP PUSH1 0x5 SLOAD DUP2 LT JUMPDEST ISZERO PUSH2 0xF94 JUMPI CALLER PUSH1 0x4 PUSH0 PUSH2 0x100 EXP DUP2 SLOAD DUP2 PUSH20 0xFFFFFFFFFFFFFFFFFFFFFFFFFFFFFFFFFFFFFFFF MUL NOT AND SWAP1 DUP4 PUSH20 0xFFFFFFFFFFFFFFFFFFFFFFFFFFFFFFFFFFFFFFFF AND MUL OR SWAP1 SSTORE POP DUP1 PUSH1 0x5 DUP2 SWAP1 SSTORE POP JUMPDEST POP JUMP JUMPDEST PUSH2 0x1011 DUP4 DUP5 PUSH20 0xFFFFFFFFFFFFFFFFFFFFFFFFFFFFFFFFFFFFFFFF AND PUSH4 0xA9059CBB DUP6 DUP6 PUSH1 0x40 MLOAD PUSH1 0x24 ADD PUSH2 0xFCA SWAP3 SWAP2 SWAP1 PUSH2 0x1A5F JUMP JUMPDEST PUSH1 0x40 MLOAD PUSH1 0x20 DUP2 DUP4 SUB SUB DUP2 MSTORE SWAP1 PUSH1 0x40 MSTORE SWAP2 POP PUSH1 0xE0 SHL PUSH1 0x20 DUP3 ADD DUP1 MLOAD PUSH28 0xFFFFFFFFFFFFFFFFFFFFFFFFFFFFFFFFFFFFFFFFFFFFFFFFFFFFFFFF DUP4 DUP2 DUP4 AND OR DUP4 MSTORE POP POP POP POP PUSH2 0x1098 JUMP JUMPDEST POP POP POP JUMP JUMPDEST PUSH2 0x1092 DUP5 DUP6 PUSH20 0xFFFFFFFFFFFFFFFFFFFFFFFFFFFFFFFFFFFFFFFF AND PUSH4 0x23B872DD DUP7 DUP7 DUP7 PUSH1 0x40 MLOAD PUSH1 0x24 ADD PUSH2 0x104B SWAP4 SWAP3 SWAP2 SWAP1 PUSH2 0x1A86 JUMP JUMPDEST PUSH1 0x40 MLOAD PUSH1 0x20 DUP2 DUP4 SUB SUB DUP2 MSTORE SWAP1 PUSH1 0x40 MSTORE SWAP2 POP PUSH1 0xE0 SHL PUSH1 0x20 DUP3 ADD DUP1 MLOAD PUSH28 0xFFFFFFFFFFFFFFFFFFFFFFFFFFFFFFFFFFFFFFFFFFFFFFFFFFFFFFFF DUP4 DUP2 DUP4 AND OR DUP4 MSTORE POP POP POP POP PUSH2 0x1098 JUMP JUMPDEST POP POP POP POP JUMP JUMPDEST PUSH0 PUSH2 0x10C2 DUP3 DUP5 PUSH20 0xFFFFFFFFFFFFFFFFFFFFFFFFFFFFFFFFFFFFFFFF AND PUSH2 0x112D SWAP1 SWAP2 SWAP1 PUSH4 0xFFFFFFFF AND JUMP JUMPDEST SWAP1 POP PUSH0 DUP2 MLOAD EQ ISZERO DUP1 ISZERO PUSH2 0x10E6 JUMPI POP DUP1 DUP1 PUSH1 0x20 ADD SWAP1 MLOAD DUP2 ADD SWAP1 PUSH2 0x10E4 SWAP2 SWAP1 PUSH2 0x1AE5 JUMP JUMPDEST ISZERO JUMPDEST ISZERO PUSH2 0x1128 JUMPI DUP3 PUSH1 0x40 MLOAD PUSH32 0x5274AFE700000000000000000000000000000000000000000000000000000000 DUP2 MSTORE PUSH1 0x4 ADD PUSH2 0x111F SWAP2 SWAP1 PUSH2 0x134E JUMP JUMPDEST PUSH1 0x40 MLOAD DUP1 SWAP2 SUB SWAP1 REVERT JUMPDEST POP POP POP JUMP JUMPDEST PUSH1 0x60 PUSH2 0x113A DUP4 DUP4 PUSH0 PUSH2 0x1142 JUMP JUMPDEST SWAP1 POP SWAP3 SWAP2 POP POP JUMP JUMPDEST PUSH1 0x60 DUP2 SELFBALANCE LT ISZERO PUSH2 0x1189 JUMPI ADDRESS PUSH1 0x40 MLOAD PUSH32 0xCD78605900000000000000000000000000000000000000000000000000000000 DUP2 MSTORE PUSH1 0x4 ADD PUSH2 0x1180 SWAP2 SWAP1 PUSH2 0x134E JUMP JUMPDEST PUSH1 0x40 MLOAD DUP1 SWAP2 SUB SWAP1 REVERT JUMPDEST PUSH0 DUP1 DUP6 PUSH20 0xFFFFFFFFFFFFFFFFFFFFFFFFFFFFFFFFFFFFFFFF AND DUP5 DUP7 PUSH1 0x40 MLOAD PUSH2 0x11B1 SWAP2 SWAP1 PUSH2 0x1B62 JUMP JUMPDEST PUSH0 PUSH1 0x40 MLOAD DUP1 DUP4 SUB DUP2 DUP6 DUP8 GAS CALL SWAP3 POP POP POP RETURNDATASIZE DUP1 PUSH0 DUP2 EQ PUSH2 0x11EB JUMPI PUSH1 0x40 MLOAD SWAP2 POP PUSH1 0x1F NOT PUSH1 0x3F RETURNDATASIZE ADD AND DUP3 ADD PUSH1 0x40 MSTORE RETURNDATASIZE DUP3 MSTORE RETURNDATASIZE PUSH0 PUSH1 0x20 DUP5 ADD RETURNDATACOPY PUSH2 0x11F0 JUMP JUMPDEST PUSH1 0x60 SWAP2 POP JUMPDEST POP SWAP2 POP SWAP2 POP PUSH2 0x1200 DUP7 DUP4 DUP4 PUSH2 0x120B JUMP JUMPDEST SWAP3 POP POP POP SWAP4 SWAP3 POP POP POP JUMP JUMPDEST PUSH1 0x60 DUP3 PUSH2 0x1220 JUMPI PUSH2 0x121B DUP3 PUSH2 0x1298 JUMP JUMPDEST PUSH2 0x1290 JUMP JUMPDEST PUSH0 DUP3 MLOAD EQ DUP1 ISZERO PUSH2 0x1246 JUMPI POP PUSH0 DUP5 PUSH20 0xFFFFFFFFFFFFFFFFFFFFFFFFFFFFFFFFFFFFFFFF AND EXTCODESIZE EQ JUMPDEST ISZERO PUSH2 0x1288 JUMPI DUP4 PUSH1 0x40 MLOAD PUSH32 0x9996B31500000000000000000000000000000000000000000000000000000000 DUP2 MSTORE PUSH1 0x4 ADD PUSH2 0x127F SWAP2 SWAP1 PUSH2 0x134E JUMP JUMPDEST PUSH1 0x40 MLOAD DUP1 SWAP2 SUB SWAP1 REVERT JUMPDEST DUP2 SWAP1 POP PUSH2 0x1291 JUMP JUMPDEST JUMPDEST SWAP4 SWAP3 POP POP POP JUMP JUMPDEST PUSH0 DUP2 MLOAD GT ISZERO PUSH2 0x12AA JUMPI DUP1 MLOAD DUP1 DUP3 PUSH1 0x20 ADD REVERT JUMPDEST PUSH1 0x40 MLOAD PUSH32 0x1425EA4200000000000000000000000000000000000000000000000000000000 DUP2 MSTORE PUSH1 0x4 ADD PUSH1 0x40 MLOAD DUP1 SWAP2 SUB SWAP1 REVERT JUMPDEST PUSH0 DUP2 ISZERO ISZERO SWAP1 POP SWAP2 SWAP1 POP JUMP JUMPDEST PUSH2 0x12F0 DUP2 PUSH2 0x12DC JUMP JUMPDEST DUP3 MSTORE POP POP JUMP JUMPDEST PUSH0 PUSH1 0x20 DUP3 ADD SWAP1 POP PUSH2 0x1309 PUSH0 DUP4 ADD DUP5 PUSH2 0x12E7 JUMP JUMPDEST SWAP3 SWAP2 POP POP JUMP JUMPDEST PUSH0 PUSH20 0xFFFFFFFFFFFFFFFFFFFFFFFFFFFFFFFFFFFFFFFF DUP3 AND SWAP1 POP SWAP2 SWAP1 POP JUMP JUMPDEST PUSH0 PUSH2 0x1338 DUP3 PUSH2 0x130F JUMP JUMPDEST SWAP1 POP SWAP2 SWAP1 POP JUMP JUMPDEST PUSH2 0x1348 DUP2 PUSH2 0x132E JUMP JUMPDEST DUP3 MSTORE POP POP JUMP JUMPDEST PUSH0 PUSH1 0x20 DUP3 ADD SWAP1 POP PUSH2 0x1361 PUSH0 DUP4 ADD DUP5 PUSH2 0x133F JUMP JUMPDEST SWAP3 SWAP2 POP POP JUMP JUMPDEST PUSH0 DUP2 SWAP1 POP SWAP2 SWAP1 POP JUMP JUMPDEST PUSH2 0x1379 DUP2 PUSH2 0x1367 JUMP JUMPDEST DUP3 MSTORE POP POP JUMP JUMPDEST PUSH0 PUSH1 0x20 DUP3 ADD SWAP1 POP PUSH2 0x1392 PUSH0 DUP4 ADD DUP5 PUSH2 0x1370 JUMP JUMPDEST SWAP3 SWAP2 POP POP JUMP JUMPDEST PUSH0 DUP1 REVERT JUMPDEST PUSH2 0x13A5 DUP2 PUSH2 0x1367 JUMP JUMPDEST DUP2 EQ PUSH2 0x13AF JUMPI PUSH0 DUP1 REVERT JUMPDEST POP JUMP JUMPDEST PUSH0 DUP2 CALLDATALOAD SWAP1 POP PUSH2 0x13C0 DUP2 PUSH2 0x139C JUMP JUMPDEST SWAP3 SWAP2 POP POP JUMP JUMPDEST PUSH0 PUSH1 0x20 DUP3 DUP5 SUB SLT ISZERO PUSH2 0x13DB JUMPI PUSH2 0x13DA PUSH2 0x1398 JUMP JUMPDEST JUMPDEST PUSH0 PUSH2 0x13E8 DUP5 DUP3 DUP6 ADD PUSH2 0x13B2 JUMP JUMPDEST SWAP2 POP POP SWAP3 SWAP2 POP POP JUMP JUMPDEST PUSH0 DUP2 SWAP1 POP SWAP2 SWAP1 POP JUMP JUMPDEST PUSH0 PUSH2 0x1414 PUSH2 0x140F PUSH2 0x140A DUP5 PUSH2 0x130F JUMP JUMPDEST PUSH2 0x13F1 JUMP JUMPDEST PUSH2 0x130F JUMP JUMPDEST SWAP1 POP SWAP2 SWAP1 POP JUMP JUMPDEST PUSH0 PUSH2 0x1425 DUP3 PUSH2 0x13FA JUMP JUMPDEST SWAP1 POP SWAP2 SWAP1 POP JUMP JUMPDEST PUSH0 PUSH2 0x1436 DUP3 PUSH2 0x141B JUMP JUMPDEST SWAP1 POP SWAP2 SWAP1 POP JUMP JUMPDEST PUSH2 0x1446 DUP2 PUSH2 0x142C JUMP JUMPDEST DUP3 MSTORE POP POP JUMP JUMPDEST PUSH0 PUSH1 0x20 DUP3 ADD SWAP1 POP PUSH2 0x145F PUSH0 DUP4 ADD DUP5 PUSH2 0x143D JUMP JUMPDEST SWAP3 SWAP2 POP POP JUMP JUMPDEST PUSH0 DUP1 PUSH1 0x40 DUP4 DUP6 SUB SLT ISZERO PUSH2 0x147B JUMPI PUSH2 0x147A PUSH2 0x1398 JUMP JUMPDEST JUMPDEST PUSH0 PUSH2 0x1488 DUP6 DUP3 DUP7 ADD PUSH2 0x13B2 JUMP JUMPDEST SWAP3 POP POP PUSH1 0x20 PUSH2 0x1499 DUP6 DUP3 DUP7 ADD PUSH2 0x13B2 JUMP JUMPDEST SWAP2 POP POP SWAP3 POP SWAP3 SWAP1 POP JUMP JUMPDEST PUSH0 DUP3 DUP3 MSTORE PUSH1 0x20 DUP3 ADD SWAP1 POP SWAP3 SWAP2 POP POP JUMP JUMPDEST PUSH32 0x4F6E6C79206F776E65722063616E2063616C6C20746869732066756E6374696F PUSH0 DUP3 ADD MSTORE PUSH32 0x6E00000000000000000000000000000000000000000000000000000000000000 PUSH1 0x20 DUP3 ADD MSTORE POP JUMP JUMPDEST PUSH0 PUSH2 0x150D PUSH1 0x21 DUP4 PUSH2 0x14A3 JUMP JUMPDEST SWAP2 POP PUSH2 0x1518 DUP3 PUSH2 0x14B3 JUMP JUMPDEST PUSH1 0x40 DUP3 ADD SWAP1 POP SWAP2 SWAP1 POP JUMP JUMPDEST PUSH0 PUSH1 0x20 DUP3 ADD SWAP1 POP DUP2 DUP2 SUB PUSH0 DUP4 ADD MSTORE PUSH2 0x153A DUP2 PUSH2 0x1501 JUMP JUMPDEST SWAP1 POP SWAP2 SWAP1 POP JUMP JUMPDEST PUSH32 0x47616D65206973206E6F74206163746976650000000000000000000000000000 PUSH0 DUP3 ADD MSTORE POP JUMP JUMPDEST PUSH0 PUSH2 0x1575 PUSH1 0x12 DUP4 PUSH2 0x14A3 JUMP JUMPDEST SWAP2 POP PUSH2 0x1580 DUP3 PUSH2 0x1541 JUMP JUMPDEST PUSH1 0x20 DUP3 ADD SWAP1 POP SWAP2 SWAP1 POP JUMP JUMPDEST PUSH0 PUSH1 0x20 DUP3 ADD SWAP1 POP DUP2 DUP2 SUB PUSH0 DUP4 ADD MSTORE PUSH2 0x15A2 DUP2 PUSH2 0x1569 JUMP JUMPDEST SWAP1 POP SWAP2 SWAP1 POP JUMP JUMPDEST PUSH32 0x4E487B7100000000000000000000000000000000000000000000000000000000 PUSH0 MSTORE PUSH1 0x11 PUSH1 0x4 MSTORE PUSH1 0x24 PUSH0 REVERT JUMPDEST PUSH0 PUSH2 0x15E0 DUP3 PUSH2 0x1367 JUMP JUMPDEST SWAP2 POP PUSH2 0x15EB DUP4 PUSH2 0x1367 JUMP JUMPDEST SWAP3 POP DUP3 DUP3 ADD SWAP1 POP DUP1 DUP3 GT ISZERO PUSH2 0x1603 JUMPI PUSH2 0x1602 PUSH2 0x15A9 JUMP JUMPDEST JUMPDEST SWAP3 SWAP2 POP POP JUMP JUMPDEST PUSH32 0x47616D6520686173206E6F7420656E6465642079657400000000000000000000 PUSH0 DUP3 ADD MSTORE POP JUMP JUMPDEST PUSH0 PUSH2 0x163D PUSH1 0x16 DUP4 PUSH2 0x14A3 JUMP JUMPDEST SWAP2 POP PUSH2 0x1648 DUP3 PUSH2 0x1609 JUMP JUMPDEST PUSH1 0x20 DUP3 ADD SWAP1 POP SWAP2 SWAP1 POP JUMP JUMPDEST PUSH0 PUSH1 0x20 DUP3 ADD SWAP1 POP DUP2 DUP2 SUB PUSH0 DUP4 ADD MSTORE PUSH2 0x166A DUP2 PUSH2 0x1631 JUMP JUMPDEST SWAP1 POP SWAP2 SWAP1 POP JUMP JUMPDEST PUSH0 DUP2 MLOAD SWAP1 POP PUSH2 0x167F DUP2 PUSH2 0x139C JUMP JUMPDEST SWAP3 SWAP2 POP POP JUMP JUMPDEST PUSH0 PUSH1 0x20 DUP3 DUP5 SUB SLT ISZERO PUSH2 0x169A JUMPI PUSH2 0x1699 PUSH2 0x1398 JUMP JUMPDEST JUMPDEST PUSH0 PUSH2 0x16A7 DUP5 DUP3 DUP6 ADD PUSH2 0x1671 JUMP JUMPDEST SWAP2 POP POP SWAP3 SWAP2 POP POP JUMP JUMPDEST PUSH32 0x47616D65206973207374696C6C20616374697665000000000000000000000000 PUSH0 DUP3 ADD MSTORE POP JUMP JUMPDEST PUSH0 PUSH2 0x16E4 PUSH1 0x14 DUP4 PUSH2 0x14A3 JUMP JUMPDEST SWAP2 POP PUSH2 0x16EF DUP3 PUSH2 0x16B0 JUMP JUMPDEST PUSH1 0x20 DUP3 ADD SWAP1 POP SWAP2 SWAP1 POP JUMP JUMPDEST PUSH0 PUSH1 0x20 DUP3 ADD SWAP1 POP DUP2 DUP2 SUB PUSH0 DUP4 ADD MSTORE PUSH2 0x1711 DUP2 PUSH2 0x16D8 JUMP JUMPDEST SWAP1 POP SWAP2 SWAP1 POP JUMP JUMPDEST PUSH32 0x4F6E6C792077696E6E65722063616E20636C61696D2072657761726400000000 PUSH0 DUP3 ADD MSTORE POP JUMP JUMPDEST PUSH0 PUSH2 0x174C PUSH1 0x1C DUP4 PUSH2 0x14A3 JUMP JUMPDEST SWAP2 POP PUSH2 0x1757 DUP3 PUSH2 0x1718 JUMP JUMPDEST PUSH1 0x20 DUP3 ADD SWAP1 POP SWAP2 SWAP1 POP JUMP JUMPDEST PUSH0 PUSH1 0x20 DUP3 ADD SWAP1 POP DUP2 DUP2 SUB PUSH0 DUP4 ADD MSTORE PUSH2 0x1779 DUP2 PUSH2 0x1740 JUMP JUMPDEST SWAP1 POP SWAP2 SWAP1 POP JUMP JUMPDEST PUSH32 0x52657761726420616C726561647920636C61696D656400000000000000000000 PUSH0 DUP3 ADD MSTORE POP JUMP JUMPDEST PUSH0 PUSH2 0x17B4 PUSH1 0x16 DUP4 PUSH2 0x14A3 JUMP JUMPDEST SWAP2 POP PUSH2 0x17BF DUP3 PUSH2 0x1780 JUMP JUMPDEST PUSH1 0x20 DUP3 ADD SWAP1 POP SWAP2 SWAP1 POP JUMP JUMPDEST PUSH0 PUSH1 0x20 DUP3 ADD SWAP1 POP DUP2 DUP2 SUB PUSH0 DUP4 ADD MSTORE PUSH2 0x17E1 DUP2 PUSH2 0x17A8 JUMP JUMPDEST SWAP1 POP SWAP2 SWAP1 POP JUMP JUMPDEST PUSH32 0x43757272656E742067616D65206973207374696C6C2061637469766500000000 PUSH0 DUP3 ADD MSTORE POP JUMP JUMPDEST PUSH0 PUSH2 0x181C PUSH1 0x1C DUP4 PUSH2 0x14A3 JUMP JUMPDEST SWAP2 POP PUSH2 0x1827 DUP3 PUSH2 0x17E8 JUMP JUMPDEST PUSH1 0x20 DUP3 ADD SWAP1 POP SWAP2 SWAP1 POP JUMP JUMPDEST PUSH0 PUSH1 0x20 DUP3 ADD SWAP1 POP DUP2 DUP2 SUB PUSH0 DUP4 ADD MSTORE PUSH2 0x1849 DUP2 PUSH2 0x1810 JUMP JUMPDEST SWAP1 POP SWAP2 SWAP1 POP JUMP JUMPDEST PUSH32 0x496E73756666696369656E7420746F6B656E2062616C616E6365000000000000 PUSH0 DUP3 ADD MSTORE POP JUMP JUMPDEST PUSH0 PUSH2 0x1884 PUSH1 0x1A DUP4 PUSH2 0x14A3 JUMP JUMPDEST SWAP2 POP PUSH2 0x188F DUP3 PUSH2 0x1850 JUMP JUMPDEST PUSH1 0x20 DUP3 ADD SWAP1 POP SWAP2 SWAP1 POP JUMP JUMPDEST PUSH0 PUSH1 0x20 DUP3 ADD SWAP1 POP DUP2 DUP2 SUB PUSH0 DUP4 ADD MSTORE PUSH2 0x18B1 DUP2 PUSH2 0x1878 JUMP JUMPDEST SWAP1 POP SWAP2 SWAP1 POP JUMP JUMPDEST PUSH32 0x50726576696F757320726577617264206E6F7420636C61696D65640000000000 PUSH0 DUP3 ADD MSTORE POP JUMP JUMPDEST PUSH0 PUSH2 0x18EC PUSH1 0x1B DUP4 PUSH2 0x14A3 JUMP JUMPDEST SWAP2 POP PUSH2 0x18F7 DUP3 PUSH2 0x18B8 JUMP JUMPDEST PUSH1 0x20 DUP3 ADD SWAP1 POP SWAP2 SWAP1 POP JUMP JUMPDEST PUSH0 PUSH1 0x20 DUP3 ADD SWAP1 POP DUP2 DUP2 SUB PUSH0 DUP4 ADD MSTORE PUSH2 0x1919 DUP2 PUSH2 0x18E0 JUMP JUMPDEST SWAP1 POP SWAP2 SWAP1 POP JUMP JUMPDEST PUSH0 PUSH2 0x192A DUP3 PUSH2 0x1367 JUMP JUMPDEST SWAP2 POP PUSH32 0xFFFFFFFFFFFFFFFFFFFFFFFFFFFFFFFFFFFFFFFFFFFFFFFFFFFFFFFFFFFFFFFF DUP3 SUB PUSH2 0x195C JUMPI PUSH2 0x195B PUSH2 0x15A9 JUMP JUMPDEST JUMPDEST PUSH1 0x1 DUP3 ADD SWAP1 POP SWAP2 SWAP1 POP JUMP JUMPDEST PUSH32 0x47616D652068617320656E646564000000000000000000000000000000000000 PUSH0 DUP3 ADD MSTORE POP JUMP JUMPDEST PUSH0 PUSH2 0x199B PUSH1 0xE DUP4 PUSH2 0x14A3 JUMP JUMPDEST SWAP2 POP PUSH2 0x19A6 DUP3 PUSH2 0x1967 JUMP JUMPDEST PUSH1 0x20 DUP3 ADD SWAP1 POP SWAP2 SWAP1 POP JUMP JUMPDEST PUSH0 PUSH1 0x20 DUP3 ADD SWAP1 POP DUP2 DUP2 SUB PUSH0 DUP4 ADD MSTORE PUSH2 0x19C8 DUP2 PUSH2 0x198F JUMP JUMPDEST SWAP1 POP SWAP2 SWAP1 POP JUMP JUMPDEST PUSH0 DUP2 PUSH1 0x60 SHL SWAP1 POP SWAP2 SWAP1 POP JUMP JUMPDEST PUSH0 PUSH2 0x19E5 DUP3 PUSH2 0x19CF JUMP JUMPDEST SWAP1 POP SWAP2 SWAP1 POP JUMP JUMPDEST PUSH0 PUSH2 0x19F6 DUP3 PUSH2 0x19DB JUMP JUMPDEST SWAP1 POP SWAP2 SWAP1 POP JUMP JUMPDEST PUSH2 0x1A0E PUSH2 0x1A09 DUP3 PUSH2 0x132E JUMP JUMPDEST PUSH2 0x19EC JUMP JUMPDEST DUP3 MSTORE POP POP JUMP JUMPDEST PUSH0 DUP2 SWAP1 POP SWAP2 SWAP1 POP JUMP JUMPDEST PUSH2 0x1A2E PUSH2 0x1A29 DUP3 PUSH2 0x1367 JUMP JUMPDEST PUSH2 0x1A14 JUMP JUMPDEST DUP3 MSTORE POP POP JUMP JUMPDEST PUSH0 PUSH2 0x1A3F DUP3 DUP6 PUSH2 0x19FD JUMP JUMPDEST PUSH1 0x14 DUP3 ADD SWAP2 POP PUSH2 0x1A4F DUP3 DUP5 PUSH2 0x1A1D JUMP JUMPDEST PUSH1 0x20 DUP3 ADD SWAP2 POP DUP2 SWAP1 POP SWAP4 SWAP3 POP POP POP JUMP JUMPDEST PUSH0 PUSH1 0x40 DUP3 ADD SWAP1 POP PUSH2 0x1A72 PUSH0 DUP4 ADD DUP6 PUSH2 0x133F JUMP JUMPDEST PUSH2 0x1A7F PUSH1 0x20 DUP4 ADD DUP5 PUSH2 0x1370 JUMP JUMPDEST SWAP4 SWAP3 POP POP POP JUMP JUMPDEST PUSH0 PUSH1 0x60 DUP3 ADD SWAP1 POP PUSH2 0x1A99 PUSH0 DUP4 ADD DUP7 PUSH2 0x133F JUMP JUMPDEST PUSH2 0x1AA6 PUSH1 0x20 DUP4 ADD DUP6 PUSH2 0x133F JUMP JUMPDEST PUSH2 0x1AB3 PUSH1 0x40 DUP4 ADD DUP5 PUSH2 0x1370 JUMP JUMPDEST SWAP5 SWAP4 POP POP POP POP JUMP JUMPDEST PUSH2 0x1AC4 DUP2 PUSH2 0x12DC JUMP JUMPDEST DUP2 EQ PUSH2 0x1ACE JUMPI PUSH0 DUP1 REVERT JUMPDEST POP JUMP JUMPDEST PUSH0 DUP2 MLOAD SWAP1 POP PUSH2 0x1ADF DUP2 PUSH2 0x1ABB JUMP JUMPDEST SWAP3 SWAP2 POP POP JUMP JUMPDEST PUSH0 PUSH1 0x20 DUP3 DUP5 SUB SLT ISZERO PUSH2 0x1AFA JUMPI PUSH2 0x1AF9 PUSH2 0x1398 JUMP JUMPDEST JUMPDEST PUSH0 PUSH2 0x1B07 DUP5 DUP3 DUP6 ADD PUSH2 0x1AD1 JUMP JUMPDEST SWAP2 POP POP SWAP3 SWAP2 POP POP JUMP JUMPDEST PUSH0 DUP2 MLOAD SWAP1 POP SWAP2 SWAP1 POP JUMP JUMPDEST PUSH0 DUP2 SWAP1 POP SWAP3 SWAP2 POP POP JUMP JUMPDEST DUP3 DUP2 DUP4 MCOPY PUSH0 DUP4 DUP4 ADD MSTORE POP POP POP JUMP JUMPDEST PUSH0 PUSH2 0x1B3C DUP3 PUSH2 0x1B10 JUMP JUMPDEST PUSH2 0x1B46 DUP2 DUP6 PUSH2 0x1B1A JUMP JUMPDEST SWAP4 POP PUSH2 0x1B56 DUP2 DUP6 PUSH1 0x20 DUP7 ADD PUSH2 0x1B24 JUMP JUMPDEST DUP1 DUP5 ADD SWAP2 POP POP SWAP3 SWAP2 POP POP JUMP JUMPDEST PUSH0 PUSH2 0x1B6D DUP3 DUP5 PUSH2 0x1B32 JUMP JUMPDEST SWAP2 POP DUP2 SWAP1 POP SWAP3 SWAP2 POP POP JUMP INVALID LOG2 PUSH5 0x6970667358 0x22 SLT KECCAK256 0xF6 ADDMOD 0x29 SGT MSTORE8 PUSH0 NUMBER 0xB8 SWAP12 0xF9 0xAE 0xBD 0xEA KECCAK256 PUSH32 0xB259858C7488315DD82F1AD6880E9F0B2B64736F6C634300081A003300000000 "
				},
				"gasEstimates": {
					"creation": {
						"codeDepositCost": "1417200",
						"executionCost": "infinite",
						"totalCost": "infinite"
					},
					"external": {
						"claimReward()": "infinite",
						"currentMinAddress()": "2554",
						"currentMinHash()": "2470",
						"depositTokens(uint256)": "infinite",
						"endGame()": "infinite",
						"epochId()": "2448",
						"gameActive()": "2554",
						"gameDuration()": "2469",
						"gameStartBlock()": "2537",
						"getContractBalance()": "infinite",
						"getCurrentEpoch()": "2499",
						"getCurrentMinAddress()": "2581",
						"getCurrentMinHash()": "2543",
						"getReward()": "2566",
						"getWinner()": "2699",
						"iambestone()": "infinite",
						"isRewardClaimed()": "2562",
						"luckyToken()": "infinite",
						"owner()": "2616",
						"reward()": "2493",
						"rewardClaimed()": "2490",
						"startNewGame(uint256,uint256)": "infinite",
						"winner()": "2581",
						"withdrawTokens(uint256)": "infinite"
					}
				},
				"methodIdentifiers": {
					"claimReward()": "b88a802f",
					"currentMinAddress()": "0d7d5599",
					"currentMinHash()": "58830d6c",
					"depositTokens(uint256)": "dd49756e",
					"endGame()": "6cbc2ded",
					"epochId()": "aa9bbc0c",
					"gameActive()": "f020044f",
					"gameDuration()": "e1f0c376",
					"gameStartBlock()": "3804c73d",
					"getContractBalance()": "6f9fb98a",
					"getCurrentEpoch()": "b97dd9e2",
					"getCurrentMinAddress()": "efc29372",
					"getCurrentMinHash()": "d94504b9",
					"getReward()": "3d18b912",
					"getWinner()": "8e7ea5b2",
					"iambestone()": "fd636322",
					"isRewardClaimed()": "c010ce68",
					"luckyToken()": "56bf8741",
					"owner()": "8da5cb5b",
					"reward()": "228cb733",
					"rewardClaimed()": "01b62b78",
					"startNewGame(uint256,uint256)": "f30d9470",
					"winner()": "dfbf53ae",
					"withdrawTokens(uint256)": "315a095d"
				}
			},
			"storageLayout": {
				"storage": [
					{
						"astId": 666,
						"contract": "contracts/MinHashCameContract_v3.sol:MinHashGameContract",
						"label": "owner",
						"offset": 0,
						"slot": "0",
						"type": "t_address"
					},
					{
						"astId": 668,
						"contract": "contracts/MinHashCameContract_v3.sol:MinHashGameContract",
						"label": "epochId",
						"offset": 0,
						"slot": "1",
						"type": "t_uint256"
					},
					{
						"astId": 670,
						"contract": "contracts/MinHashCameContract_v3.sol:MinHashGameContract",
						"label": "gameStartBlock",
						"offset": 0,
						"slot": "2",
						"type": "t_uint256"
					},
					{
						"astId": 672,
						"contract": "contracts/MinHashCameContract_v3.sol:MinHashGameContract",
						"label": "gameDuration",
						"offset": 0,
						"slot": "3",
						"type": "t_uint256"
					},
					{
						"astId": 674,
						"contract": "contracts/MinHashCameContract_v3.sol:MinHashGameContract",
						"label": "currentMinAddress",
						"offset": 0,
						"slot": "4",
						"type": "t_address"
					},
					{
						"astId": 676,
						"contract": "contracts/MinHashCameContract_v3.sol:MinHashGameContract",
						"label": "currentMinHash",
						"offset": 0,
						"slot": "5",
						"type": "t_uint256"
					},
					{
						"astId": 678,
						"contract": "contracts/MinHashCameContract_v3.sol:MinHashGameContract",
						"label": "gameActive",
						"offset": 0,
						"slot": "6",
						"type": "t_bool"
					},
					{
						"astId": 680,
						"contract": "contracts/MinHashCameContract_v3.sol:MinHashGameContract",
						"label": "winner",
						"offset": 1,
						"slot": "6",
						"type": "t_address"
					},
					{
						"astId": 682,
						"contract": "contracts/MinHashCameContract_v3.sol:MinHashGameContract",
						"label": "reward",
						"offset": 0,
						"slot": "7",
						"type": "t_uint256"
					},
					{
						"astId": 684,
						"contract": "contracts/MinHashCameContract_v3.sol:MinHashGameContract",
						"label": "rewardClaimed",
						"offset": 0,
						"slot": "8",
						"type": "t_bool"
					},
					{
						"astId": 687,
						"contract": "contracts/MinHashCameContract_v3.sol:MinHashGameContract",
						"label": "luckyToken",
						"offset": 1,
						"slot": "8",
						"type": "t_contract(IERC20)77"
					}
				],
				"types": {
					"t_address": {
						"encoding": "inplace",
						"label": "address",
						"numberOfBytes": "20"
					},
					"t_bool": {
						"encoding": "inplace",
						"label": "bool",
						"numberOfBytes": "1"
					},
					"t_contract(IERC20)77": {
						"encoding": "inplace",
						"label": "contract IERC20",
						"numberOfBytes": "20"
					},
					"t_uint256": {
						"encoding": "inplace",
						"label": "uint256",
						"numberOfBytes": "32"
					}
				}
			},
			"userdoc": {
				"kind": "user",
				"methods": {},
				"version": 1
			}
		}
	}
}