{
	"contracts/MinHashCameContract_v2.sol": {
		"MinHashGameContract": {
			"abi": [
				{
					"inputs": [],
					"stateMutability": "nonpayable",
					"type": "constructor"
				},
				{
					"inputs": [],
					"name": "currentMinAddress",
					"outputs": [
						{
							"internalType": "address",
							"name": "",
							"type": "address"
						}
					],
					"stateMutability": "view",
					"type": "function"
				},
				{
					"inputs": [],
					"name": "currentMinHash",
					"outputs": [
						{
							"internalType": "uint256",
							"name": "",
							"type": "uint256"
						}
					],
					"stateMutability": "view",
					"type": "function"
				},
				{
					"inputs": [],
					"name": "endGame",
					"outputs": [],
					"stateMutability": "nonpayable",
					"type": "function"
				},
				{
					"inputs": [],
					"name": "epochId",
					"outputs": [
						{
							"internalType": "uint256",
							"name": "",
							"type": "uint256"
						}
					],
					"stateMutability": "view",
					"type": "function"
				},
				{
					"inputs": [],
					"name": "gameActive",
					"outputs": [
						{
							"internalType": "bool",
							"name": "",
							"type": "bool"
						}
					],
					"stateMutability": "view",
					"type": "function"
				},
				{
					"inputs": [],
					"name": "gameDuration",
					"outputs": [
						{
							"internalType": "uint256",
							"name": "",
							"type": "uint256"
						}
					],
					"stateMutability": "view",
					"type": "function"
				},
				{
					"inputs": [],
					"name": "gameStartBlock",
					"outputs": [
						{
							"internalType": "uint256",
							"name": "",
							"type": "uint256"
						}
					],
					"stateMutability": "view",
					"type": "function"
				},
				{
					"inputs": [],
					"name": "getCurrentEpoch",
					"outputs": [
						{
							"internalType": "uint256",
							"name": "",
							"type": "uint256"
						}
					],
					"stateMutability": "view",
					"type": "function"
				},
				{
					"inputs": [],
					"name": "getCurrentMinAddress",
					"outputs": [
						{
							"internalType": "address",
							"name": "",
							"type": "address"
						}
					],
					"stateMutability": "view",
					"type": "function"
				},
				{
					"inputs": [],
					"name": "getCurrentMinHash",
					"outputs": [
						{
							"internalType": "uint256",
							"name": "",
							"type": "uint256"
						}
					],
					"stateMutability": "view",
					"type": "function"
				},
				{
					"inputs": [],
					"name": "getWinner",
					"outputs": [
						{
							"internalType": "address",
							"name": "",
							"type": "address"
						}
					],
					"stateMutability": "view",
					"type": "function"
				},
				{
					"inputs": [],
					"name": "iambestone",
					"outputs": [],
					"stateMutability": "nonpayable",
					"type": "function"
				},
				{
					"inputs": [],
					"name": "owner",
					"outputs": [
						{
							"internalType": "address",
							"name": "",
							"type": "address"
						}
					],
					"stateMutability": "view",
					"type": "function"
				},
				{
					"inputs": [
						{
							"internalType": "uint256",
							"name": "_gameDuration",
							"type": "uint256"
						}
					],
					"name": "startNewGame",
					"outputs": [],
					"stateMutability": "nonpayable",
					"type": "function"
				},
				{
					"inputs": [],
					"name": "winner",
					"outputs": [
						{
							"internalType": "address",
							"name": "",
							"type": "address"
						}
					],
					"stateMutability": "view",
					"type": "function"
				}
			],
			"devdoc": {
				"kind": "dev",
				"methods": {},
				"version": 1
			},
			"evm": {
				"assembly": "    /* \"contracts/MinHashCameContract_v2.sol\":60:2558  contract MinHashGameContract {... */\n  mstore(0x40, 0x80)\n    /* \"contracts/MinHashCameContract_v2.sol\":595:646  constructor() {... */\n  callvalue\n  dup1\n  iszero\n  tag_1\n  jumpi\n  0x00\n  dup1\n  revert\ntag_1:\n  pop\n    /* \"contracts/MinHashCameContract_v2.sol\":628:638  msg.sender */\n  caller\n    /* \"contracts/MinHashCameContract_v2.sol\":620:625  owner */\n  0x00\n  dup1\n    /* \"contracts/MinHashCameContract_v2.sol\":620:638  owner = msg.sender */\n  0x0100\n  exp\n  dup2\n  sload\n  dup2\n  0xffffffffffffffffffffffffffffffffffffffff\n  mul\n  not\n  and\n  swap1\n  dup4\n  0xffffffffffffffffffffffffffffffffffffffff\n  and\n  mul\n  or\n  swap1\n  sstore\n  pop\n    /* \"contracts/MinHashCameContract_v2.sol\":60:2558  contract MinHashGameContract {... */\n  dataSize(sub_0)\n  dup1\n  dataOffset(sub_0)\n  0x00\n  codecopy\n  0x00\n  return\nstop\n\nsub_0: assembly {\n        /* \"contracts/MinHashCameContract_v2.sol\":60:2558  contract MinHashGameContract {... */\n      mstore(0x40, 0x80)\n      callvalue\n      dup1\n      iszero\n      tag_1\n      jumpi\n      0x00\n      dup1\n      revert\n    tag_1:\n      pop\n      jumpi(tag_2, lt(calldatasize, 0x04))\n      shr(0xe0, calldataload(0x00))\n      dup1\n      0xb97dd9e2\n      gt\n      tag_18\n      jumpi\n      dup1\n      0xe1f0c376\n      gt\n      tag_19\n      jumpi\n      dup1\n      0xe1f0c376\n      eq\n      tag_14\n      jumpi\n      dup1\n      0xefc29372\n      eq\n      tag_15\n      jumpi\n      dup1\n      0xf020044f\n      eq\n      tag_16\n      jumpi\n      dup1\n      0xfd636322\n      eq\n      tag_17\n      jumpi\n      jump(tag_2)\n    tag_19:\n      dup1\n      0xb97dd9e2\n      eq\n      tag_10\n      jumpi\n      dup1\n      0xd3738014\n      eq\n      tag_11\n      jumpi\n      dup1\n      0xd94504b9\n      eq\n      tag_12\n      jumpi\n      dup1\n      0xdfbf53ae\n      eq\n      tag_13\n      jumpi\n      jump(tag_2)\n    tag_18:\n      dup1\n      0x6cbc2ded\n      gt\n      tag_20\n      jumpi\n      dup1\n      0x6cbc2ded\n      eq\n      tag_6\n      jumpi\n      dup1\n      0x8da5cb5b\n      eq\n      tag_7\n      jumpi\n      dup1\n      0x8e7ea5b2\n      eq\n      tag_8\n      jumpi\n      dup1\n      0xaa9bbc0c\n      eq\n      tag_9\n      jumpi\n      jump(tag_2)\n    tag_20:\n      dup1\n      0x0d7d5599\n      eq\n      tag_3\n      jumpi\n      dup1\n      0x3804c73d\n      eq\n      tag_4\n      jumpi\n      dup1\n      0x58830d6c\n      eq\n      tag_5\n      jumpi\n    tag_2:\n      0x00\n      dup1\n      revert\n        /* \"contracts/MinHashCameContract_v2.sol\":224:256  address public currentMinAddress */\n    tag_3:\n      tag_21\n      tag_22\n      jump\t// in\n    tag_21:\n      mload(0x40)\n      tag_23\n      swap2\n      swap1\n      tag_24\n      jump\t// in\n    tag_23:\n      mload(0x40)\n      dup1\n      swap2\n      sub\n      swap1\n      return\n        /* \"contracts/MinHashCameContract_v2.sol\":154:183  uint256 public gameStartBlock */\n    tag_4:\n      tag_25\n      tag_26\n      jump\t// in\n    tag_25:\n      mload(0x40)\n      tag_27\n      swap2\n      swap1\n      tag_28\n      jump\t// in\n    tag_27:\n      mload(0x40)\n      dup1\n      swap2\n      sub\n      swap1\n      return\n        /* \"contracts/MinHashCameContract_v2.sol\":263:292  uint256 public currentMinHash */\n    tag_5:\n      tag_29\n      tag_30\n      jump\t// in\n    tag_29:\n      mload(0x40)\n      tag_31\n      swap2\n      swap1\n      tag_28\n      jump\t// in\n    tag_31:\n      mload(0x40)\n      dup1\n      swap2\n      sub\n      swap1\n      return\n        /* \"contracts/MinHashCameContract_v2.sol\":1688:2012  function endGame() public onlyOwner {... */\n    tag_6:\n      tag_32\n      tag_33\n      jump\t// in\n    tag_32:\n      stop\n        /* \"contracts/MinHashCameContract_v2.sol\":98:118  address public owner */\n    tag_7:\n      tag_34\n      tag_35\n      jump\t// in\n    tag_34:\n      mload(0x40)\n      tag_36\n      swap2\n      swap1\n      tag_24\n      jump\t// in\n    tag_36:\n      mload(0x40)\n      dup1\n      swap2\n      sub\n      swap1\n      return\n        /* \"contracts/MinHashCameContract_v2.sol\":2472:2555  function getWinner() public view returns (address) {... */\n    tag_8:\n      tag_37\n      tag_38\n      jump\t// in\n    tag_37:\n      mload(0x40)\n      tag_39\n      swap2\n      swap1\n      tag_24\n      jump\t// in\n    tag_39:\n      mload(0x40)\n      dup1\n      swap2\n      sub\n      swap1\n      return\n        /* \"contracts/MinHashCameContract_v2.sol\":125:147  uint256 public epochId */\n    tag_9:\n      tag_40\n      tag_41\n      jump\t// in\n    tag_40:\n      mload(0x40)\n      tag_42\n      swap2\n      swap1\n      tag_28\n      jump\t// in\n    tag_42:\n      mload(0x40)\n      dup1\n      swap2\n      sub\n      swap1\n      return\n        /* \"contracts/MinHashCameContract_v2.sol\":2344:2434  function getCurrentEpoch() public view returns (uint256) {... */\n    tag_10:\n      tag_43\n      tag_44\n      jump\t// in\n    tag_43:\n      mload(0x40)\n      tag_45\n      swap2\n      swap1\n      tag_28\n      jump\t// in\n    tag_45:\n      mload(0x40)\n      dup1\n      swap2\n      sub\n      swap1\n      return\n        /* \"contracts/MinHashCameContract_v2.sol\":703:1079  function startNewGame(uint256 _gameDuration) public onlyOwner {... */\n    tag_11:\n      tag_46\n      0x04\n      dup1\n      calldatasize\n      sub\n      dup2\n      add\n      swap1\n      tag_47\n      swap2\n      swap1\n      tag_48\n      jump\t// in\n    tag_47:\n      tag_49\n      jump\t// in\n    tag_46:\n      stop\n        /* \"contracts/MinHashCameContract_v2.sol\":2204:2303  function getCurrentMinHash() public view returns (uint256) {... */\n    tag_12:\n      tag_50\n      tag_51\n      jump\t// in\n    tag_50:\n      mload(0x40)\n      tag_52\n      swap2\n      swap1\n      tag_28\n      jump\t// in\n    tag_52:\n      mload(0x40)\n      dup1\n      swap2\n      sub\n      swap1\n      return\n        /* \"contracts/MinHashCameContract_v2.sol\":328:349  address public winner */\n    tag_13:\n      tag_53\n      tag_54\n      jump\t// in\n    tag_53:\n      mload(0x40)\n      tag_55\n      swap2\n      swap1\n      tag_24\n      jump\t// in\n    tag_55:\n      mload(0x40)\n      dup1\n      swap2\n      sub\n      swap1\n      return\n        /* \"contracts/MinHashCameContract_v2.sol\":190:217  uint256 public gameDuration */\n    tag_14:\n      tag_56\n      tag_57\n      jump\t// in\n    tag_56:\n      mload(0x40)\n      tag_58\n      swap2\n      swap1\n      tag_28\n      jump\t// in\n    tag_58:\n      mload(0x40)\n      dup1\n      swap2\n      sub\n      swap1\n      return\n        /* \"contracts/MinHashCameContract_v2.sol\":2057:2162  function getCurrentMinAddress() public view returns (address) {... */\n    tag_15:\n      tag_59\n      tag_60\n      jump\t// in\n    tag_59:\n      mload(0x40)\n      tag_61\n      swap2\n      swap1\n      tag_24\n      jump\t// in\n    tag_61:\n      mload(0x40)\n      dup1\n      swap2\n      sub\n      swap1\n      return\n        /* \"contracts/MinHashCameContract_v2.sol\":299:321  bool public gameActive */\n    tag_16:\n      tag_62\n      tag_63\n      jump\t// in\n    tag_62:\n      mload(0x40)\n      tag_64\n      swap2\n      swap1\n      tag_65\n      jump\t// in\n    tag_64:\n      mload(0x40)\n      dup1\n      swap2\n      sub\n      swap1\n      return\n        /* \"contracts/MinHashCameContract_v2.sol\":1115:1631  function iambestone() public gameIsActive {... */\n    tag_17:\n      tag_66\n      tag_67\n      jump\t// in\n    tag_66:\n      stop\n        /* \"contracts/MinHashCameContract_v2.sol\":224:256  address public currentMinAddress */\n    tag_22:\n      0x04\n      0x00\n      swap1\n      sload\n      swap1\n      0x0100\n      exp\n      swap1\n      div\n      0xffffffffffffffffffffffffffffffffffffffff\n      and\n      dup2\n      jump\t// out\n        /* \"contracts/MinHashCameContract_v2.sol\":154:183  uint256 public gameStartBlock */\n    tag_26:\n      sload(0x02)\n      dup2\n      jump\t// out\n        /* \"contracts/MinHashCameContract_v2.sol\":263:292  uint256 public currentMinHash */\n    tag_30:\n      sload(0x05)\n      dup2\n      jump\t// out\n        /* \"contracts/MinHashCameContract_v2.sol\":1688:2012  function endGame() public onlyOwner {... */\n    tag_33:\n        /* \"contracts/MinHashCameContract_v2.sol\":416:421  owner */\n      0x00\n      dup1\n      sload\n      swap1\n      0x0100\n      exp\n      swap1\n      div\n      0xffffffffffffffffffffffffffffffffffffffff\n      and\n        /* \"contracts/MinHashCameContract_v2.sol\":402:421  msg.sender == owner */\n      0xffffffffffffffffffffffffffffffffffffffff\n      and\n        /* \"contracts/MinHashCameContract_v2.sol\":402:412  msg.sender */\n      caller\n        /* \"contracts/MinHashCameContract_v2.sol\":402:421  msg.sender == owner */\n      0xffffffffffffffffffffffffffffffffffffffff\n      and\n      eq\n        /* \"contracts/MinHashCameContract_v2.sol\":394:459  require(msg.sender == owner, \"Only owner can call this function\") */\n      tag_69\n      jumpi\n      mload(0x40)\n      0x08c379a000000000000000000000000000000000000000000000000000000000\n      dup2\n      mstore\n      0x04\n      add\n      tag_70\n      swap1\n      tag_71\n      jump\t// in\n    tag_70:\n      mload(0x40)\n      dup1\n      swap2\n      sub\n      swap1\n      revert\n    tag_69:\n        /* \"contracts/MinHashCameContract_v2.sol\":1743:1753  gameActive */\n      0x06\n      0x00\n      swap1\n      sload\n      swap1\n      0x0100\n      exp\n      swap1\n      div\n      0xff\n      and\n        /* \"contracts/MinHashCameContract_v2.sol\":1735:1776  require(gameActive, \"Game is not active\") */\n      tag_73\n      jumpi\n      mload(0x40)\n      0x08c379a000000000000000000000000000000000000000000000000000000000\n      dup2\n      mstore\n      0x04\n      add\n      tag_74\n      swap1\n      tag_75\n      jump\t// in\n    tag_74:\n      mload(0x40)\n      dup1\n      swap2\n      sub\n      swap1\n      revert\n    tag_73:\n        /* \"contracts/MinHashCameContract_v2.sol\":1828:1840  gameDuration */\n      sload(0x03)\n        /* \"contracts/MinHashCameContract_v2.sol\":1811:1825  gameStartBlock */\n      sload(0x02)\n        /* \"contracts/MinHashCameContract_v2.sol\":1811:1840  gameStartBlock + gameDuration */\n      tag_76\n      swap2\n      swap1\n      tag_77\n      jump\t// in\n    tag_76:\n        /* \"contracts/MinHashCameContract_v2.sol\":1795:1807  block.number */\n      number\n        /* \"contracts/MinHashCameContract_v2.sol\":1795:1840  block.number >= gameStartBlock + gameDuration */\n      lt\n      iszero\n        /* \"contracts/MinHashCameContract_v2.sol\":1787:1867  require(block.number >= gameStartBlock + gameDuration, \"Game has not ended yet\") */\n      tag_78\n      jumpi\n      mload(0x40)\n      0x08c379a000000000000000000000000000000000000000000000000000000000\n      dup2\n      mstore\n      0x04\n      add\n      tag_79\n      swap1\n      tag_80\n      jump\t// in\n    tag_79:\n      mload(0x40)\n      dup1\n      swap2\n      sub\n      swap1\n      revert\n    tag_78:\n        /* \"contracts/MinHashCameContract_v2.sol\":1901:1906  false */\n      0x00\n        /* \"contracts/MinHashCameContract_v2.sol\":1888:1898  gameActive */\n      0x06\n      0x00\n        /* \"contracts/MinHashCameContract_v2.sol\":1888:1906  gameActive = false */\n      0x0100\n      exp\n      dup2\n      sload\n      dup2\n      0xff\n      mul\n      not\n      and\n      swap1\n      dup4\n      iszero\n      iszero\n      mul\n      or\n      swap1\n      sstore\n      pop\n        /* \"contracts/MinHashCameContract_v2.sol\":1987:2004  currentMinAddress */\n      0x04\n      0x00\n      swap1\n      sload\n      swap1\n      0x0100\n      exp\n      swap1\n      div\n      0xffffffffffffffffffffffffffffffffffffffff\n      and\n        /* \"contracts/MinHashCameContract_v2.sol\":1978:1984  winner */\n      0x06\n      0x01\n        /* \"contracts/MinHashCameContract_v2.sol\":1978:2004  winner = currentMinAddress */\n      0x0100\n      exp\n      dup2\n      sload\n      dup2\n      0xffffffffffffffffffffffffffffffffffffffff\n      mul\n      not\n      and\n      swap1\n      dup4\n      0xffffffffffffffffffffffffffffffffffffffff\n      and\n      mul\n      or\n      swap1\n      sstore\n      pop\n        /* \"contracts/MinHashCameContract_v2.sol\":1688:2012  function endGame() public onlyOwner {... */\n      jump\t// out\n        /* \"contracts/MinHashCameContract_v2.sol\":98:118  address public owner */\n    tag_35:\n      0x00\n      dup1\n      sload\n      swap1\n      0x0100\n      exp\n      swap1\n      div\n      0xffffffffffffffffffffffffffffffffffffffff\n      and\n      dup2\n      jump\t// out\n        /* \"contracts/MinHashCameContract_v2.sol\":2472:2555  function getWinner() public view returns (address) {... */\n    tag_38:\n        /* \"contracts/MinHashCameContract_v2.sol\":2514:2521  address */\n      0x00\n        /* \"contracts/MinHashCameContract_v2.sol\":2541:2547  winner */\n      0x06\n      0x01\n      swap1\n      sload\n      swap1\n      0x0100\n      exp\n      swap1\n      div\n      0xffffffffffffffffffffffffffffffffffffffff\n      and\n        /* \"contracts/MinHashCameContract_v2.sol\":2534:2547  return winner */\n      swap1\n      pop\n        /* \"contracts/MinHashCameContract_v2.sol\":2472:2555  function getWinner() public view returns (address) {... */\n      swap1\n      jump\t// out\n        /* \"contracts/MinHashCameContract_v2.sol\":125:147  uint256 public epochId */\n    tag_41:\n      sload(0x01)\n      dup2\n      jump\t// out\n        /* \"contracts/MinHashCameContract_v2.sol\":2344:2434  function getCurrentEpoch() public view returns (uint256) {... */\n    tag_44:\n        /* \"contracts/MinHashCameContract_v2.sol\":2392:2399  uint256 */\n      0x00\n        /* \"contracts/MinHashCameContract_v2.sol\":2419:2426  epochId */\n      sload(0x01)\n        /* \"contracts/MinHashCameContract_v2.sol\":2412:2426  return epochId */\n      swap1\n      pop\n        /* \"contracts/MinHashCameContract_v2.sol\":2344:2434  function getCurrentEpoch() public view returns (uint256) {... */\n      swap1\n      jump\t// out\n        /* \"contracts/MinHashCameContract_v2.sol\":703:1079  function startNewGame(uint256 _gameDuration) public onlyOwner {... */\n    tag_49:\n        /* \"contracts/MinHashCameContract_v2.sol\":416:421  owner */\n      0x00\n      dup1\n      sload\n      swap1\n      0x0100\n      exp\n      swap1\n      div\n      0xffffffffffffffffffffffffffffffffffffffff\n      and\n        /* \"contracts/MinHashCameContract_v2.sol\":402:421  msg.sender == owner */\n      0xffffffffffffffffffffffffffffffffffffffff\n      and\n        /* \"contracts/MinHashCameContract_v2.sol\":402:412  msg.sender */\n      caller\n        /* \"contracts/MinHashCameContract_v2.sol\":402:421  msg.sender == owner */\n      0xffffffffffffffffffffffffffffffffffffffff\n      and\n      eq\n        /* \"contracts/MinHashCameContract_v2.sol\":394:459  require(msg.sender == owner, \"Only owner can call this function\") */\n      tag_84\n      jumpi\n      mload(0x40)\n      0x08c379a000000000000000000000000000000000000000000000000000000000\n      dup2\n      mstore\n      0x04\n      add\n      tag_85\n      swap1\n      tag_71\n      jump\t// in\n    tag_85:\n      mload(0x40)\n      dup1\n      swap2\n      sub\n      swap1\n      revert\n    tag_84:\n        /* \"contracts/MinHashCameContract_v2.sol\":785:795  gameActive */\n      0x06\n      0x00\n      swap1\n      sload\n      swap1\n      0x0100\n      exp\n      swap1\n      div\n      0xff\n      and\n        /* \"contracts/MinHashCameContract_v2.sol\":784:795  !gameActive */\n      iszero\n        /* \"contracts/MinHashCameContract_v2.sol\":776:828  require(!gameActive, \"Current game is still active\") */\n      tag_87\n      jumpi\n      mload(0x40)\n      0x08c379a000000000000000000000000000000000000000000000000000000000\n      dup2\n      mstore\n      0x04\n      add\n      tag_88\n      swap1\n      tag_89\n      jump\t// in\n    tag_88:\n      mload(0x40)\n      dup1\n      swap2\n      sub\n      swap1\n      revert\n    tag_87:\n        /* \"contracts/MinHashCameContract_v2.sol\":839:846  epochId */\n      0x01\n      0x00\n        /* \"contracts/MinHashCameContract_v2.sol\":839:848  epochId++ */\n      dup2\n      sload\n      dup1\n      swap3\n      swap2\n      swap1\n      tag_90\n      swap1\n      tag_91\n      jump\t// in\n    tag_90:\n      swap2\n      swap1\n      pop\n      sstore\n      pop\n        /* \"contracts/MinHashCameContract_v2.sol\":876:888  block.number */\n      number\n        /* \"contracts/MinHashCameContract_v2.sol\":859:873  gameStartBlock */\n      0x02\n        /* \"contracts/MinHashCameContract_v2.sol\":859:888  gameStartBlock = block.number */\n      dup2\n      swap1\n      sstore\n      pop\n        /* \"contracts/MinHashCameContract_v2.sol\":914:927  _gameDuration */\n      dup1\n        /* \"contracts/MinHashCameContract_v2.sol\":899:911  gameDuration */\n      0x03\n        /* \"contracts/MinHashCameContract_v2.sol\":899:927  gameDuration = _gameDuration */\n      dup2\n      swap1\n      sstore\n      pop\n        /* \"contracts/MinHashCameContract_v2.sol\":966:967  0 */\n      0x00\n        /* \"contracts/MinHashCameContract_v2.sol\":938:955  currentMinAddress */\n      0x04\n      0x00\n        /* \"contracts/MinHashCameContract_v2.sol\":938:968  currentMinAddress = address(0) */\n      0x0100\n      exp\n      dup2\n      sload\n      dup2\n      0xffffffffffffffffffffffffffffffffffffffff\n      mul\n      not\n      and\n      swap1\n      dup4\n      0xffffffffffffffffffffffffffffffffffffffff\n      and\n      mul\n      or\n      swap1\n      sstore\n      pop\n        /* \"contracts/MinHashCameContract_v2.sol\":996:1013  type(uint256).max */\n      0xffffffffffffffffffffffffffffffffffffffffffffffffffffffffffffffff\n        /* \"contracts/MinHashCameContract_v2.sol\":979:993  currentMinHash */\n      0x05\n        /* \"contracts/MinHashCameContract_v2.sol\":979:1013  currentMinHash = type(uint256).max */\n      dup2\n      swap1\n      sstore\n      pop\n        /* \"contracts/MinHashCameContract_v2.sol\":1037:1041  true */\n      0x01\n        /* \"contracts/MinHashCameContract_v2.sol\":1024:1034  gameActive */\n      0x06\n      0x00\n        /* \"contracts/MinHashCameContract_v2.sol\":1024:1041  gameActive = true */\n      0x0100\n      exp\n      dup2\n      sload\n      dup2\n      0xff\n      mul\n      not\n      and\n      swap1\n      dup4\n      iszero\n      iszero\n      mul\n      or\n      swap1\n      sstore\n      pop\n        /* \"contracts/MinHashCameContract_v2.sol\":1069:1070  0 */\n      0x00\n        /* \"contracts/MinHashCameContract_v2.sol\":1052:1058  winner */\n      0x06\n      0x01\n        /* \"contracts/MinHashCameContract_v2.sol\":1052:1071  winner = address(0) */\n      0x0100\n      exp\n      dup2\n      sload\n      dup2\n      0xffffffffffffffffffffffffffffffffffffffff\n      mul\n      not\n      and\n      swap1\n      dup4\n      0xffffffffffffffffffffffffffffffffffffffff\n      and\n      mul\n      or\n      swap1\n      sstore\n      pop\n        /* \"contracts/MinHashCameContract_v2.sol\":703:1079  function startNewGame(uint256 _gameDuration) public onlyOwner {... */\n      pop\n      jump\t// out\n        /* \"contracts/MinHashCameContract_v2.sol\":2204:2303  function getCurrentMinHash() public view returns (uint256) {... */\n    tag_51:\n        /* \"contracts/MinHashCameContract_v2.sol\":2254:2261  uint256 */\n      0x00\n        /* \"contracts/MinHashCameContract_v2.sol\":2281:2295  currentMinHash */\n      sload(0x05)\n        /* \"contracts/MinHashCameContract_v2.sol\":2274:2295  return currentMinHash */\n      swap1\n      pop\n        /* \"contracts/MinHashCameContract_v2.sol\":2204:2303  function getCurrentMinHash() public view returns (uint256) {... */\n      swap1\n      jump\t// out\n        /* \"contracts/MinHashCameContract_v2.sol\":328:349  address public winner */\n    tag_54:\n      0x06\n      0x01\n      swap1\n      sload\n      swap1\n      0x0100\n      exp\n      swap1\n      div\n      0xffffffffffffffffffffffffffffffffffffffff\n      and\n      dup2\n      jump\t// out\n        /* \"contracts/MinHashCameContract_v2.sol\":190:217  uint256 public gameDuration */\n    tag_57:\n      sload(0x03)\n      dup2\n      jump\t// out\n        /* \"contracts/MinHashCameContract_v2.sol\":2057:2162  function getCurrentMinAddress() public view returns (address) {... */\n    tag_60:\n        /* \"contracts/MinHashCameContract_v2.sol\":2110:2117  address */\n      0x00\n        /* \"contracts/MinHashCameContract_v2.sol\":2137:2154  currentMinAddress */\n      0x04\n      0x00\n      swap1\n      sload\n      swap1\n      0x0100\n      exp\n      swap1\n      div\n      0xffffffffffffffffffffffffffffffffffffffff\n      and\n        /* \"contracts/MinHashCameContract_v2.sol\":2130:2154  return currentMinAddress */\n      swap1\n      pop\n        /* \"contracts/MinHashCameContract_v2.sol\":2057:2162  function getCurrentMinAddress() public view returns (address) {... */\n      swap1\n      jump\t// out\n        /* \"contracts/MinHashCameContract_v2.sol\":299:321  bool public gameActive */\n    tag_63:\n      0x06\n      0x00\n      swap1\n      sload\n      swap1\n      0x0100\n      exp\n      swap1\n      div\n      0xff\n      and\n      dup2\n      jump\t// out\n        /* \"contracts/MinHashCameContract_v2.sol\":1115:1631  function iambestone() public gameIsActive {... */\n    tag_67:\n        /* \"contracts/MinHashCameContract_v2.sol\":534:544  gameActive */\n      0x06\n      0x00\n      swap1\n      sload\n      swap1\n      0x0100\n      exp\n      swap1\n      div\n      0xff\n      and\n        /* \"contracts/MinHashCameContract_v2.sol\":526:567  require(gameActive, \"Game is not active\") */\n      tag_95\n      jumpi\n      mload(0x40)\n      0x08c379a000000000000000000000000000000000000000000000000000000000\n      dup2\n      mstore\n      0x04\n      add\n      tag_96\n      swap1\n      tag_75\n      jump\t// in\n    tag_96:\n      mload(0x40)\n      dup1\n      swap2\n      sub\n      swap1\n      revert\n    tag_95:\n        /* \"contracts/MinHashCameContract_v2.sol\":1306:1318  gameDuration */\n      sload(0x03)\n        /* \"contracts/MinHashCameContract_v2.sol\":1289:1303  gameStartBlock */\n      sload(0x02)\n        /* \"contracts/MinHashCameContract_v2.sol\":1289:1318  gameStartBlock + gameDuration */\n      tag_98\n      swap2\n      swap1\n      tag_77\n      jump\t// in\n    tag_98:\n        /* \"contracts/MinHashCameContract_v2.sol\":1274:1286  block.number */\n      number\n        /* \"contracts/MinHashCameContract_v2.sol\":1274:1318  block.number < gameStartBlock + gameDuration */\n      lt\n        /* \"contracts/MinHashCameContract_v2.sol\":1266:1337  require(block.number < gameStartBlock + gameDuration, \"Game has ended\") */\n      tag_99\n      jumpi\n      mload(0x40)\n      0x08c379a000000000000000000000000000000000000000000000000000000000\n      dup2\n      mstore\n      0x04\n      add\n      tag_100\n      swap1\n      tag_101\n      jump\t// in\n    tag_100:\n      mload(0x40)\n      dup1\n      swap2\n      sub\n      swap1\n      revert\n    tag_99:\n        /* \"contracts/MinHashCameContract_v2.sol\":1358:1376  uint256 playerHash */\n      0x00\n        /* \"contracts/MinHashCameContract_v2.sol\":1414:1424  msg.sender */\n      caller\n        /* \"contracts/MinHashCameContract_v2.sol\":1426:1433  epochId */\n      sload(0x01)\n        /* \"contracts/MinHashCameContract_v2.sol\":1397:1434  abi.encodePacked(msg.sender, epochId) */\n      add(0x20, mload(0x40))\n      tag_102\n      swap3\n      swap2\n      swap1\n      tag_103\n      jump\t// in\n    tag_102:\n      mload(0x40)\n      0x20\n      dup2\n      dup4\n      sub\n      sub\n      dup2\n      mstore\n      swap1\n      0x40\n      mstore\n        /* \"contracts/MinHashCameContract_v2.sol\":1387:1435  keccak256(abi.encodePacked(msg.sender, epochId)) */\n      dup1\n      mload\n      swap1\n      0x20\n      add\n      keccak256\n        /* \"contracts/MinHashCameContract_v2.sol\":1379:1436  uint256(keccak256(abi.encodePacked(msg.sender, epochId))) */\n      0x00\n      shr\n        /* \"contracts/MinHashCameContract_v2.sol\":1358:1436  uint256 playerHash = uint256(keccak256(abi.encodePacked(msg.sender, epochId))) */\n      swap1\n      pop\n        /* \"contracts/MinHashCameContract_v2.sol\":1490:1491  0 */\n      0x00\n        /* \"contracts/MinHashCameContract_v2.sol\":1461:1492  currentMinAddress == address(0) */\n      0xffffffffffffffffffffffffffffffffffffffff\n      and\n        /* \"contracts/MinHashCameContract_v2.sol\":1461:1478  currentMinAddress */\n      0x04\n      0x00\n      swap1\n      sload\n      swap1\n      0x0100\n      exp\n      swap1\n      div\n      0xffffffffffffffffffffffffffffffffffffffff\n      and\n        /* \"contracts/MinHashCameContract_v2.sol\":1461:1492  currentMinAddress == address(0) */\n      0xffffffffffffffffffffffffffffffffffffffff\n      and\n      eq\n        /* \"contracts/MinHashCameContract_v2.sol\":1461:1523  currentMinAddress == address(0) || playerHash < currentMinHash */\n      dup1\n      tag_104\n      jumpi\n      pop\n        /* \"contracts/MinHashCameContract_v2.sol\":1509:1523  currentMinHash */\n      sload(0x05)\n        /* \"contracts/MinHashCameContract_v2.sol\":1496:1506  playerHash */\n      dup2\n        /* \"contracts/MinHashCameContract_v2.sol\":1496:1523  playerHash < currentMinHash */\n      lt\n        /* \"contracts/MinHashCameContract_v2.sol\":1461:1523  currentMinAddress == address(0) || playerHash < currentMinHash */\n    tag_104:\n        /* \"contracts/MinHashCameContract_v2.sol\":1457:1624  if (currentMinAddress == address(0) || playerHash < currentMinHash) {... */\n      iszero\n      tag_105\n      jumpi\n        /* \"contracts/MinHashCameContract_v2.sol\":1560:1570  msg.sender */\n      caller\n        /* \"contracts/MinHashCameContract_v2.sol\":1540:1557  currentMinAddress */\n      0x04\n      0x00\n        /* \"contracts/MinHashCameContract_v2.sol\":1540:1570  currentMinAddress = msg.sender */\n      0x0100\n      exp\n      dup2\n      sload\n      dup2\n      0xffffffffffffffffffffffffffffffffffffffff\n      mul\n      not\n      and\n      swap1\n      dup4\n      0xffffffffffffffffffffffffffffffffffffffff\n      and\n      mul\n      or\n      swap1\n      sstore\n      pop\n        /* \"contracts/MinHashCameContract_v2.sol\":1602:1612  playerHash */\n      dup1\n        /* \"contracts/MinHashCameContract_v2.sol\":1585:1599  currentMinHash */\n      0x05\n        /* \"contracts/MinHashCameContract_v2.sol\":1585:1612  currentMinHash = playerHash */\n      dup2\n      swap1\n      sstore\n      pop\n        /* \"contracts/MinHashCameContract_v2.sol\":1457:1624  if (currentMinAddress == address(0) || playerHash < currentMinHash) {... */\n    tag_105:\n        /* \"contracts/MinHashCameContract_v2.sol\":1157:1631  {... */\n      pop\n        /* \"contracts/MinHashCameContract_v2.sol\":1115:1631  function iambestone() public gameIsActive {... */\n      jump\t// out\n        /* \"#utility.yul\":7:133   */\n    tag_106:\n        /* \"#utility.yul\":44:51   */\n      0x00\n        /* \"#utility.yul\":84:126   */\n      0xffffffffffffffffffffffffffffffffffffffff\n        /* \"#utility.yul\":77:82   */\n      dup3\n        /* \"#utility.yul\":73:127   */\n      and\n        /* \"#utility.yul\":62:127   */\n      swap1\n      pop\n        /* \"#utility.yul\":7:133   */\n      swap2\n      swap1\n      pop\n      jump\t// out\n        /* \"#utility.yul\":139:235   */\n    tag_107:\n        /* \"#utility.yul\":176:183   */\n      0x00\n        /* \"#utility.yul\":205:229   */\n      tag_139\n        /* \"#utility.yul\":223:228   */\n      dup3\n        /* \"#utility.yul\":205:229   */\n      tag_106\n      jump\t// in\n    tag_139:\n        /* \"#utility.yul\":194:229   */\n      swap1\n      pop\n        /* \"#utility.yul\":139:235   */\n      swap2\n      swap1\n      pop\n      jump\t// out\n        /* \"#utility.yul\":241:359   */\n    tag_108:\n        /* \"#utility.yul\":328:352   */\n      tag_141\n        /* \"#utility.yul\":346:351   */\n      dup2\n        /* \"#utility.yul\":328:352   */\n      tag_107\n      jump\t// in\n    tag_141:\n        /* \"#utility.yul\":323:326   */\n      dup3\n        /* \"#utility.yul\":316:353   */\n      mstore\n        /* \"#utility.yul\":241:359   */\n      pop\n      pop\n      jump\t// out\n        /* \"#utility.yul\":365:587   */\n    tag_24:\n        /* \"#utility.yul\":458:462   */\n      0x00\n        /* \"#utility.yul\":496:498   */\n      0x20\n        /* \"#utility.yul\":485:494   */\n      dup3\n        /* \"#utility.yul\":481:499   */\n      add\n        /* \"#utility.yul\":473:499   */\n      swap1\n      pop\n        /* \"#utility.yul\":509:580   */\n      tag_143\n        /* \"#utility.yul\":577:578   */\n      0x00\n        /* \"#utility.yul\":566:575   */\n      dup4\n        /* \"#utility.yul\":562:579   */\n      add\n        /* \"#utility.yul\":553:559   */\n      dup5\n        /* \"#utility.yul\":509:580   */\n      tag_108\n      jump\t// in\n    tag_143:\n        /* \"#utility.yul\":365:587   */\n      swap3\n      swap2\n      pop\n      pop\n      jump\t// out\n        /* \"#utility.yul\":593:670   */\n    tag_109:\n        /* \"#utility.yul\":630:637   */\n      0x00\n        /* \"#utility.yul\":659:664   */\n      dup2\n        /* \"#utility.yul\":648:664   */\n      swap1\n      pop\n        /* \"#utility.yul\":593:670   */\n      swap2\n      swap1\n      pop\n      jump\t// out\n        /* \"#utility.yul\":676:794   */\n    tag_110:\n        /* \"#utility.yul\":763:787   */\n      tag_146\n        /* \"#utility.yul\":781:786   */\n      dup2\n        /* \"#utility.yul\":763:787   */\n      tag_109\n      jump\t// in\n    tag_146:\n        /* \"#utility.yul\":758:761   */\n      dup3\n        /* \"#utility.yul\":751:788   */\n      mstore\n        /* \"#utility.yul\":676:794   */\n      pop\n      pop\n      jump\t// out\n        /* \"#utility.yul\":800:1022   */\n    tag_28:\n        /* \"#utility.yul\":893:897   */\n      0x00\n        /* \"#utility.yul\":931:933   */\n      0x20\n        /* \"#utility.yul\":920:929   */\n      dup3\n        /* \"#utility.yul\":916:934   */\n      add\n        /* \"#utility.yul\":908:934   */\n      swap1\n      pop\n        /* \"#utility.yul\":944:1015   */\n      tag_148\n        /* \"#utility.yul\":1012:1013   */\n      0x00\n        /* \"#utility.yul\":1001:1010   */\n      dup4\n        /* \"#utility.yul\":997:1014   */\n      add\n        /* \"#utility.yul\":988:994   */\n      dup5\n        /* \"#utility.yul\":944:1015   */\n      tag_110\n      jump\t// in\n    tag_148:\n        /* \"#utility.yul\":800:1022   */\n      swap3\n      swap2\n      pop\n      pop\n      jump\t// out\n        /* \"#utility.yul\":1109:1226   */\n    tag_112:\n        /* \"#utility.yul\":1218:1219   */\n      0x00\n        /* \"#utility.yul\":1215:1216   */\n      dup1\n        /* \"#utility.yul\":1208:1220   */\n      revert\n        /* \"#utility.yul\":1355:1477   */\n    tag_114:\n        /* \"#utility.yul\":1428:1452   */\n      tag_153\n        /* \"#utility.yul\":1446:1451   */\n      dup2\n        /* \"#utility.yul\":1428:1452   */\n      tag_109\n      jump\t// in\n    tag_153:\n        /* \"#utility.yul\":1421:1426   */\n      dup2\n        /* \"#utility.yul\":1418:1453   */\n      eq\n        /* \"#utility.yul\":1408:1471   */\n      tag_154\n      jumpi\n        /* \"#utility.yul\":1467:1468   */\n      0x00\n        /* \"#utility.yul\":1464:1465   */\n      dup1\n        /* \"#utility.yul\":1457:1469   */\n      revert\n        /* \"#utility.yul\":1408:1471   */\n    tag_154:\n        /* \"#utility.yul\":1355:1477   */\n      pop\n      jump\t// out\n        /* \"#utility.yul\":1483:1622   */\n    tag_115:\n        /* \"#utility.yul\":1529:1534   */\n      0x00\n        /* \"#utility.yul\":1567:1573   */\n      dup2\n        /* \"#utility.yul\":1554:1574   */\n      calldataload\n        /* \"#utility.yul\":1545:1574   */\n      swap1\n      pop\n        /* \"#utility.yul\":1583:1616   */\n      tag_156\n        /* \"#utility.yul\":1610:1615   */\n      dup2\n        /* \"#utility.yul\":1583:1616   */\n      tag_114\n      jump\t// in\n    tag_156:\n        /* \"#utility.yul\":1483:1622   */\n      swap3\n      swap2\n      pop\n      pop\n      jump\t// out\n        /* \"#utility.yul\":1628:1957   */\n    tag_48:\n        /* \"#utility.yul\":1687:1693   */\n      0x00\n        /* \"#utility.yul\":1736:1738   */\n      0x20\n        /* \"#utility.yul\":1724:1733   */\n      dup3\n        /* \"#utility.yul\":1715:1722   */\n      dup5\n        /* \"#utility.yul\":1711:1734   */\n      sub\n        /* \"#utility.yul\":1707:1739   */\n      slt\n        /* \"#utility.yul\":1704:1823   */\n      iszero\n      tag_158\n      jumpi\n        /* \"#utility.yul\":1742:1821   */\n      tag_159\n      tag_112\n      jump\t// in\n    tag_159:\n        /* \"#utility.yul\":1704:1823   */\n    tag_158:\n        /* \"#utility.yul\":1862:1863   */\n      0x00\n        /* \"#utility.yul\":1887:1940   */\n      tag_160\n        /* \"#utility.yul\":1932:1939   */\n      dup5\n        /* \"#utility.yul\":1923:1929   */\n      dup3\n        /* \"#utility.yul\":1912:1921   */\n      dup6\n        /* \"#utility.yul\":1908:1930   */\n      add\n        /* \"#utility.yul\":1887:1940   */\n      tag_115\n      jump\t// in\n    tag_160:\n        /* \"#utility.yul\":1877:1940   */\n      swap2\n      pop\n        /* \"#utility.yul\":1833:1950   */\n      pop\n        /* \"#utility.yul\":1628:1957   */\n      swap3\n      swap2\n      pop\n      pop\n      jump\t// out\n        /* \"#utility.yul\":1963:2053   */\n    tag_116:\n        /* \"#utility.yul\":1997:2004   */\n      0x00\n        /* \"#utility.yul\":2040:2045   */\n      dup2\n        /* \"#utility.yul\":2033:2046   */\n      iszero\n        /* \"#utility.yul\":2026:2047   */\n      iszero\n        /* \"#utility.yul\":2015:2047   */\n      swap1\n      pop\n        /* \"#utility.yul\":1963:2053   */\n      swap2\n      swap1\n      pop\n      jump\t// out\n        /* \"#utility.yul\":2059:2168   */\n    tag_117:\n        /* \"#utility.yul\":2140:2161   */\n      tag_163\n        /* \"#utility.yul\":2155:2160   */\n      dup2\n        /* \"#utility.yul\":2140:2161   */\n      tag_116\n      jump\t// in\n    tag_163:\n        /* \"#utility.yul\":2135:2138   */\n      dup3\n        /* \"#utility.yul\":2128:2162   */\n      mstore\n        /* \"#utility.yul\":2059:2168   */\n      pop\n      pop\n      jump\t// out\n        /* \"#utility.yul\":2174:2384   */\n    tag_65:\n        /* \"#utility.yul\":2261:2265   */\n      0x00\n        /* \"#utility.yul\":2299:2301   */\n      0x20\n        /* \"#utility.yul\":2288:2297   */\n      dup3\n        /* \"#utility.yul\":2284:2302   */\n      add\n        /* \"#utility.yul\":2276:2302   */\n      swap1\n      pop\n        /* \"#utility.yul\":2312:2377   */\n      tag_165\n        /* \"#utility.yul\":2374:2375   */\n      0x00\n        /* \"#utility.yul\":2363:2372   */\n      dup4\n        /* \"#utility.yul\":2359:2376   */\n      add\n        /* \"#utility.yul\":2350:2356   */\n      dup5\n        /* \"#utility.yul\":2312:2377   */\n      tag_117\n      jump\t// in\n    tag_165:\n        /* \"#utility.yul\":2174:2384   */\n      swap3\n      swap2\n      pop\n      pop\n      jump\t// out\n        /* \"#utility.yul\":2390:2559   */\n    tag_118:\n        /* \"#utility.yul\":2474:2485   */\n      0x00\n        /* \"#utility.yul\":2508:2514   */\n      dup3\n        /* \"#utility.yul\":2503:2506   */\n      dup3\n        /* \"#utility.yul\":2496:2515   */\n      mstore\n        /* \"#utility.yul\":2548:2552   */\n      0x20\n        /* \"#utility.yul\":2543:2546   */\n      dup3\n        /* \"#utility.yul\":2539:2553   */\n      add\n        /* \"#utility.yul\":2524:2553   */\n      swap1\n      pop\n        /* \"#utility.yul\":2390:2559   */\n      swap3\n      swap2\n      pop\n      pop\n      jump\t// out\n        /* \"#utility.yul\":2565:2785   */\n    tag_119:\n        /* \"#utility.yul\":2705:2739   */\n      0x4f6e6c79206f776e65722063616e2063616c6c20746869732066756e6374696f\n        /* \"#utility.yul\":2701:2702   */\n      0x00\n        /* \"#utility.yul\":2693:2699   */\n      dup3\n        /* \"#utility.yul\":2689:2703   */\n      add\n        /* \"#utility.yul\":2682:2740   */\n      mstore\n        /* \"#utility.yul\":2774:2777   */\n      0x6e00000000000000000000000000000000000000000000000000000000000000\n        /* \"#utility.yul\":2769:2771   */\n      0x20\n        /* \"#utility.yul\":2761:2767   */\n      dup3\n        /* \"#utility.yul\":2757:2772   */\n      add\n        /* \"#utility.yul\":2750:2778   */\n      mstore\n        /* \"#utility.yul\":2565:2785   */\n      pop\n      jump\t// out\n        /* \"#utility.yul\":2791:3157   */\n    tag_120:\n        /* \"#utility.yul\":2933:2936   */\n      0x00\n        /* \"#utility.yul\":2954:3021   */\n      tag_169\n        /* \"#utility.yul\":3018:3020   */\n      0x21\n        /* \"#utility.yul\":3013:3016   */\n      dup4\n        /* \"#utility.yul\":2954:3021   */\n      tag_118\n      jump\t// in\n    tag_169:\n        /* \"#utility.yul\":2947:3021   */\n      swap2\n      pop\n        /* \"#utility.yul\":3030:3123   */\n      tag_170\n        /* \"#utility.yul\":3119:3122   */\n      dup3\n        /* \"#utility.yul\":3030:3123   */\n      tag_119\n      jump\t// in\n    tag_170:\n        /* \"#utility.yul\":3148:3150   */\n      0x40\n        /* \"#utility.yul\":3143:3146   */\n      dup3\n        /* \"#utility.yul\":3139:3151   */\n      add\n        /* \"#utility.yul\":3132:3151   */\n      swap1\n      pop\n        /* \"#utility.yul\":2791:3157   */\n      swap2\n      swap1\n      pop\n      jump\t// out\n        /* \"#utility.yul\":3163:3582   */\n    tag_71:\n        /* \"#utility.yul\":3329:3333   */\n      0x00\n        /* \"#utility.yul\":3367:3369   */\n      0x20\n        /* \"#utility.yul\":3356:3365   */\n      dup3\n        /* \"#utility.yul\":3352:3370   */\n      add\n        /* \"#utility.yul\":3344:3370   */\n      swap1\n      pop\n        /* \"#utility.yul\":3416:3425   */\n      dup2\n        /* \"#utility.yul\":3410:3414   */\n      dup2\n        /* \"#utility.yul\":3406:3426   */\n      sub\n        /* \"#utility.yul\":3402:3403   */\n      0x00\n        /* \"#utility.yul\":3391:3400   */\n      dup4\n        /* \"#utility.yul\":3387:3404   */\n      add\n        /* \"#utility.yul\":3380:3427   */\n      mstore\n        /* \"#utility.yul\":3444:3575   */\n      tag_172\n        /* \"#utility.yul\":3570:3574   */\n      dup2\n        /* \"#utility.yul\":3444:3575   */\n      tag_120\n      jump\t// in\n    tag_172:\n        /* \"#utility.yul\":3436:3575   */\n      swap1\n      pop\n        /* \"#utility.yul\":3163:3582   */\n      swap2\n      swap1\n      pop\n      jump\t// out\n        /* \"#utility.yul\":3588:3756   */\n    tag_121:\n        /* \"#utility.yul\":3728:3748   */\n      0x47616d65206973206e6f74206163746976650000000000000000000000000000\n        /* \"#utility.yul\":3724:3725   */\n      0x00\n        /* \"#utility.yul\":3716:3722   */\n      dup3\n        /* \"#utility.yul\":3712:3726   */\n      add\n        /* \"#utility.yul\":3705:3749   */\n      mstore\n        /* \"#utility.yul\":3588:3756   */\n      pop\n      jump\t// out\n        /* \"#utility.yul\":3762:4128   */\n    tag_122:\n        /* \"#utility.yul\":3904:3907   */\n      0x00\n        /* \"#utility.yul\":3925:3992   */\n      tag_175\n        /* \"#utility.yul\":3989:3991   */\n      0x12\n        /* \"#utility.yul\":3984:3987   */\n      dup4\n        /* \"#utility.yul\":3925:3992   */\n      tag_118\n      jump\t// in\n    tag_175:\n        /* \"#utility.yul\":3918:3992   */\n      swap2\n      pop\n        /* \"#utility.yul\":4001:4094   */\n      tag_176\n        /* \"#utility.yul\":4090:4093   */\n      dup3\n        /* \"#utility.yul\":4001:4094   */\n      tag_121\n      jump\t// in\n    tag_176:\n        /* \"#utility.yul\":4119:4121   */\n      0x20\n        /* \"#utility.yul\":4114:4117   */\n      dup3\n        /* \"#utility.yul\":4110:4122   */\n      add\n        /* \"#utility.yul\":4103:4122   */\n      swap1\n      pop\n        /* \"#utility.yul\":3762:4128   */\n      swap2\n      swap1\n      pop\n      jump\t// out\n        /* \"#utility.yul\":4134:4553   */\n    tag_75:\n        /* \"#utility.yul\":4300:4304   */\n      0x00\n        /* \"#utility.yul\":4338:4340   */\n      0x20\n        /* \"#utility.yul\":4327:4336   */\n      dup3\n        /* \"#utility.yul\":4323:4341   */\n      add\n        /* \"#utility.yul\":4315:4341   */\n      swap1\n      pop\n        /* \"#utility.yul\":4387:4396   */\n      dup2\n        /* \"#utility.yul\":4381:4385   */\n      dup2\n        /* \"#utility.yul\":4377:4397   */\n      sub\n        /* \"#utility.yul\":4373:4374   */\n      0x00\n        /* \"#utility.yul\":4362:4371   */\n      dup4\n        /* \"#utility.yul\":4358:4375   */\n      add\n        /* \"#utility.yul\":4351:4398   */\n      mstore\n        /* \"#utility.yul\":4415:4546   */\n      tag_178\n        /* \"#utility.yul\":4541:4545   */\n      dup2\n        /* \"#utility.yul\":4415:4546   */\n      tag_122\n      jump\t// in\n    tag_178:\n        /* \"#utility.yul\":4407:4546   */\n      swap1\n      pop\n        /* \"#utility.yul\":4134:4553   */\n      swap2\n      swap1\n      pop\n      jump\t// out\n        /* \"#utility.yul\":4559:4739   */\n    tag_123:\n        /* \"#utility.yul\":4607:4684   */\n      0x4e487b7100000000000000000000000000000000000000000000000000000000\n        /* \"#utility.yul\":4604:4605   */\n      0x00\n        /* \"#utility.yul\":4597:4685   */\n      mstore\n        /* \"#utility.yul\":4704:4708   */\n      0x11\n        /* \"#utility.yul\":4701:4702   */\n      0x04\n        /* \"#utility.yul\":4694:4709   */\n      mstore\n        /* \"#utility.yul\":4728:4732   */\n      0x24\n        /* \"#utility.yul\":4725:4726   */\n      0x00\n        /* \"#utility.yul\":4718:4733   */\n      revert\n        /* \"#utility.yul\":4745:4936   */\n    tag_77:\n        /* \"#utility.yul\":4785:4788   */\n      0x00\n        /* \"#utility.yul\":4804:4824   */\n      tag_181\n        /* \"#utility.yul\":4822:4823   */\n      dup3\n        /* \"#utility.yul\":4804:4824   */\n      tag_109\n      jump\t// in\n    tag_181:\n        /* \"#utility.yul\":4799:4824   */\n      swap2\n      pop\n        /* \"#utility.yul\":4838:4858   */\n      tag_182\n        /* \"#utility.yul\":4856:4857   */\n      dup4\n        /* \"#utility.yul\":4838:4858   */\n      tag_109\n      jump\t// in\n    tag_182:\n        /* \"#utility.yul\":4833:4858   */\n      swap3\n      pop\n        /* \"#utility.yul\":4881:4882   */\n      dup3\n        /* \"#utility.yul\":4878:4879   */\n      dup3\n        /* \"#utility.yul\":4874:4883   */\n      add\n        /* \"#utility.yul\":4867:4883   */\n      swap1\n      pop\n        /* \"#utility.yul\":4902:4905   */\n      dup1\n        /* \"#utility.yul\":4899:4900   */\n      dup3\n        /* \"#utility.yul\":4896:4906   */\n      gt\n        /* \"#utility.yul\":4893:4929   */\n      iszero\n      tag_183\n      jumpi\n        /* \"#utility.yul\":4909:4927   */\n      tag_184\n      tag_123\n      jump\t// in\n    tag_184:\n        /* \"#utility.yul\":4893:4929   */\n    tag_183:\n        /* \"#utility.yul\":4745:4936   */\n      swap3\n      swap2\n      pop\n      pop\n      jump\t// out\n        /* \"#utility.yul\":4942:5114   */\n    tag_124:\n        /* \"#utility.yul\":5082:5106   */\n      0x47616d6520686173206e6f7420656e6465642079657400000000000000000000\n        /* \"#utility.yul\":5078:5079   */\n      0x00\n        /* \"#utility.yul\":5070:5076   */\n      dup3\n        /* \"#utility.yul\":5066:5080   */\n      add\n        /* \"#utility.yul\":5059:5107   */\n      mstore\n        /* \"#utility.yul\":4942:5114   */\n      pop\n      jump\t// out\n        /* \"#utility.yul\":5120:5486   */\n    tag_125:\n        /* \"#utility.yul\":5262:5265   */\n      0x00\n        /* \"#utility.yul\":5283:5350   */\n      tag_187\n        /* \"#utility.yul\":5347:5349   */\n      0x16\n        /* \"#utility.yul\":5342:5345   */\n      dup4\n        /* \"#utility.yul\":5283:5350   */\n      tag_118\n      jump\t// in\n    tag_187:\n        /* \"#utility.yul\":5276:5350   */\n      swap2\n      pop\n        /* \"#utility.yul\":5359:5452   */\n      tag_188\n        /* \"#utility.yul\":5448:5451   */\n      dup3\n        /* \"#utility.yul\":5359:5452   */\n      tag_124\n      jump\t// in\n    tag_188:\n        /* \"#utility.yul\":5477:5479   */\n      0x20\n        /* \"#utility.yul\":5472:5475   */\n      dup3\n        /* \"#utility.yul\":5468:5480   */\n      add\n        /* \"#utility.yul\":5461:5480   */\n      swap1\n      pop\n        /* \"#utility.yul\":5120:5486   */\n      swap2\n      swap1\n      pop\n      jump\t// out\n        /* \"#utility.yul\":5492:5911   */\n    tag_80:\n        /* \"#utility.yul\":5658:5662   */\n      0x00\n        /* \"#utility.yul\":5696:5698   */\n      0x20\n        /* \"#utility.yul\":5685:5694   */\n      dup3\n        /* \"#utility.yul\":5681:5699   */\n      add\n        /* \"#utility.yul\":5673:5699   */\n      swap1\n      pop\n        /* \"#utility.yul\":5745:5754   */\n      dup2\n        /* \"#utility.yul\":5739:5743   */\n      dup2\n        /* \"#utility.yul\":5735:5755   */\n      sub\n        /* \"#utility.yul\":5731:5732   */\n      0x00\n        /* \"#utility.yul\":5720:5729   */\n      dup4\n        /* \"#utility.yul\":5716:5733   */\n      add\n        /* \"#utility.yul\":5709:5756   */\n      mstore\n        /* \"#utility.yul\":5773:5904   */\n      tag_190\n        /* \"#utility.yul\":5899:5903   */\n      dup2\n        /* \"#utility.yul\":5773:5904   */\n      tag_125\n      jump\t// in\n    tag_190:\n        /* \"#utility.yul\":5765:5904   */\n      swap1\n      pop\n        /* \"#utility.yul\":5492:5911   */\n      swap2\n      swap1\n      pop\n      jump\t// out\n        /* \"#utility.yul\":5917:6095   */\n    tag_126:\n        /* \"#utility.yul\":6057:6087   */\n      0x43757272656e742067616d65206973207374696c6c2061637469766500000000\n        /* \"#utility.yul\":6053:6054   */\n      0x00\n        /* \"#utility.yul\":6045:6051   */\n      dup3\n        /* \"#utility.yul\":6041:6055   */\n      add\n        /* \"#utility.yul\":6034:6088   */\n      mstore\n        /* \"#utility.yul\":5917:6095   */\n      pop\n      jump\t// out\n        /* \"#utility.yul\":6101:6467   */\n    tag_127:\n        /* \"#utility.yul\":6243:6246   */\n      0x00\n        /* \"#utility.yul\":6264:6331   */\n      tag_193\n        /* \"#utility.yul\":6328:6330   */\n      0x1c\n        /* \"#utility.yul\":6323:6326   */\n      dup4\n        /* \"#utility.yul\":6264:6331   */\n      tag_118\n      jump\t// in\n    tag_193:\n        /* \"#utility.yul\":6257:6331   */\n      swap2\n      pop\n        /* \"#utility.yul\":6340:6433   */\n      tag_194\n        /* \"#utility.yul\":6429:6432   */\n      dup3\n        /* \"#utility.yul\":6340:6433   */\n      tag_126\n      jump\t// in\n    tag_194:\n        /* \"#utility.yul\":6458:6460   */\n      0x20\n        /* \"#utility.yul\":6453:6456   */\n      dup3\n        /* \"#utility.yul\":6449:6461   */\n      add\n        /* \"#utility.yul\":6442:6461   */\n      swap1\n      pop\n        /* \"#utility.yul\":6101:6467   */\n      swap2\n      swap1\n      pop\n      jump\t// out\n        /* \"#utility.yul\":6473:6892   */\n    tag_89:\n        /* \"#utility.yul\":6639:6643   */\n      0x00\n        /* \"#utility.yul\":6677:6679   */\n      0x20\n        /* \"#utility.yul\":6666:6675   */\n      dup3\n        /* \"#utility.yul\":6662:6680   */\n      add\n        /* \"#utility.yul\":6654:6680   */\n      swap1\n      pop\n        /* \"#utility.yul\":6726:6735   */\n      dup2\n        /* \"#utility.yul\":6720:6724   */\n      dup2\n        /* \"#utility.yul\":6716:6736   */\n      sub\n        /* \"#utility.yul\":6712:6713   */\n      0x00\n        /* \"#utility.yul\":6701:6710   */\n      dup4\n        /* \"#utility.yul\":6697:6714   */\n      add\n        /* \"#utility.yul\":6690:6737   */\n      mstore\n        /* \"#utility.yul\":6754:6885   */\n      tag_196\n        /* \"#utility.yul\":6880:6884   */\n      dup2\n        /* \"#utility.yul\":6754:6885   */\n      tag_127\n      jump\t// in\n    tag_196:\n        /* \"#utility.yul\":6746:6885   */\n      swap1\n      pop\n        /* \"#utility.yul\":6473:6892   */\n      swap2\n      swap1\n      pop\n      jump\t// out\n        /* \"#utility.yul\":6898:7131   */\n    tag_91:\n        /* \"#utility.yul\":6937:6940   */\n      0x00\n        /* \"#utility.yul\":6960:6984   */\n      tag_198\n        /* \"#utility.yul\":6978:6983   */\n      dup3\n        /* \"#utility.yul\":6960:6984   */\n      tag_109\n      jump\t// in\n    tag_198:\n        /* \"#utility.yul\":6951:6984   */\n      swap2\n      pop\n        /* \"#utility.yul\":7006:7072   */\n      0xffffffffffffffffffffffffffffffffffffffffffffffffffffffffffffffff\n        /* \"#utility.yul\":6999:7004   */\n      dup3\n        /* \"#utility.yul\":6996:7073   */\n      sub\n        /* \"#utility.yul\":6993:7096   */\n      tag_199\n      jumpi\n        /* \"#utility.yul\":7076:7094   */\n      tag_200\n      tag_123\n      jump\t// in\n    tag_200:\n        /* \"#utility.yul\":6993:7096   */\n    tag_199:\n        /* \"#utility.yul\":7123:7124   */\n      0x01\n        /* \"#utility.yul\":7116:7121   */\n      dup3\n        /* \"#utility.yul\":7112:7125   */\n      add\n        /* \"#utility.yul\":7105:7125   */\n      swap1\n      pop\n        /* \"#utility.yul\":6898:7131   */\n      swap2\n      swap1\n      pop\n      jump\t// out\n        /* \"#utility.yul\":7137:7301   */\n    tag_128:\n        /* \"#utility.yul\":7277:7293   */\n      0x47616d652068617320656e646564000000000000000000000000000000000000\n        /* \"#utility.yul\":7273:7274   */\n      0x00\n        /* \"#utility.yul\":7265:7271   */\n      dup3\n        /* \"#utility.yul\":7261:7275   */\n      add\n        /* \"#utility.yul\":7254:7294   */\n      mstore\n        /* \"#utility.yul\":7137:7301   */\n      pop\n      jump\t// out\n        /* \"#utility.yul\":7307:7673   */\n    tag_129:\n        /* \"#utility.yul\":7449:7452   */\n      0x00\n        /* \"#utility.yul\":7470:7537   */\n      tag_203\n        /* \"#utility.yul\":7534:7536   */\n      0x0e\n        /* \"#utility.yul\":7529:7532   */\n      dup4\n        /* \"#utility.yul\":7470:7537   */\n      tag_118\n      jump\t// in\n    tag_203:\n        /* \"#utility.yul\":7463:7537   */\n      swap2\n      pop\n        /* \"#utility.yul\":7546:7639   */\n      tag_204\n        /* \"#utility.yul\":7635:7638   */\n      dup3\n        /* \"#utility.yul\":7546:7639   */\n      tag_128\n      jump\t// in\n    tag_204:\n        /* \"#utility.yul\":7664:7666   */\n      0x20\n        /* \"#utility.yul\":7659:7662   */\n      dup3\n        /* \"#utility.yul\":7655:7667   */\n      add\n        /* \"#utility.yul\":7648:7667   */\n      swap1\n      pop\n        /* \"#utility.yul\":7307:7673   */\n      swap2\n      swap1\n      pop\n      jump\t// out\n        /* \"#utility.yul\":7679:8098   */\n    tag_101:\n        /* \"#utility.yul\":7845:7849   */\n      0x00\n        /* \"#utility.yul\":7883:7885   */\n      0x20\n        /* \"#utility.yul\":7872:7881   */\n      dup3\n        /* \"#utility.yul\":7868:7886   */\n      add\n        /* \"#utility.yul\":7860:7886   */\n      swap1\n      pop\n        /* \"#utility.yul\":7932:7941   */\n      dup2\n        /* \"#utility.yul\":7926:7930   */\n      dup2\n        /* \"#utility.yul\":7922:7942   */\n      sub\n        /* \"#utility.yul\":7918:7919   */\n      0x00\n        /* \"#utility.yul\":7907:7916   */\n      dup4\n        /* \"#utility.yul\":7903:7920   */\n      add\n        /* \"#utility.yul\":7896:7943   */\n      mstore\n        /* \"#utility.yul\":7960:8091   */\n      tag_206\n        /* \"#utility.yul\":8086:8090   */\n      dup2\n        /* \"#utility.yul\":7960:8091   */\n      tag_129\n      jump\t// in\n    tag_206:\n        /* \"#utility.yul\":7952:8091   */\n      swap1\n      pop\n        /* \"#utility.yul\":7679:8098   */\n      swap2\n      swap1\n      pop\n      jump\t// out\n        /* \"#utility.yul\":8104:8198   */\n    tag_130:\n        /* \"#utility.yul\":8137:8145   */\n      0x00\n        /* \"#utility.yul\":8185:8190   */\n      dup2\n        /* \"#utility.yul\":8181:8183   */\n      0x60\n        /* \"#utility.yul\":8177:8191   */\n      shl\n        /* \"#utility.yul\":8156:8191   */\n      swap1\n      pop\n        /* \"#utility.yul\":8104:8198   */\n      swap2\n      swap1\n      pop\n      jump\t// out\n        /* \"#utility.yul\":8204:8298   */\n    tag_131:\n        /* \"#utility.yul\":8243:8250   */\n      0x00\n        /* \"#utility.yul\":8272:8292   */\n      tag_209\n        /* \"#utility.yul\":8286:8291   */\n      dup3\n        /* \"#utility.yul\":8272:8292   */\n      tag_130\n      jump\t// in\n    tag_209:\n        /* \"#utility.yul\":8261:8292   */\n      swap1\n      pop\n        /* \"#utility.yul\":8204:8298   */\n      swap2\n      swap1\n      pop\n      jump\t// out\n        /* \"#utility.yul\":8304:8404   */\n    tag_132:\n        /* \"#utility.yul\":8343:8350   */\n      0x00\n        /* \"#utility.yul\":8372:8398   */\n      tag_211\n        /* \"#utility.yul\":8392:8397   */\n      dup3\n        /* \"#utility.yul\":8372:8398   */\n      tag_131\n      jump\t// in\n    tag_211:\n        /* \"#utility.yul\":8361:8398   */\n      swap1\n      pop\n        /* \"#utility.yul\":8304:8404   */\n      swap2\n      swap1\n      pop\n      jump\t// out\n        /* \"#utility.yul\":8410:8567   */\n    tag_133:\n        /* \"#utility.yul\":8515:8560   */\n      tag_213\n        /* \"#utility.yul\":8535:8559   */\n      tag_214\n        /* \"#utility.yul\":8553:8558   */\n      dup3\n        /* \"#utility.yul\":8535:8559   */\n      tag_107\n      jump\t// in\n    tag_214:\n        /* \"#utility.yul\":8515:8560   */\n      tag_132\n      jump\t// in\n    tag_213:\n        /* \"#utility.yul\":8510:8513   */\n      dup3\n        /* \"#utility.yul\":8503:8561   */\n      mstore\n        /* \"#utility.yul\":8410:8567   */\n      pop\n      pop\n      jump\t// out\n        /* \"#utility.yul\":8573:8652   */\n    tag_134:\n        /* \"#utility.yul\":8612:8619   */\n      0x00\n        /* \"#utility.yul\":8641:8646   */\n      dup2\n        /* \"#utility.yul\":8630:8646   */\n      swap1\n      pop\n        /* \"#utility.yul\":8573:8652   */\n      swap2\n      swap1\n      pop\n      jump\t// out\n        /* \"#utility.yul\":8658:8815   */\n    tag_135:\n        /* \"#utility.yul\":8763:8808   */\n      tag_217\n        /* \"#utility.yul\":8783:8807   */\n      tag_218\n        /* \"#utility.yul\":8801:8806   */\n      dup3\n        /* \"#utility.yul\":8783:8807   */\n      tag_109\n      jump\t// in\n    tag_218:\n        /* \"#utility.yul\":8763:8808   */\n      tag_134\n      jump\t// in\n    tag_217:\n        /* \"#utility.yul\":8758:8761   */\n      dup3\n        /* \"#utility.yul\":8751:8809   */\n      mstore\n        /* \"#utility.yul\":8658:8815   */\n      pop\n      pop\n      jump\t// out\n        /* \"#utility.yul\":8821:9218   */\n    tag_103:\n        /* \"#utility.yul\":8961:8964   */\n      0x00\n        /* \"#utility.yul\":8976:9051   */\n      tag_220\n        /* \"#utility.yul\":9047:9050   */\n      dup3\n        /* \"#utility.yul\":9038:9044   */\n      dup6\n        /* \"#utility.yul\":8976:9051   */\n      tag_133\n      jump\t// in\n    tag_220:\n        /* \"#utility.yul\":9076:9078   */\n      0x14\n        /* \"#utility.yul\":9071:9074   */\n      dup3\n        /* \"#utility.yul\":9067:9079   */\n      add\n        /* \"#utility.yul\":9060:9079   */\n      swap2\n      pop\n        /* \"#utility.yul\":9089:9164   */\n      tag_221\n        /* \"#utility.yul\":9160:9163   */\n      dup3\n        /* \"#utility.yul\":9151:9157   */\n      dup5\n        /* \"#utility.yul\":9089:9164   */\n      tag_135\n      jump\t// in\n    tag_221:\n        /* \"#utility.yul\":9189:9191   */\n      0x20\n        /* \"#utility.yul\":9184:9187   */\n      dup3\n        /* \"#utility.yul\":9180:9192   */\n      add\n        /* \"#utility.yul\":9173:9192   */\n      swap2\n      pop\n        /* \"#utility.yul\":9209:9212   */\n      dup2\n        /* \"#utility.yul\":9202:9212   */\n      swap1\n      pop\n        /* \"#utility.yul\":8821:9218   */\n      swap4\n      swap3\n      pop\n      pop\n      pop\n      jump\t// out\n\n    auxdata: 0xa264697066735822122014252c263daf1691a07307f38f8ba474117e0fcedc9ca04a200d264081e3bbde64736f6c634300081a0033\n}\n",
				"bytecode": {
					"linkReferences": {},
					"object": "6080604052348015600e575f80fd5b50335f806101000a81548173ffffffffffffffffffffffffffffffffffffffff021916908373ffffffffffffffffffffffffffffffffffffffff160217905550610d358061005b5f395ff3fe608060405234801561000f575f80fd5b50600436106100f3575f3560e01c8063b97dd9e211610095578063e1f0c37611610064578063e1f0c3761461022b578063efc2937214610249578063f020044f14610267578063fd63632214610285576100f3565b8063b97dd9e2146101b5578063d3738014146101d3578063d94504b9146101ef578063dfbf53ae1461020d576100f3565b80636cbc2ded116100d15780636cbc2ded146101515780638da5cb5b1461015b5780638e7ea5b214610179578063aa9bbc0c14610197576100f3565b80630d7d5599146100f75780633804c73d1461011557806358830d6c14610133575b5f80fd5b6100ff61028f565b60405161010c91906108b4565b60405180910390f35b61011d6102b4565b60405161012a91906108e5565b60405180910390f35b61013b6102ba565b60405161014891906108e5565b60405180910390f35b6101596102c0565b005b61016361046a565b60405161017091906108b4565b60405180910390f35b61018161048d565b60405161018e91906108b4565b60405180910390f35b61019f6104b6565b6040516101ac91906108e5565b60405180910390f35b6101bd6104bc565b6040516101ca91906108e5565b60405180910390f35b6101ed60048036038101906101e8919061092c565b6104c5565b005b6101f761068b565b60405161020491906108e5565b60405180910390f35b610215610694565b60405161022291906108b4565b60405180910390f35b6102336106ba565b60405161024091906108e5565b60405180910390f35b6102516106c0565b60405161025e91906108b4565b60405180910390f35b61026f6106e8565b60405161027c9190610971565b60405180910390f35b61028d6106fa565b005b60045f9054906101000a900473ffffffffffffffffffffffffffffffffffffffff1681565b60025481565b60055481565b5f8054906101000a900473ffffffffffffffffffffffffffffffffffffffff1673ffffffffffffffffffffffffffffffffffffffff163373ffffffffffffffffffffffffffffffffffffffff161461034d576040517f08c379a000000000000000000000000000000000000000000000000000000000815260040161034490610a0a565b60405180910390fd5b60065f9054906101000a900460ff1661039b576040517f08c379a000000000000000000000000000000000000000000000000000000000815260040161039290610a72565b60405180910390fd5b6003546002546103ab9190610abd565b4310156103ed576040517f08c379a00000000000000000000000000000000000000000000000000000000081526004016103e490610b3a565b60405180910390fd5b5f60065f6101000a81548160ff02191690831515021790555060045f9054906101000a900473ffffffffffffffffffffffffffffffffffffffff16600660016101000a81548173ffffffffffffffffffffffffffffffffffffffff021916908373ffffffffffffffffffffffffffffffffffffffff160217905550565b5f8054906101000a900473ffffffffffffffffffffffffffffffffffffffff1681565b5f600660019054906101000a900473ffffffffffffffffffffffffffffffffffffffff16905090565b60015481565b5f600154905090565b5f8054906101000a900473ffffffffffffffffffffffffffffffffffffffff1673ffffffffffffffffffffffffffffffffffffffff163373ffffffffffffffffffffffffffffffffffffffff1614610552576040517f08c379a000000000000000000000000000000000000000000000000000000000815260040161054990610a0a565b60405180910390fd5b60065f9054906101000a900460ff16156105a1576040517f08c379a000000000000000000000000000000000000000000000000000000000815260040161059890610ba2565b60405180910390fd5b60015f8154809291906105b390610bc0565b919050555043600281905550806003819055505f60045f6101000a81548173ffffffffffffffffffffffffffffffffffffffff021916908373ffffffffffffffffffffffffffffffffffffffff1602179055507fffffffffffffffffffffffffffffffffffffffffffffffffffffffffffffffff600581905550600160065f6101000a81548160ff0219169083151502179055505f600660016101000a81548173ffffffffffffffffffffffffffffffffffffffff021916908373ffffffffffffffffffffffffffffffffffffffff16021790555050565b5f600554905090565b600660019054906101000a900473ffffffffffffffffffffffffffffffffffffffff1681565b60035481565b5f60045f9054906101000a900473ffffffffffffffffffffffffffffffffffffffff16905090565b60065f9054906101000a900460ff1681565b60065f9054906101000a900460ff16610748576040517f08c379a000000000000000000000000000000000000000000000000000000000815260040161073f90610a72565b60405180910390fd5b6003546002546107589190610abd565b4310610799576040517f08c379a000000000000000000000000000000000000000000000000000000000815260040161079090610c51565b60405180910390fd5b5f336001546040516020016107af929190610cd4565b604051602081830303815290604052805190602001205f1c90505f73ffffffffffffffffffffffffffffffffffffffff1660045f9054906101000a900473ffffffffffffffffffffffffffffffffffffffff1673ffffffffffffffffffffffffffffffffffffffff161480610825575060055481105b15610872573360045f6101000a81548173ffffffffffffffffffffffffffffffffffffffff021916908373ffffffffffffffffffffffffffffffffffffffff160217905550806005819055505b50565b5f73ffffffffffffffffffffffffffffffffffffffff82169050919050565b5f61089e82610875565b9050919050565b6108ae81610894565b82525050565b5f6020820190506108c75f8301846108a5565b92915050565b5f819050919050565b6108df816108cd565b82525050565b5f6020820190506108f85f8301846108d6565b92915050565b5f80fd5b61090b816108cd565b8114610915575f80fd5b50565b5f8135905061092681610902565b92915050565b5f60208284031215610941576109406108fe565b5b5f61094e84828501610918565b91505092915050565b5f8115159050919050565b61096b81610957565b82525050565b5f6020820190506109845f830184610962565b92915050565b5f82825260208201905092915050565b7f4f6e6c79206f776e65722063616e2063616c6c20746869732066756e6374696f5f8201527f6e00000000000000000000000000000000000000000000000000000000000000602082015250565b5f6109f460218361098a565b91506109ff8261099a565b604082019050919050565b5f6020820190508181035f830152610a21816109e8565b9050919050565b7f47616d65206973206e6f742061637469766500000000000000000000000000005f82015250565b5f610a5c60128361098a565b9150610a6782610a28565b602082019050919050565b5f6020820190508181035f830152610a8981610a50565b9050919050565b7f4e487b71000000000000000000000000000000000000000000000000000000005f52601160045260245ffd5b5f610ac7826108cd565b9150610ad2836108cd565b9250828201905080821115610aea57610ae9610a90565b5b92915050565b7f47616d6520686173206e6f7420656e64656420796574000000000000000000005f82015250565b5f610b2460168361098a565b9150610b2f82610af0565b602082019050919050565b5f6020820190508181035f830152610b5181610b18565b9050919050565b7f43757272656e742067616d65206973207374696c6c20616374697665000000005f82015250565b5f610b8c601c8361098a565b9150610b9782610b58565b602082019050919050565b5f6020820190508181035f830152610bb981610b80565b9050919050565b5f610bca826108cd565b91507fffffffffffffffffffffffffffffffffffffffffffffffffffffffffffffffff8203610bfc57610bfb610a90565b5b600182019050919050565b7f47616d652068617320656e6465640000000000000000000000000000000000005f82015250565b5f610c3b600e8361098a565b9150610c4682610c07565b602082019050919050565b5f6020820190508181035f830152610c6881610c2f565b9050919050565b5f8160601b9050919050565b5f610c8582610c6f565b9050919050565b5f610c9682610c7b565b9050919050565b610cae610ca982610894565b610c8c565b82525050565b5f819050919050565b610cce610cc9826108cd565b610cb4565b82525050565b5f610cdf8285610c9d565b601482019150610cef8284610cbd565b602082019150819050939250505056fea264697066735822122014252c263daf1691a07307f38f8ba474117e0fcedc9ca04a200d264081e3bbde64736f6c634300081a0033",
					"opcodes": "PUSH1 0x80 PUSH1 0x40 MSTORE CALLVALUE DUP1 ISZERO PUSH1 0xE JUMPI PUSH0 DUP1 REVERT JUMPDEST POP CALLER PUSH0 DUP1 PUSH2 0x100 EXP DUP2 SLOAD DUP2 PUSH20 0xFFFFFFFFFFFFFFFFFFFFFFFFFFFFFFFFFFFFFFFF MUL NOT AND SWAP1 DUP4 PUSH20 0xFFFFFFFFFFFFFFFFFFFFFFFFFFFFFFFFFFFFFFFF AND MUL OR SWAP1 SSTORE POP PUSH2 0xD35 DUP1 PUSH2 0x5B PUSH0 CODECOPY PUSH0 RETURN INVALID PUSH1 0x80 PUSH1 0x40 MSTORE CALLVALUE DUP1 ISZERO PUSH2 0xF JUMPI PUSH0 DUP1 REVERT JUMPDEST POP PUSH1 0x4 CALLDATASIZE LT PUSH2 0xF3 JUMPI PUSH0 CALLDATALOAD PUSH1 0xE0 SHR DUP1 PUSH4 0xB97DD9E2 GT PUSH2 0x95 JUMPI DUP1 PUSH4 0xE1F0C376 GT PUSH2 0x64 JUMPI DUP1 PUSH4 0xE1F0C376 EQ PUSH2 0x22B JUMPI DUP1 PUSH4 0xEFC29372 EQ PUSH2 0x249 JUMPI DUP1 PUSH4 0xF020044F EQ PUSH2 0x267 JUMPI DUP1 PUSH4 0xFD636322 EQ PUSH2 0x285 JUMPI PUSH2 0xF3 JUMP JUMPDEST DUP1 PUSH4 0xB97DD9E2 EQ PUSH2 0x1B5 JUMPI DUP1 PUSH4 0xD3738014 EQ PUSH2 0x1D3 JUMPI DUP1 PUSH4 0xD94504B9 EQ PUSH2 0x1EF JUMPI DUP1 PUSH4 0xDFBF53AE EQ PUSH2 0x20D JUMPI PUSH2 0xF3 JUMP JUMPDEST DUP1 PUSH4 0x6CBC2DED GT PUSH2 0xD1 JUMPI DUP1 PUSH4 0x6CBC2DED EQ PUSH2 0x151 JUMPI DUP1 PUSH4 0x8DA5CB5B EQ PUSH2 0x15B JUMPI DUP1 PUSH4 0x8E7EA5B2 EQ PUSH2 0x179 JUMPI DUP1 PUSH4 0xAA9BBC0C EQ PUSH2 0x197 JUMPI PUSH2 0xF3 JUMP JUMPDEST DUP1 PUSH4 0xD7D5599 EQ PUSH2 0xF7 JUMPI DUP1 PUSH4 0x3804C73D EQ PUSH2 0x115 JUMPI DUP1 PUSH4 0x58830D6C EQ PUSH2 0x133 JUMPI JUMPDEST PUSH0 DUP1 REVERT JUMPDEST PUSH2 0xFF PUSH2 0x28F JUMP JUMPDEST PUSH1 0x40 MLOAD PUSH2 0x10C SWAP2 SWAP1 PUSH2 0x8B4 JUMP JUMPDEST PUSH1 0x40 MLOAD DUP1 SWAP2 SUB SWAP1 RETURN JUMPDEST PUSH2 0x11D PUSH2 0x2B4 JUMP JUMPDEST PUSH1 0x40 MLOAD PUSH2 0x12A SWAP2 SWAP1 PUSH2 0x8E5 JUMP JUMPDEST PUSH1 0x40 MLOAD DUP1 SWAP2 SUB SWAP1 RETURN JUMPDEST PUSH2 0x13B PUSH2 0x2BA JUMP JUMPDEST PUSH1 0x40 MLOAD PUSH2 0x148 SWAP2 SWAP1 PUSH2 0x8E5 JUMP JUMPDEST PUSH1 0x40 MLOAD DUP1 SWAP2 SUB SWAP1 RETURN JUMPDEST PUSH2 0x159 PUSH2 0x2C0 JUMP JUMPDEST STOP JUMPDEST PUSH2 0x163 PUSH2 0x46A JUMP JUMPDEST PUSH1 0x40 MLOAD PUSH2 0x170 SWAP2 SWAP1 PUSH2 0x8B4 JUMP JUMPDEST PUSH1 0x40 MLOAD DUP1 SWAP2 SUB SWAP1 RETURN JUMPDEST PUSH2 0x181 PUSH2 0x48D JUMP JUMPDEST PUSH1 0x40 MLOAD PUSH2 0x18E SWAP2 SWAP1 PUSH2 0x8B4 JUMP JUMPDEST PUSH1 0x40 MLOAD DUP1 SWAP2 SUB SWAP1 RETURN JUMPDEST PUSH2 0x19F PUSH2 0x4B6 JUMP JUMPDEST PUSH1 0x40 MLOAD PUSH2 0x1AC SWAP2 SWAP1 PUSH2 0x8E5 JUMP JUMPDEST PUSH1 0x40 MLOAD DUP1 SWAP2 SUB SWAP1 RETURN JUMPDEST PUSH2 0x1BD PUSH2 0x4BC JUMP JUMPDEST PUSH1 0x40 MLOAD PUSH2 0x1CA SWAP2 SWAP1 PUSH2 0x8E5 JUMP JUMPDEST PUSH1 0x40 MLOAD DUP1 SWAP2 SUB SWAP1 RETURN JUMPDEST PUSH2 0x1ED PUSH1 0x4 DUP1 CALLDATASIZE SUB DUP2 ADD SWAP1 PUSH2 0x1E8 SWAP2 SWAP1 PUSH2 0x92C JUMP JUMPDEST PUSH2 0x4C5 JUMP JUMPDEST STOP JUMPDEST PUSH2 0x1F7 PUSH2 0x68B JUMP JUMPDEST PUSH1 0x40 MLOAD PUSH2 0x204 SWAP2 SWAP1 PUSH2 0x8E5 JUMP JUMPDEST PUSH1 0x40 MLOAD DUP1 SWAP2 SUB SWAP1 RETURN JUMPDEST PUSH2 0x215 PUSH2 0x694 JUMP JUMPDEST PUSH1 0x40 MLOAD PUSH2 0x222 SWAP2 SWAP1 PUSH2 0x8B4 JUMP JUMPDEST PUSH1 0x40 MLOAD DUP1 SWAP2 SUB SWAP1 RETURN JUMPDEST PUSH2 0x233 PUSH2 0x6BA JUMP JUMPDEST PUSH1 0x40 MLOAD PUSH2 0x240 SWAP2 SWAP1 PUSH2 0x8E5 JUMP JUMPDEST PUSH1 0x40 MLOAD DUP1 SWAP2 SUB SWAP1 RETURN JUMPDEST PUSH2 0x251 PUSH2 0x6C0 JUMP JUMPDEST PUSH1 0x40 MLOAD PUSH2 0x25E SWAP2 SWAP1 PUSH2 0x8B4 JUMP JUMPDEST PUSH1 0x40 MLOAD DUP1 SWAP2 SUB SWAP1 RETURN JUMPDEST PUSH2 0x26F PUSH2 0x6E8 JUMP JUMPDEST PUSH1 0x40 MLOAD PUSH2 0x27C SWAP2 SWAP1 PUSH2 0x971 JUMP JUMPDEST PUSH1 0x40 MLOAD DUP1 SWAP2 SUB SWAP1 RETURN JUMPDEST PUSH2 0x28D PUSH2 0x6FA JUMP JUMPDEST STOP JUMPDEST PUSH1 0x4 PUSH0 SWAP1 SLOAD SWAP1 PUSH2 0x100 EXP SWAP1 DIV PUSH20 0xFFFFFFFFFFFFFFFFFFFFFFFFFFFFFFFFFFFFFFFF AND DUP2 JUMP JUMPDEST PUSH1 0x2 SLOAD DUP2 JUMP JUMPDEST PUSH1 0x5 SLOAD DUP2 JUMP JUMPDEST PUSH0 DUP1 SLOAD SWAP1 PUSH2 0x100 EXP SWAP1 DIV PUSH20 0xFFFFFFFFFFFFFFFFFFFFFFFFFFFFFFFFFFFFFFFF AND PUSH20 0xFFFFFFFFFFFFFFFFFFFFFFFFFFFFFFFFFFFFFFFF AND CALLER PUSH20 0xFFFFFFFFFFFFFFFFFFFFFFFFFFFFFFFFFFFFFFFF AND EQ PUSH2 0x34D JUMPI PUSH1 0x40 MLOAD PUSH32 0x8C379A000000000000000000000000000000000000000000000000000000000 DUP2 MSTORE PUSH1 0x4 ADD PUSH2 0x344 SWAP1 PUSH2 0xA0A JUMP JUMPDEST PUSH1 0x40 MLOAD DUP1 SWAP2 SUB SWAP1 REVERT JUMPDEST PUSH1 0x6 PUSH0 SWAP1 SLOAD SWAP1 PUSH2 0x100 EXP SWAP1 DIV PUSH1 0xFF AND PUSH2 0x39B JUMPI PUSH1 0x40 MLOAD PUSH32 0x8C379A000000000000000000000000000000000000000000000000000000000 DUP2 MSTORE PUSH1 0x4 ADD PUSH2 0x392 SWAP1 PUSH2 0xA72 JUMP JUMPDEST PUSH1 0x40 MLOAD DUP1 SWAP2 SUB SWAP1 REVERT JUMPDEST PUSH1 0x3 SLOAD PUSH1 0x2 SLOAD PUSH2 0x3AB SWAP2 SWAP1 PUSH2 0xABD JUMP JUMPDEST NUMBER LT ISZERO PUSH2 0x3ED JUMPI PUSH1 0x40 MLOAD PUSH32 0x8C379A000000000000000000000000000000000000000000000000000000000 DUP2 MSTORE PUSH1 0x4 ADD PUSH2 0x3E4 SWAP1 PUSH2 0xB3A JUMP JUMPDEST PUSH1 0x40 MLOAD DUP1 SWAP2 SUB SWAP1 REVERT JUMPDEST PUSH0 PUSH1 0x6 PUSH0 PUSH2 0x100 EXP DUP2 SLOAD DUP2 PUSH1 0xFF MUL NOT AND SWAP1 DUP4 ISZERO ISZERO MUL OR SWAP1 SSTORE POP PUSH1 0x4 PUSH0 SWAP1 SLOAD SWAP1 PUSH2 0x100 EXP SWAP1 DIV PUSH20 0xFFFFFFFFFFFFFFFFFFFFFFFFFFFFFFFFFFFFFFFF AND PUSH1 0x6 PUSH1 0x1 PUSH2 0x100 EXP DUP2 SLOAD DUP2 PUSH20 0xFFFFFFFFFFFFFFFFFFFFFFFFFFFFFFFFFFFFFFFF MUL NOT AND SWAP1 DUP4 PUSH20 0xFFFFFFFFFFFFFFFFFFFFFFFFFFFFFFFFFFFFFFFF AND MUL OR SWAP1 SSTORE POP JUMP JUMPDEST PUSH0 DUP1 SLOAD SWAP1 PUSH2 0x100 EXP SWAP1 DIV PUSH20 0xFFFFFFFFFFFFFFFFFFFFFFFFFFFFFFFFFFFFFFFF AND DUP2 JUMP JUMPDEST PUSH0 PUSH1 0x6 PUSH1 0x1 SWAP1 SLOAD SWAP1 PUSH2 0x100 EXP SWAP1 DIV PUSH20 0xFFFFFFFFFFFFFFFFFFFFFFFFFFFFFFFFFFFFFFFF AND SWAP1 POP SWAP1 JUMP JUMPDEST PUSH1 0x1 SLOAD DUP2 JUMP JUMPDEST PUSH0 PUSH1 0x1 SLOAD SWAP1 POP SWAP1 JUMP JUMPDEST PUSH0 DUP1 SLOAD SWAP1 PUSH2 0x100 EXP SWAP1 DIV PUSH20 0xFFFFFFFFFFFFFFFFFFFFFFFFFFFFFFFFFFFFFFFF AND PUSH20 0xFFFFFFFFFFFFFFFFFFFFFFFFFFFFFFFFFFFFFFFF AND CALLER PUSH20 0xFFFFFFFFFFFFFFFFFFFFFFFFFFFFFFFFFFFFFFFF AND EQ PUSH2 0x552 JUMPI PUSH1 0x40 MLOAD PUSH32 0x8C379A000000000000000000000000000000000000000000000000000000000 DUP2 MSTORE PUSH1 0x4 ADD PUSH2 0x549 SWAP1 PUSH2 0xA0A JUMP JUMPDEST PUSH1 0x40 MLOAD DUP1 SWAP2 SUB SWAP1 REVERT JUMPDEST PUSH1 0x6 PUSH0 SWAP1 SLOAD SWAP1 PUSH2 0x100 EXP SWAP1 DIV PUSH1 0xFF AND ISZERO PUSH2 0x5A1 JUMPI PUSH1 0x40 MLOAD PUSH32 0x8C379A000000000000000000000000000000000000000000000000000000000 DUP2 MSTORE PUSH1 0x4 ADD PUSH2 0x598 SWAP1 PUSH2 0xBA2 JUMP JUMPDEST PUSH1 0x40 MLOAD DUP1 SWAP2 SUB SWAP1 REVERT JUMPDEST PUSH1 0x1 PUSH0 DUP2 SLOAD DUP1 SWAP3 SWAP2 SWAP1 PUSH2 0x5B3 SWAP1 PUSH2 0xBC0 JUMP JUMPDEST SWAP2 SWAP1 POP SSTORE POP NUMBER PUSH1 0x2 DUP2 SWAP1 SSTORE POP DUP1 PUSH1 0x3 DUP2 SWAP1 SSTORE POP PUSH0 PUSH1 0x4 PUSH0 PUSH2 0x100 EXP DUP2 SLOAD DUP2 PUSH20 0xFFFFFFFFFFFFFFFFFFFFFFFFFFFFFFFFFFFFFFFF MUL NOT AND SWAP1 DUP4 PUSH20 0xFFFFFFFFFFFFFFFFFFFFFFFFFFFFFFFFFFFFFFFF AND MUL OR SWAP1 SSTORE POP PUSH32 0xFFFFFFFFFFFFFFFFFFFFFFFFFFFFFFFFFFFFFFFFFFFFFFFFFFFFFFFFFFFFFFFF PUSH1 0x5 DUP2 SWAP1 SSTORE POP PUSH1 0x1 PUSH1 0x6 PUSH0 PUSH2 0x100 EXP DUP2 SLOAD DUP2 PUSH1 0xFF MUL NOT AND SWAP1 DUP4 ISZERO ISZERO MUL OR SWAP1 SSTORE POP PUSH0 PUSH1 0x6 PUSH1 0x1 PUSH2 0x100 EXP DUP2 SLOAD DUP2 PUSH20 0xFFFFFFFFFFFFFFFFFFFFFFFFFFFFFFFFFFFFFFFF MUL NOT AND SWAP1 DUP4 PUSH20 0xFFFFFFFFFFFFFFFFFFFFFFFFFFFFFFFFFFFFFFFF AND MUL OR SWAP1 SSTORE POP POP JUMP JUMPDEST PUSH0 PUSH1 0x5 SLOAD SWAP1 POP SWAP1 JUMP JUMPDEST PUSH1 0x6 PUSH1 0x1 SWAP1 SLOAD SWAP1 PUSH2 0x100 EXP SWAP1 DIV PUSH20 0xFFFFFFFFFFFFFFFFFFFFFFFFFFFFFFFFFFFFFFFF AND DUP2 JUMP JUMPDEST PUSH1 0x3 SLOAD DUP2 JUMP JUMPDEST PUSH0 PUSH1 0x4 PUSH0 SWAP1 SLOAD SWAP1 PUSH2 0x100 EXP SWAP1 DIV PUSH20 0xFFFFFFFFFFFFFFFFFFFFFFFFFFFFFFFFFFFFFFFF AND SWAP1 POP SWAP1 JUMP JUMPDEST PUSH1 0x6 PUSH0 SWAP1 SLOAD SWAP1 PUSH2 0x100 EXP SWAP1 DIV PUSH1 0xFF AND DUP2 JUMP JUMPDEST PUSH1 0x6 PUSH0 SWAP1 SLOAD SWAP1 PUSH2 0x100 EXP SWAP1 DIV PUSH1 0xFF AND PUSH2 0x748 JUMPI PUSH1 0x40 MLOAD PUSH32 0x8C379A000000000000000000000000000000000000000000000000000000000 DUP2 MSTORE PUSH1 0x4 ADD PUSH2 0x73F SWAP1 PUSH2 0xA72 JUMP JUMPDEST PUSH1 0x40 MLOAD DUP1 SWAP2 SUB SWAP1 REVERT JUMPDEST PUSH1 0x3 SLOAD PUSH1 0x2 SLOAD PUSH2 0x758 SWAP2 SWAP1 PUSH2 0xABD JUMP JUMPDEST NUMBER LT PUSH2 0x799 JUMPI PUSH1 0x40 MLOAD PUSH32 0x8C379A000000000000000000000000000000000000000000000000000000000 DUP2 MSTORE PUSH1 0x4 ADD PUSH2 0x790 SWAP1 PUSH2 0xC51 JUMP JUMPDEST PUSH1 0x40 MLOAD DUP1 SWAP2 SUB SWAP1 REVERT JUMPDEST PUSH0 CALLER PUSH1 0x1 SLOAD PUSH1 0x40 MLOAD PUSH1 0x20 ADD PUSH2 0x7AF SWAP3 SWAP2 SWAP1 PUSH2 0xCD4 JUMP JUMPDEST PUSH1 0x40 MLOAD PUSH1 0x20 DUP2 DUP4 SUB SUB DUP2 MSTORE SWAP1 PUSH1 0x40 MSTORE DUP1 MLOAD SWAP1 PUSH1 0x20 ADD KECCAK256 PUSH0 SHR SWAP1 POP PUSH0 PUSH20 0xFFFFFFFFFFFFFFFFFFFFFFFFFFFFFFFFFFFFFFFF AND PUSH1 0x4 PUSH0 SWAP1 SLOAD SWAP1 PUSH2 0x100 EXP SWAP1 DIV PUSH20 0xFFFFFFFFFFFFFFFFFFFFFFFFFFFFFFFFFFFFFFFF AND PUSH20 0xFFFFFFFFFFFFFFFFFFFFFFFFFFFFFFFFFFFFFFFF AND EQ DUP1 PUSH2 0x825 JUMPI POP PUSH1 0x5 SLOAD DUP2 LT JUMPDEST ISZERO PUSH2 0x872 JUMPI CALLER PUSH1 0x4 PUSH0 PUSH2 0x100 EXP DUP2 SLOAD DUP2 PUSH20 0xFFFFFFFFFFFFFFFFFFFFFFFFFFFFFFFFFFFFFFFF MUL NOT AND SWAP1 DUP4 PUSH20 0xFFFFFFFFFFFFFFFFFFFFFFFFFFFFFFFFFFFFFFFF AND MUL OR SWAP1 SSTORE POP DUP1 PUSH1 0x5 DUP2 SWAP1 SSTORE POP JUMPDEST POP JUMP JUMPDEST PUSH0 PUSH20 0xFFFFFFFFFFFFFFFFFFFFFFFFFFFFFFFFFFFFFFFF DUP3 AND SWAP1 POP SWAP2 SWAP1 POP JUMP JUMPDEST PUSH0 PUSH2 0x89E DUP3 PUSH2 0x875 JUMP JUMPDEST SWAP1 POP SWAP2 SWAP1 POP JUMP JUMPDEST PUSH2 0x8AE DUP2 PUSH2 0x894 JUMP JUMPDEST DUP3 MSTORE POP POP JUMP JUMPDEST PUSH0 PUSH1 0x20 DUP3 ADD SWAP1 POP PUSH2 0x8C7 PUSH0 DUP4 ADD DUP5 PUSH2 0x8A5 JUMP JUMPDEST SWAP3 SWAP2 POP POP JUMP JUMPDEST PUSH0 DUP2 SWAP1 POP SWAP2 SWAP1 POP JUMP JUMPDEST PUSH2 0x8DF DUP2 PUSH2 0x8CD JUMP JUMPDEST DUP3 MSTORE POP POP JUMP JUMPDEST PUSH0 PUSH1 0x20 DUP3 ADD SWAP1 POP PUSH2 0x8F8 PUSH0 DUP4 ADD DUP5 PUSH2 0x8D6 JUMP JUMPDEST SWAP3 SWAP2 POP POP JUMP JUMPDEST PUSH0 DUP1 REVERT JUMPDEST PUSH2 0x90B DUP2 PUSH2 0x8CD JUMP JUMPDEST DUP2 EQ PUSH2 0x915 JUMPI PUSH0 DUP1 REVERT JUMPDEST POP JUMP JUMPDEST PUSH0 DUP2 CALLDATALOAD SWAP1 POP PUSH2 0x926 DUP2 PUSH2 0x902 JUMP JUMPDEST SWAP3 SWAP2 POP POP JUMP JUMPDEST PUSH0 PUSH1 0x20 DUP3 DUP5 SUB SLT ISZERO PUSH2 0x941 JUMPI PUSH2 0x940 PUSH2 0x8FE JUMP JUMPDEST JUMPDEST PUSH0 PUSH2 0x94E DUP5 DUP3 DUP6 ADD PUSH2 0x918 JUMP JUMPDEST SWAP2 POP POP SWAP3 SWAP2 POP POP JUMP JUMPDEST PUSH0 DUP2 ISZERO ISZERO SWAP1 POP SWAP2 SWAP1 POP JUMP JUMPDEST PUSH2 0x96B DUP2 PUSH2 0x957 JUMP JUMPDEST DUP3 MSTORE POP POP JUMP JUMPDEST PUSH0 PUSH1 0x20 DUP3 ADD SWAP1 POP PUSH2 0x984 PUSH0 DUP4 ADD DUP5 PUSH2 0x962 JUMP JUMPDEST SWAP3 SWAP2 POP POP JUMP JUMPDEST PUSH0 DUP3 DUP3 MSTORE PUSH1 0x20 DUP3 ADD SWAP1 POP SWAP3 SWAP2 POP POP JUMP JUMPDEST PUSH32 0x4F6E6C79206F776E65722063616E2063616C6C20746869732066756E6374696F PUSH0 DUP3 ADD MSTORE PUSH32 0x6E00000000000000000000000000000000000000000000000000000000000000 PUSH1 0x20 DUP3 ADD MSTORE POP JUMP JUMPDEST PUSH0 PUSH2 0x9F4 PUSH1 0x21 DUP4 PUSH2 0x98A JUMP JUMPDEST SWAP2 POP PUSH2 0x9FF DUP3 PUSH2 0x99A JUMP JUMPDEST PUSH1 0x40 DUP3 ADD SWAP1 POP SWAP2 SWAP1 POP JUMP JUMPDEST PUSH0 PUSH1 0x20 DUP3 ADD SWAP1 POP DUP2 DUP2 SUB PUSH0 DUP4 ADD MSTORE PUSH2 0xA21 DUP2 PUSH2 0x9E8 JUMP JUMPDEST SWAP1 POP SWAP2 SWAP1 POP JUMP JUMPDEST PUSH32 0x47616D65206973206E6F74206163746976650000000000000000000000000000 PUSH0 DUP3 ADD MSTORE POP JUMP JUMPDEST PUSH0 PUSH2 0xA5C PUSH1 0x12 DUP4 PUSH2 0x98A JUMP JUMPDEST SWAP2 POP PUSH2 0xA67 DUP3 PUSH2 0xA28 JUMP JUMPDEST PUSH1 0x20 DUP3 ADD SWAP1 POP SWAP2 SWAP1 POP JUMP JUMPDEST PUSH0 PUSH1 0x20 DUP3 ADD SWAP1 POP DUP2 DUP2 SUB PUSH0 DUP4 ADD MSTORE PUSH2 0xA89 DUP2 PUSH2 0xA50 JUMP JUMPDEST SWAP1 POP SWAP2 SWAP1 POP JUMP JUMPDEST PUSH32 0x4E487B7100000000000000000000000000000000000000000000000000000000 PUSH0 MSTORE PUSH1 0x11 PUSH1 0x4 MSTORE PUSH1 0x24 PUSH0 REVERT JUMPDEST PUSH0 PUSH2 0xAC7 DUP3 PUSH2 0x8CD JUMP JUMPDEST SWAP2 POP PUSH2 0xAD2 DUP4 PUSH2 0x8CD JUMP JUMPDEST SWAP3 POP DUP3 DUP3 ADD SWAP1 POP DUP1 DUP3 GT ISZERO PUSH2 0xAEA JUMPI PUSH2 0xAE9 PUSH2 0xA90 JUMP JUMPDEST JUMPDEST SWAP3 SWAP2 POP POP JUMP JUMPDEST PUSH32 0x47616D6520686173206E6F7420656E6465642079657400000000000000000000 PUSH0 DUP3 ADD MSTORE POP JUMP JUMPDEST PUSH0 PUSH2 0xB24 PUSH1 0x16 DUP4 PUSH2 0x98A JUMP JUMPDEST SWAP2 POP PUSH2 0xB2F DUP3 PUSH2 0xAF0 JUMP JUMPDEST PUSH1 0x20 DUP3 ADD SWAP1 POP SWAP2 SWAP1 POP JUMP JUMPDEST PUSH0 PUSH1 0x20 DUP3 ADD SWAP1 POP DUP2 DUP2 SUB PUSH0 DUP4 ADD MSTORE PUSH2 0xB51 DUP2 PUSH2 0xB18 JUMP JUMPDEST SWAP1 POP SWAP2 SWAP1 POP JUMP JUMPDEST PUSH32 0x43757272656E742067616D65206973207374696C6C2061637469766500000000 PUSH0 DUP3 ADD MSTORE POP JUMP JUMPDEST PUSH0 PUSH2 0xB8C PUSH1 0x1C DUP4 PUSH2 0x98A JUMP JUMPDEST SWAP2 POP PUSH2 0xB97 DUP3 PUSH2 0xB58 JUMP JUMPDEST PUSH1 0x20 DUP3 ADD SWAP1 POP SWAP2 SWAP1 POP JUMP JUMPDEST PUSH0 PUSH1 0x20 DUP3 ADD SWAP1 POP DUP2 DUP2 SUB PUSH0 DUP4 ADD MSTORE PUSH2 0xBB9 DUP2 PUSH2 0xB80 JUMP JUMPDEST SWAP1 POP SWAP2 SWAP1 POP JUMP JUMPDEST PUSH0 PUSH2 0xBCA DUP3 PUSH2 0x8CD JUMP JUMPDEST SWAP2 POP PUSH32 0xFFFFFFFFFFFFFFFFFFFFFFFFFFFFFFFFFFFFFFFFFFFFFFFFFFFFFFFFFFFFFFFF DUP3 SUB PUSH2 0xBFC JUMPI PUSH2 0xBFB PUSH2 0xA90 JUMP JUMPDEST JUMPDEST PUSH1 0x1 DUP3 ADD SWAP1 POP SWAP2 SWAP1 POP JUMP JUMPDEST PUSH32 0x47616D652068617320656E646564000000000000000000000000000000000000 PUSH0 DUP3 ADD MSTORE POP JUMP JUMPDEST PUSH0 PUSH2 0xC3B PUSH1 0xE DUP4 PUSH2 0x98A JUMP JUMPDEST SWAP2 POP PUSH2 0xC46 DUP3 PUSH2 0xC07 JUMP JUMPDEST PUSH1 0x20 DUP3 ADD SWAP1 POP SWAP2 SWAP1 POP JUMP JUMPDEST PUSH0 PUSH1 0x20 DUP3 ADD SWAP1 POP DUP2 DUP2 SUB PUSH0 DUP4 ADD MSTORE PUSH2 0xC68 DUP2 PUSH2 0xC2F JUMP JUMPDEST SWAP1 POP SWAP2 SWAP1 POP JUMP JUMPDEST PUSH0 DUP2 PUSH1 0x60 SHL SWAP1 POP SWAP2 SWAP1 POP JUMP JUMPDEST PUSH0 PUSH2 0xC85 DUP3 PUSH2 0xC6F JUMP JUMPDEST SWAP1 POP SWAP2 SWAP1 POP JUMP JUMPDEST PUSH0 PUSH2 0xC96 DUP3 PUSH2 0xC7B JUMP JUMPDEST SWAP1 POP SWAP2 SWAP1 POP JUMP JUMPDEST PUSH2 0xCAE PUSH2 0xCA9 DUP3 PUSH2 0x894 JUMP JUMPDEST PUSH2 0xC8C JUMP JUMPDEST DUP3 MSTORE POP POP JUMP JUMPDEST PUSH0 DUP2 SWAP1 POP SWAP2 SWAP1 POP JUMP JUMPDEST PUSH2 0xCCE PUSH2 0xCC9 DUP3 PUSH2 0x8CD JUMP JUMPDEST PUSH2 0xCB4 JUMP JUMPDEST DUP3 MSTORE POP POP JUMP JUMPDEST PUSH0 PUSH2 0xCDF DUP3 DUP6 PUSH2 0xC9D JUMP JUMPDEST PUSH1 0x14 DUP3 ADD SWAP2 POP PUSH2 0xCEF DUP3 DUP5 PUSH2 0xCBD JUMP JUMPDEST PUSH1 0x20 DUP3 ADD SWAP2 POP DUP2 SWAP1 POP SWAP4 SWAP3 POP POP POP JUMP INVALID LOG2 PUSH5 0x6970667358 0x22 SLT KECCAK256 EQ 0x25 0x2C 0x26 RETURNDATASIZE 0xAF AND SWAP2 LOG0 PUSH20 0x7F38F8BA474117E0FCEDC9CA04A200D264081E3 0xBB 0xDE PUSH5 0x736F6C6343 STOP ADDMOD BYTE STOP CALLER "
				},
				"gasEstimates": {
					"creation": {
						"codeDepositCost": "676200",
						"executionCost": "24971",
						"totalCost": "701171"
					},
					"external": {
						"currentMinAddress()": "2532",
						"currentMinHash()": "2493",
						"endGame()": "infinite",
						"epochId()": "2514",
						"gameActive()": "2532",
						"gameDuration()": "2447",
						"gameStartBlock()": "2471",
						"getCurrentEpoch()": "2455",
						"getCurrentMinAddress()": "2559",
						"getCurrentMinHash()": "2499",
						"getWinner()": "2633",
						"iambestone()": "infinite",
						"owner()": "2550",
						"startNewGame(uint256)": "infinite",
						"winner()": "2648"
					}
				},
				"methodIdentifiers": {
					"currentMinAddress()": "0d7d5599",
					"currentMinHash()": "58830d6c",
					"endGame()": "6cbc2ded",
					"epochId()": "aa9bbc0c",
					"gameActive()": "f020044f",
					"gameDuration()": "e1f0c376",
					"gameStartBlock()": "3804c73d",
					"getCurrentEpoch()": "b97dd9e2",
					"getCurrentMinAddress()": "efc29372",
					"getCurrentMinHash()": "d94504b9",
					"getWinner()": "8e7ea5b2",
					"iambestone()": "fd636322",
					"owner()": "8da5cb5b",
					"startNewGame(uint256)": "d3738014",
					"winner()": "dfbf53ae"
				}
			},
			"storageLayout": {
				"storage": [
					{
						"astId": 3,
						"contract": "contracts/MinHashCameContract_v2.sol:MinHashGameContract",
						"label": "owner",
						"offset": 0,
						"slot": "0",
						"type": "t_address"
					},
					{
						"astId": 5,
						"contract": "contracts/MinHashCameContract_v2.sol:MinHashGameContract",
						"label": "epochId",
						"offset": 0,
						"slot": "1",
						"type": "t_uint256"
					},
					{
						"astId": 7,
						"contract": "contracts/MinHashCameContract_v2.sol:MinHashGameContract",
						"label": "gameStartBlock",
						"offset": 0,
						"slot": "2",
						"type": "t_uint256"
					},
					{
						"astId": 9,
						"contract": "contracts/MinHashCameContract_v2.sol:MinHashGameContract",
						"label": "gameDuration",
						"offset": 0,
						"slot": "3",
						"type": "t_uint256"
					},
					{
						"astId": 11,
						"contract": "contracts/MinHashCameContract_v2.sol:MinHashGameContract",
						"label": "currentMinAddress",
						"offset": 0,
						"slot": "4",
						"type": "t_address"
					},
					{
						"astId": 13,
						"contract": "contracts/MinHashCameContract_v2.sol:MinHashGameContract",
						"label": "currentMinHash",
						"offset": 0,
						"slot": "5",
						"type": "t_uint256"
					},
					{
						"astId": 15,
						"contract": "contracts/MinHashCameContract_v2.sol:MinHashGameContract",
						"label": "gameActive",
						"offset": 0,
						"slot": "6",
						"type": "t_bool"
					},
					{
						"astId": 17,
						"contract": "contracts/MinHashCameContract_v2.sol:MinHashGameContract",
						"label": "winner",
						"offset": 1,
						"slot": "6",
						"type": "t_address"
					}
				],
				"types": {
					"t_address": {
						"encoding": "inplace",
						"label": "address",
						"numberOfBytes": "20"
					},
					"t_bool": {
						"encoding": "inplace",
						"label": "bool",
						"numberOfBytes": "1"
					},
					"t_uint256": {
						"encoding": "inplace",
						"label": "uint256",
						"numberOfBytes": "32"
					}
				}
			},
			"userdoc": {
				"kind": "user",
				"methods": {},
				"version": 1
			}
		}
	}
}