{
	"contracts/MinHashGameContarct_v1.sol": {
		"MinHashGameContract": {
			"abi": [
				{
					"inputs": [
						{
							"internalType": "uint256",
							"name": "_gameDuration",
							"type": "uint256"
						}
					],
					"stateMutability": "nonpayable",
					"type": "constructor"
				},
				{
					"inputs": [],
					"name": "currentMinAddress",
					"outputs": [
						{
							"internalType": "address",
							"name": "",
							"type": "address"
						}
					],
					"stateMutability": "view",
					"type": "function"
				},
				{
					"inputs": [],
					"name": "currentMinHash",
					"outputs": [
						{
							"internalType": "uint256",
							"name": "",
							"type": "uint256"
						}
					],
					"stateMutability": "view",
					"type": "function"
				},
				{
					"inputs": [],
					"name": "epochId",
					"outputs": [
						{
							"internalType": "uint256",
							"name": "",
							"type": "uint256"
						}
					],
					"stateMutability": "view",
					"type": "function"
				},
				{
					"inputs": [],
					"name": "gameDuration",
					"outputs": [
						{
							"internalType": "uint256",
							"name": "",
							"type": "uint256"
						}
					],
					"stateMutability": "view",
					"type": "function"
				},
				{
					"inputs": [],
					"name": "gameStartBlock",
					"outputs": [
						{
							"internalType": "uint256",
							"name": "",
							"type": "uint256"
						}
					],
					"stateMutability": "view",
					"type": "function"
				},
				{
					"inputs": [],
					"name": "getCurrentMinAddress",
					"outputs": [
						{
							"internalType": "address",
							"name": "",
							"type": "address"
						}
					],
					"stateMutability": "view",
					"type": "function"
				},
				{
					"inputs": [],
					"name": "getCurrentMinHash",
					"outputs": [
						{
							"internalType": "uint256",
							"name": "",
							"type": "uint256"
						}
					],
					"stateMutability": "view",
					"type": "function"
				},
				{
					"inputs": [],
					"name": "iambestone",
					"outputs": [],
					"stateMutability": "nonpayable",
					"type": "function"
				},
				{
					"inputs": [],
					"name": "owner",
					"outputs": [
						{
							"internalType": "address",
							"name": "",
							"type": "address"
						}
					],
					"stateMutability": "view",
					"type": "function"
				}
			],
			"devdoc": {
				"kind": "dev",
				"methods": {},
				"version": 1
			},
			"evm": {
				"assembly": "    /* \"contracts/MinHashGameContarct_v1.sol\":157:1326  contract MinHashGameContract {... */\n  mstore(0x40, 0x80)\n    /* \"contracts/MinHashGameContarct_v1.sol\":247:248  1 */\n  0x01\n    /* \"contracts/MinHashGameContarct_v1.sol\":222:248  uint256 public epochId = 1 */\n  dup1\n  sstore\n    /* \"contracts/MinHashGameContarct_v1.sol\":406:585  constructor(uint256 _gameDuration) {... */\n  callvalue\n  dup1\n  iszero\n  tag_1\n  jumpi\n  0x00\n  dup1\n  revert\ntag_1:\n  pop\n  mload(0x40)\n  sub(codesize, bytecodeSize)\n  dup1\n  bytecodeSize\n  dup4\n  codecopy\n  dup2\n  dup2\n  add\n  0x40\n  mstore\n  dup2\n  add\n  swap1\n  tag_2\n  swap2\n  swap1\n  tag_3\n  jump\t// in\ntag_2:\n    /* \"contracts/MinHashGameContarct_v1.sol\":460:470  msg.sender */\n  caller\n    /* \"contracts/MinHashGameContarct_v1.sol\":452:457  owner */\n  0x00\n  dup1\n    /* \"contracts/MinHashGameContarct_v1.sol\":452:470  owner = msg.sender */\n  0x0100\n  exp\n  dup2\n  sload\n  dup2\n  0xffffffffffffffffffffffffffffffffffffffff\n  mul\n  not\n  and\n  swap1\n  dup4\n  0xffffffffffffffffffffffffffffffffffffffff\n  and\n  mul\n  or\n  swap1\n  sstore\n  pop\n    /* \"contracts/MinHashGameContarct_v1.sol\":524:537  _gameDuration */\n  dup1\n    /* \"contracts/MinHashGameContarct_v1.sol\":509:521  gameDuration */\n  0x03\n    /* \"contracts/MinHashGameContarct_v1.sol\":509:537  gameDuration = _gameDuration */\n  dup2\n  swap1\n  sstore\n  pop\n    /* \"contracts/MinHashGameContarct_v1.sol\":565:577  block.number */\n  number\n    /* \"contracts/MinHashGameContarct_v1.sol\":548:562  gameStartBlock */\n  0x02\n    /* \"contracts/MinHashGameContarct_v1.sol\":548:577  gameStartBlock = block.number */\n  dup2\n  swap1\n  sstore\n  pop\n    /* \"contracts/MinHashGameContarct_v1.sol\":406:585  constructor(uint256 _gameDuration) {... */\n  pop\n    /* \"contracts/MinHashGameContarct_v1.sol\":157:1326  contract MinHashGameContract {... */\n  jump(tag_6)\n    /* \"#utility.yul\":88:205   */\ntag_8:\n    /* \"#utility.yul\":197:198   */\n  0x00\n    /* \"#utility.yul\":194:195   */\n  dup1\n    /* \"#utility.yul\":187:199   */\n  revert\n    /* \"#utility.yul\":334:411   */\ntag_10:\n    /* \"#utility.yul\":371:378   */\n  0x00\n    /* \"#utility.yul\":400:405   */\n  dup2\n    /* \"#utility.yul\":389:405   */\n  swap1\n  pop\n    /* \"#utility.yul\":334:411   */\n  swap2\n  swap1\n  pop\n  jump\t// out\n    /* \"#utility.yul\":417:539   */\ntag_11:\n    /* \"#utility.yul\":490:514   */\n  tag_19\n    /* \"#utility.yul\":508:513   */\n  dup2\n    /* \"#utility.yul\":490:514   */\n  tag_10\n  jump\t// in\ntag_19:\n    /* \"#utility.yul\":483:488   */\n  dup2\n    /* \"#utility.yul\":480:515   */\n  eq\n    /* \"#utility.yul\":470:533   */\n  tag_20\n  jumpi\n    /* \"#utility.yul\":529:530   */\n  0x00\n    /* \"#utility.yul\":526:527   */\n  dup1\n    /* \"#utility.yul\":519:531   */\n  revert\n    /* \"#utility.yul\":470:533   */\ntag_20:\n    /* \"#utility.yul\":417:539   */\n  pop\n  jump\t// out\n    /* \"#utility.yul\":545:688   */\ntag_12:\n    /* \"#utility.yul\":602:607   */\n  0x00\n    /* \"#utility.yul\":633:639   */\n  dup2\n    /* \"#utility.yul\":627:640   */\n  mload\n    /* \"#utility.yul\":618:640   */\n  swap1\n  pop\n    /* \"#utility.yul\":649:682   */\n  tag_22\n    /* \"#utility.yul\":676:681   */\n  dup2\n    /* \"#utility.yul\":649:682   */\n  tag_11\n  jump\t// in\ntag_22:\n    /* \"#utility.yul\":545:688   */\n  swap3\n  swap2\n  pop\n  pop\n  jump\t// out\n    /* \"#utility.yul\":694:1045   */\ntag_3:\n    /* \"#utility.yul\":764:770   */\n  0x00\n    /* \"#utility.yul\":813:815   */\n  0x20\n    /* \"#utility.yul\":801:810   */\n  dup3\n    /* \"#utility.yul\":792:799   */\n  dup5\n    /* \"#utility.yul\":788:811   */\n  sub\n    /* \"#utility.yul\":784:816   */\n  slt\n    /* \"#utility.yul\":781:900   */\n  iszero\n  tag_24\n  jumpi\n    /* \"#utility.yul\":819:898   */\n  tag_25\n  tag_8\n  jump\t// in\ntag_25:\n    /* \"#utility.yul\":781:900   */\ntag_24:\n    /* \"#utility.yul\":939:940   */\n  0x00\n    /* \"#utility.yul\":964:1028   */\n  tag_26\n    /* \"#utility.yul\":1020:1027   */\n  dup5\n    /* \"#utility.yul\":1011:1017   */\n  dup3\n    /* \"#utility.yul\":1000:1009   */\n  dup6\n    /* \"#utility.yul\":996:1018   */\n  add\n    /* \"#utility.yul\":964:1028   */\n  tag_12\n  jump\t// in\ntag_26:\n    /* \"#utility.yul\":954:1028   */\n  swap2\n  pop\n    /* \"#utility.yul\":910:1038   */\n  pop\n    /* \"#utility.yul\":694:1045   */\n  swap3\n  swap2\n  pop\n  pop\n  jump\t// out\n    /* \"contracts/MinHashGameContarct_v1.sol\":157:1326  contract MinHashGameContract {... */\ntag_6:\n  dataSize(sub_0)\n  dup1\n  dataOffset(sub_0)\n  0x00\n  codecopy\n  0x00\n  return\nstop\n\nsub_0: assembly {\n        /* \"contracts/MinHashGameContarct_v1.sol\":157:1326  contract MinHashGameContract {... */\n      mstore(0x40, 0x80)\n      callvalue\n      dup1\n      iszero\n      tag_1\n      jumpi\n      0x00\n      dup1\n      revert\n    tag_1:\n      pop\n      jumpi(tag_2, lt(calldatasize, 0x04))\n      shr(0xe0, calldataload(0x00))\n      dup1\n      0xaa9bbc0c\n      gt\n      tag_12\n      jumpi\n      dup1\n      0xaa9bbc0c\n      eq\n      tag_7\n      jumpi\n      dup1\n      0xd94504b9\n      eq\n      tag_8\n      jumpi\n      dup1\n      0xe1f0c376\n      eq\n      tag_9\n      jumpi\n      dup1\n      0xefc29372\n      eq\n      tag_10\n      jumpi\n      dup1\n      0xfd636322\n      eq\n      tag_11\n      jumpi\n      jump(tag_2)\n    tag_12:\n      dup1\n      0x0d7d5599\n      eq\n      tag_3\n      jumpi\n      dup1\n      0x3804c73d\n      eq\n      tag_4\n      jumpi\n      dup1\n      0x58830d6c\n      eq\n      tag_5\n      jumpi\n      dup1\n      0x8da5cb5b\n      eq\n      tag_6\n      jumpi\n    tag_2:\n      0x00\n      dup1\n      revert\n        /* \"contracts/MinHashGameContarct_v1.sol\":325:357  address public currentMinAddress */\n    tag_3:\n      tag_13\n      tag_14\n      jump\t// in\n    tag_13:\n      mload(0x40)\n      tag_15\n      swap2\n      swap1\n      tag_16\n      jump\t// in\n    tag_15:\n      mload(0x40)\n      dup1\n      swap2\n      sub\n      swap1\n      return\n        /* \"contracts/MinHashGameContarct_v1.sol\":255:284  uint256 public gameStartBlock */\n    tag_4:\n      tag_17\n      tag_18\n      jump\t// in\n    tag_17:\n      mload(0x40)\n      tag_19\n      swap2\n      swap1\n      tag_20\n      jump\t// in\n    tag_19:\n      mload(0x40)\n      dup1\n      swap2\n      sub\n      swap1\n      return\n        /* \"contracts/MinHashGameContarct_v1.sol\":364:393  uint256 public currentMinHash */\n    tag_5:\n      tag_21\n      tag_22\n      jump\t// in\n    tag_21:\n      mload(0x40)\n      tag_23\n      swap2\n      swap1\n      tag_20\n      jump\t// in\n    tag_23:\n      mload(0x40)\n      dup1\n      swap2\n      sub\n      swap1\n      return\n        /* \"contracts/MinHashGameContarct_v1.sol\":195:215  address public owner */\n    tag_6:\n      tag_24\n      tag_25\n      jump\t// in\n    tag_24:\n      mload(0x40)\n      tag_26\n      swap2\n      swap1\n      tag_16\n      jump\t// in\n    tag_26:\n      mload(0x40)\n      dup1\n      swap2\n      sub\n      swap1\n      return\n        /* \"contracts/MinHashGameContarct_v1.sol\":222:248  uint256 public epochId = 1 */\n    tag_7:\n      tag_27\n      tag_28\n      jump\t// in\n    tag_27:\n      mload(0x40)\n      tag_29\n      swap2\n      swap1\n      tag_20\n      jump\t// in\n    tag_29:\n      mload(0x40)\n      dup1\n      swap2\n      sub\n      swap1\n      return\n        /* \"contracts/MinHashGameContarct_v1.sol\":1224:1323  function getCurrentMinHash() public view returns (uint256) {... */\n    tag_8:\n      tag_30\n      tag_31\n      jump\t// in\n    tag_30:\n      mload(0x40)\n      tag_32\n      swap2\n      swap1\n      tag_20\n      jump\t// in\n    tag_32:\n      mload(0x40)\n      dup1\n      swap2\n      sub\n      swap1\n      return\n        /* \"contracts/MinHashGameContarct_v1.sol\":291:318  uint256 public gameDuration */\n    tag_9:\n      tag_33\n      tag_34\n      jump\t// in\n    tag_33:\n      mload(0x40)\n      tag_35\n      swap2\n      swap1\n      tag_20\n      jump\t// in\n    tag_35:\n      mload(0x40)\n      dup1\n      swap2\n      sub\n      swap1\n      return\n        /* \"contracts/MinHashGameContarct_v1.sol\":1071:1176  function getCurrentMinAddress() public view returns (address) {... */\n    tag_10:\n      tag_36\n      tag_37\n      jump\t// in\n    tag_36:\n      mload(0x40)\n      tag_38\n      swap2\n      swap1\n      tag_16\n      jump\t// in\n    tag_38:\n      mload(0x40)\n      dup1\n      swap2\n      sub\n      swap1\n      return\n        /* \"contracts/MinHashGameContarct_v1.sol\":597:1026  function iambestone() public {... */\n    tag_11:\n      tag_39\n      tag_40\n      jump\t// in\n    tag_39:\n      stop\n        /* \"contracts/MinHashGameContarct_v1.sol\":325:357  address public currentMinAddress */\n    tag_14:\n      0x04\n      0x00\n      swap1\n      sload\n      swap1\n      0x0100\n      exp\n      swap1\n      div\n      0xffffffffffffffffffffffffffffffffffffffff\n      and\n      dup2\n      jump\t// out\n        /* \"contracts/MinHashGameContarct_v1.sol\":255:284  uint256 public gameStartBlock */\n    tag_18:\n      sload(0x02)\n      dup2\n      jump\t// out\n        /* \"contracts/MinHashGameContarct_v1.sol\":364:393  uint256 public currentMinHash */\n    tag_22:\n      sload(0x05)\n      dup2\n      jump\t// out\n        /* \"contracts/MinHashGameContarct_v1.sol\":195:215  address public owner */\n    tag_25:\n      0x00\n      dup1\n      sload\n      swap1\n      0x0100\n      exp\n      swap1\n      div\n      0xffffffffffffffffffffffffffffffffffffffff\n      and\n      dup2\n      jump\t// out\n        /* \"contracts/MinHashGameContarct_v1.sol\":222:248  uint256 public epochId = 1 */\n    tag_28:\n      sload(0x01)\n      dup2\n      jump\t// out\n        /* \"contracts/MinHashGameContarct_v1.sol\":1224:1323  function getCurrentMinHash() public view returns (uint256) {... */\n    tag_31:\n        /* \"contracts/MinHashGameContarct_v1.sol\":1274:1281  uint256 */\n      0x00\n        /* \"contracts/MinHashGameContarct_v1.sol\":1301:1315  currentMinHash */\n      sload(0x05)\n        /* \"contracts/MinHashGameContarct_v1.sol\":1294:1315  return currentMinHash */\n      swap1\n      pop\n        /* \"contracts/MinHashGameContarct_v1.sol\":1224:1323  function getCurrentMinHash() public view returns (uint256) {... */\n      swap1\n      jump\t// out\n        /* \"contracts/MinHashGameContarct_v1.sol\":291:318  uint256 public gameDuration */\n    tag_34:\n      sload(0x03)\n      dup2\n      jump\t// out\n        /* \"contracts/MinHashGameContarct_v1.sol\":1071:1176  function getCurrentMinAddress() public view returns (address) {... */\n    tag_37:\n        /* \"contracts/MinHashGameContarct_v1.sol\":1124:1131  address */\n      0x00\n        /* \"contracts/MinHashGameContarct_v1.sol\":1151:1168  currentMinAddress */\n      0x04\n      0x00\n      swap1\n      sload\n      swap1\n      0x0100\n      exp\n      swap1\n      div\n      0xffffffffffffffffffffffffffffffffffffffff\n      and\n        /* \"contracts/MinHashGameContarct_v1.sol\":1144:1168  return currentMinAddress */\n      swap1\n      pop\n        /* \"contracts/MinHashGameContarct_v1.sol\":1071:1176  function getCurrentMinAddress() public view returns (address) {... */\n      swap1\n      jump\t// out\n        /* \"contracts/MinHashGameContarct_v1.sol\":597:1026  function iambestone() public {... */\n    tag_40:\n        /* \"contracts/MinHashGameContarct_v1.sol\":677:689  gameDuration */\n      sload(0x03)\n        /* \"contracts/MinHashGameContarct_v1.sol\":660:674  gameStartBlock */\n      sload(0x02)\n        /* \"contracts/MinHashGameContarct_v1.sol\":660:689  gameStartBlock + gameDuration */\n      tag_44\n      swap2\n      swap1\n      tag_45\n      jump\t// in\n    tag_44:\n        /* \"contracts/MinHashGameContarct_v1.sol\":645:657  block.number */\n      number\n        /* \"contracts/MinHashGameContarct_v1.sol\":645:689  block.number < gameStartBlock + gameDuration */\n      lt\n        /* \"contracts/MinHashGameContarct_v1.sol\":637:708  require(block.number < gameStartBlock + gameDuration, \"Game has ended\") */\n      tag_46\n      jumpi\n      mload(0x40)\n      0x08c379a000000000000000000000000000000000000000000000000000000000\n      dup2\n      mstore\n      0x04\n      add\n      tag_47\n      swap1\n      tag_48\n      jump\t// in\n    tag_47:\n      mload(0x40)\n      dup1\n      swap2\n      sub\n      swap1\n      revert\n    tag_46:\n        /* \"contracts/MinHashGameContarct_v1.sol\":753:771  uint256 playerHash */\n      0x00\n        /* \"contracts/MinHashGameContarct_v1.sol\":809:819  msg.sender */\n      caller\n        /* \"contracts/MinHashGameContarct_v1.sol\":821:828  epochId */\n      sload(0x01)\n        /* \"contracts/MinHashGameContarct_v1.sol\":792:829  abi.encodePacked(msg.sender, epochId) */\n      add(0x20, mload(0x40))\n      tag_49\n      swap3\n      swap2\n      swap1\n      tag_50\n      jump\t// in\n    tag_49:\n      mload(0x40)\n      0x20\n      dup2\n      dup4\n      sub\n      sub\n      dup2\n      mstore\n      swap1\n      0x40\n      mstore\n        /* \"contracts/MinHashGameContarct_v1.sol\":782:830  keccak256(abi.encodePacked(msg.sender, epochId)) */\n      dup1\n      mload\n      swap1\n      0x20\n      add\n      keccak256\n        /* \"contracts/MinHashGameContarct_v1.sol\":774:831  uint256(keccak256(abi.encodePacked(msg.sender, epochId))) */\n      0x00\n      shr\n        /* \"contracts/MinHashGameContarct_v1.sol\":753:831  uint256 playerHash = uint256(keccak256(abi.encodePacked(msg.sender, epochId))) */\n      swap1\n      pop\n        /* \"contracts/MinHashGameContarct_v1.sol\":885:886  0 */\n      0x00\n        /* \"contracts/MinHashGameContarct_v1.sol\":856:887  currentMinAddress == address(0) */\n      0xffffffffffffffffffffffffffffffffffffffff\n      and\n        /* \"contracts/MinHashGameContarct_v1.sol\":856:873  currentMinAddress */\n      0x04\n      0x00\n      swap1\n      sload\n      swap1\n      0x0100\n      exp\n      swap1\n      div\n      0xffffffffffffffffffffffffffffffffffffffff\n      and\n        /* \"contracts/MinHashGameContarct_v1.sol\":856:887  currentMinAddress == address(0) */\n      0xffffffffffffffffffffffffffffffffffffffff\n      and\n      eq\n        /* \"contracts/MinHashGameContarct_v1.sol\":856:918  currentMinAddress == address(0) || playerHash < currentMinHash */\n      dup1\n      tag_51\n      jumpi\n      pop\n        /* \"contracts/MinHashGameContarct_v1.sol\":904:918  currentMinHash */\n      sload(0x05)\n        /* \"contracts/MinHashGameContarct_v1.sol\":891:901  playerHash */\n      dup2\n        /* \"contracts/MinHashGameContarct_v1.sol\":891:918  playerHash < currentMinHash */\n      lt\n        /* \"contracts/MinHashGameContarct_v1.sol\":856:918  currentMinAddress == address(0) || playerHash < currentMinHash */\n    tag_51:\n        /* \"contracts/MinHashGameContarct_v1.sol\":852:1019  if (currentMinAddress == address(0) || playerHash < currentMinHash) {... */\n      iszero\n      tag_52\n      jumpi\n        /* \"contracts/MinHashGameContarct_v1.sol\":955:965  msg.sender */\n      caller\n        /* \"contracts/MinHashGameContarct_v1.sol\":935:952  currentMinAddress */\n      0x04\n      0x00\n        /* \"contracts/MinHashGameContarct_v1.sol\":935:965  currentMinAddress = msg.sender */\n      0x0100\n      exp\n      dup2\n      sload\n      dup2\n      0xffffffffffffffffffffffffffffffffffffffff\n      mul\n      not\n      and\n      swap1\n      dup4\n      0xffffffffffffffffffffffffffffffffffffffff\n      and\n      mul\n      or\n      swap1\n      sstore\n      pop\n        /* \"contracts/MinHashGameContarct_v1.sol\":997:1007  playerHash */\n      dup1\n        /* \"contracts/MinHashGameContarct_v1.sol\":980:994  currentMinHash */\n      0x05\n        /* \"contracts/MinHashGameContarct_v1.sol\":980:1007  currentMinHash = playerHash */\n      dup2\n      swap1\n      sstore\n      pop\n        /* \"contracts/MinHashGameContarct_v1.sol\":852:1019  if (currentMinAddress == address(0) || playerHash < currentMinHash) {... */\n    tag_52:\n        /* \"contracts/MinHashGameContarct_v1.sol\":626:1026  {... */\n      pop\n        /* \"contracts/MinHashGameContarct_v1.sol\":597:1026  function iambestone() public {... */\n      jump\t// out\n        /* \"#utility.yul\":7:133   */\n    tag_53:\n        /* \"#utility.yul\":44:51   */\n      0x00\n        /* \"#utility.yul\":84:126   */\n      0xffffffffffffffffffffffffffffffffffffffff\n        /* \"#utility.yul\":77:82   */\n      dup3\n        /* \"#utility.yul\":73:127   */\n      and\n        /* \"#utility.yul\":62:127   */\n      swap1\n      pop\n        /* \"#utility.yul\":7:133   */\n      swap2\n      swap1\n      pop\n      jump\t// out\n        /* \"#utility.yul\":139:235   */\n    tag_54:\n        /* \"#utility.yul\":176:183   */\n      0x00\n        /* \"#utility.yul\":205:229   */\n      tag_71\n        /* \"#utility.yul\":223:228   */\n      dup3\n        /* \"#utility.yul\":205:229   */\n      tag_53\n      jump\t// in\n    tag_71:\n        /* \"#utility.yul\":194:229   */\n      swap1\n      pop\n        /* \"#utility.yul\":139:235   */\n      swap2\n      swap1\n      pop\n      jump\t// out\n        /* \"#utility.yul\":241:359   */\n    tag_55:\n        /* \"#utility.yul\":328:352   */\n      tag_73\n        /* \"#utility.yul\":346:351   */\n      dup2\n        /* \"#utility.yul\":328:352   */\n      tag_54\n      jump\t// in\n    tag_73:\n        /* \"#utility.yul\":323:326   */\n      dup3\n        /* \"#utility.yul\":316:353   */\n      mstore\n        /* \"#utility.yul\":241:359   */\n      pop\n      pop\n      jump\t// out\n        /* \"#utility.yul\":365:587   */\n    tag_16:\n        /* \"#utility.yul\":458:462   */\n      0x00\n        /* \"#utility.yul\":496:498   */\n      0x20\n        /* \"#utility.yul\":485:494   */\n      dup3\n        /* \"#utility.yul\":481:499   */\n      add\n        /* \"#utility.yul\":473:499   */\n      swap1\n      pop\n        /* \"#utility.yul\":509:580   */\n      tag_75\n        /* \"#utility.yul\":577:578   */\n      0x00\n        /* \"#utility.yul\":566:575   */\n      dup4\n        /* \"#utility.yul\":562:579   */\n      add\n        /* \"#utility.yul\":553:559   */\n      dup5\n        /* \"#utility.yul\":509:580   */\n      tag_55\n      jump\t// in\n    tag_75:\n        /* \"#utility.yul\":365:587   */\n      swap3\n      swap2\n      pop\n      pop\n      jump\t// out\n        /* \"#utility.yul\":593:670   */\n    tag_56:\n        /* \"#utility.yul\":630:637   */\n      0x00\n        /* \"#utility.yul\":659:664   */\n      dup2\n        /* \"#utility.yul\":648:664   */\n      swap1\n      pop\n        /* \"#utility.yul\":593:670   */\n      swap2\n      swap1\n      pop\n      jump\t// out\n        /* \"#utility.yul\":676:794   */\n    tag_57:\n        /* \"#utility.yul\":763:787   */\n      tag_78\n        /* \"#utility.yul\":781:786   */\n      dup2\n        /* \"#utility.yul\":763:787   */\n      tag_56\n      jump\t// in\n    tag_78:\n        /* \"#utility.yul\":758:761   */\n      dup3\n        /* \"#utility.yul\":751:788   */\n      mstore\n        /* \"#utility.yul\":676:794   */\n      pop\n      pop\n      jump\t// out\n        /* \"#utility.yul\":800:1022   */\n    tag_20:\n        /* \"#utility.yul\":893:897   */\n      0x00\n        /* \"#utility.yul\":931:933   */\n      0x20\n        /* \"#utility.yul\":920:929   */\n      dup3\n        /* \"#utility.yul\":916:934   */\n      add\n        /* \"#utility.yul\":908:934   */\n      swap1\n      pop\n        /* \"#utility.yul\":944:1015   */\n      tag_80\n        /* \"#utility.yul\":1012:1013   */\n      0x00\n        /* \"#utility.yul\":1001:1010   */\n      dup4\n        /* \"#utility.yul\":997:1014   */\n      add\n        /* \"#utility.yul\":988:994   */\n      dup5\n        /* \"#utility.yul\":944:1015   */\n      tag_57\n      jump\t// in\n    tag_80:\n        /* \"#utility.yul\":800:1022   */\n      swap3\n      swap2\n      pop\n      pop\n      jump\t// out\n        /* \"#utility.yul\":1028:1208   */\n    tag_58:\n        /* \"#utility.yul\":1076:1153   */\n      0x4e487b7100000000000000000000000000000000000000000000000000000000\n        /* \"#utility.yul\":1073:1074   */\n      0x00\n        /* \"#utility.yul\":1066:1154   */\n      mstore\n        /* \"#utility.yul\":1173:1177   */\n      0x11\n        /* \"#utility.yul\":1170:1171   */\n      0x04\n        /* \"#utility.yul\":1163:1178   */\n      mstore\n        /* \"#utility.yul\":1197:1201   */\n      0x24\n        /* \"#utility.yul\":1194:1195   */\n      0x00\n        /* \"#utility.yul\":1187:1202   */\n      revert\n        /* \"#utility.yul\":1214:1405   */\n    tag_45:\n        /* \"#utility.yul\":1254:1257   */\n      0x00\n        /* \"#utility.yul\":1273:1293   */\n      tag_83\n        /* \"#utility.yul\":1291:1292   */\n      dup3\n        /* \"#utility.yul\":1273:1293   */\n      tag_56\n      jump\t// in\n    tag_83:\n        /* \"#utility.yul\":1268:1293   */\n      swap2\n      pop\n        /* \"#utility.yul\":1307:1327   */\n      tag_84\n        /* \"#utility.yul\":1325:1326   */\n      dup4\n        /* \"#utility.yul\":1307:1327   */\n      tag_56\n      jump\t// in\n    tag_84:\n        /* \"#utility.yul\":1302:1327   */\n      swap3\n      pop\n        /* \"#utility.yul\":1350:1351   */\n      dup3\n        /* \"#utility.yul\":1347:1348   */\n      dup3\n        /* \"#utility.yul\":1343:1352   */\n      add\n        /* \"#utility.yul\":1336:1352   */\n      swap1\n      pop\n        /* \"#utility.yul\":1371:1374   */\n      dup1\n        /* \"#utility.yul\":1368:1369   */\n      dup3\n        /* \"#utility.yul\":1365:1375   */\n      gt\n        /* \"#utility.yul\":1362:1398   */\n      iszero\n      tag_85\n      jumpi\n        /* \"#utility.yul\":1378:1396   */\n      tag_86\n      tag_58\n      jump\t// in\n    tag_86:\n        /* \"#utility.yul\":1362:1398   */\n    tag_85:\n        /* \"#utility.yul\":1214:1405   */\n      swap3\n      swap2\n      pop\n      pop\n      jump\t// out\n        /* \"#utility.yul\":1411:1580   */\n    tag_59:\n        /* \"#utility.yul\":1495:1506   */\n      0x00\n        /* \"#utility.yul\":1529:1535   */\n      dup3\n        /* \"#utility.yul\":1524:1527   */\n      dup3\n        /* \"#utility.yul\":1517:1536   */\n      mstore\n        /* \"#utility.yul\":1569:1573   */\n      0x20\n        /* \"#utility.yul\":1564:1567   */\n      dup3\n        /* \"#utility.yul\":1560:1574   */\n      add\n        /* \"#utility.yul\":1545:1574   */\n      swap1\n      pop\n        /* \"#utility.yul\":1411:1580   */\n      swap3\n      swap2\n      pop\n      pop\n      jump\t// out\n        /* \"#utility.yul\":1586:1750   */\n    tag_60:\n        /* \"#utility.yul\":1726:1742   */\n      0x47616d652068617320656e646564000000000000000000000000000000000000\n        /* \"#utility.yul\":1722:1723   */\n      0x00\n        /* \"#utility.yul\":1714:1720   */\n      dup3\n        /* \"#utility.yul\":1710:1724   */\n      add\n        /* \"#utility.yul\":1703:1743   */\n      mstore\n        /* \"#utility.yul\":1586:1750   */\n      pop\n      jump\t// out\n        /* \"#utility.yul\":1756:2122   */\n    tag_61:\n        /* \"#utility.yul\":1898:1901   */\n      0x00\n        /* \"#utility.yul\":1919:1986   */\n      tag_90\n        /* \"#utility.yul\":1983:1985   */\n      0x0e\n        /* \"#utility.yul\":1978:1981   */\n      dup4\n        /* \"#utility.yul\":1919:1986   */\n      tag_59\n      jump\t// in\n    tag_90:\n        /* \"#utility.yul\":1912:1986   */\n      swap2\n      pop\n        /* \"#utility.yul\":1995:2088   */\n      tag_91\n        /* \"#utility.yul\":2084:2087   */\n      dup3\n        /* \"#utility.yul\":1995:2088   */\n      tag_60\n      jump\t// in\n    tag_91:\n        /* \"#utility.yul\":2113:2115   */\n      0x20\n        /* \"#utility.yul\":2108:2111   */\n      dup3\n        /* \"#utility.yul\":2104:2116   */\n      add\n        /* \"#utility.yul\":2097:2116   */\n      swap1\n      pop\n        /* \"#utility.yul\":1756:2122   */\n      swap2\n      swap1\n      pop\n      jump\t// out\n        /* \"#utility.yul\":2128:2547   */\n    tag_48:\n        /* \"#utility.yul\":2294:2298   */\n      0x00\n        /* \"#utility.yul\":2332:2334   */\n      0x20\n        /* \"#utility.yul\":2321:2330   */\n      dup3\n        /* \"#utility.yul\":2317:2335   */\n      add\n        /* \"#utility.yul\":2309:2335   */\n      swap1\n      pop\n        /* \"#utility.yul\":2381:2390   */\n      dup2\n        /* \"#utility.yul\":2375:2379   */\n      dup2\n        /* \"#utility.yul\":2371:2391   */\n      sub\n        /* \"#utility.yul\":2367:2368   */\n      0x00\n        /* \"#utility.yul\":2356:2365   */\n      dup4\n        /* \"#utility.yul\":2352:2369   */\n      add\n        /* \"#utility.yul\":2345:2392   */\n      mstore\n        /* \"#utility.yul\":2409:2540   */\n      tag_93\n        /* \"#utility.yul\":2535:2539   */\n      dup2\n        /* \"#utility.yul\":2409:2540   */\n      tag_61\n      jump\t// in\n    tag_93:\n        /* \"#utility.yul\":2401:2540   */\n      swap1\n      pop\n        /* \"#utility.yul\":2128:2547   */\n      swap2\n      swap1\n      pop\n      jump\t// out\n        /* \"#utility.yul\":2553:2647   */\n    tag_62:\n        /* \"#utility.yul\":2586:2594   */\n      0x00\n        /* \"#utility.yul\":2634:2639   */\n      dup2\n        /* \"#utility.yul\":2630:2632   */\n      0x60\n        /* \"#utility.yul\":2626:2640   */\n      shl\n        /* \"#utility.yul\":2605:2640   */\n      swap1\n      pop\n        /* \"#utility.yul\":2553:2647   */\n      swap2\n      swap1\n      pop\n      jump\t// out\n        /* \"#utility.yul\":2653:2747   */\n    tag_63:\n        /* \"#utility.yul\":2692:2699   */\n      0x00\n        /* \"#utility.yul\":2721:2741   */\n      tag_96\n        /* \"#utility.yul\":2735:2740   */\n      dup3\n        /* \"#utility.yul\":2721:2741   */\n      tag_62\n      jump\t// in\n    tag_96:\n        /* \"#utility.yul\":2710:2741   */\n      swap1\n      pop\n        /* \"#utility.yul\":2653:2747   */\n      swap2\n      swap1\n      pop\n      jump\t// out\n        /* \"#utility.yul\":2753:2853   */\n    tag_64:\n        /* \"#utility.yul\":2792:2799   */\n      0x00\n        /* \"#utility.yul\":2821:2847   */\n      tag_98\n        /* \"#utility.yul\":2841:2846   */\n      dup3\n        /* \"#utility.yul\":2821:2847   */\n      tag_63\n      jump\t// in\n    tag_98:\n        /* \"#utility.yul\":2810:2847   */\n      swap1\n      pop\n        /* \"#utility.yul\":2753:2853   */\n      swap2\n      swap1\n      pop\n      jump\t// out\n        /* \"#utility.yul\":2859:3016   */\n    tag_65:\n        /* \"#utility.yul\":2964:3009   */\n      tag_100\n        /* \"#utility.yul\":2984:3008   */\n      tag_101\n        /* \"#utility.yul\":3002:3007   */\n      dup3\n        /* \"#utility.yul\":2984:3008   */\n      tag_54\n      jump\t// in\n    tag_101:\n        /* \"#utility.yul\":2964:3009   */\n      tag_64\n      jump\t// in\n    tag_100:\n        /* \"#utility.yul\":2959:2962   */\n      dup3\n        /* \"#utility.yul\":2952:3010   */\n      mstore\n        /* \"#utility.yul\":2859:3016   */\n      pop\n      pop\n      jump\t// out\n        /* \"#utility.yul\":3022:3101   */\n    tag_66:\n        /* \"#utility.yul\":3061:3068   */\n      0x00\n        /* \"#utility.yul\":3090:3095   */\n      dup2\n        /* \"#utility.yul\":3079:3095   */\n      swap1\n      pop\n        /* \"#utility.yul\":3022:3101   */\n      swap2\n      swap1\n      pop\n      jump\t// out\n        /* \"#utility.yul\":3107:3264   */\n    tag_67:\n        /* \"#utility.yul\":3212:3257   */\n      tag_104\n        /* \"#utility.yul\":3232:3256   */\n      tag_105\n        /* \"#utility.yul\":3250:3255   */\n      dup3\n        /* \"#utility.yul\":3232:3256   */\n      tag_56\n      jump\t// in\n    tag_105:\n        /* \"#utility.yul\":3212:3257   */\n      tag_66\n      jump\t// in\n    tag_104:\n        /* \"#utility.yul\":3207:3210   */\n      dup3\n        /* \"#utility.yul\":3200:3258   */\n      mstore\n        /* \"#utility.yul\":3107:3264   */\n      pop\n      pop\n      jump\t// out\n        /* \"#utility.yul\":3270:3667   */\n    tag_50:\n        /* \"#utility.yul\":3410:3413   */\n      0x00\n        /* \"#utility.yul\":3425:3500   */\n      tag_107\n        /* \"#utility.yul\":3496:3499   */\n      dup3\n        /* \"#utility.yul\":3487:3493   */\n      dup6\n        /* \"#utility.yul\":3425:3500   */\n      tag_65\n      jump\t// in\n    tag_107:\n        /* \"#utility.yul\":3525:3527   */\n      0x14\n        /* \"#utility.yul\":3520:3523   */\n      dup3\n        /* \"#utility.yul\":3516:3528   */\n      add\n        /* \"#utility.yul\":3509:3528   */\n      swap2\n      pop\n        /* \"#utility.yul\":3538:3613   */\n      tag_108\n        /* \"#utility.yul\":3609:3612   */\n      dup3\n        /* \"#utility.yul\":3600:3606   */\n      dup5\n        /* \"#utility.yul\":3538:3613   */\n      tag_67\n      jump\t// in\n    tag_108:\n        /* \"#utility.yul\":3638:3640   */\n      0x20\n        /* \"#utility.yul\":3633:3636   */\n      dup3\n        /* \"#utility.yul\":3629:3641   */\n      add\n        /* \"#utility.yul\":3622:3641   */\n      swap2\n      pop\n        /* \"#utility.yul\":3658:3661   */\n      dup2\n        /* \"#utility.yul\":3651:3661   */\n      swap1\n      pop\n        /* \"#utility.yul\":3270:3667   */\n      swap4\n      swap3\n      pop\n      pop\n      pop\n      jump\t// out\n\n    auxdata: 0xa264697066735822122010836bfa28a8082dd83e588aaae8e568a9fbc7252e5776c12673a5aa1545c9d964736f6c634300081a0033\n}\n",
				"bytecode": {
					"linkReferences": {},
					"object": "608060405260018055348015610013575f80fd5b5060405161066b38038061066b833981810160405281019061003591906100bf565b335f806101000a81548173ffffffffffffffffffffffffffffffffffffffff021916908373ffffffffffffffffffffffffffffffffffffffff1602179055508060038190555043600281905550506100ea565b5f80fd5b5f819050919050565b61009e8161008c565b81146100a8575f80fd5b50565b5f815190506100b981610095565b92915050565b5f602082840312156100d4576100d3610088565b5b5f6100e1848285016100ab565b91505092915050565b610574806100f75f395ff3fe608060405234801561000f575f80fd5b5060043610610091575f3560e01c8063aa9bbc0c11610064578063aa9bbc0c1461010d578063d94504b91461012b578063e1f0c37614610149578063efc2937214610167578063fd6363221461018557610091565b80630d7d5599146100955780633804c73d146100b357806358830d6c146100d15780638da5cb5b146100ef575b5f80fd5b61009d61018f565b6040516100aa919061038c565b60405180910390f35b6100bb6101b4565b6040516100c891906103bd565b60405180910390f35b6100d96101ba565b6040516100e691906103bd565b60405180910390f35b6100f76101c0565b604051610104919061038c565b60405180910390f35b6101156101e3565b60405161012291906103bd565b60405180910390f35b6101336101e9565b60405161014091906103bd565b60405180910390f35b6101516101f2565b60405161015e91906103bd565b60405180910390f35b61016f6101f8565b60405161017c919061038c565b60405180910390f35b61018d610220565b005b60045f9054906101000a900473ffffffffffffffffffffffffffffffffffffffff1681565b60025481565b60055481565b5f8054906101000a900473ffffffffffffffffffffffffffffffffffffffff1681565b60015481565b5f600554905090565b60035481565b5f60045f9054906101000a900473ffffffffffffffffffffffffffffffffffffffff16905090565b6003546002546102309190610403565b4310610271576040517f08c379a000000000000000000000000000000000000000000000000000000000815260040161026890610490565b60405180910390fd5b5f33600154604051602001610287929190610513565b604051602081830303815290604052805190602001205f1c90505f73ffffffffffffffffffffffffffffffffffffffff1660045f9054906101000a900473ffffffffffffffffffffffffffffffffffffffff1673ffffffffffffffffffffffffffffffffffffffff1614806102fd575060055481105b1561034a573360045f6101000a81548173ffffffffffffffffffffffffffffffffffffffff021916908373ffffffffffffffffffffffffffffffffffffffff160217905550806005819055505b50565b5f73ffffffffffffffffffffffffffffffffffffffff82169050919050565b5f6103768261034d565b9050919050565b6103868161036c565b82525050565b5f60208201905061039f5f83018461037d565b92915050565b5f819050919050565b6103b7816103a5565b82525050565b5f6020820190506103d05f8301846103ae565b92915050565b7f4e487b71000000000000000000000000000000000000000000000000000000005f52601160045260245ffd5b5f61040d826103a5565b9150610418836103a5565b92508282019050808211156104305761042f6103d6565b5b92915050565b5f82825260208201905092915050565b7f47616d652068617320656e6465640000000000000000000000000000000000005f82015250565b5f61047a600e83610436565b915061048582610446565b602082019050919050565b5f6020820190508181035f8301526104a78161046e565b9050919050565b5f8160601b9050919050565b5f6104c4826104ae565b9050919050565b5f6104d5826104ba565b9050919050565b6104ed6104e88261036c565b6104cb565b82525050565b5f819050919050565b61050d610508826103a5565b6104f3565b82525050565b5f61051e82856104dc565b60148201915061052e82846104fc565b602082019150819050939250505056fea264697066735822122010836bfa28a8082dd83e588aaae8e568a9fbc7252e5776c12673a5aa1545c9d964736f6c634300081a0033",
					"opcodes": "PUSH1 0x80 PUSH1 0x40 MSTORE PUSH1 0x1 DUP1 SSTORE CALLVALUE DUP1 ISZERO PUSH2 0x13 JUMPI PUSH0 DUP1 REVERT JUMPDEST POP PUSH1 0x40 MLOAD PUSH2 0x66B CODESIZE SUB DUP1 PUSH2 0x66B DUP4 CODECOPY DUP2 DUP2 ADD PUSH1 0x40 MSTORE DUP2 ADD SWAP1 PUSH2 0x35 SWAP2 SWAP1 PUSH2 0xBF JUMP JUMPDEST CALLER PUSH0 DUP1 PUSH2 0x100 EXP DUP2 SLOAD DUP2 PUSH20 0xFFFFFFFFFFFFFFFFFFFFFFFFFFFFFFFFFFFFFFFF MUL NOT AND SWAP1 DUP4 PUSH20 0xFFFFFFFFFFFFFFFFFFFFFFFFFFFFFFFFFFFFFFFF AND MUL OR SWAP1 SSTORE POP DUP1 PUSH1 0x3 DUP2 SWAP1 SSTORE POP NUMBER PUSH1 0x2 DUP2 SWAP1 SSTORE POP POP PUSH2 0xEA JUMP JUMPDEST PUSH0 DUP1 REVERT JUMPDEST PUSH0 DUP2 SWAP1 POP SWAP2 SWAP1 POP JUMP JUMPDEST PUSH2 0x9E DUP2 PUSH2 0x8C JUMP JUMPDEST DUP2 EQ PUSH2 0xA8 JUMPI PUSH0 DUP1 REVERT JUMPDEST POP JUMP JUMPDEST PUSH0 DUP2 MLOAD SWAP1 POP PUSH2 0xB9 DUP2 PUSH2 0x95 JUMP JUMPDEST SWAP3 SWAP2 POP POP JUMP JUMPDEST PUSH0 PUSH1 0x20 DUP3 DUP5 SUB SLT ISZERO PUSH2 0xD4 JUMPI PUSH2 0xD3 PUSH2 0x88 JUMP JUMPDEST JUMPDEST PUSH0 PUSH2 0xE1 DUP5 DUP3 DUP6 ADD PUSH2 0xAB JUMP JUMPDEST SWAP2 POP POP SWAP3 SWAP2 POP POP JUMP JUMPDEST PUSH2 0x574 DUP1 PUSH2 0xF7 PUSH0 CODECOPY PUSH0 RETURN INVALID PUSH1 0x80 PUSH1 0x40 MSTORE CALLVALUE DUP1 ISZERO PUSH2 0xF JUMPI PUSH0 DUP1 REVERT JUMPDEST POP PUSH1 0x4 CALLDATASIZE LT PUSH2 0x91 JUMPI PUSH0 CALLDATALOAD PUSH1 0xE0 SHR DUP1 PUSH4 0xAA9BBC0C GT PUSH2 0x64 JUMPI DUP1 PUSH4 0xAA9BBC0C EQ PUSH2 0x10D JUMPI DUP1 PUSH4 0xD94504B9 EQ PUSH2 0x12B JUMPI DUP1 PUSH4 0xE1F0C376 EQ PUSH2 0x149 JUMPI DUP1 PUSH4 0xEFC29372 EQ PUSH2 0x167 JUMPI DUP1 PUSH4 0xFD636322 EQ PUSH2 0x185 JUMPI PUSH2 0x91 JUMP JUMPDEST DUP1 PUSH4 0xD7D5599 EQ PUSH2 0x95 JUMPI DUP1 PUSH4 0x3804C73D EQ PUSH2 0xB3 JUMPI DUP1 PUSH4 0x58830D6C EQ PUSH2 0xD1 JUMPI DUP1 PUSH4 0x8DA5CB5B EQ PUSH2 0xEF JUMPI JUMPDEST PUSH0 DUP1 REVERT JUMPDEST PUSH2 0x9D PUSH2 0x18F JUMP JUMPDEST PUSH1 0x40 MLOAD PUSH2 0xAA SWAP2 SWAP1 PUSH2 0x38C JUMP JUMPDEST PUSH1 0x40 MLOAD DUP1 SWAP2 SUB SWAP1 RETURN JUMPDEST PUSH2 0xBB PUSH2 0x1B4 JUMP JUMPDEST PUSH1 0x40 MLOAD PUSH2 0xC8 SWAP2 SWAP1 PUSH2 0x3BD JUMP JUMPDEST PUSH1 0x40 MLOAD DUP1 SWAP2 SUB SWAP1 RETURN JUMPDEST PUSH2 0xD9 PUSH2 0x1BA JUMP JUMPDEST PUSH1 0x40 MLOAD PUSH2 0xE6 SWAP2 SWAP1 PUSH2 0x3BD JUMP JUMPDEST PUSH1 0x40 MLOAD DUP1 SWAP2 SUB SWAP1 RETURN JUMPDEST PUSH2 0xF7 PUSH2 0x1C0 JUMP JUMPDEST PUSH1 0x40 MLOAD PUSH2 0x104 SWAP2 SWAP1 PUSH2 0x38C JUMP JUMPDEST PUSH1 0x40 MLOAD DUP1 SWAP2 SUB SWAP1 RETURN JUMPDEST PUSH2 0x115 PUSH2 0x1E3 JUMP JUMPDEST PUSH1 0x40 MLOAD PUSH2 0x122 SWAP2 SWAP1 PUSH2 0x3BD JUMP JUMPDEST PUSH1 0x40 MLOAD DUP1 SWAP2 SUB SWAP1 RETURN JUMPDEST PUSH2 0x133 PUSH2 0x1E9 JUMP JUMPDEST PUSH1 0x40 MLOAD PUSH2 0x140 SWAP2 SWAP1 PUSH2 0x3BD JUMP JUMPDEST PUSH1 0x40 MLOAD DUP1 SWAP2 SUB SWAP1 RETURN JUMPDEST PUSH2 0x151 PUSH2 0x1F2 JUMP JUMPDEST PUSH1 0x40 MLOAD PUSH2 0x15E SWAP2 SWAP1 PUSH2 0x3BD JUMP JUMPDEST PUSH1 0x40 MLOAD DUP1 SWAP2 SUB SWAP1 RETURN JUMPDEST PUSH2 0x16F PUSH2 0x1F8 JUMP JUMPDEST PUSH1 0x40 MLOAD PUSH2 0x17C SWAP2 SWAP1 PUSH2 0x38C JUMP JUMPDEST PUSH1 0x40 MLOAD DUP1 SWAP2 SUB SWAP1 RETURN JUMPDEST PUSH2 0x18D PUSH2 0x220 JUMP JUMPDEST STOP JUMPDEST PUSH1 0x4 PUSH0 SWAP1 SLOAD SWAP1 PUSH2 0x100 EXP SWAP1 DIV PUSH20 0xFFFFFFFFFFFFFFFFFFFFFFFFFFFFFFFFFFFFFFFF AND DUP2 JUMP JUMPDEST PUSH1 0x2 SLOAD DUP2 JUMP JUMPDEST PUSH1 0x5 SLOAD DUP2 JUMP JUMPDEST PUSH0 DUP1 SLOAD SWAP1 PUSH2 0x100 EXP SWAP1 DIV PUSH20 0xFFFFFFFFFFFFFFFFFFFFFFFFFFFFFFFFFFFFFFFF AND DUP2 JUMP JUMPDEST PUSH1 0x1 SLOAD DUP2 JUMP JUMPDEST PUSH0 PUSH1 0x5 SLOAD SWAP1 POP SWAP1 JUMP JUMPDEST PUSH1 0x3 SLOAD DUP2 JUMP JUMPDEST PUSH0 PUSH1 0x4 PUSH0 SWAP1 SLOAD SWAP1 PUSH2 0x100 EXP SWAP1 DIV PUSH20 0xFFFFFFFFFFFFFFFFFFFFFFFFFFFFFFFFFFFFFFFF AND SWAP1 POP SWAP1 JUMP JUMPDEST PUSH1 0x3 SLOAD PUSH1 0x2 SLOAD PUSH2 0x230 SWAP2 SWAP1 PUSH2 0x403 JUMP JUMPDEST NUMBER LT PUSH2 0x271 JUMPI PUSH1 0x40 MLOAD PUSH32 0x8C379A000000000000000000000000000000000000000000000000000000000 DUP2 MSTORE PUSH1 0x4 ADD PUSH2 0x268 SWAP1 PUSH2 0x490 JUMP JUMPDEST PUSH1 0x40 MLOAD DUP1 SWAP2 SUB SWAP1 REVERT JUMPDEST PUSH0 CALLER PUSH1 0x1 SLOAD PUSH1 0x40 MLOAD PUSH1 0x20 ADD PUSH2 0x287 SWAP3 SWAP2 SWAP1 PUSH2 0x513 JUMP JUMPDEST PUSH1 0x40 MLOAD PUSH1 0x20 DUP2 DUP4 SUB SUB DUP2 MSTORE SWAP1 PUSH1 0x40 MSTORE DUP1 MLOAD SWAP1 PUSH1 0x20 ADD KECCAK256 PUSH0 SHR SWAP1 POP PUSH0 PUSH20 0xFFFFFFFFFFFFFFFFFFFFFFFFFFFFFFFFFFFFFFFF AND PUSH1 0x4 PUSH0 SWAP1 SLOAD SWAP1 PUSH2 0x100 EXP SWAP1 DIV PUSH20 0xFFFFFFFFFFFFFFFFFFFFFFFFFFFFFFFFFFFFFFFF AND PUSH20 0xFFFFFFFFFFFFFFFFFFFFFFFFFFFFFFFFFFFFFFFF AND EQ DUP1 PUSH2 0x2FD JUMPI POP PUSH1 0x5 SLOAD DUP2 LT JUMPDEST ISZERO PUSH2 0x34A JUMPI CALLER PUSH1 0x4 PUSH0 PUSH2 0x100 EXP DUP2 SLOAD DUP2 PUSH20 0xFFFFFFFFFFFFFFFFFFFFFFFFFFFFFFFFFFFFFFFF MUL NOT AND SWAP1 DUP4 PUSH20 0xFFFFFFFFFFFFFFFFFFFFFFFFFFFFFFFFFFFFFFFF AND MUL OR SWAP1 SSTORE POP DUP1 PUSH1 0x5 DUP2 SWAP1 SSTORE POP JUMPDEST POP JUMP JUMPDEST PUSH0 PUSH20 0xFFFFFFFFFFFFFFFFFFFFFFFFFFFFFFFFFFFFFFFF DUP3 AND SWAP1 POP SWAP2 SWAP1 POP JUMP JUMPDEST PUSH0 PUSH2 0x376 DUP3 PUSH2 0x34D JUMP JUMPDEST SWAP1 POP SWAP2 SWAP1 POP JUMP JUMPDEST PUSH2 0x386 DUP2 PUSH2 0x36C JUMP JUMPDEST DUP3 MSTORE POP POP JUMP JUMPDEST PUSH0 PUSH1 0x20 DUP3 ADD SWAP1 POP PUSH2 0x39F PUSH0 DUP4 ADD DUP5 PUSH2 0x37D JUMP JUMPDEST SWAP3 SWAP2 POP POP JUMP JUMPDEST PUSH0 DUP2 SWAP1 POP SWAP2 SWAP1 POP JUMP JUMPDEST PUSH2 0x3B7 DUP2 PUSH2 0x3A5 JUMP JUMPDEST DUP3 MSTORE POP POP JUMP JUMPDEST PUSH0 PUSH1 0x20 DUP3 ADD SWAP1 POP PUSH2 0x3D0 PUSH0 DUP4 ADD DUP5 PUSH2 0x3AE JUMP JUMPDEST SWAP3 SWAP2 POP POP JUMP JUMPDEST PUSH32 0x4E487B7100000000000000000000000000000000000000000000000000000000 PUSH0 MSTORE PUSH1 0x11 PUSH1 0x4 MSTORE PUSH1 0x24 PUSH0 REVERT JUMPDEST PUSH0 PUSH2 0x40D DUP3 PUSH2 0x3A5 JUMP JUMPDEST SWAP2 POP PUSH2 0x418 DUP4 PUSH2 0x3A5 JUMP JUMPDEST SWAP3 POP DUP3 DUP3 ADD SWAP1 POP DUP1 DUP3 GT ISZERO PUSH2 0x430 JUMPI PUSH2 0x42F PUSH2 0x3D6 JUMP JUMPDEST JUMPDEST SWAP3 SWAP2 POP POP JUMP JUMPDEST PUSH0 DUP3 DUP3 MSTORE PUSH1 0x20 DUP3 ADD SWAP1 POP SWAP3 SWAP2 POP POP JUMP JUMPDEST PUSH32 0x47616D652068617320656E646564000000000000000000000000000000000000 PUSH0 DUP3 ADD MSTORE POP JUMP JUMPDEST PUSH0 PUSH2 0x47A PUSH1 0xE DUP4 PUSH2 0x436 JUMP JUMPDEST SWAP2 POP PUSH2 0x485 DUP3 PUSH2 0x446 JUMP JUMPDEST PUSH1 0x20 DUP3 ADD SWAP1 POP SWAP2 SWAP1 POP JUMP JUMPDEST PUSH0 PUSH1 0x20 DUP3 ADD SWAP1 POP DUP2 DUP2 SUB PUSH0 DUP4 ADD MSTORE PUSH2 0x4A7 DUP2 PUSH2 0x46E JUMP JUMPDEST SWAP1 POP SWAP2 SWAP1 POP JUMP JUMPDEST PUSH0 DUP2 PUSH1 0x60 SHL SWAP1 POP SWAP2 SWAP1 POP JUMP JUMPDEST PUSH0 PUSH2 0x4C4 DUP3 PUSH2 0x4AE JUMP JUMPDEST SWAP1 POP SWAP2 SWAP1 POP JUMP JUMPDEST PUSH0 PUSH2 0x4D5 DUP3 PUSH2 0x4BA JUMP JUMPDEST SWAP1 POP SWAP2 SWAP1 POP JUMP JUMPDEST PUSH2 0x4ED PUSH2 0x4E8 DUP3 PUSH2 0x36C JUMP JUMPDEST PUSH2 0x4CB JUMP JUMPDEST DUP3 MSTORE POP POP JUMP JUMPDEST PUSH0 DUP2 SWAP1 POP SWAP2 SWAP1 POP JUMP JUMPDEST PUSH2 0x50D PUSH2 0x508 DUP3 PUSH2 0x3A5 JUMP JUMPDEST PUSH2 0x4F3 JUMP JUMPDEST DUP3 MSTORE POP POP JUMP JUMPDEST PUSH0 PUSH2 0x51E DUP3 DUP6 PUSH2 0x4DC JUMP JUMPDEST PUSH1 0x14 DUP3 ADD SWAP2 POP PUSH2 0x52E DUP3 DUP5 PUSH2 0x4FC JUMP JUMPDEST PUSH1 0x20 DUP3 ADD SWAP2 POP DUP2 SWAP1 POP SWAP4 SWAP3 POP POP POP JUMP INVALID LOG2 PUSH5 0x6970667358 0x22 SLT KECCAK256 LT DUP4 PUSH12 0xFA28A8082DD83E588AAAE8E5 PUSH9 0xA9FBC7252E5776C126 PUSH20 0xA5AA1545C9D964736F6C634300081A0033000000 "
				},
				"gasEstimates": {
					"creation": {
						"codeDepositCost": "279200",
						"executionCost": "infinite",
						"totalCost": "infinite"
					},
					"external": {
						"currentMinAddress()": "2509",
						"currentMinHash()": "2470",
						"epochId()": "2425",
						"gameDuration()": "2469",
						"gameStartBlock()": "2448",
						"getCurrentMinAddress()": "2581",
						"getCurrentMinHash()": "2454",
						"iambestone()": "infinite",
						"owner()": "2572"
					}
				},
				"methodIdentifiers": {
					"currentMinAddress()": "0d7d5599",
					"currentMinHash()": "58830d6c",
					"epochId()": "aa9bbc0c",
					"gameDuration()": "e1f0c376",
					"gameStartBlock()": "3804c73d",
					"getCurrentMinAddress()": "efc29372",
					"getCurrentMinHash()": "d94504b9",
					"iambestone()": "fd636322",
					"owner()": "8da5cb5b"
				}
			},
			"storageLayout": {
				"storage": [
					{
						"astId": 3,
						"contract": "contracts/MinHashGameContarct_v1.sol:MinHashGameContract",
						"label": "owner",
						"offset": 0,
						"slot": "0",
						"type": "t_address"
					},
					{
						"astId": 6,
						"contract": "contracts/MinHashGameContarct_v1.sol:MinHashGameContract",
						"label": "epochId",
						"offset": 0,
						"slot": "1",
						"type": "t_uint256"
					},
					{
						"astId": 8,
						"contract": "contracts/MinHashGameContarct_v1.sol:MinHashGameContract",
						"label": "gameStartBlock",
						"offset": 0,
						"slot": "2",
						"type": "t_uint256"
					},
					{
						"astId": 10,
						"contract": "contracts/MinHashGameContarct_v1.sol:MinHashGameContract",
						"label": "gameDuration",
						"offset": 0,
						"slot": "3",
						"type": "t_uint256"
					},
					{
						"astId": 12,
						"contract": "contracts/MinHashGameContarct_v1.sol:MinHashGameContract",
						"label": "currentMinAddress",
						"offset": 0,
						"slot": "4",
						"type": "t_address"
					},
					{
						"astId": 14,
						"contract": "contracts/MinHashGameContarct_v1.sol:MinHashGameContract",
						"label": "currentMinHash",
						"offset": 0,
						"slot": "5",
						"type": "t_uint256"
					}
				],
				"types": {
					"t_address": {
						"encoding": "inplace",
						"label": "address",
						"numberOfBytes": "20"
					},
					"t_uint256": {
						"encoding": "inplace",
						"label": "uint256",
						"numberOfBytes": "32"
					}
				}
			},
			"userdoc": {
				"kind": "user",
				"methods": {},
				"version": 1
			}
		}
	}
}