{
  "_format": "hh-sol-artifact-1",
  "contractName": "Kick",
  "sourceName": "contracts/Kick.sol",
  "abi": [
    {
      "anonymous": false,
      "inputs": [
        {
          "indexed": true,
          "internalType": "address",
          "name": "sender",
          "type": "address"
        },
        {
          "indexed": false,
          "internalType": "uint256",
          "name": "count",
          "type": "uint256"
        }
      ],
      "name": "Kicked",
      "type": "event"
    },
    {
      "inputs": [],
      "name": "kick",
      "outputs": [],
      "stateMutability": "nonpayable",
      "type": "function"
    },
    {
      "inputs": [
        {
          "internalType": "address",
          "name": "",
          "type": "address"
        }
      ],
      "name": "kicks",
      "outputs": [
        {
          "internalType": "uint256",
          "name": "",
          "type": "uint256"
        }
      ],
      "stateMutability": "view",
      "type": "function"
    },
    {
      "inputs": [],
      "name": "totalKicks",
      "outputs": [
        {
          "internalType": "uint256",
          "name": "",
          "type": "uint256"
        }
      ],
      "stateMutability": "view",
      "type": "function"
    }
  ],
  "bytecode": "0x6080604052348015600f57600080fd5b5061022d8061001f6000396000f3fe608060405234801561001057600080fd5b50600436106100415760003560e01c806338f1e60a146100465780637a67b479146100615780637e964d891461006b575b600080fd5b61004f60015481565b60405190815260200160405180910390f35b61006961008b565b005b61004f61007936600461017a565b60006020819052908152604090205481565b3233146100f8576040517f08c379a000000000000000000000000000000000000000000000000000000000815260206004820152601f60248201527f4f6e6c7920454f412063616e2063616c6c20746869732066756e6374696f6e00604482015260640160405180910390fd5b3360009081526020819052604081208054600192906101189084906101b7565b92505081905550600180600082825461013191906101b7565b909155505033600081815260208181526040918290205491519182527f8684348ed72cd103be12fcb99e9c5917294a8092ccd4808d1cd7b19daf982991910160405180910390a2565b60006020828403121561018c57600080fd5b813573ffffffffffffffffffffffffffffffffffffffff811681146101b057600080fd5b9392505050565b808201808211156101f1577f4e487b7100000000000000000000000000000000000000000000000000000000600052601160045260246000fd5b9291505056fea2646970667358221220a3c4656c176580eae078e2bcb77cfa34582d13e3eac30c3d67cb2e089459908e64736f6c63430008190033",
  "linkReferences": {},
  "deployedLinkReferences": {}
}